{"abi":[{"inputs":[],"stateMutability":"nonpayable","type":"constructor"},{"anonymous":false,"inputs":[{"indexed":true,"internalType":"address","name":"_owner","type":"address"},{"indexed":true,"internalType":"address","name":"_approved","type":"address"},{"indexed":true,"internalType":"uint256","name":"_tokenId","type":"uint256"}],"name":"Approval","type":"event"},{"anonymous":false,"inputs":[{"indexed":true,"internalType":"address","name":"_owner","type":"address"},{"indexed":true,"internalType":"address","name":"_operator","type":"address"},{"indexed":false,"internalType":"bool","name":"_approved","type":"bool"}],"name":"ApprovalForAll","type":"event"},{"anonymous":false,"inputs":[{"indexed":true,"internalType":"address","name":"_from","type":"address"},{"indexed":true,"internalType":"address","name":"_to","type":"address"},{"indexed":true,"internalType":"uint256","name":"_tokenId","type":"uint256"}],"name":"Transfer","type":"event"},{"inputs":[{"internalType":"address","name":"to","type":"address"},{"internalType":"uint256","name":"tokenId","type":"uint256"}],"name":"approve","outputs":[],"stateMutability":"nonpayable","type":"function"},{"inputs":[{"internalType":"address","name":"owner","type":"address"}],"name":"balanceOf","outputs":[{"internalType":"uint256","name":"","type":"uint256"}],"stateMutability":"view","type":"function"},{"inputs":[{"internalType":"uint256","name":"tokenId","type":"uint256"}],"name":"burnByDeleting","outputs":[],"stateMutability":"nonpayable","type":"function"},{"inputs":[{"internalType":"uint256","name":"tokenId","type":"uint256"}],"name":"burnByTransfering","outputs":[],"stateMutability":"nonpayable","type":"function"},{"inputs":[{"internalType":"uint256","name":"tokenId","type":"uint256"}],"name":"getApproved","outputs":[{"internalType":"address","name":"","type":"address"}],"stateMutability":"view","type":"function"},{"inputs":[{"internalType":"address","name":"owner","type":"address"},{"internalType":"address","name":"operator","type":"address"}],"name":"isApprovedForAll","outputs":[{"internalType":"bool","name":"","type":"bool"}],"stateMutability":"view","type":"function"},{"inputs":[],"name":"name","outputs":[{"internalType":"string","name":"","type":"string"}],"stateMutability":"view","type":"function"},{"inputs":[],"name":"owner","outputs":[{"internalType":"address","name":"","type":"address"}],"stateMutability":"view","type":"function"},{"inputs":[{"internalType":"uint256","name":"tokenId","type":"uint256"}],"name":"ownerOf","outputs":[{"internalType":"address","name":"","type":"address"}],"stateMutability":"view","type":"function"},{"inputs":[{"internalType":"address","name":"to","type":"address"},{"internalType":"string","name":"uri","type":"string"}],"name":"safeMint","outputs":[{"internalType":"uint256","name":"","type":"uint256"}],"stateMutability":"nonpayable","type":"function"},{"inputs":[{"internalType":"address","name":"from","type":"address"},{"internalType":"address","name":"to","type":"address"},{"internalType":"uint256","name":"tokenId","type":"uint256"}],"name":"safeTransferFrom","outputs":[],"stateMutability":"nonpayable","type":"function"},{"inputs":[{"internalType":"address","name":"from","type":"address"},{"internalType":"address","name":"to","type":"address"},{"internalType":"uint256","name":"tokenId","type":"uint256"},{"internalType":"bytes","name":"data","type":"bytes"}],"name":"safeTransferFrom","outputs":[],"stateMutability":"nonpayable","type":"function"},{"inputs":[{"internalType":"address","name":"operator","type":"address"},{"internalType":"bool","name":"approved","type":"bool"}],"name":"setApprovalForAll","outputs":[],"stateMutability":"nonpayable","type":"function"},{"inputs":[{"internalType":"bytes4","name":"interfaceId","type":"bytes4"}],"name":"supportsInterface","outputs":[{"internalType":"bool","name":"","type":"bool"}],"stateMutability":"view","type":"function"},{"inputs":[],"name":"symbol","outputs":[{"internalType":"string","name":"","type":"string"}],"stateMutability":"view","type":"function"},{"inputs":[{"internalType":"uint256","name":"tokenId","type":"uint256"}],"name":"tokenURI","outputs":[{"internalType":"string","name":"","type":"string"}],"stateMutability":"view","type":"function"},{"inputs":[{"internalType":"address","name":"from","type":"address"},{"internalType":"address","name":"to","type":"address"},{"internalType":"uint256","name":"tokenId","type":"uint256"}],"name":"transferFrom","outputs":[],"stateMutability":"nonpayable","type":"function"}],"devdoc":{"kind":"dev","methods":{},"version":1},"evm":{"assembly":"    /* \"SmartContract.sol\":13192:14408  contract NFTCreation is NFT, ERC721URIStorage {... */\n  mstore(0x40, 0x80)\n    /* \"SmartContract.sol\":13274:13275  1 */\n  0x01\n    /* \"SmartContract.sol\":13245:13275  uint private _tokenIdCounter=1 */\n  0x07\n  sstore\n    /* \"SmartContract.sol\":13315:13389  constructor() NFT(\"Warranty\", \"WAR\") {... */\n  callvalue\n  dup1\n  iszero\n  tag_1\n  jumpi\n  0x00\n  dup1\n  revert\ntag_1:\n  pop\n    /* \"SmartContract.sol\":4012:4128  constructor(string memory name_, string memory symbol_) {... */\n  mload(0x40)\n  dup1\n  0x40\n  add\n  0x40\n  mstore\n  dup1\n  0x08\n  dup2\n  mstore\n  0x20\n  add\n  0x57617272616e7479000000000000000000000000000000000000000000000000\n  dup2\n  mstore\n  pop\n  mload(0x40)\n  dup1\n  0x40\n  add\n  0x40\n  mstore\n  dup1\n  0x03\n  dup2\n  mstore\n  0x20\n  add\n  0x5741520000000000000000000000000000000000000000000000000000000000\n  dup2\n  mstore\n  pop\n    /* \"SmartContract.sol\":4087:4092  name_ */\n  dup2\n    /* \"SmartContract.sol\":4079:4084  _name */\n  0x00\n    /* \"SmartContract.sol\":4079:4092  _name = name_ */\n  swap1\n  dup2\n  tag_5\n  swap2\n  swap1\n  tag_6\n  jump\t// in\ntag_5:\n  pop\n    /* \"SmartContract.sol\":4113:4120  symbol_ */\n  dup1\n    /* \"SmartContract.sol\":4103:4110  _symbol */\n  0x01\n    /* \"SmartContract.sol\":4103:4120  _symbol = symbol_ */\n  swap1\n  dup2\n  tag_7\n  swap2\n  swap1\n  tag_6\n  jump\t// in\ntag_7:\n  pop\n    /* \"SmartContract.sol\":4012:4128  constructor(string memory name_, string memory symbol_) {... */\n  pop\n  pop\n    /* \"SmartContract.sol\":13371:13381  msg.sender */\n  caller\n    /* \"SmartContract.sol\":13363:13368  owner */\n  0x08\n  0x00\n    /* \"SmartContract.sol\":13363:13381  owner = msg.sender */\n  0x0100\n  exp\n  dup2\n  sload\n  dup2\n  0xffffffffffffffffffffffffffffffffffffffff\n  mul\n  not\n  and\n  swap1\n  dup4\n  0xffffffffffffffffffffffffffffffffffffffff\n  and\n  mul\n  or\n  swap1\n  sstore\n  pop\n    /* \"SmartContract.sol\":13192:14408  contract NFTCreation is NFT, ERC721URIStorage {... */\n  jump(tag_9)\n    /* \"#utility.yul\":7:106   */\ntag_10:\n    /* \"#utility.yul\":59:65   */\n  0x00\n    /* \"#utility.yul\":93:98   */\n  dup2\n    /* \"#utility.yul\":87:99   */\n  mload\n    /* \"#utility.yul\":77:99   */\n  swap1\n  pop\n    /* \"#utility.yul\":7:106   */\n  swap2\n  swap1\n  pop\n  jump\t// out\n    /* \"#utility.yul\":112:292   */\ntag_11:\n    /* \"#utility.yul\":160:237   */\n  0x4e487b7100000000000000000000000000000000000000000000000000000000\n    /* \"#utility.yul\":157:158   */\n  0x00\n    /* \"#utility.yul\":150:238   */\n  mstore\n    /* \"#utility.yul\":257:261   */\n  0x41\n    /* \"#utility.yul\":254:255   */\n  0x04\n    /* \"#utility.yul\":247:262   */\n  mstore\n    /* \"#utility.yul\":281:285   */\n  0x24\n    /* \"#utility.yul\":278:279   */\n  0x00\n    /* \"#utility.yul\":271:286   */\n  revert\n    /* \"#utility.yul\":298:478   */\ntag_12:\n    /* \"#utility.yul\":346:423   */\n  0x4e487b7100000000000000000000000000000000000000000000000000000000\n    /* \"#utility.yul\":343:344   */\n  0x00\n    /* \"#utility.yul\":336:424   */\n  mstore\n    /* \"#utility.yul\":443:447   */\n  0x22\n    /* \"#utility.yul\":440:441   */\n  0x04\n    /* \"#utility.yul\":433:448   */\n  mstore\n    /* \"#utility.yul\":467:471   */\n  0x24\n    /* \"#utility.yul\":464:465   */\n  0x00\n    /* \"#utility.yul\":457:472   */\n  revert\n    /* \"#utility.yul\":484:804   */\ntag_13:\n    /* \"#utility.yul\":528:534   */\n  0x00\n    /* \"#utility.yul\":565:566   */\n  0x02\n    /* \"#utility.yul\":559:563   */\n  dup3\n    /* \"#utility.yul\":555:567   */\n  div\n    /* \"#utility.yul\":545:567   */\n  swap1\n  pop\n    /* \"#utility.yul\":612:613   */\n  0x01\n    /* \"#utility.yul\":606:610   */\n  dup3\n    /* \"#utility.yul\":602:614   */\n  and\n    /* \"#utility.yul\":633:651   */\n  dup1\n    /* \"#utility.yul\":623:704   */\n  tag_35\n  jumpi\n    /* \"#utility.yul\":689:693   */\n  0x7f\n    /* \"#utility.yul\":681:687   */\n  dup3\n    /* \"#utility.yul\":677:694   */\n  and\n    /* \"#utility.yul\":667:694   */\n  swap2\n  pop\n    /* \"#utility.yul\":623:704   */\ntag_35:\n    /* \"#utility.yul\":751:753   */\n  0x20\n    /* \"#utility.yul\":743:749   */\n  dup3\n    /* \"#utility.yul\":740:754   */\n  lt\n    /* \"#utility.yul\":720:738   */\n  dup2\n    /* \"#utility.yul\":717:755   */\n  sub\n    /* \"#utility.yul\":714:798   */\n  tag_36\n  jumpi\n    /* \"#utility.yul\":770:788   */\n  tag_37\n  tag_12\n  jump\t// in\ntag_37:\n    /* \"#utility.yul\":714:798   */\ntag_36:\n    /* \"#utility.yul\":535:804   */\n  pop\n    /* \"#utility.yul\":484:804   */\n  swap2\n  swap1\n  pop\n  jump\t// out\n    /* \"#utility.yul\":810:951   */\ntag_14:\n    /* \"#utility.yul\":859:863   */\n  0x00\n    /* \"#utility.yul\":882:885   */\n  dup2\n    /* \"#utility.yul\":874:885   */\n  swap1\n  pop\n    /* \"#utility.yul\":905:908   */\n  dup2\n    /* \"#utility.yul\":902:903   */\n  0x00\n    /* \"#utility.yul\":895:909   */\n  mstore\n    /* \"#utility.yul\":939:943   */\n  0x20\n    /* \"#utility.yul\":936:937   */\n  0x00\n    /* \"#utility.yul\":926:944   */\n  keccak256\n    /* \"#utility.yul\":918:944   */\n  swap1\n  pop\n    /* \"#utility.yul\":810:951   */\n  swap2\n  swap1\n  pop\n  jump\t// out\n    /* \"#utility.yul\":957:1050   */\ntag_15:\n    /* \"#utility.yul\":994:1000   */\n  0x00\n    /* \"#utility.yul\":1041:1043   */\n  0x20\n    /* \"#utility.yul\":1036:1038   */\n  0x1f\n    /* \"#utility.yul\":1029:1034   */\n  dup4\n    /* \"#utility.yul\":1025:1039   */\n  add\n    /* \"#utility.yul\":1021:1044   */\n  div\n    /* \"#utility.yul\":1011:1044   */\n  swap1\n  pop\n    /* \"#utility.yul\":957:1050   */\n  swap2\n  swap1\n  pop\n  jump\t// out\n    /* \"#utility.yul\":1056:1163   */\ntag_16:\n    /* \"#utility.yul\":1100:1108   */\n  0x00\n    /* \"#utility.yul\":1150:1155   */\n  dup3\n    /* \"#utility.yul\":1144:1148   */\n  dup3\n    /* \"#utility.yul\":1140:1156   */\n  shl\n    /* \"#utility.yul\":1119:1156   */\n  swap1\n  pop\n    /* \"#utility.yul\":1056:1163   */\n  swap3\n  swap2\n  pop\n  pop\n  jump\t// out\n    /* \"#utility.yul\":1169:1562   */\ntag_17:\n    /* \"#utility.yul\":1238:1244   */\n  0x00\n    /* \"#utility.yul\":1288:1289   */\n  0x08\n    /* \"#utility.yul\":1276:1286   */\n  dup4\n    /* \"#utility.yul\":1272:1290   */\n  mul\n    /* \"#utility.yul\":1311:1408   */\n  tag_42\n    /* \"#utility.yul\":1341:1407   */\n  0xffffffffffffffffffffffffffffffffffffffffffffffffffffffffffffffff\n    /* \"#utility.yul\":1330:1339   */\n  dup3\n    /* \"#utility.yul\":1311:1408   */\n  tag_16\n  jump\t// in\ntag_42:\n    /* \"#utility.yul\":1429:1468   */\n  tag_43\n    /* \"#utility.yul\":1459:1467   */\n  dup7\n    /* \"#utility.yul\":1448:1457   */\n  dup4\n    /* \"#utility.yul\":1429:1468   */\n  tag_16\n  jump\t// in\ntag_43:\n    /* \"#utility.yul\":1417:1468   */\n  swap6\n  pop\n    /* \"#utility.yul\":1501:1505   */\n  dup1\n    /* \"#utility.yul\":1497:1506   */\n  not\n    /* \"#utility.yul\":1490:1495   */\n  dup5\n    /* \"#utility.yul\":1486:1507   */\n  and\n    /* \"#utility.yul\":1477:1507   */\n  swap4\n  pop\n    /* \"#utility.yul\":1550:1554   */\n  dup1\n    /* \"#utility.yul\":1540:1548   */\n  dup7\n    /* \"#utility.yul\":1536:1555   */\n  and\n    /* \"#utility.yul\":1529:1534   */\n  dup5\n    /* \"#utility.yul\":1526:1556   */\n  or\n    /* \"#utility.yul\":1516:1556   */\n  swap3\n  pop\n    /* \"#utility.yul\":1245:1562   */\n  pop\n  pop\n    /* \"#utility.yul\":1169:1562   */\n  swap4\n  swap3\n  pop\n  pop\n  pop\n  jump\t// out\n    /* \"#utility.yul\":1568:1645   */\ntag_18:\n    /* \"#utility.yul\":1605:1612   */\n  0x00\n    /* \"#utility.yul\":1634:1639   */\n  dup2\n    /* \"#utility.yul\":1623:1639   */\n  swap1\n  pop\n    /* \"#utility.yul\":1568:1645   */\n  swap2\n  swap1\n  pop\n  jump\t// out\n    /* \"#utility.yul\":1651:1711   */\ntag_19:\n    /* \"#utility.yul\":1679:1682   */\n  0x00\n    /* \"#utility.yul\":1700:1705   */\n  dup2\n    /* \"#utility.yul\":1693:1705   */\n  swap1\n  pop\n    /* \"#utility.yul\":1651:1711   */\n  swap2\n  swap1\n  pop\n  jump\t// out\n    /* \"#utility.yul\":1717:1859   */\ntag_20:\n    /* \"#utility.yul\":1767:1776   */\n  0x00\n    /* \"#utility.yul\":1800:1853   */\n  tag_47\n    /* \"#utility.yul\":1818:1852   */\n  tag_48\n    /* \"#utility.yul\":1827:1851   */\n  tag_49\n    /* \"#utility.yul\":1845:1850   */\n  dup5\n    /* \"#utility.yul\":1827:1851   */\n  tag_18\n  jump\t// in\ntag_49:\n    /* \"#utility.yul\":1818:1852   */\n  tag_19\n  jump\t// in\ntag_48:\n    /* \"#utility.yul\":1800:1853   */\n  tag_18\n  jump\t// in\ntag_47:\n    /* \"#utility.yul\":1787:1853   */\n  swap1\n  pop\n    /* \"#utility.yul\":1717:1859   */\n  swap2\n  swap1\n  pop\n  jump\t// out\n    /* \"#utility.yul\":1865:1940   */\ntag_21:\n    /* \"#utility.yul\":1908:1911   */\n  0x00\n    /* \"#utility.yul\":1929:1934   */\n  dup2\n    /* \"#utility.yul\":1922:1934   */\n  swap1\n  pop\n    /* \"#utility.yul\":1865:1940   */\n  swap2\n  swap1\n  pop\n  jump\t// out\n    /* \"#utility.yul\":1946:2215   */\ntag_22:\n    /* \"#utility.yul\":2056:2095   */\n  tag_52\n    /* \"#utility.yul\":2087:2094   */\n  dup4\n    /* \"#utility.yul\":2056:2095   */\n  tag_20\n  jump\t// in\ntag_52:\n    /* \"#utility.yul\":2117:2208   */\n  tag_53\n    /* \"#utility.yul\":2166:2207   */\n  tag_54\n    /* \"#utility.yul\":2190:2206   */\n  dup3\n    /* \"#utility.yul\":2166:2207   */\n  tag_21\n  jump\t// in\ntag_54:\n    /* \"#utility.yul\":2158:2164   */\n  dup5\n    /* \"#utility.yul\":2151:2155   */\n  dup5\n    /* \"#utility.yul\":2145:2156   */\n  sload\n    /* \"#utility.yul\":2117:2208   */\n  tag_17\n  jump\t// in\ntag_53:\n    /* \"#utility.yul\":2111:2115   */\n  dup3\n    /* \"#utility.yul\":2104:2209   */\n  sstore\n    /* \"#utility.yul\":2022:2215   */\n  pop\n    /* \"#utility.yul\":1946:2215   */\n  pop\n  pop\n  pop\n  jump\t// out\n    /* \"#utility.yul\":2221:2294   */\ntag_23:\n    /* \"#utility.yul\":2266:2269   */\n  0x00\n    /* \"#utility.yul\":2221:2294   */\n  swap1\n  jump\t// out\n    /* \"#utility.yul\":2300:2489   */\ntag_24:\n    /* \"#utility.yul\":2377:2409   */\n  tag_57\n  tag_23\n  jump\t// in\ntag_57:\n    /* \"#utility.yul\":2418:2483   */\n  tag_58\n    /* \"#utility.yul\":2476:2482   */\n  dup2\n    /* \"#utility.yul\":2468:2474   */\n  dup5\n    /* \"#utility.yul\":2462:2466   */\n  dup5\n    /* \"#utility.yul\":2418:2483   */\n  tag_22\n  jump\t// in\ntag_58:\n    /* \"#utility.yul\":2353:2489   */\n  pop\n    /* \"#utility.yul\":2300:2489   */\n  pop\n  pop\n  jump\t// out\n    /* \"#utility.yul\":2495:2681   */\ntag_25:\n    /* \"#utility.yul\":2555:2675   */\ntag_60:\n    /* \"#utility.yul\":2572:2575   */\n  dup2\n    /* \"#utility.yul\":2565:2570   */\n  dup2\n    /* \"#utility.yul\":2562:2576   */\n  lt\n    /* \"#utility.yul\":2555:2675   */\n  iszero\n  tag_62\n  jumpi\n    /* \"#utility.yul\":2626:2665   */\n  tag_63\n    /* \"#utility.yul\":2663:2664   */\n  0x00\n    /* \"#utility.yul\":2656:2661   */\n  dup3\n    /* \"#utility.yul\":2626:2665   */\n  tag_24\n  jump\t// in\ntag_63:\n    /* \"#utility.yul\":2599:2600   */\n  0x01\n    /* \"#utility.yul\":2592:2597   */\n  dup2\n    /* \"#utility.yul\":2588:2601   */\n  add\n    /* \"#utility.yul\":2579:2601   */\n  swap1\n  pop\n    /* \"#utility.yul\":2555:2675   */\n  jump(tag_60)\ntag_62:\n    /* \"#utility.yul\":2495:2681   */\n  pop\n  pop\n  jump\t// out\n    /* \"#utility.yul\":2687:3230   */\ntag_26:\n    /* \"#utility.yul\":2788:2790   */\n  0x1f\n    /* \"#utility.yul\":2783:2786   */\n  dup3\n    /* \"#utility.yul\":2780:2791   */\n  gt\n    /* \"#utility.yul\":2777:3223   */\n  iszero\n  tag_65\n  jumpi\n    /* \"#utility.yul\":2822:2860   */\n  tag_66\n    /* \"#utility.yul\":2854:2859   */\n  dup2\n    /* \"#utility.yul\":2822:2860   */\n  tag_14\n  jump\t// in\ntag_66:\n    /* \"#utility.yul\":2906:2935   */\n  tag_67\n    /* \"#utility.yul\":2924:2934   */\n  dup5\n    /* \"#utility.yul\":2906:2935   */\n  tag_15\n  jump\t// in\ntag_67:\n    /* \"#utility.yul\":2896:2904   */\n  dup2\n    /* \"#utility.yul\":2892:2936   */\n  add\n    /* \"#utility.yul\":3089:3091   */\n  0x20\n    /* \"#utility.yul\":3077:3087   */\n  dup6\n    /* \"#utility.yul\":3074:3092   */\n  lt\n    /* \"#utility.yul\":3071:3120   */\n  iszero\n  tag_68\n  jumpi\n    /* \"#utility.yul\":3110:3118   */\n  dup2\n    /* \"#utility.yul\":3095:3118   */\n  swap1\n  pop\n    /* \"#utility.yul\":3071:3120   */\ntag_68:\n    /* \"#utility.yul\":3133:3213   */\n  tag_69\n    /* \"#utility.yul\":3189:3211   */\n  tag_70\n    /* \"#utility.yul\":3207:3210   */\n  dup6\n    /* \"#utility.yul\":3189:3211   */\n  tag_15\n  jump\t// in\ntag_70:\n    /* \"#utility.yul\":3179:3187   */\n  dup4\n    /* \"#utility.yul\":3175:3212   */\n  add\n    /* \"#utility.yul\":3162:3173   */\n  dup3\n    /* \"#utility.yul\":3133:3213   */\n  tag_25\n  jump\t// in\ntag_69:\n    /* \"#utility.yul\":2792:3223   */\n  pop\n  pop\n    /* \"#utility.yul\":2777:3223   */\ntag_65:\n    /* \"#utility.yul\":2687:3230   */\n  pop\n  pop\n  pop\n  jump\t// out\n    /* \"#utility.yul\":3236:3353   */\ntag_27:\n    /* \"#utility.yul\":3290:3298   */\n  0x00\n    /* \"#utility.yul\":3340:3345   */\n  dup3\n    /* \"#utility.yul\":3334:3338   */\n  dup3\n    /* \"#utility.yul\":3330:3346   */\n  shr\n    /* \"#utility.yul\":3309:3346   */\n  swap1\n  pop\n    /* \"#utility.yul\":3236:3353   */\n  swap3\n  swap2\n  pop\n  pop\n  jump\t// out\n    /* \"#utility.yul\":3359:3528   */\ntag_28:\n    /* \"#utility.yul\":3403:3409   */\n  0x00\n    /* \"#utility.yul\":3436:3487   */\n  tag_73\n    /* \"#utility.yul\":3484:3485   */\n  0x00\n    /* \"#utility.yul\":3480:3486   */\n  not\n    /* \"#utility.yul\":3472:3477   */\n  dup5\n    /* \"#utility.yul\":3469:3470   */\n  0x08\n    /* \"#utility.yul\":3465:3478   */\n  mul\n    /* \"#utility.yul\":3436:3487   */\n  tag_27\n  jump\t// in\ntag_73:\n    /* \"#utility.yul\":3432:3488   */\n  not\n    /* \"#utility.yul\":3517:3521   */\n  dup1\n    /* \"#utility.yul\":3511:3515   */\n  dup4\n    /* \"#utility.yul\":3507:3522   */\n  and\n    /* \"#utility.yul\":3497:3522   */\n  swap2\n  pop\n    /* \"#utility.yul\":3410:3528   */\n  pop\n    /* \"#utility.yul\":3359:3528   */\n  swap3\n  swap2\n  pop\n  pop\n  jump\t// out\n    /* \"#utility.yul\":3533:3828   */\ntag_29:\n    /* \"#utility.yul\":3609:3613   */\n  0x00\n    /* \"#utility.yul\":3755:3784   */\n  tag_75\n    /* \"#utility.yul\":3780:3783   */\n  dup4\n    /* \"#utility.yul\":3774:3778   */\n  dup4\n    /* \"#utility.yul\":3755:3784   */\n  tag_28\n  jump\t// in\ntag_75:\n    /* \"#utility.yul\":3747:3784   */\n  swap2\n  pop\n    /* \"#utility.yul\":3817:3820   */\n  dup3\n    /* \"#utility.yul\":3814:3815   */\n  0x02\n    /* \"#utility.yul\":3810:3821   */\n  mul\n    /* \"#utility.yul\":3804:3808   */\n  dup3\n    /* \"#utility.yul\":3801:3822   */\n  or\n    /* \"#utility.yul\":3793:3822   */\n  swap1\n  pop\n    /* \"#utility.yul\":3533:3828   */\n  swap3\n  swap2\n  pop\n  pop\n  jump\t// out\n    /* \"#utility.yul\":3833:5228   */\ntag_6:\n    /* \"#utility.yul\":3950:3987   */\n  tag_77\n    /* \"#utility.yul\":3983:3986   */\n  dup3\n    /* \"#utility.yul\":3950:3987   */\n  tag_10\n  jump\t// in\ntag_77:\n    /* \"#utility.yul\":4052:4070   */\n  0xffffffffffffffff\n    /* \"#utility.yul\":4044:4050   */\n  dup2\n    /* \"#utility.yul\":4041:4071   */\n  gt\n    /* \"#utility.yul\":4038:4094   */\n  iszero\n  tag_78\n  jumpi\n    /* \"#utility.yul\":4074:4092   */\n  tag_79\n  tag_11\n  jump\t// in\ntag_79:\n    /* \"#utility.yul\":4038:4094   */\ntag_78:\n    /* \"#utility.yul\":4118:4156   */\n  tag_80\n    /* \"#utility.yul\":4150:4154   */\n  dup3\n    /* \"#utility.yul\":4144:4155   */\n  sload\n    /* \"#utility.yul\":4118:4156   */\n  tag_13\n  jump\t// in\ntag_80:\n    /* \"#utility.yul\":4203:4270   */\n  tag_81\n    /* \"#utility.yul\":4263:4269   */\n  dup3\n    /* \"#utility.yul\":4255:4261   */\n  dup3\n    /* \"#utility.yul\":4249:4253   */\n  dup6\n    /* \"#utility.yul\":4203:4270   */\n  tag_26\n  jump\t// in\ntag_81:\n    /* \"#utility.yul\":4297:4298   */\n  0x00\n    /* \"#utility.yul\":4321:4325   */\n  0x20\n    /* \"#utility.yul\":4308:4325   */\n  swap1\n  pop\n    /* \"#utility.yul\":4353:4355   */\n  0x1f\n    /* \"#utility.yul\":4345:4351   */\n  dup4\n    /* \"#utility.yul\":4342:4356   */\n  gt\n    /* \"#utility.yul\":4370:4371   */\n  0x01\n    /* \"#utility.yul\":4365:4983   */\n  dup2\n  eq\n  tag_83\n  jumpi\n    /* \"#utility.yul\":5027:5028   */\n  0x00\n    /* \"#utility.yul\":5044:5050   */\n  dup5\n    /* \"#utility.yul\":5041:5118   */\n  iszero\n  tag_84\n  jumpi\n    /* \"#utility.yul\":5093:5102   */\n  dup3\n    /* \"#utility.yul\":5088:5091   */\n  dup8\n    /* \"#utility.yul\":5084:5103   */\n  add\n    /* \"#utility.yul\":5078:5104   */\n  mload\n    /* \"#utility.yul\":5069:5104   */\n  swap1\n  pop\n    /* \"#utility.yul\":5041:5118   */\ntag_84:\n    /* \"#utility.yul\":5144:5211   */\n  tag_85\n    /* \"#utility.yul\":5204:5210   */\n  dup6\n    /* \"#utility.yul\":5197:5202   */\n  dup3\n    /* \"#utility.yul\":5144:5211   */\n  tag_29\n  jump\t// in\ntag_85:\n    /* \"#utility.yul\":5138:5142   */\n  dup7\n    /* \"#utility.yul\":5131:5212   */\n  sstore\n    /* \"#utility.yul\":5000:5222   */\n  pop\n    /* \"#utility.yul\":4335:5222   */\n  jump(tag_82)\n    /* \"#utility.yul\":4365:4983   */\ntag_83:\n    /* \"#utility.yul\":4417:4421   */\n  0x1f\n    /* \"#utility.yul\":4413:4422   */\n  not\n    /* \"#utility.yul\":4405:4411   */\n  dup5\n    /* \"#utility.yul\":4401:4423   */\n  and\n    /* \"#utility.yul\":4451:4488   */\n  tag_86\n    /* \"#utility.yul\":4483:4487   */\n  dup7\n    /* \"#utility.yul\":4451:4488   */\n  tag_14\n  jump\t// in\ntag_86:\n    /* \"#utility.yul\":4510:4511   */\n  0x00\n    /* \"#utility.yul\":4524:4732   */\ntag_87:\n    /* \"#utility.yul\":4538:4545   */\n  dup3\n    /* \"#utility.yul\":4535:4536   */\n  dup2\n    /* \"#utility.yul\":4532:4546   */\n  lt\n    /* \"#utility.yul\":4524:4732   */\n  iszero\n  tag_89\n  jumpi\n    /* \"#utility.yul\":4617:4626   */\n  dup5\n    /* \"#utility.yul\":4612:4615   */\n  dup10\n    /* \"#utility.yul\":4608:4627   */\n  add\n    /* \"#utility.yul\":4602:4628   */\n  mload\n    /* \"#utility.yul\":4594:4600   */\n  dup3\n    /* \"#utility.yul\":4587:4629   */\n  sstore\n    /* \"#utility.yul\":4668:4669   */\n  0x01\n    /* \"#utility.yul\":4660:4666   */\n  dup3\n    /* \"#utility.yul\":4656:4670   */\n  add\n    /* \"#utility.yul\":4646:4670   */\n  swap2\n  pop\n    /* \"#utility.yul\":4715:4717   */\n  0x20\n    /* \"#utility.yul\":4704:4713   */\n  dup6\n    /* \"#utility.yul\":4700:4718   */\n  add\n    /* \"#utility.yul\":4687:4718   */\n  swap5\n  pop\n    /* \"#utility.yul\":4561:4565   */\n  0x20\n    /* \"#utility.yul\":4558:4559   */\n  dup2\n    /* \"#utility.yul\":4554:4566   */\n  add\n    /* \"#utility.yul\":4549:4566   */\n  swap1\n  pop\n    /* \"#utility.yul\":4524:4732   */\n  jump(tag_87)\ntag_89:\n    /* \"#utility.yul\":4760:4766   */\n  dup7\n    /* \"#utility.yul\":4751:4758   */\n  dup4\n    /* \"#utility.yul\":4748:4767   */\n  lt\n    /* \"#utility.yul\":4745:4924   */\n  iszero\n  tag_90\n  jumpi\n    /* \"#utility.yul\":4818:4827   */\n  dup5\n    /* \"#utility.yul\":4813:4816   */\n  dup10\n    /* \"#utility.yul\":4809:4828   */\n  add\n    /* \"#utility.yul\":4803:4829   */\n  mload\n    /* \"#utility.yul\":4861:4909   */\n  tag_91\n    /* \"#utility.yul\":4903:4907   */\n  0x1f\n    /* \"#utility.yul\":4895:4901   */\n  dup10\n    /* \"#utility.yul\":4891:4908   */\n  and\n    /* \"#utility.yul\":4880:4889   */\n  dup3\n    /* \"#utility.yul\":4861:4909   */\n  tag_28\n  jump\t// in\ntag_91:\n    /* \"#utility.yul\":4853:4859   */\n  dup4\n    /* \"#utility.yul\":4846:4910   */\n  sstore\n    /* \"#utility.yul\":4768:4924   */\n  pop\n    /* \"#utility.yul\":4745:4924   */\ntag_90:\n    /* \"#utility.yul\":4970:4971   */\n  0x01\n    /* \"#utility.yul\":4966:4967   */\n  0x02\n    /* \"#utility.yul\":4958:4964   */\n  dup9\n    /* \"#utility.yul\":4954:4968   */\n  mul\n    /* \"#utility.yul\":4950:4972   */\n  add\n    /* \"#utility.yul\":4944:4948   */\n  dup9\n    /* \"#utility.yul\":4937:4973   */\n  sstore\n    /* \"#utility.yul\":4372:4983   */\n  pop\n  pop\n  pop\n    /* \"#utility.yul\":4335:5222   */\ntag_82:\n  pop\n    /* \"#utility.yul\":3925:5228   */\n  pop\n  pop\n  pop\n    /* \"#utility.yul\":3833:5228   */\n  pop\n  pop\n  jump\t// out\n    /* \"SmartContract.sol\":13192:14408  contract NFTCreation is NFT, ERC721URIStorage {... */\ntag_9:\n  dataSize(sub_0)\n  dup1\n  dataOffset(sub_0)\n  0x00\n  codecopy\n  0x00\n  return\nstop\n\nsub_0: assembly {\n        /* \"SmartContract.sol\":13192:14408  contract NFTCreation is NFT, ERC721URIStorage {... */\n      mstore(0x40, 0x80)\n      callvalue\n      dup1\n      iszero\n      tag_1\n      jumpi\n      0x00\n      dup1\n      revert\n    tag_1:\n      pop\n      jumpi(tag_2, lt(calldatasize, 0x04))\n      shr(0xe0, calldataload(0x00))\n      dup1\n      0x70a08231\n      gt\n      tag_20\n      jumpi\n      dup1\n      0xa22cb465\n      gt\n      tag_21\n      jumpi\n      dup1\n      0xa22cb465\n      eq\n      tag_15\n      jumpi\n      dup1\n      0xb88d4fde\n      eq\n      tag_16\n      jumpi\n      dup1\n      0xc87b56dd\n      eq\n      tag_17\n      jumpi\n      dup1\n      0xd204c45e\n      eq\n      tag_18\n      jumpi\n      dup1\n      0xe985e9c5\n      eq\n      tag_19\n      jumpi\n      jump(tag_2)\n    tag_21:\n      dup1\n      0x70a08231\n      eq\n      tag_11\n      jumpi\n      dup1\n      0x8da5cb5b\n      eq\n      tag_12\n      jumpi\n      dup1\n      0x95d89b41\n      eq\n      tag_13\n      jumpi\n      dup1\n      0x9f987244\n      eq\n      tag_14\n      jumpi\n      jump(tag_2)\n    tag_20:\n      dup1\n      0x23b872dd\n      gt\n      tag_22\n      jumpi\n      dup1\n      0x23b872dd\n      eq\n      tag_7\n      jumpi\n      dup1\n      0x25a293c3\n      eq\n      tag_8\n      jumpi\n      dup1\n      0x42842e0e\n      eq\n      tag_9\n      jumpi\n      dup1\n      0x6352211e\n      eq\n      tag_10\n      jumpi\n      jump(tag_2)\n    tag_22:\n      dup1\n      0x01ffc9a7\n      eq\n      tag_3\n      jumpi\n      dup1\n      0x06fdde03\n      eq\n      tag_4\n      jumpi\n      dup1\n      0x081812fc\n      eq\n      tag_5\n      jumpi\n      dup1\n      0x095ea7b3\n      eq\n      tag_6\n      jumpi\n    tag_2:\n      0x00\n      dup1\n      revert\n        /* \"SmartContract.sol\":4136:4439  function supportsInterface(bytes4 interfaceId) public view virtual override(ERC165, IERC165) returns (bool) {... */\n    tag_3:\n      tag_23\n      0x04\n      dup1\n      calldatasize\n      sub\n      dup2\n      add\n      swap1\n      tag_24\n      swap2\n      swap1\n      tag_25\n      jump\t// in\n    tag_24:\n      tag_26\n      jump\t// in\n    tag_23:\n      mload(0x40)\n      tag_27\n      swap2\n      swap1\n      tag_28\n      jump\t// in\n    tag_27:\n      mload(0x40)\n      dup1\n      swap2\n      sub\n      swap1\n      return\n        /* \"SmartContract.sol\":11510:11610  function name() public view virtual override returns (string memory) {... */\n    tag_4:\n      tag_29\n      tag_30\n      jump\t// in\n    tag_29:\n      mload(0x40)\n      tag_31\n      swap2\n      swap1\n      tag_32\n      jump\t// in\n    tag_31:\n      mload(0x40)\n      dup1\n      swap2\n      sub\n      swap1\n      return\n        /* \"SmartContract.sol\":5381:5550  function getApproved(uint256 tokenId) public view virtual override returns (address) {... */\n    tag_5:\n      tag_33\n      0x04\n      dup1\n      calldatasize\n      sub\n      dup2\n      add\n      swap1\n      tag_34\n      swap2\n      swap1\n      tag_35\n      jump\t// in\n    tag_34:\n      tag_36\n      jump\t// in\n    tag_33:\n      mload(0x40)\n      tag_37\n      swap2\n      swap1\n      tag_38\n      jump\t// in\n    tag_37:\n      mload(0x40)\n      dup1\n      swap2\n      sub\n      swap1\n      return\n        /* \"SmartContract.sol\":4892:5373  function approve(address to, uint256 tokenId) public virtual override {... */\n    tag_6:\n      tag_39\n      0x04\n      dup1\n      calldatasize\n      sub\n      dup2\n      add\n      swap1\n      tag_40\n      swap2\n      swap1\n      tag_41\n      jump\t// in\n    tag_40:\n      tag_42\n      jump\t// in\n    tag_39:\n      stop\n        /* \"SmartContract.sol\":5956:6367  function transferFrom(address from ,address to ,uint256 tokenId) public virtual override {... */\n    tag_7:\n      tag_43\n      0x04\n      dup1\n      calldatasize\n      sub\n      dup2\n      add\n      swap1\n      tag_44\n      swap2\n      swap1\n      tag_45\n      jump\t// in\n    tag_44:\n      tag_46\n      jump\t// in\n    tag_43:\n      stop\n        /* \"SmartContract.sol\":13649:13807  function burnByDeleting(uint256 tokenId) public{... */\n    tag_8:\n      tag_47\n      0x04\n      dup1\n      calldatasize\n      sub\n      dup2\n      add\n      swap1\n      tag_48\n      swap2\n      swap1\n      tag_35\n      jump\t// in\n    tag_48:\n      tag_49\n      jump\t// in\n    tag_47:\n      stop\n        /* \"SmartContract.sol\":6375:6524  function safeTransferFrom(address from,address to,uint256 tokenId) public virtual override {... */\n    tag_9:\n      tag_50\n      0x04\n      dup1\n      calldatasize\n      sub\n      dup2\n      add\n      swap1\n      tag_51\n      swap2\n      swap1\n      tag_45\n      jump\t// in\n    tag_51:\n      tag_52\n      jump\t// in\n    tag_50:\n      stop\n        /* \"SmartContract.sol\":4662:4884  function ownerOf(uint256 tokenId) public view virtual override returns (address) {... */\n    tag_10:\n      tag_53\n      0x04\n      dup1\n      calldatasize\n      sub\n      dup2\n      add\n      swap1\n      tag_54\n      swap2\n      swap1\n      tag_35\n      jump\t// in\n    tag_54:\n      tag_55\n      jump\t// in\n    tag_53:\n      mload(0x40)\n      tag_56\n      swap2\n      swap1\n      tag_38\n      jump\t// in\n    tag_56:\n      mload(0x40)\n      dup1\n      swap2\n      sub\n      swap1\n      return\n        /* \"SmartContract.sol\":4447:4654  function balanceOf(address owner) public view virtual override returns (uint256) {... */\n    tag_11:\n      tag_57\n      0x04\n      dup1\n      calldatasize\n      sub\n      dup2\n      add\n      swap1\n      tag_58\n      swap2\n      swap1\n      tag_59\n      jump\t// in\n    tag_58:\n      tag_60\n      jump\t// in\n    tag_57:\n      mload(0x40)\n      tag_61\n      swap2\n      swap1\n      tag_62\n      jump\t// in\n    tag_61:\n      mload(0x40)\n      dup1\n      swap2\n      sub\n      swap1\n      return\n        /* \"SmartContract.sol\":13284:13304  address public owner */\n    tag_12:\n      tag_63\n      tag_64\n      jump\t// in\n    tag_63:\n      mload(0x40)\n      tag_65\n      swap2\n      swap1\n      tag_38\n      jump\t// in\n    tag_65:\n      mload(0x40)\n      dup1\n      swap2\n      sub\n      swap1\n      return\n        /* \"SmartContract.sol\":11618:11722  function symbol() public view virtual override returns (string memory) {... */\n    tag_13:\n      tag_66\n      tag_67\n      jump\t// in\n    tag_66:\n      mload(0x40)\n      tag_68\n      swap2\n      swap1\n      tag_32\n      jump\t// in\n    tag_68:\n      mload(0x40)\n      dup1\n      swap2\n      sub\n      swap1\n      return\n        /* \"SmartContract.sol\":13815:14050  function burnByTransfering(uint tokenId) public{... */\n    tag_14:\n      tag_69\n      0x04\n      dup1\n      calldatasize\n      sub\n      dup2\n      add\n      swap1\n      tag_70\n      swap2\n      swap1\n      tag_35\n      jump\t// in\n    tag_70:\n      tag_71\n      jump\t// in\n    tag_69:\n      stop\n        /* \"SmartContract.sol\":5558:5776  function setApprovalForAll(address operator, bool approved) public virtual override {... */\n    tag_15:\n      tag_72\n      0x04\n      dup1\n      calldatasize\n      sub\n      dup2\n      add\n      swap1\n      tag_73\n      swap2\n      swap1\n      tag_74\n      jump\t// in\n    tag_73:\n      tag_75\n      jump\t// in\n    tag_72:\n      stop\n        /* \"SmartContract.sol\":6532:6920  function safeTransferFrom(address from,address to,uint256 tokenId,bytes memory data) public virtual override {... */\n    tag_16:\n      tag_76\n      0x04\n      dup1\n      calldatasize\n      sub\n      dup2\n      add\n      swap1\n      tag_77\n      swap2\n      swap1\n      tag_78\n      jump\t// in\n    tag_77:\n      tag_79\n      jump\t// in\n    tag_76:\n      stop\n        /* \"SmartContract.sol\":14246:14403  function tokenURI(uint256 tokenId) public view override(NFT, ERC721URIStorage) returns (string memory)... */\n    tag_17:\n      tag_80\n      0x04\n      dup1\n      calldatasize\n      sub\n      dup2\n      add\n      swap1\n      tag_81\n      swap2\n      swap1\n      tag_35\n      jump\t// in\n    tag_81:\n      tag_82\n      jump\t// in\n    tag_80:\n      mload(0x40)\n      tag_83\n      swap2\n      swap1\n      tag_32\n      jump\t// in\n    tag_83:\n      mload(0x40)\n      dup1\n      swap2\n      sub\n      swap1\n      return\n        /* \"SmartContract.sol\":13397:13641  function safeMint(address to, string memory uri) public returns(uint){... */\n    tag_18:\n      tag_84\n      0x04\n      dup1\n      calldatasize\n      sub\n      dup2\n      add\n      swap1\n      tag_85\n      swap2\n      swap1\n      tag_86\n      jump\t// in\n    tag_85:\n      tag_87\n      jump\t// in\n    tag_84:\n      mload(0x40)\n      tag_88\n      swap2\n      swap1\n      tag_62\n      jump\t// in\n    tag_88:\n      mload(0x40)\n      dup1\n      swap2\n      sub\n      swap1\n      return\n        /* \"SmartContract.sol\":5784:5948  function isApprovedForAll(address owner, address operator) public view virtual override returns (bool) {... */\n    tag_19:\n      tag_89\n      0x04\n      dup1\n      calldatasize\n      sub\n      dup2\n      add\n      swap1\n      tag_90\n      swap2\n      swap1\n      tag_91\n      jump\t// in\n    tag_90:\n      tag_92\n      jump\t// in\n    tag_89:\n      mload(0x40)\n      tag_93\n      swap2\n      swap1\n      tag_28\n      jump\t// in\n    tag_93:\n      mload(0x40)\n      dup1\n      swap2\n      sub\n      swap1\n      return\n        /* \"SmartContract.sol\":4136:4439  function supportsInterface(bytes4 interfaceId) public view virtual override(ERC165, IERC165) returns (bool) {... */\n    tag_26:\n        /* \"SmartContract.sol\":4238:4242  bool */\n      0x00\n        /* \"SmartContract.sol\":4290:4314  type(ERC721).interfaceId */\n      0x80ac58cd00000000000000000000000000000000000000000000000000000000\n        /* \"SmartContract.sol\":4275:4314  interfaceId == type(ERC721).interfaceId */\n      not(0xffffffffffffffffffffffffffffffffffffffffffffffffffffffff)\n      and\n        /* \"SmartContract.sol\":4275:4286  interfaceId */\n      dup3\n        /* \"SmartContract.sol\":4275:4314  interfaceId == type(ERC721).interfaceId */\n      not(0xffffffffffffffffffffffffffffffffffffffffffffffffffffffff)\n      and\n      eq\n        /* \"SmartContract.sol\":4275:4378  interfaceId == type(ERC721).interfaceId ||... */\n      dup1\n      tag_95\n      jumpi\n      pop\n        /* \"SmartContract.sol\":4346:4378  type(ERC721Metadata).interfaceId */\n      0x5b5e139f00000000000000000000000000000000000000000000000000000000\n        /* \"SmartContract.sol\":4331:4378  interfaceId == type(ERC721Metadata).interfaceId */\n      not(0xffffffffffffffffffffffffffffffffffffffffffffffffffffffff)\n      and\n        /* \"SmartContract.sol\":4331:4342  interfaceId */\n      dup3\n        /* \"SmartContract.sol\":4331:4378  interfaceId == type(ERC721Metadata).interfaceId */\n      not(0xffffffffffffffffffffffffffffffffffffffffffffffffffffffff)\n      and\n      eq\n        /* \"SmartContract.sol\":4275:4378  interfaceId == type(ERC721).interfaceId ||... */\n    tag_95:\n        /* \"SmartContract.sol\":4275:4431  interfaceId == type(ERC721).interfaceId ||... */\n      dup1\n      tag_96\n      jumpi\n      pop\n        /* \"SmartContract.sol\":4395:4431  super.supportsInterface(interfaceId) */\n      tag_97\n        /* \"SmartContract.sol\":4419:4430  interfaceId */\n      dup3\n        /* \"SmartContract.sol\":4395:4418  super.supportsInterface */\n      tag_98\n        /* \"SmartContract.sol\":4395:4431  super.supportsInterface(interfaceId) */\n      jump\t// in\n    tag_97:\n        /* \"SmartContract.sol\":4275:4431  interfaceId == type(ERC721).interfaceId ||... */\n    tag_96:\n        /* \"SmartContract.sol\":4255:4431  return... */\n      swap1\n      pop\n        /* \"SmartContract.sol\":4136:4439  function supportsInterface(bytes4 interfaceId) public view virtual override(ERC165, IERC165) returns (bool) {... */\n      swap2\n      swap1\n      pop\n      jump\t// out\n        /* \"SmartContract.sol\":11510:11610  function name() public view virtual override returns (string memory) {... */\n    tag_30:\n        /* \"SmartContract.sol\":11564:11577  string memory */\n      0x60\n        /* \"SmartContract.sol\":11597:11602  _name */\n      0x00\n        /* \"SmartContract.sol\":11590:11602  return _name */\n      dup1\n      sload\n      tag_100\n      swap1\n      tag_101\n      jump\t// in\n    tag_100:\n      dup1\n      0x1f\n      add\n      0x20\n      dup1\n      swap2\n      div\n      mul\n      0x20\n      add\n      mload(0x40)\n      swap1\n      dup2\n      add\n      0x40\n      mstore\n      dup1\n      swap3\n      swap2\n      swap1\n      dup2\n      dup2\n      mstore\n      0x20\n      add\n      dup3\n      dup1\n      sload\n      tag_102\n      swap1\n      tag_101\n      jump\t// in\n    tag_102:\n      dup1\n      iszero\n      tag_103\n      jumpi\n      dup1\n      0x1f\n      lt\n      tag_104\n      jumpi\n      0x0100\n      dup1\n      dup4\n      sload\n      div\n      mul\n      dup4\n      mstore\n      swap2\n      0x20\n      add\n      swap2\n      jump(tag_103)\n    tag_104:\n      dup3\n      add\n      swap2\n      swap1\n      0x00\n      mstore\n      keccak256(0x00, 0x20)\n      swap1\n    tag_105:\n      dup2\n      sload\n      dup2\n      mstore\n      swap1\n      0x01\n      add\n      swap1\n      0x20\n      add\n      dup1\n      dup4\n      gt\n      tag_105\n      jumpi\n      dup3\n      swap1\n      sub\n      0x1f\n      and\n      dup3\n      add\n      swap2\n    tag_103:\n      pop\n      pop\n      pop\n      pop\n      pop\n      swap1\n      pop\n        /* \"SmartContract.sol\":11510:11610  function name() public view virtual override returns (string memory) {... */\n      swap1\n      jump\t// out\n        /* \"SmartContract.sol\":5381:5550  function getApproved(uint256 tokenId) public view virtual override returns (address) {... */\n    tag_36:\n        /* \"SmartContract.sol\":5457:5464  address */\n      0x00\n        /* \"SmartContract.sol\":5477:5500  _requireMinted(tokenId) */\n      tag_107\n        /* \"SmartContract.sol\":5492:5499  tokenId */\n      dup3\n        /* \"SmartContract.sol\":5477:5491  _requireMinted */\n      tag_108\n        /* \"SmartContract.sol\":5477:5500  _requireMinted(tokenId) */\n      jump\t// in\n    tag_107:\n        /* \"SmartContract.sol\":5518:5533  _tokenApprovals */\n      0x04\n        /* \"SmartContract.sol\":5518:5542  _tokenApprovals[tokenId] */\n      0x00\n        /* \"SmartContract.sol\":5534:5541  tokenId */\n      dup4\n        /* \"SmartContract.sol\":5518:5542  _tokenApprovals[tokenId] */\n      dup2\n      mstore\n      0x20\n      add\n      swap1\n      dup2\n      mstore\n      0x20\n      add\n      0x00\n      keccak256\n      0x00\n      swap1\n      sload\n      swap1\n      0x0100\n      exp\n      swap1\n      div\n      0xffffffffffffffffffffffffffffffffffffffff\n      and\n        /* \"SmartContract.sol\":5511:5542  return _tokenApprovals[tokenId] */\n      swap1\n      pop\n        /* \"SmartContract.sol\":5381:5550  function getApproved(uint256 tokenId) public view virtual override returns (address) {... */\n      swap2\n      swap1\n      pop\n      jump\t// out\n        /* \"SmartContract.sol\":4892:5373  function approve(address to, uint256 tokenId) public virtual override {... */\n    tag_42:\n        /* \"SmartContract.sol\":4973:4986  address owner */\n      0x00\n        /* \"SmartContract.sol\":4989:4996  _owners */\n      0x02\n        /* \"SmartContract.sol\":4989:5005  _owners[tokenId] */\n      0x00\n        /* \"SmartContract.sol\":4997:5004  tokenId */\n      dup4\n        /* \"SmartContract.sol\":4989:5005  _owners[tokenId] */\n      dup2\n      mstore\n      0x20\n      add\n      swap1\n      dup2\n      mstore\n      0x20\n      add\n      0x00\n      keccak256\n      0x00\n      swap1\n      sload\n      swap1\n      0x0100\n      exp\n      swap1\n      div\n      0xffffffffffffffffffffffffffffffffffffffff\n      and\n        /* \"SmartContract.sol\":4973:5005  address owner = _owners[tokenId] */\n      swap1\n      pop\n        /* \"SmartContract.sol\":5030:5035  owner */\n      dup1\n        /* \"SmartContract.sol\":5024:5035  to != owner */\n      0xffffffffffffffffffffffffffffffffffffffff\n      and\n        /* \"SmartContract.sol\":5024:5026  to */\n      dup4\n        /* \"SmartContract.sol\":5024:5035  to != owner */\n      0xffffffffffffffffffffffffffffffffffffffff\n      and\n      sub\n        /* \"SmartContract.sol\":5016:5073  require(to != owner, \"ERC721: approval to current owner\") */\n      tag_110\n      jumpi\n      mload(0x40)\n      0x08c379a000000000000000000000000000000000000000000000000000000000\n      dup2\n      mstore\n      0x04\n      add\n      tag_111\n      swap1\n      tag_112\n      jump\t// in\n    tag_111:\n      mload(0x40)\n      dup1\n      swap2\n      sub\n      swap1\n      revert\n    tag_110:\n        /* \"SmartContract.sol\":5199:5204  owner */\n      dup1\n        /* \"SmartContract.sol\":5185:5204  msg.sender == owner */\n      0xffffffffffffffffffffffffffffffffffffffff\n      and\n        /* \"SmartContract.sol\":5185:5195  msg.sender */\n      caller\n        /* \"SmartContract.sol\":5185:5204  msg.sender == owner */\n      0xffffffffffffffffffffffffffffffffffffffff\n      and\n      eq\n        /* \"SmartContract.sol\":5185:5243  msg.sender == owner || isApprovedForAll(owner, msg.sender) */\n      dup1\n      tag_113\n      jumpi\n      pop\n        /* \"SmartContract.sol\":5208:5243  isApprovedForAll(owner, msg.sender) */\n      tag_114\n        /* \"SmartContract.sol\":5225:5230  owner */\n      dup2\n        /* \"SmartContract.sol\":5232:5242  msg.sender */\n      caller\n        /* \"SmartContract.sol\":5208:5224  isApprovedForAll */\n      tag_92\n        /* \"SmartContract.sol\":5208:5243  isApprovedForAll(owner, msg.sender) */\n      jump\t// in\n    tag_114:\n        /* \"SmartContract.sol\":5185:5243  msg.sender == owner || isApprovedForAll(owner, msg.sender) */\n    tag_113:\n        /* \"SmartContract.sol\":5084:5333  require(... */\n      tag_115\n      jumpi\n      mload(0x40)\n      0x08c379a000000000000000000000000000000000000000000000000000000000\n      dup2\n      mstore\n      0x04\n      add\n      tag_116\n      swap1\n      tag_117\n      jump\t// in\n    tag_116:\n      mload(0x40)\n      dup1\n      swap2\n      sub\n      swap1\n      revert\n    tag_115:\n        /* \"SmartContract.sol\":5344:5365  _approve(to, tokenId) */\n      tag_118\n        /* \"SmartContract.sol\":5353:5355  to */\n      dup4\n        /* \"SmartContract.sol\":5357:5364  tokenId */\n      dup4\n        /* \"SmartContract.sol\":5344:5352  _approve */\n      tag_119\n        /* \"SmartContract.sol\":5344:5365  _approve(to, tokenId) */\n      jump\t// in\n    tag_118:\n        /* \"SmartContract.sol\":4962:5373  {... */\n      pop\n        /* \"SmartContract.sol\":4892:5373  function approve(address to, uint256 tokenId) public virtual override {... */\n      pop\n      pop\n      jump\t// out\n        /* \"SmartContract.sol\":5956:6367  function transferFrom(address from ,address to ,uint256 tokenId) public virtual override {... */\n    tag_46:\n        /* \"SmartContract.sol\":6230:6269  _isApprovedOrOwner(msg.sender, tokenId) */\n      tag_121\n        /* \"SmartContract.sol\":6249:6259  msg.sender */\n      caller\n        /* \"SmartContract.sol\":6261:6268  tokenId */\n      dup3\n        /* \"SmartContract.sol\":6230:6248  _isApprovedOrOwner */\n      tag_122\n        /* \"SmartContract.sol\":6230:6269  _isApprovedOrOwner(msg.sender, tokenId) */\n      jump\t// in\n    tag_121:\n        /* \"SmartContract.sol\":6222:6320  require(_isApprovedOrOwner(msg.sender, tokenId), \"ERC721: caller is not token owner nor approved\") */\n      tag_123\n      jumpi\n      mload(0x40)\n      0x08c379a000000000000000000000000000000000000000000000000000000000\n      dup2\n      mstore\n      0x04\n      add\n      tag_124\n      swap1\n      tag_125\n      jump\t// in\n    tag_124:\n      mload(0x40)\n      dup1\n      swap2\n      sub\n      swap1\n      revert\n    tag_123:\n        /* \"SmartContract.sol\":6331:6359  _transfer(from, to, tokenId) */\n      tag_126\n        /* \"SmartContract.sol\":6341:6345  from */\n      dup4\n        /* \"SmartContract.sol\":6347:6349  to */\n      dup4\n        /* \"SmartContract.sol\":6351:6358  tokenId */\n      dup4\n        /* \"SmartContract.sol\":6331:6340  _transfer */\n      tag_127\n        /* \"SmartContract.sol\":6331:6359  _transfer(from, to, tokenId) */\n      jump\t// in\n    tag_126:\n        /* \"SmartContract.sol\":5956:6367  function transferFrom(address from ,address to ,uint256 tokenId) public virtual override {... */\n      pop\n      pop\n      pop\n      jump\t// out\n        /* \"SmartContract.sol\":13649:13807  function burnByDeleting(uint256 tokenId) public{... */\n    tag_49:\n        /* \"SmartContract.sol\":13728:13733  owner */\n      0x08\n      0x00\n      swap1\n      sload\n      swap1\n      0x0100\n      exp\n      swap1\n      div\n      0xffffffffffffffffffffffffffffffffffffffff\n      and\n        /* \"SmartContract.sol\":13715:13733  msg.sender== owner */\n      0xffffffffffffffffffffffffffffffffffffffff\n      and\n        /* \"SmartContract.sol\":13715:13725  msg.sender */\n      caller\n        /* \"SmartContract.sol\":13715:13733  msg.sender== owner */\n      0xffffffffffffffffffffffffffffffffffffffff\n      and\n      eq\n        /* \"SmartContract.sol\":13707:13774  require(msg.sender== owner, \"ERC721: Burning from invalid account\") */\n      tag_129\n      jumpi\n      mload(0x40)\n      0x08c379a000000000000000000000000000000000000000000000000000000000\n      dup2\n      mstore\n      0x04\n      add\n      tag_130\n      swap1\n      tag_131\n      jump\t// in\n    tag_130:\n      mload(0x40)\n      dup1\n      swap2\n      sub\n      swap1\n      revert\n    tag_129:\n        /* \"SmartContract.sol\":13785:13799  _burn(tokenId) */\n      tag_132\n        /* \"SmartContract.sol\":13791:13798  tokenId */\n      dup2\n        /* \"SmartContract.sol\":13785:13790  _burn */\n      tag_133\n        /* \"SmartContract.sol\":13785:13799  _burn(tokenId) */\n      jump\t// in\n    tag_132:\n        /* \"SmartContract.sol\":13649:13807  function burnByDeleting(uint256 tokenId) public{... */\n      pop\n      jump\t// out\n        /* \"SmartContract.sol\":6375:6524  function safeTransferFrom(address from,address to,uint256 tokenId) public virtual override {... */\n    tag_52:\n        /* \"SmartContract.sol\":6477:6516  safeTransferFrom(from, to, tokenId, \"\") */\n      tag_135\n        /* \"SmartContract.sol\":6494:6498  from */\n      dup4\n        /* \"SmartContract.sol\":6500:6502  to */\n      dup4\n        /* \"SmartContract.sol\":6504:6511  tokenId */\n      dup4\n        /* \"SmartContract.sol\":6477:6516  safeTransferFrom(from, to, tokenId, \"\") */\n      mload(0x40)\n      dup1\n      0x20\n      add\n      0x40\n      mstore\n      dup1\n      0x00\n      dup2\n      mstore\n      pop\n        /* \"SmartContract.sol\":6477:6493  safeTransferFrom */\n      tag_79\n        /* \"SmartContract.sol\":6477:6516  safeTransferFrom(from, to, tokenId, \"\") */\n      jump\t// in\n    tag_135:\n        /* \"SmartContract.sol\":6375:6524  function safeTransferFrom(address from,address to,uint256 tokenId) public virtual override {... */\n      pop\n      pop\n      pop\n      jump\t// out\n        /* \"SmartContract.sol\":4662:4884  function ownerOf(uint256 tokenId) public view virtual override returns (address) {... */\n    tag_55:\n        /* \"SmartContract.sol\":4734:4741  address */\n      0x00\n        /* \"SmartContract.sol\":4754:4767  address owner */\n      dup1\n        /* \"SmartContract.sol\":4770:4777  _owners */\n      0x02\n        /* \"SmartContract.sol\":4770:4786  _owners[tokenId] */\n      0x00\n        /* \"SmartContract.sol\":4778:4785  tokenId */\n      dup5\n        /* \"SmartContract.sol\":4770:4786  _owners[tokenId] */\n      dup2\n      mstore\n      0x20\n      add\n      swap1\n      dup2\n      mstore\n      0x20\n      add\n      0x00\n      keccak256\n      0x00\n      swap1\n      sload\n      swap1\n      0x0100\n      exp\n      swap1\n      div\n      0xffffffffffffffffffffffffffffffffffffffff\n      and\n        /* \"SmartContract.sol\":4754:4786  address owner = _owners[tokenId] */\n      swap1\n      pop\n        /* \"SmartContract.sol\":4822:4823  0 */\n      0x00\n        /* \"SmartContract.sol\":4805:4824  owner != address(0) */\n      0xffffffffffffffffffffffffffffffffffffffff\n      and\n        /* \"SmartContract.sol\":4805:4810  owner */\n      dup2\n        /* \"SmartContract.sol\":4805:4824  owner != address(0) */\n      0xffffffffffffffffffffffffffffffffffffffff\n      and\n      sub\n        /* \"SmartContract.sol\":4797:4853  require(owner != address(0), \"ERC721: invalid token ID\") */\n      tag_137\n      jumpi\n      mload(0x40)\n      0x08c379a000000000000000000000000000000000000000000000000000000000\n      dup2\n      mstore\n      0x04\n      add\n      tag_138\n      swap1\n      tag_139\n      jump\t// in\n    tag_138:\n      mload(0x40)\n      dup1\n      swap2\n      sub\n      swap1\n      revert\n    tag_137:\n        /* \"SmartContract.sol\":4871:4876  owner */\n      dup1\n        /* \"SmartContract.sol\":4864:4876  return owner */\n      swap2\n      pop\n      pop\n        /* \"SmartContract.sol\":4662:4884  function ownerOf(uint256 tokenId) public view virtual override returns (address) {... */\n      swap2\n      swap1\n      pop\n      jump\t// out\n        /* \"SmartContract.sol\":4447:4654  function balanceOf(address owner) public view virtual override returns (uint256) {... */\n    tag_60:\n        /* \"SmartContract.sol\":4519:4526  uint256 */\n      0x00\n        /* \"SmartContract.sol\":4564:4565  0 */\n      dup1\n        /* \"SmartContract.sol\":4547:4566  owner != address(0) */\n      0xffffffffffffffffffffffffffffffffffffffff\n      and\n        /* \"SmartContract.sol\":4547:4552  owner */\n      dup3\n        /* \"SmartContract.sol\":4547:4566  owner != address(0) */\n      0xffffffffffffffffffffffffffffffffffffffff\n      and\n      sub\n        /* \"SmartContract.sol\":4539:4612  require(owner != address(0), \"ERC721: address zero is not a valid owner\") */\n      tag_141\n      jumpi\n      mload(0x40)\n      0x08c379a000000000000000000000000000000000000000000000000000000000\n      dup2\n      mstore\n      0x04\n      add\n      tag_142\n      swap1\n      tag_143\n      jump\t// in\n    tag_142:\n      mload(0x40)\n      dup1\n      swap2\n      sub\n      swap1\n      revert\n    tag_141:\n        /* \"SmartContract.sol\":4630:4639  _balances */\n      0x03\n        /* \"SmartContract.sol\":4630:4646  _balances[owner] */\n      0x00\n        /* \"SmartContract.sol\":4640:4645  owner */\n      dup4\n        /* \"SmartContract.sol\":4630:4646  _balances[owner] */\n      0xffffffffffffffffffffffffffffffffffffffff\n      and\n      0xffffffffffffffffffffffffffffffffffffffff\n      and\n      dup2\n      mstore\n      0x20\n      add\n      swap1\n      dup2\n      mstore\n      0x20\n      add\n      0x00\n      keccak256\n      sload\n        /* \"SmartContract.sol\":4623:4646  return _balances[owner] */\n      swap1\n      pop\n        /* \"SmartContract.sol\":4447:4654  function balanceOf(address owner) public view virtual override returns (uint256) {... */\n      swap2\n      swap1\n      pop\n      jump\t// out\n        /* \"SmartContract.sol\":13284:13304  address public owner */\n    tag_64:\n      0x08\n      0x00\n      swap1\n      sload\n      swap1\n      0x0100\n      exp\n      swap1\n      div\n      0xffffffffffffffffffffffffffffffffffffffff\n      and\n      dup2\n      jump\t// out\n        /* \"SmartContract.sol\":11618:11722  function symbol() public view virtual override returns (string memory) {... */\n    tag_67:\n        /* \"SmartContract.sol\":11674:11687  string memory */\n      0x60\n        /* \"SmartContract.sol\":11707:11714  _symbol */\n      0x01\n        /* \"SmartContract.sol\":11700:11714  return _symbol */\n      dup1\n      sload\n      tag_145\n      swap1\n      tag_101\n      jump\t// in\n    tag_145:\n      dup1\n      0x1f\n      add\n      0x20\n      dup1\n      swap2\n      div\n      mul\n      0x20\n      add\n      mload(0x40)\n      swap1\n      dup2\n      add\n      0x40\n      mstore\n      dup1\n      swap3\n      swap2\n      swap1\n      dup2\n      dup2\n      mstore\n      0x20\n      add\n      dup3\n      dup1\n      sload\n      tag_146\n      swap1\n      tag_101\n      jump\t// in\n    tag_146:\n      dup1\n      iszero\n      tag_147\n      jumpi\n      dup1\n      0x1f\n      lt\n      tag_148\n      jumpi\n      0x0100\n      dup1\n      dup4\n      sload\n      div\n      mul\n      dup4\n      mstore\n      swap2\n      0x20\n      add\n      swap2\n      jump(tag_147)\n    tag_148:\n      dup3\n      add\n      swap2\n      swap1\n      0x00\n      mstore\n      keccak256(0x00, 0x20)\n      swap1\n    tag_149:\n      dup2\n      sload\n      dup2\n      mstore\n      swap1\n      0x01\n      add\n      swap1\n      0x20\n      add\n      dup1\n      dup4\n      gt\n      tag_149\n      jumpi\n      dup3\n      swap1\n      sub\n      0x1f\n      and\n      dup3\n      add\n      swap2\n    tag_147:\n      pop\n      pop\n      pop\n      pop\n      pop\n      swap1\n      pop\n        /* \"SmartContract.sol\":11618:11722  function symbol() public view virtual override returns (string memory) {... */\n      swap1\n      jump\t// out\n        /* \"SmartContract.sol\":13815:14050  function burnByTransfering(uint tokenId) public{... */\n    tag_71:\n        /* \"SmartContract.sol\":13894:13899  owner */\n      0x08\n      0x00\n      swap1\n      sload\n      swap1\n      0x0100\n      exp\n      swap1\n      div\n      0xffffffffffffffffffffffffffffffffffffffff\n      and\n        /* \"SmartContract.sol\":13881:13899  msg.sender== owner */\n      0xffffffffffffffffffffffffffffffffffffffff\n      and\n        /* \"SmartContract.sol\":13881:13891  msg.sender */\n      caller\n        /* \"SmartContract.sol\":13881:13899  msg.sender== owner */\n      0xffffffffffffffffffffffffffffffffffffffff\n      and\n      eq\n        /* \"SmartContract.sol\":13873:13940  require(msg.sender== owner, \"ERC721: Burning from invalid account\") */\n      tag_151\n      jumpi\n      mload(0x40)\n      0x08c379a000000000000000000000000000000000000000000000000000000000\n      dup2\n      mstore\n      0x04\n      add\n      tag_152\n      swap1\n      tag_131\n      jump\t// in\n    tag_152:\n      mload(0x40)\n      dup1\n      swap2\n      sub\n      swap1\n      revert\n    tag_151:\n        /* \"SmartContract.sol\":13951:13967  address NFTOwner */\n      0x00\n        /* \"SmartContract.sol\":13970:13986  ownerOf(tokenId) */\n      tag_153\n        /* \"SmartContract.sol\":13978:13985  tokenId */\n      dup3\n        /* \"SmartContract.sol\":13970:13977  ownerOf */\n      tag_55\n        /* \"SmartContract.sol\":13970:13986  ownerOf(tokenId) */\n      jump\t// in\n    tag_153:\n        /* \"SmartContract.sol\":13951:13986  address NFTOwner = ownerOf(tokenId) */\n      swap1\n      pop\n        /* \"SmartContract.sol\":13997:14042  _transferByOwner(NFTOwner,address(0),tokenId) */\n      tag_154\n        /* \"SmartContract.sol\":14014:14022  NFTOwner */\n      dup2\n        /* \"SmartContract.sol\":14031:14032  0 */\n      0x00\n        /* \"SmartContract.sol\":14034:14041  tokenId */\n      dup5\n        /* \"SmartContract.sol\":13997:14013  _transferByOwner */\n      tag_155\n        /* \"SmartContract.sol\":13997:14042  _transferByOwner(NFTOwner,address(0),tokenId) */\n      jump\t// in\n    tag_154:\n        /* \"SmartContract.sol\":13862:14050  {... */\n      pop\n        /* \"SmartContract.sol\":13815:14050  function burnByTransfering(uint tokenId) public{... */\n      pop\n      jump\t// out\n        /* \"SmartContract.sol\":5558:5776  function setApprovalForAll(address operator, bool approved) public virtual override {... */\n    tag_75:\n        /* \"SmartContract.sol\":5718:5768  _setApprovalForAll(msg.sender, operator, approved) */\n      tag_157\n        /* \"SmartContract.sol\":5737:5747  msg.sender */\n      caller\n        /* \"SmartContract.sol\":5749:5757  operator */\n      dup4\n        /* \"SmartContract.sol\":5759:5767  approved */\n      dup4\n        /* \"SmartContract.sol\":5718:5736  _setApprovalForAll */\n      tag_158\n        /* \"SmartContract.sol\":5718:5768  _setApprovalForAll(msg.sender, operator, approved) */\n      jump\t// in\n    tag_157:\n        /* \"SmartContract.sol\":5558:5776  function setApprovalForAll(address operator, bool approved) public virtual override {... */\n      pop\n      pop\n      jump\t// out\n        /* \"SmartContract.sol\":6532:6920  function safeTransferFrom(address from,address to,uint256 tokenId,bytes memory data) public virtual override {... */\n    tag_79:\n        /* \"SmartContract.sol\":6773:6812  _isApprovedOrOwner(msg.sender, tokenId) */\n      tag_160\n        /* \"SmartContract.sol\":6792:6802  msg.sender */\n      caller\n        /* \"SmartContract.sol\":6804:6811  tokenId */\n      dup4\n        /* \"SmartContract.sol\":6773:6791  _isApprovedOrOwner */\n      tag_122\n        /* \"SmartContract.sol\":6773:6812  _isApprovedOrOwner(msg.sender, tokenId) */\n      jump\t// in\n    tag_160:\n        /* \"SmartContract.sol\":6765:6863  require(_isApprovedOrOwner(msg.sender, tokenId), \"ERC721: caller is not token owner nor approved\") */\n      tag_161\n      jumpi\n      mload(0x40)\n      0x08c379a000000000000000000000000000000000000000000000000000000000\n      dup2\n      mstore\n      0x04\n      add\n      tag_162\n      swap1\n      tag_125\n      jump\t// in\n    tag_162:\n      mload(0x40)\n      dup1\n      swap2\n      sub\n      swap1\n      revert\n    tag_161:\n        /* \"SmartContract.sol\":6874:6912  _safeTransfer(from, to, tokenId, data) */\n      tag_163\n        /* \"SmartContract.sol\":6888:6892  from */\n      dup5\n        /* \"SmartContract.sol\":6894:6896  to */\n      dup5\n        /* \"SmartContract.sol\":6898:6905  tokenId */\n      dup5\n        /* \"SmartContract.sol\":6907:6911  data */\n      dup5\n        /* \"SmartContract.sol\":6874:6887  _safeTransfer */\n      tag_164\n        /* \"SmartContract.sol\":6874:6912  _safeTransfer(from, to, tokenId, data) */\n      jump\t// in\n    tag_163:\n        /* \"SmartContract.sol\":6532:6920  function safeTransferFrom(address from,address to,uint256 tokenId,bytes memory data) public virtual override {... */\n      pop\n      pop\n      pop\n      pop\n      jump\t// out\n        /* \"SmartContract.sol\":14246:14403  function tokenURI(uint256 tokenId) public view override(NFT, ERC721URIStorage) returns (string memory)... */\n    tag_82:\n        /* \"SmartContract.sol\":14334:14347  string memory */\n      0x60\n        /* \"SmartContract.sol\":14372:14395  super.tokenURI(tokenId) */\n      tag_166\n        /* \"SmartContract.sol\":14387:14394  tokenId */\n      dup3\n        /* \"SmartContract.sol\":14372:14386  super.tokenURI */\n      tag_167\n        /* \"SmartContract.sol\":14372:14395  super.tokenURI(tokenId) */\n      jump\t// in\n    tag_166:\n        /* \"SmartContract.sol\":14365:14395  return super.tokenURI(tokenId) */\n      swap1\n      pop\n        /* \"SmartContract.sol\":14246:14403  function tokenURI(uint256 tokenId) public view override(NFT, ERC721URIStorage) returns (string memory)... */\n      swap2\n      swap1\n      pop\n      jump\t// out\n        /* \"SmartContract.sol\":13397:13641  function safeMint(address to, string memory uri) public returns(uint){... */\n    tag_87:\n        /* \"SmartContract.sol\":13461:13465  uint */\n      0x00\n        /* \"SmartContract.sol\":13477:13492  uint256 tokenId */\n      dup1\n        /* \"SmartContract.sol\":13495:13510  _tokenIdCounter */\n      sload(0x07)\n        /* \"SmartContract.sol\":13477:13510  uint256 tokenId = _tokenIdCounter */\n      swap1\n      pop\n        /* \"SmartContract.sol\":13521:13543  _safeMint(to, tokenId) */\n      tag_169\n        /* \"SmartContract.sol\":13531:13533  to */\n      dup5\n        /* \"SmartContract.sol\":13535:13542  tokenId */\n      dup3\n        /* \"SmartContract.sol\":13521:13530  _safeMint */\n      tag_170\n        /* \"SmartContract.sol\":13521:13543  _safeMint(to, tokenId) */\n      jump\t// in\n    tag_169:\n        /* \"SmartContract.sol\":13554:13580  _setTokenURI(tokenId, uri) */\n      tag_171\n        /* \"SmartContract.sol\":13567:13574  tokenId */\n      dup2\n        /* \"SmartContract.sol\":13576:13579  uri */\n      dup5\n        /* \"SmartContract.sol\":13554:13566  _setTokenURI */\n      tag_172\n        /* \"SmartContract.sol\":13554:13580  _setTokenURI(tokenId, uri) */\n      jump\t// in\n    tag_171:\n        /* \"SmartContract.sol\":13591:13606  _tokenIdCounter */\n      0x07\n      0x00\n        /* \"SmartContract.sol\":13591:13608  _tokenIdCounter++ */\n      dup2\n      sload\n      dup1\n      swap3\n      swap2\n      swap1\n      tag_173\n      swap1\n      tag_174\n      jump\t// in\n    tag_173:\n      swap2\n      swap1\n      pop\n      sstore\n      pop\n        /* \"SmartContract.sol\":13626:13633  tokenId */\n      dup1\n        /* \"SmartContract.sol\":13619:13633  return tokenId */\n      swap2\n      pop\n      pop\n        /* \"SmartContract.sol\":13397:13641  function safeMint(address to, string memory uri) public returns(uint){... */\n      swap3\n      swap2\n      pop\n      pop\n      jump\t// out\n        /* \"SmartContract.sol\":5784:5948  function isApprovedForAll(address owner, address operator) public view virtual override returns (bool) {... */\n    tag_92:\n        /* \"SmartContract.sol\":5881:5885  bool */\n      0x00\n        /* \"SmartContract.sol\":5905:5923  _operatorApprovals */\n      0x05\n        /* \"SmartContract.sol\":5905:5930  _operatorApprovals[owner] */\n      0x00\n        /* \"SmartContract.sol\":5924:5929  owner */\n      dup5\n        /* \"SmartContract.sol\":5905:5930  _operatorApprovals[owner] */\n      0xffffffffffffffffffffffffffffffffffffffff\n      and\n      0xffffffffffffffffffffffffffffffffffffffff\n      and\n      dup2\n      mstore\n      0x20\n      add\n      swap1\n      dup2\n      mstore\n      0x20\n      add\n      0x00\n      keccak256\n        /* \"SmartContract.sol\":5905:5940  _operatorApprovals[owner][operator] */\n      0x00\n        /* \"SmartContract.sol\":5931:5939  operator */\n      dup4\n        /* \"SmartContract.sol\":5905:5940  _operatorApprovals[owner][operator] */\n      0xffffffffffffffffffffffffffffffffffffffff\n      and\n      0xffffffffffffffffffffffffffffffffffffffff\n      and\n      dup2\n      mstore\n      0x20\n      add\n      swap1\n      dup2\n      mstore\n      0x20\n      add\n      0x00\n      keccak256\n      0x00\n      swap1\n      sload\n      swap1\n      0x0100\n      exp\n      swap1\n      div\n      0xff\n      and\n        /* \"SmartContract.sol\":5898:5940  return _operatorApprovals[owner][operator] */\n      swap1\n      pop\n        /* \"SmartContract.sol\":5784:5948  function isApprovedForAll(address owner, address operator) public view virtual override returns (bool) {... */\n      swap3\n      swap2\n      pop\n      pop\n      jump\t// out\n        /* \"SmartContract.sol\":1880:2037  function supportsInterface(bytes4 interfaceId) public view virtual override returns (bool) {... */\n    tag_98:\n        /* \"SmartContract.sol\":1965:1969  bool */\n      0x00\n        /* \"SmartContract.sol\":2004:2029  type(IERC165).interfaceId */\n      0x01ffc9a700000000000000000000000000000000000000000000000000000000\n        /* \"SmartContract.sol\":1989:2029  interfaceId == type(IERC165).interfaceId */\n      not(0xffffffffffffffffffffffffffffffffffffffffffffffffffffffff)\n      and\n        /* \"SmartContract.sol\":1989:2000  interfaceId */\n      dup3\n        /* \"SmartContract.sol\":1989:2029  interfaceId == type(IERC165).interfaceId */\n      not(0xffffffffffffffffffffffffffffffffffffffffffffffffffffffff)\n      and\n      eq\n        /* \"SmartContract.sol\":1982:2029  return interfaceId == type(IERC165).interfaceId */\n      swap1\n      pop\n        /* \"SmartContract.sol\":1880:2037  function supportsInterface(bytes4 interfaceId) public view virtual override returns (bool) {... */\n      swap2\n      swap1\n      pop\n      jump\t// out\n        /* \"SmartContract.sol\":10388:10523  function _requireMinted(uint256 tokenId) internal view virtual {... */\n    tag_108:\n        /* \"SmartContract.sol\":10470:10486  _exists(tokenId) */\n      tag_178\n        /* \"SmartContract.sol\":10478:10485  tokenId */\n      dup2\n        /* \"SmartContract.sol\":10470:10477  _exists */\n      tag_179\n        /* \"SmartContract.sol\":10470:10486  _exists(tokenId) */\n      jump\t// in\n    tag_178:\n        /* \"SmartContract.sol\":10462:10515  require(_exists(tokenId), \"ERC721: invalid token ID\") */\n      tag_180\n      jumpi\n      mload(0x40)\n      0x08c379a000000000000000000000000000000000000000000000000000000000\n      dup2\n      mstore\n      0x04\n      add\n      tag_181\n      swap1\n      tag_139\n      jump\t// in\n    tag_181:\n      mload(0x40)\n      dup1\n      swap2\n      sub\n      swap1\n      revert\n    tag_180:\n        /* \"SmartContract.sol\":10388:10523  function _requireMinted(uint256 tokenId) internal view virtual {... */\n      pop\n      jump\t// out\n        /* \"SmartContract.sol\":9926:10093  function _approve(address to, uint256 tokenId) internal virtual {... */\n    tag_119:\n        /* \"SmartContract.sol\":10028:10030  to */\n      dup2\n        /* \"SmartContract.sol\":10001:10016  _tokenApprovals */\n      0x04\n        /* \"SmartContract.sol\":10001:10025  _tokenApprovals[tokenId] */\n      0x00\n        /* \"SmartContract.sol\":10017:10024  tokenId */\n      dup4\n        /* \"SmartContract.sol\":10001:10025  _tokenApprovals[tokenId] */\n      dup2\n      mstore\n      0x20\n      add\n      swap1\n      dup2\n      mstore\n      0x20\n      add\n      0x00\n      keccak256\n      0x00\n        /* \"SmartContract.sol\":10001:10030  _tokenApprovals[tokenId] = to */\n      0x0100\n      exp\n      dup2\n      sload\n      dup2\n      0xffffffffffffffffffffffffffffffffffffffff\n      mul\n      not\n      and\n      swap1\n      dup4\n      0xffffffffffffffffffffffffffffffffffffffff\n      and\n      mul\n      or\n      swap1\n      sstore\n      pop\n        /* \"SmartContract.sol\":10077:10084  tokenId */\n      dup1\n        /* \"SmartContract.sol\":10073:10075  to */\n      dup3\n        /* \"SmartContract.sol\":10046:10085  Approval(_owners[tokenId], to, tokenId) */\n      0xffffffffffffffffffffffffffffffffffffffff\n      and\n        /* \"SmartContract.sol\":10055:10062  _owners */\n      0x02\n        /* \"SmartContract.sol\":10055:10071  _owners[tokenId] */\n      0x00\n        /* \"SmartContract.sol\":10063:10070  tokenId */\n      dup5\n        /* \"SmartContract.sol\":10055:10071  _owners[tokenId] */\n      dup2\n      mstore\n      0x20\n      add\n      swap1\n      dup2\n      mstore\n      0x20\n      add\n      0x00\n      keccak256\n      0x00\n      swap1\n      sload\n      swap1\n      0x0100\n      exp\n      swap1\n      div\n      0xffffffffffffffffffffffffffffffffffffffff\n      and\n        /* \"SmartContract.sol\":10046:10085  Approval(_owners[tokenId], to, tokenId) */\n      0xffffffffffffffffffffffffffffffffffffffff\n      and\n      0x8c5be1e5ebec7d5bd14f71427d1e84f3dd0314c0f7b2291e5b200ac8c7c3b925\n      mload(0x40)\n      mload(0x40)\n      dup1\n      swap2\n      sub\n      swap1\n      log4\n        /* \"SmartContract.sol\":9926:10093  function _approve(address to, uint256 tokenId) internal virtual {... */\n      pop\n      pop\n      jump\t// out\n        /* \"SmartContract.sol\":7338:7647  function _isApprovedOrOwner(address spender, uint256 tokenId) internal view virtual returns (bool) {... */\n    tag_122:\n        /* \"SmartContract.sol\":7431:7435  bool */\n      0x00\n        /* \"SmartContract.sol\":7500:7513  address owner */\n      dup1\n        /* \"SmartContract.sol\":7516:7523  _owners */\n      0x02\n        /* \"SmartContract.sol\":7516:7532  _owners[tokenId] */\n      0x00\n        /* \"SmartContract.sol\":7524:7531  tokenId */\n      dup5\n        /* \"SmartContract.sol\":7516:7532  _owners[tokenId] */\n      dup2\n      mstore\n      0x20\n      add\n      swap1\n      dup2\n      mstore\n      0x20\n      add\n      0x00\n      keccak256\n      0x00\n      swap1\n      sload\n      swap1\n      0x0100\n      exp\n      swap1\n      div\n      0xffffffffffffffffffffffffffffffffffffffff\n      and\n        /* \"SmartContract.sol\":7500:7532  address owner = _owners[tokenId] */\n      swap1\n      pop\n        /* \"SmartContract.sol\":7562:7567  owner */\n      dup1\n        /* \"SmartContract.sol\":7551:7567  spender == owner */\n      0xffffffffffffffffffffffffffffffffffffffff\n      and\n        /* \"SmartContract.sol\":7551:7558  spender */\n      dup5\n        /* \"SmartContract.sol\":7551:7567  spender == owner */\n      0xffffffffffffffffffffffffffffffffffffffff\n      and\n      eq\n        /* \"SmartContract.sol\":7551:7603  spender == owner || isApprovedForAll(owner, spender) */\n      dup1\n      tag_184\n      jumpi\n      pop\n        /* \"SmartContract.sol\":7571:7603  isApprovedForAll(owner, spender) */\n      tag_185\n        /* \"SmartContract.sol\":7588:7593  owner */\n      dup2\n        /* \"SmartContract.sol\":7595:7602  spender */\n      dup6\n        /* \"SmartContract.sol\":7571:7587  isApprovedForAll */\n      tag_92\n        /* \"SmartContract.sol\":7571:7603  isApprovedForAll(owner, spender) */\n      jump\t// in\n    tag_185:\n        /* \"SmartContract.sol\":7551:7603  spender == owner || isApprovedForAll(owner, spender) */\n    tag_184:\n        /* \"SmartContract.sol\":7551:7638  spender == owner || isApprovedForAll(owner, spender) || getApproved(tokenId) == spender */\n      dup1\n      tag_186\n      jumpi\n      pop\n        /* \"SmartContract.sol\":7631:7638  spender */\n      dup4\n        /* \"SmartContract.sol\":7607:7638  getApproved(tokenId) == spender */\n      0xffffffffffffffffffffffffffffffffffffffff\n      and\n        /* \"SmartContract.sol\":7607:7627  getApproved(tokenId) */\n      tag_187\n        /* \"SmartContract.sol\":7619:7626  tokenId */\n      dup5\n        /* \"SmartContract.sol\":7607:7618  getApproved */\n      tag_36\n        /* \"SmartContract.sol\":7607:7627  getApproved(tokenId) */\n      jump\t// in\n    tag_187:\n        /* \"SmartContract.sol\":7607:7638  getApproved(tokenId) == spender */\n      0xffffffffffffffffffffffffffffffffffffffff\n      and\n      eq\n        /* \"SmartContract.sol\":7551:7638  spender == owner || isApprovedForAll(owner, spender) || getApproved(tokenId) == spender */\n    tag_186:\n        /* \"SmartContract.sol\":7543:7639  return (spender == owner || isApprovedForAll(owner, spender) || getApproved(tokenId) == spender) */\n      swap2\n      pop\n      pop\n        /* \"SmartContract.sol\":7338:7647  function _isApprovedOrOwner(address spender, uint256 tokenId) internal view virtual returns (bool) {... */\n      swap3\n      swap2\n      pop\n      pop\n      jump\t// out\n        /* \"SmartContract.sol\":8916:9490  function _transfer(address from,address to,uint256 tokenId) internal virtual {... */\n    tag_127:\n        /* \"SmartContract.sol\":9032:9036  from */\n      dup3\n        /* \"SmartContract.sol\":9012:9036  _owners[tokenId] == from */\n      0xffffffffffffffffffffffffffffffffffffffff\n      and\n        /* \"SmartContract.sol\":9012:9019  _owners */\n      0x02\n        /* \"SmartContract.sol\":9012:9028  _owners[tokenId] */\n      0x00\n        /* \"SmartContract.sol\":9020:9027  tokenId */\n      dup4\n        /* \"SmartContract.sol\":9012:9028  _owners[tokenId] */\n      dup2\n      mstore\n      0x20\n      add\n      swap1\n      dup2\n      mstore\n      0x20\n      add\n      0x00\n      keccak256\n      0x00\n      swap1\n      sload\n      swap1\n      0x0100\n      exp\n      swap1\n      div\n      0xffffffffffffffffffffffffffffffffffffffff\n      and\n        /* \"SmartContract.sol\":9012:9036  _owners[tokenId] == from */\n      0xffffffffffffffffffffffffffffffffffffffff\n      and\n      eq\n        /* \"SmartContract.sol\":9004:9078  require(_owners[tokenId] == from, \"ERC721: transfer from incorrect owner\") */\n      tag_189\n      jumpi\n      mload(0x40)\n      0x08c379a000000000000000000000000000000000000000000000000000000000\n      dup2\n      mstore\n      0x04\n      add\n      tag_190\n      swap1\n      tag_191\n      jump\t// in\n    tag_190:\n      mload(0x40)\n      dup1\n      swap2\n      sub\n      swap1\n      revert\n    tag_189:\n        /* \"SmartContract.sol\":9111:9112  0 */\n      0x00\n        /* \"SmartContract.sol\":9097:9113  to != address(0) */\n      0xffffffffffffffffffffffffffffffffffffffff\n      and\n        /* \"SmartContract.sol\":9097:9099  to */\n      dup3\n        /* \"SmartContract.sol\":9097:9113  to != address(0) */\n      0xffffffffffffffffffffffffffffffffffffffff\n      and\n      sub\n        /* \"SmartContract.sol\":9089:9154  require(to != address(0), \"ERC721: transfer to the zero address\") */\n      tag_192\n      jumpi\n      mload(0x40)\n      0x08c379a000000000000000000000000000000000000000000000000000000000\n      dup2\n      mstore\n      0x04\n      add\n      tag_193\n      swap1\n      tag_194\n      jump\t// in\n    tag_193:\n      mload(0x40)\n      dup1\n      swap2\n      sub\n      swap1\n      revert\n    tag_192:\n        /* \"SmartContract.sol\":9165:9204  _beforeTokenTransfer(from, to, tokenId) */\n      tag_195\n        /* \"SmartContract.sol\":9186:9190  from */\n      dup4\n        /* \"SmartContract.sol\":9192:9194  to */\n      dup4\n        /* \"SmartContract.sol\":9196:9203  tokenId */\n      dup4\n        /* \"SmartContract.sol\":9165:9185  _beforeTokenTransfer */\n      tag_196\n        /* \"SmartContract.sol\":9165:9204  _beforeTokenTransfer(from, to, tokenId) */\n      jump\t// in\n    tag_195:\n        /* \"SmartContract.sol\":9274:9289  _tokenApprovals */\n      0x04\n        /* \"SmartContract.sol\":9274:9298  _tokenApprovals[tokenId] */\n      0x00\n        /* \"SmartContract.sol\":9290:9297  tokenId */\n      dup3\n        /* \"SmartContract.sol\":9274:9298  _tokenApprovals[tokenId] */\n      dup2\n      mstore\n      0x20\n      add\n      swap1\n      dup2\n      mstore\n      0x20\n      add\n      0x00\n      keccak256\n      0x00\n        /* \"SmartContract.sol\":9267:9298  delete _tokenApprovals[tokenId] */\n      0x0100\n      exp\n      dup2\n      sload\n      swap1\n      0xffffffffffffffffffffffffffffffffffffffff\n      mul\n      not\n      and\n      swap1\n      sstore\n        /* \"SmartContract.sol\":9328:9329  1 */\n      0x01\n        /* \"SmartContract.sol\":9309:9318  _balances */\n      0x03\n        /* \"SmartContract.sol\":9309:9324  _balances[from] */\n      0x00\n        /* \"SmartContract.sol\":9319:9323  from */\n      dup6\n        /* \"SmartContract.sol\":9309:9324  _balances[from] */\n      0xffffffffffffffffffffffffffffffffffffffff\n      and\n      0xffffffffffffffffffffffffffffffffffffffff\n      and\n      dup2\n      mstore\n      0x20\n      add\n      swap1\n      dup2\n      mstore\n      0x20\n      add\n      0x00\n      keccak256\n      0x00\n        /* \"SmartContract.sol\":9309:9329  _balances[from] -= 1 */\n      dup3\n      dup3\n      sload\n      tag_197\n      swap2\n      swap1\n      tag_198\n      jump\t// in\n    tag_197:\n      swap3\n      pop\n      pop\n      dup2\n      swap1\n      sstore\n      pop\n        /* \"SmartContract.sol\":9357:9358  1 */\n      0x01\n        /* \"SmartContract.sol\":9340:9349  _balances */\n      0x03\n        /* \"SmartContract.sol\":9340:9353  _balances[to] */\n      0x00\n        /* \"SmartContract.sol\":9350:9352  to */\n      dup5\n        /* \"SmartContract.sol\":9340:9353  _balances[to] */\n      0xffffffffffffffffffffffffffffffffffffffff\n      and\n      0xffffffffffffffffffffffffffffffffffffffff\n      and\n      dup2\n      mstore\n      0x20\n      add\n      swap1\n      dup2\n      mstore\n      0x20\n      add\n      0x00\n      keccak256\n      0x00\n        /* \"SmartContract.sol\":9340:9358  _balances[to] += 1 */\n      dup3\n      dup3\n      sload\n      tag_199\n      swap2\n      swap1\n      tag_200\n      jump\t// in\n    tag_199:\n      swap3\n      pop\n      pop\n      dup2\n      swap1\n      sstore\n      pop\n        /* \"SmartContract.sol\":9388:9390  to */\n      dup2\n        /* \"SmartContract.sol\":9369:9376  _owners */\n      0x02\n        /* \"SmartContract.sol\":9369:9385  _owners[tokenId] */\n      0x00\n        /* \"SmartContract.sol\":9377:9384  tokenId */\n      dup4\n        /* \"SmartContract.sol\":9369:9385  _owners[tokenId] */\n      dup2\n      mstore\n      0x20\n      add\n      swap1\n      dup2\n      mstore\n      0x20\n      add\n      0x00\n      keccak256\n      0x00\n        /* \"SmartContract.sol\":9369:9390  _owners[tokenId] = to */\n      0x0100\n      exp\n      dup2\n      sload\n      dup2\n      0xffffffffffffffffffffffffffffffffffffffff\n      mul\n      not\n      and\n      swap1\n      dup4\n      0xffffffffffffffffffffffffffffffffffffffff\n      and\n      mul\n      or\n      swap1\n      sstore\n      pop\n        /* \"SmartContract.sol\":9425:9432  tokenId */\n      dup1\n        /* \"SmartContract.sol\":9421:9423  to */\n      dup3\n        /* \"SmartContract.sol\":9406:9433  Transfer(from, to, tokenId) */\n      0xffffffffffffffffffffffffffffffffffffffff\n      and\n        /* \"SmartContract.sol\":9415:9419  from */\n      dup5\n        /* \"SmartContract.sol\":9406:9433  Transfer(from, to, tokenId) */\n      0xffffffffffffffffffffffffffffffffffffffff\n      and\n      0xddf252ad1be2c89b69c2b068fc378daa952ba7f163c4a11628f55a4df523b3ef\n      mload(0x40)\n      mload(0x40)\n      dup1\n      swap2\n      sub\n      swap1\n      log4\n        /* \"SmartContract.sol\":9444:9482  _afterTokenTransfer(from, to, tokenId) */\n      tag_201\n        /* \"SmartContract.sol\":9464:9468  from */\n      dup4\n        /* \"SmartContract.sol\":9470:9472  to */\n      dup4\n        /* \"SmartContract.sol\":9474:9481  tokenId */\n      dup4\n        /* \"SmartContract.sol\":9444:9463  _afterTokenTransfer */\n      tag_202\n        /* \"SmartContract.sol\":9444:9482  _afterTokenTransfer(from, to, tokenId) */\n      jump\t// in\n    tag_201:\n        /* \"SmartContract.sol\":8916:9490  function _transfer(address from,address to,uint256 tokenId) internal virtual {... */\n      pop\n      pop\n      pop\n      jump\t// out\n        /* \"SmartContract.sol\":14126:14238  function _burn(uint256 tokenId) internal override(NFT, ERC721URIStorage) {... */\n    tag_133:\n        /* \"SmartContract.sol\":14210:14230  super._burn(tokenId) */\n      tag_204\n        /* \"SmartContract.sol\":14222:14229  tokenId */\n      dup2\n        /* \"SmartContract.sol\":14210:14221  super._burn */\n      tag_205\n        /* \"SmartContract.sol\":14210:14230  super._burn(tokenId) */\n      jump\t// in\n    tag_204:\n        /* \"SmartContract.sol\":14126:14238  function _burn(uint256 tokenId) internal override(NFT, ERC721URIStorage) {... */\n      pop\n      jump\t// out\n        /* \"SmartContract.sol\":9498:9918  function _transferByOwner(address from,address to,uint256 tokenId) internal virtual {... */\n    tag_155:\n        /* \"SmartContract.sol\":9593:9632  _beforeTokenTransfer(from, to, tokenId) */\n      tag_207\n        /* \"SmartContract.sol\":9614:9618  from */\n      dup4\n        /* \"SmartContract.sol\":9620:9622  to */\n      dup4\n        /* \"SmartContract.sol\":9624:9631  tokenId */\n      dup4\n        /* \"SmartContract.sol\":9593:9613  _beforeTokenTransfer */\n      tag_196\n        /* \"SmartContract.sol\":9593:9632  _beforeTokenTransfer(from, to, tokenId) */\n      jump\t// in\n    tag_207:\n        /* \"SmartContract.sol\":9702:9717  _tokenApprovals */\n      0x04\n        /* \"SmartContract.sol\":9702:9726  _tokenApprovals[tokenId] */\n      0x00\n        /* \"SmartContract.sol\":9718:9725  tokenId */\n      dup3\n        /* \"SmartContract.sol\":9702:9726  _tokenApprovals[tokenId] */\n      dup2\n      mstore\n      0x20\n      add\n      swap1\n      dup2\n      mstore\n      0x20\n      add\n      0x00\n      keccak256\n      0x00\n        /* \"SmartContract.sol\":9695:9726  delete _tokenApprovals[tokenId] */\n      0x0100\n      exp\n      dup2\n      sload\n      swap1\n      0xffffffffffffffffffffffffffffffffffffffff\n      mul\n      not\n      and\n      swap1\n      sstore\n        /* \"SmartContract.sol\":9756:9757  1 */\n      0x01\n        /* \"SmartContract.sol\":9737:9746  _balances */\n      0x03\n        /* \"SmartContract.sol\":9737:9752  _balances[from] */\n      0x00\n        /* \"SmartContract.sol\":9747:9751  from */\n      dup6\n        /* \"SmartContract.sol\":9737:9752  _balances[from] */\n      0xffffffffffffffffffffffffffffffffffffffff\n      and\n      0xffffffffffffffffffffffffffffffffffffffff\n      and\n      dup2\n      mstore\n      0x20\n      add\n      swap1\n      dup2\n      mstore\n      0x20\n      add\n      0x00\n      keccak256\n      0x00\n        /* \"SmartContract.sol\":9737:9757  _balances[from] -= 1 */\n      dup3\n      dup3\n      sload\n      tag_208\n      swap2\n      swap1\n      tag_198\n      jump\t// in\n    tag_208:\n      swap3\n      pop\n      pop\n      dup2\n      swap1\n      sstore\n      pop\n        /* \"SmartContract.sol\":9785:9786  1 */\n      0x01\n        /* \"SmartContract.sol\":9768:9777  _balances */\n      0x03\n        /* \"SmartContract.sol\":9768:9781  _balances[to] */\n      0x00\n        /* \"SmartContract.sol\":9778:9780  to */\n      dup5\n        /* \"SmartContract.sol\":9768:9781  _balances[to] */\n      0xffffffffffffffffffffffffffffffffffffffff\n      and\n      0xffffffffffffffffffffffffffffffffffffffff\n      and\n      dup2\n      mstore\n      0x20\n      add\n      swap1\n      dup2\n      mstore\n      0x20\n      add\n      0x00\n      keccak256\n      0x00\n        /* \"SmartContract.sol\":9768:9786  _balances[to] += 1 */\n      dup3\n      dup3\n      sload\n      tag_209\n      swap2\n      swap1\n      tag_200\n      jump\t// in\n    tag_209:\n      swap3\n      pop\n      pop\n      dup2\n      swap1\n      sstore\n      pop\n        /* \"SmartContract.sol\":9816:9818  to */\n      dup2\n        /* \"SmartContract.sol\":9797:9804  _owners */\n      0x02\n        /* \"SmartContract.sol\":9797:9813  _owners[tokenId] */\n      0x00\n        /* \"SmartContract.sol\":9805:9812  tokenId */\n      dup4\n        /* \"SmartContract.sol\":9797:9813  _owners[tokenId] */\n      dup2\n      mstore\n      0x20\n      add\n      swap1\n      dup2\n      mstore\n      0x20\n      add\n      0x00\n      keccak256\n      0x00\n        /* \"SmartContract.sol\":9797:9818  _owners[tokenId] = to */\n      0x0100\n      exp\n      dup2\n      sload\n      dup2\n      0xffffffffffffffffffffffffffffffffffffffff\n      mul\n      not\n      and\n      swap1\n      dup4\n      0xffffffffffffffffffffffffffffffffffffffff\n      and\n      mul\n      or\n      swap1\n      sstore\n      pop\n        /* \"SmartContract.sol\":9853:9860  tokenId */\n      dup1\n        /* \"SmartContract.sol\":9849:9851  to */\n      dup3\n        /* \"SmartContract.sol\":9834:9861  Transfer(from, to, tokenId) */\n      0xffffffffffffffffffffffffffffffffffffffff\n      and\n        /* \"SmartContract.sol\":9843:9847  from */\n      dup5\n        /* \"SmartContract.sol\":9834:9861  Transfer(from, to, tokenId) */\n      0xffffffffffffffffffffffffffffffffffffffff\n      and\n      0xddf252ad1be2c89b69c2b068fc378daa952ba7f163c4a11628f55a4df523b3ef\n      mload(0x40)\n      mload(0x40)\n      dup1\n      swap2\n      sub\n      swap1\n      log4\n        /* \"SmartContract.sol\":9872:9910  _afterTokenTransfer(from, to, tokenId) */\n      tag_210\n        /* \"SmartContract.sol\":9892:9896  from */\n      dup4\n        /* \"SmartContract.sol\":9898:9900  to */\n      dup4\n        /* \"SmartContract.sol\":9902:9909  tokenId */\n      dup4\n        /* \"SmartContract.sol\":9872:9891  _afterTokenTransfer */\n      tag_202\n        /* \"SmartContract.sol\":9872:9910  _afterTokenTransfer(from, to, tokenId) */\n      jump\t// in\n    tag_210:\n        /* \"SmartContract.sol\":9498:9918  function _transferByOwner(address from,address to,uint256 tokenId) internal virtual {... */\n      pop\n      pop\n      pop\n      jump\t// out\n        /* \"SmartContract.sol\":10101:10380  function _setApprovalForAll(address owner,address operator,bool approved) internal virtual {... */\n    tag_158:\n        /* \"SmartContract.sol\":10220:10228  operator */\n      dup2\n        /* \"SmartContract.sol\":10211:10228  owner != operator */\n      0xffffffffffffffffffffffffffffffffffffffff\n      and\n        /* \"SmartContract.sol\":10211:10216  owner */\n      dup4\n        /* \"SmartContract.sol\":10211:10228  owner != operator */\n      0xffffffffffffffffffffffffffffffffffffffff\n      and\n      sub\n        /* \"SmartContract.sol\":10203:10258  require(owner != operator, \"ERC721: approve to caller\") */\n      tag_212\n      jumpi\n      mload(0x40)\n      0x08c379a000000000000000000000000000000000000000000000000000000000\n      dup2\n      mstore\n      0x04\n      add\n      tag_213\n      swap1\n      tag_214\n      jump\t// in\n    tag_213:\n      mload(0x40)\n      dup1\n      swap2\n      sub\n      swap1\n      revert\n    tag_212:\n        /* \"SmartContract.sol\":10307:10315  approved */\n      dup1\n        /* \"SmartContract.sol\":10269:10287  _operatorApprovals */\n      0x05\n        /* \"SmartContract.sol\":10269:10294  _operatorApprovals[owner] */\n      0x00\n        /* \"SmartContract.sol\":10288:10293  owner */\n      dup6\n        /* \"SmartContract.sol\":10269:10294  _operatorApprovals[owner] */\n      0xffffffffffffffffffffffffffffffffffffffff\n      and\n      0xffffffffffffffffffffffffffffffffffffffff\n      and\n      dup2\n      mstore\n      0x20\n      add\n      swap1\n      dup2\n      mstore\n      0x20\n      add\n      0x00\n      keccak256\n        /* \"SmartContract.sol\":10269:10304  _operatorApprovals[owner][operator] */\n      0x00\n        /* \"SmartContract.sol\":10295:10303  operator */\n      dup5\n        /* \"SmartContract.sol\":10269:10304  _operatorApprovals[owner][operator] */\n      0xffffffffffffffffffffffffffffffffffffffff\n      and\n      0xffffffffffffffffffffffffffffffffffffffff\n      and\n      dup2\n      mstore\n      0x20\n      add\n      swap1\n      dup2\n      mstore\n      0x20\n      add\n      0x00\n      keccak256\n      0x00\n        /* \"SmartContract.sol\":10269:10315  _operatorApprovals[owner][operator] = approved */\n      0x0100\n      exp\n      dup2\n      sload\n      dup2\n      0xff\n      mul\n      not\n      and\n      swap1\n      dup4\n      iszero\n      iszero\n      mul\n      or\n      swap1\n      sstore\n      pop\n        /* \"SmartContract.sol\":10353:10361  operator */\n      dup2\n        /* \"SmartContract.sol\":10331:10372  ApprovalForAll(owner, operator, approved) */\n      0xffffffffffffffffffffffffffffffffffffffff\n      and\n        /* \"SmartContract.sol\":10346:10351  owner */\n      dup4\n        /* \"SmartContract.sol\":10331:10372  ApprovalForAll(owner, operator, approved) */\n      0xffffffffffffffffffffffffffffffffffffffff\n      and\n      0x17307eab39ab6107e8899845ad3d59bd9653f200f220920489ca2b5937696c31\n        /* \"SmartContract.sol\":10363:10371  approved */\n      dup4\n        /* \"SmartContract.sol\":10331:10372  ApprovalForAll(owner, operator, approved) */\n      mload(0x40)\n      tag_215\n      swap2\n      swap1\n      tag_28\n      jump\t// in\n    tag_215:\n      mload(0x40)\n      dup1\n      swap2\n      sub\n      swap1\n      log3\n        /* \"SmartContract.sol\":10101:10380  function _setApprovalForAll(address owner,address operator,bool approved) internal virtual {... */\n      pop\n      pop\n      pop\n      jump\t// out\n        /* \"SmartContract.sol\":6928:7195  function _safeTransfer(address from,address to,uint256 tokenId,bytes memory data) internal virtual {... */\n    tag_164:\n        /* \"SmartContract.sol\":7038:7066  _transfer(from, to, tokenId) */\n      tag_217\n        /* \"SmartContract.sol\":7048:7052  from */\n      dup5\n        /* \"SmartContract.sol\":7054:7056  to */\n      dup5\n        /* \"SmartContract.sol\":7058:7065  tokenId */\n      dup5\n        /* \"SmartContract.sol\":7038:7047  _transfer */\n      tag_127\n        /* \"SmartContract.sol\":7038:7066  _transfer(from, to, tokenId) */\n      jump\t// in\n    tag_217:\n        /* \"SmartContract.sol\":7085:7132  _checkOnERC721Received(from, to, tokenId, data) */\n      tag_218\n        /* \"SmartContract.sol\":7108:7112  from */\n      dup5\n        /* \"SmartContract.sol\":7114:7116  to */\n      dup5\n        /* \"SmartContract.sol\":7118:7125  tokenId */\n      dup5\n        /* \"SmartContract.sol\":7127:7131  data */\n      dup5\n        /* \"SmartContract.sol\":7085:7107  _checkOnERC721Received */\n      tag_219\n        /* \"SmartContract.sol\":7085:7132  _checkOnERC721Received(from, to, tokenId, data) */\n      jump\t// in\n    tag_218:\n        /* \"SmartContract.sol\":7077:7187  require(_checkOnERC721Received(from, to, tokenId, data), \"ERC721: transfer to non ERC721Receiver implementer\") */\n      tag_220\n      jumpi\n      mload(0x40)\n      0x08c379a000000000000000000000000000000000000000000000000000000000\n      dup2\n      mstore\n      0x04\n      add\n      tag_221\n      swap1\n      tag_222\n      jump\t// in\n    tag_221:\n      mload(0x40)\n      dup1\n      swap2\n      sub\n      swap1\n      revert\n    tag_220:\n        /* \"SmartContract.sol\":6928:7195  function _safeTransfer(address from,address to,uint256 tokenId,bytes memory data) internal virtual {... */\n      pop\n      pop\n      pop\n      pop\n      jump\t// out\n        /* \"SmartContract.sol\":12261:12736  function tokenURI(uint256 tokenId) public view virtual override returns (string memory) {... */\n    tag_167:\n        /* \"SmartContract.sol\":12334:12347  string memory */\n      0x60\n        /* \"SmartContract.sol\":12360:12383  _requireMinted(tokenId) */\n      tag_224\n        /* \"SmartContract.sol\":12375:12382  tokenId */\n      dup3\n        /* \"SmartContract.sol\":12360:12374  _requireMinted */\n      tag_108\n        /* \"SmartContract.sol\":12360:12383  _requireMinted(tokenId) */\n      jump\t// in\n    tag_224:\n        /* \"SmartContract.sol\":12396:12419  string memory _tokenURI */\n      0x00\n        /* \"SmartContract.sol\":12422:12432  _tokenURIs */\n      0x06\n        /* \"SmartContract.sol\":12422:12441  _tokenURIs[tokenId] */\n      0x00\n        /* \"SmartContract.sol\":12433:12440  tokenId */\n      dup5\n        /* \"SmartContract.sol\":12422:12441  _tokenURIs[tokenId] */\n      dup2\n      mstore\n      0x20\n      add\n      swap1\n      dup2\n      mstore\n      0x20\n      add\n      0x00\n      keccak256\n        /* \"SmartContract.sol\":12396:12441  string memory _tokenURI = _tokenURIs[tokenId] */\n      dup1\n      sload\n      tag_225\n      swap1\n      tag_101\n      jump\t// in\n    tag_225:\n      dup1\n      0x1f\n      add\n      0x20\n      dup1\n      swap2\n      div\n      mul\n      0x20\n      add\n      mload(0x40)\n      swap1\n      dup2\n      add\n      0x40\n      mstore\n      dup1\n      swap3\n      swap2\n      swap1\n      dup2\n      dup2\n      mstore\n      0x20\n      add\n      dup3\n      dup1\n      sload\n      tag_226\n      swap1\n      tag_101\n      jump\t// in\n    tag_226:\n      dup1\n      iszero\n      tag_227\n      jumpi\n      dup1\n      0x1f\n      lt\n      tag_228\n      jumpi\n      0x0100\n      dup1\n      dup4\n      sload\n      div\n      mul\n      dup4\n      mstore\n      swap2\n      0x20\n      add\n      swap2\n      jump(tag_227)\n    tag_228:\n      dup3\n      add\n      swap2\n      swap1\n      0x00\n      mstore\n      keccak256(0x00, 0x20)\n      swap1\n    tag_229:\n      dup2\n      sload\n      dup2\n      mstore\n      swap1\n      0x01\n      add\n      swap1\n      0x20\n      add\n      dup1\n      dup4\n      gt\n      tag_229\n      jumpi\n      dup3\n      swap1\n      sub\n      0x1f\n      and\n      dup3\n      add\n      swap2\n    tag_227:\n      pop\n      pop\n      pop\n      pop\n      pop\n      swap1\n      pop\n        /* \"SmartContract.sol\":12452:12470  string memory base */\n      0x00\n        /* \"SmartContract.sol\":12473:12483  _baseURI() */\n      tag_230\n        /* \"SmartContract.sol\":12473:12481  _baseURI */\n      tag_231\n        /* \"SmartContract.sol\":12473:12483  _baseURI() */\n      jump\t// in\n    tag_230:\n        /* \"SmartContract.sol\":12452:12483  string memory base = _baseURI() */\n      swap1\n      pop\n        /* \"SmartContract.sol\":12522:12523  0 */\n      0x00\n        /* \"SmartContract.sol\":12506:12510  base */\n      dup2\n        /* \"SmartContract.sol\":12500:12518  bytes(base).length */\n      mload\n        /* \"SmartContract.sol\":12500:12523  bytes(base).length == 0 */\n      sub\n        /* \"SmartContract.sol\":12496:12568  if (bytes(base).length == 0) {... */\n      tag_232\n      jumpi\n        /* \"SmartContract.sol\":12547:12556  _tokenURI */\n      dup2\n        /* \"SmartContract.sol\":12540:12556  return _tokenURI */\n      swap3\n      pop\n      pop\n      pop\n      jump(tag_223)\n        /* \"SmartContract.sol\":12496:12568  if (bytes(base).length == 0) {... */\n    tag_232:\n        /* \"SmartContract.sol\":12608:12609  0 */\n      0x00\n        /* \"SmartContract.sol\":12588:12597  _tokenURI */\n      dup3\n        /* \"SmartContract.sol\":12582:12605  bytes(_tokenURI).length */\n      mload\n        /* \"SmartContract.sol\":12582:12609  bytes(_tokenURI).length > 0 */\n      gt\n        /* \"SmartContract.sol\":12578:12686  if (bytes(_tokenURI).length > 0) {... */\n      iszero\n      tag_233\n      jumpi\n        /* \"SmartContract.sol\":12657:12661  base */\n      dup1\n        /* \"SmartContract.sol\":12663:12672  _tokenURI */\n      dup3\n        /* \"SmartContract.sol\":12640:12673  abi.encodePacked(base, _tokenURI) */\n      add(0x20, mload(0x40))\n      tag_234\n      swap3\n      swap2\n      swap1\n      tag_235\n      jump\t// in\n    tag_234:\n      mload(0x40)\n      0x20\n      dup2\n      dup4\n      sub\n      sub\n      dup2\n      mstore\n      swap1\n      0x40\n      mstore\n        /* \"SmartContract.sol\":12626:12674  return string(abi.encodePacked(base, _tokenURI)) */\n      swap3\n      pop\n      pop\n      pop\n      jump(tag_223)\n        /* \"SmartContract.sol\":12578:12686  if (bytes(_tokenURI).length > 0) {... */\n    tag_233:\n        /* \"SmartContract.sol\":12705:12728  super.tokenURI(tokenId) */\n      tag_236\n        /* \"SmartContract.sol\":12720:12727  tokenId */\n      dup5\n        /* \"SmartContract.sol\":12705:12719  super.tokenURI */\n      tag_237\n        /* \"SmartContract.sol\":12705:12728  super.tokenURI(tokenId) */\n      jump\t// in\n    tag_236:\n        /* \"SmartContract.sol\":12698:12728  return super.tokenURI(tokenId) */\n      swap3\n      pop\n      pop\n      pop\n        /* \"SmartContract.sol\":12261:12736  function tokenURI(uint256 tokenId) public view virtual override returns (string memory) {... */\n    tag_223:\n      swap2\n      swap1\n      pop\n      jump\t// out\n        /* \"SmartContract.sol\":7655:7765  function _safeMint(address to, uint256 tokenId) internal virtual {... */\n    tag_170:\n        /* \"SmartContract.sol\":7731:7757  _safeMint(to, tokenId, \"\") */\n      tag_239\n        /* \"SmartContract.sol\":7741:7743  to */\n      dup3\n        /* \"SmartContract.sol\":7745:7752  tokenId */\n      dup3\n        /* \"SmartContract.sol\":7731:7757  _safeMint(to, tokenId, \"\") */\n      mload(0x40)\n      dup1\n      0x20\n      add\n      0x40\n      mstore\n      dup1\n      0x00\n      dup2\n      mstore\n      pop\n        /* \"SmartContract.sol\":7731:7740  _safeMint */\n      tag_240\n        /* \"SmartContract.sol\":7731:7757  _safeMint(to, tokenId, \"\") */\n      jump\t// in\n    tag_239:\n        /* \"SmartContract.sol\":7655:7765  function _safeMint(address to, uint256 tokenId) internal virtual {... */\n      pop\n      pop\n      jump\t// out\n        /* \"SmartContract.sol\":12744:12961  function _setTokenURI(uint256 tokenId, string memory _tokenURI) internal virtual {... */\n    tag_172:\n        /* \"SmartContract.sol\":12844:12860  _exists(tokenId) */\n      tag_242\n        /* \"SmartContract.sol\":12852:12859  tokenId */\n      dup3\n        /* \"SmartContract.sol\":12844:12851  _exists */\n      tag_179\n        /* \"SmartContract.sol\":12844:12860  _exists(tokenId) */\n      jump\t// in\n    tag_242:\n        /* \"SmartContract.sol\":12836:12911  require(_exists(tokenId), \"ERC721URIStorage: URI set of nonexistent token\") */\n      tag_243\n      jumpi\n      mload(0x40)\n      0x08c379a000000000000000000000000000000000000000000000000000000000\n      dup2\n      mstore\n      0x04\n      add\n      tag_244\n      swap1\n      tag_245\n      jump\t// in\n    tag_244:\n      mload(0x40)\n      dup1\n      swap2\n      sub\n      swap1\n      revert\n    tag_243:\n        /* \"SmartContract.sol\":12944:12953  _tokenURI */\n      dup1\n        /* \"SmartContract.sol\":12922:12932  _tokenURIs */\n      0x06\n        /* \"SmartContract.sol\":12922:12941  _tokenURIs[tokenId] */\n      0x00\n        /* \"SmartContract.sol\":12933:12940  tokenId */\n      dup5\n        /* \"SmartContract.sol\":12922:12941  _tokenURIs[tokenId] */\n      dup2\n      mstore\n      0x20\n      add\n      swap1\n      dup2\n      mstore\n      0x20\n      add\n      0x00\n      keccak256\n        /* \"SmartContract.sol\":12922:12953  _tokenURIs[tokenId] = _tokenURI */\n      swap1\n      dup2\n      tag_246\n      swap2\n      swap1\n      tag_247\n      jump\t// in\n    tag_246:\n      pop\n        /* \"SmartContract.sol\":12744:12961  function _setTokenURI(uint256 tokenId, string memory _tokenURI) internal virtual {... */\n      pop\n      pop\n      jump\t// out\n        /* \"SmartContract.sol\":7203:7330  function _exists(uint256 tokenId) internal view virtual returns (bool) {... */\n    tag_179:\n        /* \"SmartContract.sol\":7268:7272  bool */\n      0x00\n        /* \"SmartContract.sol\":7320:7321  0 */\n      dup1\n        /* \"SmartContract.sol\":7292:7322  _owners[tokenId] != address(0) */\n      0xffffffffffffffffffffffffffffffffffffffff\n      and\n        /* \"SmartContract.sol\":7292:7299  _owners */\n      0x02\n        /* \"SmartContract.sol\":7292:7308  _owners[tokenId] */\n      0x00\n        /* \"SmartContract.sol\":7300:7307  tokenId */\n      dup5\n        /* \"SmartContract.sol\":7292:7308  _owners[tokenId] */\n      dup2\n      mstore\n      0x20\n      add\n      swap1\n      dup2\n      mstore\n      0x20\n      add\n      0x00\n      keccak256\n      0x00\n      swap1\n      sload\n      swap1\n      0x0100\n      exp\n      swap1\n      div\n      0xffffffffffffffffffffffffffffffffffffffff\n      and\n        /* \"SmartContract.sol\":7292:7322  _owners[tokenId] != address(0) */\n      0xffffffffffffffffffffffffffffffffffffffff\n      and\n      eq\n      iszero\n        /* \"SmartContract.sol\":7285:7322  return _owners[tokenId] != address(0) */\n      swap1\n      pop\n        /* \"SmartContract.sol\":7203:7330  function _exists(uint256 tokenId) internal view virtual returns (bool) {... */\n      swap2\n      swap1\n      pop\n      jump\t// out\n        /* \"SmartContract.sol\":11315:11405  function _beforeTokenTransfer(address from,address to,uint256 tokenId) internal virtual {} */\n    tag_196:\n      pop\n      pop\n      pop\n      jump\t// out\n        /* \"SmartContract.sol\":11413:11502  function _afterTokenTransfer(address from,address to,uint256 tokenId) internal virtual {} */\n    tag_202:\n      pop\n      pop\n      pop\n      jump\t// out\n        /* \"SmartContract.sol\":12969:13175  function _burn(uint256 tokenId) internal virtual override {... */\n    tag_205:\n        /* \"SmartContract.sol\":13038:13058  super._burn(tokenId) */\n      tag_252\n        /* \"SmartContract.sol\":13050:13057  tokenId */\n      dup2\n        /* \"SmartContract.sol\":13038:13049  super._burn */\n      tag_253\n        /* \"SmartContract.sol\":13038:13058  super._burn(tokenId) */\n      jump\t// in\n    tag_252:\n        /* \"SmartContract.sol\":13112:13113  0 */\n      0x00\n        /* \"SmartContract.sol\":13081:13091  _tokenURIs */\n      0x06\n        /* \"SmartContract.sol\":13081:13100  _tokenURIs[tokenId] */\n      0x00\n        /* \"SmartContract.sol\":13092:13099  tokenId */\n      dup4\n        /* \"SmartContract.sol\":13081:13100  _tokenURIs[tokenId] */\n      dup2\n      mstore\n      0x20\n      add\n      swap1\n      dup2\n      mstore\n      0x20\n      add\n      0x00\n      keccak256\n        /* \"SmartContract.sol\":13075:13108  bytes(_tokenURIs[tokenId]).length */\n      dup1\n      sload\n      tag_254\n      swap1\n      tag_101\n      jump\t// in\n    tag_254:\n      swap1\n      pop\n        /* \"SmartContract.sol\":13075:13113  bytes(_tokenURIs[tokenId]).length != 0 */\n      eq\n        /* \"SmartContract.sol\":13071:13168  if (bytes(_tokenURIs[tokenId]).length != 0) {... */\n      tag_255\n      jumpi\n        /* \"SmartContract.sol\":13137:13147  _tokenURIs */\n      0x06\n        /* \"SmartContract.sol\":13137:13156  _tokenURIs[tokenId] */\n      0x00\n        /* \"SmartContract.sol\":13148:13155  tokenId */\n      dup3\n        /* \"SmartContract.sol\":13137:13156  _tokenURIs[tokenId] */\n      dup2\n      mstore\n      0x20\n      add\n      swap1\n      dup2\n      mstore\n      0x20\n      add\n      0x00\n      keccak256\n      0x00\n        /* \"SmartContract.sol\":13130:13156  delete _tokenURIs[tokenId] */\n      tag_256\n      swap2\n      swap1\n      tag_257\n      jump\t// in\n    tag_256:\n        /* \"SmartContract.sol\":13071:13168  if (bytes(_tokenURIs[tokenId]).length != 0) {... */\n    tag_255:\n        /* \"SmartContract.sol\":12969:13175  function _burn(uint256 tokenId) internal virtual override {... */\n      pop\n      jump\t// out\n        /* \"SmartContract.sol\":10531:11307  function _checkOnERC721Received(address from,address to,uint256 tokenId,bytes memory data... */\n    tag_219:\n        /* \"SmartContract.sol\":10645:10649  bool */\n      0x00\n        /* \"SmartContract.sol\":10668:10672  true */\n      0x01\n        /* \"SmartContract.sol\":10664:11300  if (true/*to.code.length>0*/) {//in Address... */\n      iszero\n      tag_259\n      jumpi\n        /* \"SmartContract.sol\":10740:10742  to */\n      dup4\n        /* \"SmartContract.sol\":10725:10760  ERC721Receiver(to).onERC721Received */\n      0xffffffffffffffffffffffffffffffffffffffff\n      and\n      0x150b7a02\n        /* \"SmartContract.sol\":10761:10771  msg.sender */\n      caller\n        /* \"SmartContract.sol\":10773:10777  from */\n      dup8\n        /* \"SmartContract.sol\":10779:10786  tokenId */\n      dup7\n        /* \"SmartContract.sol\":10788:10792  data */\n      dup7\n        /* \"SmartContract.sol\":10725:10793  ERC721Receiver(to).onERC721Received(msg.sender, from, tokenId, data) */\n      mload(0x40)\n      dup6\n      0xffffffff\n      and\n      0xe0\n      shl\n      dup2\n      mstore\n      0x04\n      add\n      tag_260\n      swap5\n      swap4\n      swap3\n      swap2\n      swap1\n      tag_261\n      jump\t// in\n    tag_260:\n      0x20\n      mload(0x40)\n      dup1\n      dup4\n      sub\n      dup2\n      0x00\n      dup8\n      gas\n      call\n      swap3\n      pop\n      pop\n      pop\n      dup1\n      iszero\n      tag_262\n      jumpi\n      pop\n      mload(0x40)\n      returndatasize\n      not(0x1f)\n      0x1f\n      dup3\n      add\n      and\n      dup3\n      add\n      dup1\n      0x40\n      mstore\n      pop\n      dup2\n      add\n      swap1\n      tag_263\n      swap2\n      swap1\n      tag_264\n      jump\t// in\n    tag_263:\n      0x01\n    tag_262:\n        /* \"SmartContract.sol\":10721:11245  try ERC721Receiver(to).onERC721Received(msg.sender, from, tokenId, data) returns (bytes4 retval) {... */\n      tag_265\n      jumpi\n      returndatasize\n      dup1\n      0x00\n      dup2\n      eq\n      tag_270\n      jumpi\n      mload(0x40)\n      swap2\n      pop\n      and(add(returndatasize, 0x3f), not(0x1f))\n      dup3\n      add\n      0x40\n      mstore\n      returndatasize\n      dup3\n      mstore\n      returndatasize\n      0x00\n      0x20\n      dup5\n      add\n      returndatacopy\n      jump(tag_269)\n    tag_270:\n      0x60\n      swap2\n      pop\n    tag_269:\n      pop\n        /* \"SmartContract.sol\":10979:10980  0 */\n      0x00\n        /* \"SmartContract.sol\":10962:10968  reason */\n      dup2\n        /* \"SmartContract.sol\":10962:10975  reason.length */\n      mload\n        /* \"SmartContract.sol\":10962:10980  reason.length == 0 */\n      sub\n        /* \"SmartContract.sol\":10958:11230  if (reason.length == 0) {... */\n      tag_271\n      jumpi\n        /* \"SmartContract.sol\":11005:11065  revert(\"ERC721: transfer to non ERC721Receiver implementer\") */\n      mload(0x40)\n      0x08c379a000000000000000000000000000000000000000000000000000000000\n      dup2\n      mstore\n      0x04\n      add\n      tag_272\n      swap1\n      tag_222\n      jump\t// in\n    tag_272:\n      mload(0x40)\n      dup1\n      swap2\n      sub\n      swap1\n      revert\n        /* \"SmartContract.sol\":10958:11230  if (reason.length == 0) {... */\n    tag_271:\n        /* \"SmartContract.sol\":11180:11186  reason */\n      dup1\n        /* \"SmartContract.sol\":11174:11187  mload(reason) */\n      mload\n        /* \"SmartContract.sol\":11165:11171  reason */\n      dup2\n        /* \"SmartContract.sol\":11161:11163  32 */\n      0x20\n        /* \"SmartContract.sol\":11157:11172  add(32, reason) */\n      add\n        /* \"SmartContract.sol\":11150:11188  revert(add(32, reason), mload(reason)) */\n      revert\n        /* \"SmartContract.sol\":10721:11245  try ERC721Receiver(to).onERC721Received(msg.sender, from, tokenId, data) returns (bytes4 retval) {... */\n    tag_265:\n        /* \"SmartContract.sol\":10854:10894  ERC721Receiver.onERC721Received.selector */\n      shl(0xe0, 0x150b7a02)\n        /* \"SmartContract.sol\":10844:10894  retval == ERC721Receiver.onERC721Received.selector */\n      not(0xffffffffffffffffffffffffffffffffffffffffffffffffffffffff)\n      and\n        /* \"SmartContract.sol\":10844:10850  retval */\n      dup2\n        /* \"SmartContract.sol\":10844:10894  retval == ERC721Receiver.onERC721Received.selector */\n      not(0xffffffffffffffffffffffffffffffffffffffffffffffffffffffff)\n      and\n      eq\n        /* \"SmartContract.sol\":10837:10894  return retval == ERC721Receiver.onERC721Received.selector */\n      swap2\n      pop\n      pop\n      jump(tag_258)\n        /* \"SmartContract.sol\":10664:11300  if (true/*to.code.length>0*/) {//in Address... */\n    tag_259:\n        /* \"SmartContract.sol\":11284:11288  true */\n      0x01\n        /* \"SmartContract.sol\":11277:11288  return true */\n      swap1\n      pop\n        /* \"SmartContract.sol\":10531:11307  function _checkOnERC721Received(address from,address to,uint256 tokenId,bytes memory data... */\n    tag_258:\n      swap5\n      swap4\n      pop\n      pop\n      pop\n      pop\n      jump\t// out\n        /* \"SmartContract.sol\":12019:12113  function _baseURI() internal view virtual returns (string memory) {... */\n    tag_231:\n        /* \"SmartContract.sol\":12070:12083  string memory */\n      0x60\n        /* \"SmartContract.sol\":12096:12105  return \"\" */\n      mload(0x40)\n      dup1\n      0x20\n      add\n      0x40\n      mstore\n      dup1\n      0x00\n      dup2\n      mstore\n      pop\n      swap1\n      pop\n        /* \"SmartContract.sol\":12019:12113  function _baseURI() internal view virtual returns (string memory) {... */\n      swap1\n      jump\t// out\n        /* \"SmartContract.sol\":11730:12011  function tokenURI(uint256 tokenId) public view virtual override returns (string memory) {... */\n    tag_237:\n        /* \"SmartContract.sol\":11803:11816  string memory */\n      0x60\n        /* \"SmartContract.sol\":11829:11852  _requireMinted(tokenId) */\n      tag_278\n        /* \"SmartContract.sol\":11844:11851  tokenId */\n      dup3\n        /* \"SmartContract.sol\":11829:11843  _requireMinted */\n      tag_108\n        /* \"SmartContract.sol\":11829:11852  _requireMinted(tokenId) */\n      jump\t// in\n    tag_278:\n        /* \"SmartContract.sol\":11865:11886  string memory baseURI */\n      0x00\n        /* \"SmartContract.sol\":11889:11899  _baseURI() */\n      tag_279\n        /* \"SmartContract.sol\":11889:11897  _baseURI */\n      tag_231\n        /* \"SmartContract.sol\":11889:11899  _baseURI() */\n      jump\t// in\n    tag_279:\n        /* \"SmartContract.sol\":11865:11899  string memory baseURI = _baseURI() */\n      swap1\n      pop\n        /* \"SmartContract.sol\":11941:11942  0 */\n      0x00\n        /* \"SmartContract.sol\":11923:11930  baseURI */\n      dup2\n        /* \"SmartContract.sol\":11917:11938  bytes(baseURI).length */\n      mload\n        /* \"SmartContract.sol\":11917:11942  bytes(baseURI).length > 0 */\n      gt\n        /* \"SmartContract.sol\":11917:12003  bytes(baseURI).length > 0 ? string(abi.encodePacked(baseURI, tokenId.toString())) : \"\" */\n      tag_280\n      jumpi\n      mload(0x40)\n      dup1\n      0x20\n      add\n      0x40\n      mstore\n      dup1\n      0x00\n      dup2\n      mstore\n      pop\n      jump(tag_281)\n    tag_280:\n        /* \"SmartContract.sol\":11969:11976  baseURI */\n      dup1\n        /* \"SmartContract.sol\":11978:11996  tokenId.toString() */\n      tag_282\n        /* \"SmartContract.sol\":11978:11985  tokenId */\n      dup5\n        /* \"SmartContract.sol\":11978:11994  tokenId.toString */\n      tag_283\n        /* \"SmartContract.sol\":11978:11996  tokenId.toString() */\n      jump\t// in\n    tag_282:\n        /* \"SmartContract.sol\":11952:11997  abi.encodePacked(baseURI, tokenId.toString()) */\n      add(0x20, mload(0x40))\n      tag_284\n      swap3\n      swap2\n      swap1\n      tag_235\n      jump\t// in\n    tag_284:\n      mload(0x40)\n      0x20\n      dup2\n      dup4\n      sub\n      sub\n      dup2\n      mstore\n      swap1\n      0x40\n      mstore\n        /* \"SmartContract.sol\":11917:12003  bytes(baseURI).length > 0 ? string(abi.encodePacked(baseURI, tokenId.toString())) : \"\" */\n    tag_281:\n        /* \"SmartContract.sol\":11910:12003  return bytes(baseURI).length > 0 ? string(abi.encodePacked(baseURI, tokenId.toString())) : \"\" */\n      swap2\n      pop\n      pop\n        /* \"SmartContract.sol\":11730:12011  function tokenURI(uint256 tokenId) public view virtual override returns (string memory) {... */\n      swap2\n      swap1\n      pop\n      jump\t// out\n        /* \"SmartContract.sol\":7773:8056  function _safeMint(address to,uint256 tokenId,bytes memory data) internal virtual {... */\n    tag_240:\n        /* \"SmartContract.sol\":7866:7884  _mint(to, tokenId) */\n      tag_286\n        /* \"SmartContract.sol\":7872:7874  to */\n      dup4\n        /* \"SmartContract.sol\":7876:7883  tokenId */\n      dup4\n        /* \"SmartContract.sol\":7866:7871  _mint */\n      tag_287\n        /* \"SmartContract.sol\":7866:7884  _mint(to, tokenId) */\n      jump\t// in\n    tag_286:\n        /* \"SmartContract.sol\":7917:7970  _checkOnERC721Received(address(0), to, tokenId, data) */\n      tag_288\n        /* \"SmartContract.sol\":7948:7949  0 */\n      0x00\n        /* \"SmartContract.sol\":7952:7954  to */\n      dup5\n        /* \"SmartContract.sol\":7956:7963  tokenId */\n      dup5\n        /* \"SmartContract.sol\":7965:7969  data */\n      dup5\n        /* \"SmartContract.sol\":7917:7939  _checkOnERC721Received */\n      tag_219\n        /* \"SmartContract.sol\":7917:7970  _checkOnERC721Received(address(0), to, tokenId, data) */\n      jump\t// in\n    tag_288:\n        /* \"SmartContract.sol\":7895:8048  require(... */\n      tag_289\n      jumpi\n      mload(0x40)\n      0x08c379a000000000000000000000000000000000000000000000000000000000\n      dup2\n      mstore\n      0x04\n      add\n      tag_290\n      swap1\n      tag_222\n      jump\t// in\n    tag_290:\n      mload(0x40)\n      dup1\n      swap2\n      sub\n      swap1\n      revert\n    tag_289:\n        /* \"SmartContract.sol\":7773:8056  function _safeMint(address to,uint256 tokenId,bytes memory data) internal virtual {... */\n      pop\n      pop\n      pop\n      jump\t// out\n        /* \"SmartContract.sol\":8503:8908  function _burn(uint256 tokenId) internal virtual {... */\n    tag_253:\n        /* \"SmartContract.sol\":8563:8576  address owner */\n      0x00\n        /* \"SmartContract.sol\":8579:8586  _owners */\n      0x02\n        /* \"SmartContract.sol\":8579:8595  _owners[tokenId] */\n      0x00\n        /* \"SmartContract.sol\":8587:8594  tokenId */\n      dup4\n        /* \"SmartContract.sol\":8579:8595  _owners[tokenId] */\n      dup2\n      mstore\n      0x20\n      add\n      swap1\n      dup2\n      mstore\n      0x20\n      add\n      0x00\n      keccak256\n      0x00\n      swap1\n      sload\n      swap1\n      0x0100\n      exp\n      swap1\n      div\n      0xffffffffffffffffffffffffffffffffffffffff\n      and\n        /* \"SmartContract.sol\":8563:8595  address owner = _owners[tokenId] */\n      swap1\n      pop\n        /* \"SmartContract.sol\":8606:8654  _beforeTokenTransfer(owner, address(0), tokenId) */\n      tag_292\n        /* \"SmartContract.sol\":8627:8632  owner */\n      dup2\n        /* \"SmartContract.sol\":8642:8643  0 */\n      0x00\n        /* \"SmartContract.sol\":8646:8653  tokenId */\n      dup5\n        /* \"SmartContract.sol\":8606:8626  _beforeTokenTransfer */\n      tag_196\n        /* \"SmartContract.sol\":8606:8654  _beforeTokenTransfer(owner, address(0), tokenId) */\n      jump\t// in\n    tag_292:\n        /* \"SmartContract.sol\":8700:8715  _tokenApprovals */\n      0x04\n        /* \"SmartContract.sol\":8700:8724  _tokenApprovals[tokenId] */\n      0x00\n        /* \"SmartContract.sol\":8716:8723  tokenId */\n      dup4\n        /* \"SmartContract.sol\":8700:8724  _tokenApprovals[tokenId] */\n      dup2\n      mstore\n      0x20\n      add\n      swap1\n      dup2\n      mstore\n      0x20\n      add\n      0x00\n      keccak256\n      0x00\n        /* \"SmartContract.sol\":8693:8724  delete _tokenApprovals[tokenId] */\n      0x0100\n      exp\n      dup2\n      sload\n      swap1\n      0xffffffffffffffffffffffffffffffffffffffff\n      mul\n      not\n      and\n      swap1\n      sstore\n        /* \"SmartContract.sol\":8755:8756  1 */\n      0x01\n        /* \"SmartContract.sol\":8735:8744  _balances */\n      0x03\n        /* \"SmartContract.sol\":8735:8751  _balances[owner] */\n      0x00\n        /* \"SmartContract.sol\":8745:8750  owner */\n      dup4\n        /* \"SmartContract.sol\":8735:8751  _balances[owner] */\n      0xffffffffffffffffffffffffffffffffffffffff\n      and\n      0xffffffffffffffffffffffffffffffffffffffff\n      and\n      dup2\n      mstore\n      0x20\n      add\n      swap1\n      dup2\n      mstore\n      0x20\n      add\n      0x00\n      keccak256\n      0x00\n        /* \"SmartContract.sol\":8735:8756  _balances[owner] -= 1 */\n      dup3\n      dup3\n      sload\n      tag_293\n      swap2\n      swap1\n      tag_198\n      jump\t// in\n    tag_293:\n      swap3\n      pop\n      pop\n      dup2\n      swap1\n      sstore\n      pop\n        /* \"SmartContract.sol\":8774:8781  _owners */\n      0x02\n        /* \"SmartContract.sol\":8774:8790  _owners[tokenId] */\n      0x00\n        /* \"SmartContract.sol\":8782:8789  tokenId */\n      dup4\n        /* \"SmartContract.sol\":8774:8790  _owners[tokenId] */\n      dup2\n      mstore\n      0x20\n      add\n      swap1\n      dup2\n      mstore\n      0x20\n      add\n      0x00\n      keccak256\n      0x00\n        /* \"SmartContract.sol\":8767:8790  delete _owners[tokenId] */\n      0x0100\n      exp\n      dup2\n      sload\n      swap1\n      0xffffffffffffffffffffffffffffffffffffffff\n      mul\n      not\n      and\n      swap1\n      sstore\n        /* \"SmartContract.sol\":8834:8841  tokenId */\n      dup2\n        /* \"SmartContract.sol\":8830:8831  0 */\n      0x00\n        /* \"SmartContract.sol\":8806:8842  Transfer(owner, address(0), tokenId) */\n      0xffffffffffffffffffffffffffffffffffffffff\n      and\n        /* \"SmartContract.sol\":8815:8820  owner */\n      dup3\n        /* \"SmartContract.sol\":8806:8842  Transfer(owner, address(0), tokenId) */\n      0xffffffffffffffffffffffffffffffffffffffff\n      and\n      0xddf252ad1be2c89b69c2b068fc378daa952ba7f163c4a11628f55a4df523b3ef\n      mload(0x40)\n      mload(0x40)\n      dup1\n      swap2\n      sub\n      swap1\n      log4\n        /* \"SmartContract.sol\":8853:8900  _afterTokenTransfer(owner, address(0), tokenId) */\n      tag_294\n        /* \"SmartContract.sol\":8873:8878  owner */\n      dup2\n        /* \"SmartContract.sol\":8888:8889  0 */\n      0x00\n        /* \"SmartContract.sol\":8892:8899  tokenId */\n      dup5\n        /* \"SmartContract.sol\":8853:8872  _afterTokenTransfer */\n      tag_202\n        /* \"SmartContract.sol\":8853:8900  _afterTokenTransfer(owner, address(0), tokenId) */\n      jump\t// in\n    tag_294:\n        /* \"SmartContract.sol\":8552:8908  {... */\n      pop\n        /* \"SmartContract.sol\":8503:8908  function _burn(uint256 tokenId) internal virtual {... */\n      pop\n      jump\t// out\n        /* \"SmartContract.sol\":216:748  function toString(uint256 value) internal pure returns (string memory) {... */\n    tag_283:\n        /* \"SmartContract.sol\":272:285  string memory */\n      0x60\n        /* \"SmartContract.sol\":311:312  0 */\n      0x00\n        /* \"SmartContract.sol\":302:307  value */\n      dup3\n        /* \"SmartContract.sol\":302:312  value == 0 */\n      sub\n        /* \"SmartContract.sol\":298:351  if (value == 0) {... */\n      tag_296\n      jumpi\n        /* \"SmartContract.sol\":329:339  return \"0\" */\n      mload(0x40)\n      dup1\n      0x40\n      add\n      0x40\n      mstore\n      dup1\n      0x01\n      dup2\n      mstore\n      0x20\n      add\n      0x3000000000000000000000000000000000000000000000000000000000000000\n      dup2\n      mstore\n      pop\n      swap1\n      pop\n      jump(tag_295)\n        /* \"SmartContract.sol\":298:351  if (value == 0) {... */\n    tag_296:\n        /* \"SmartContract.sol\":361:373  uint256 temp */\n      0x00\n        /* \"SmartContract.sol\":376:381  value */\n      dup3\n        /* \"SmartContract.sol\":361:381  uint256 temp = value */\n      swap1\n      pop\n        /* \"SmartContract.sol\":392:406  uint256 digits */\n      0x00\n        /* \"SmartContract.sol\":417:495  while (temp != 0) {... */\n    tag_297:\n        /* \"SmartContract.sol\":432:433  0 */\n      0x00\n        /* \"SmartContract.sol\":424:428  temp */\n      dup3\n        /* \"SmartContract.sol\":424:433  temp != 0 */\n      eq\n        /* \"SmartContract.sol\":417:495  while (temp != 0) {... */\n      tag_298\n      jumpi\n        /* \"SmartContract.sol\":450:458  digits++ */\n      dup1\n      dup1\n      tag_299\n      swap1\n      tag_174\n      jump\t// in\n    tag_299:\n      swap2\n      pop\n      pop\n        /* \"SmartContract.sol\":481:483  10 */\n      0x0a\n        /* \"SmartContract.sol\":473:483  temp /= 10 */\n      dup3\n      tag_300\n      swap2\n      swap1\n      tag_301\n      jump\t// in\n    tag_300:\n      swap2\n      pop\n        /* \"SmartContract.sol\":417:495  while (temp != 0) {... */\n      jump(tag_297)\n    tag_298:\n        /* \"SmartContract.sol\":505:524  bytes memory buffer */\n      0x00\n        /* \"SmartContract.sol\":537:543  digits */\n      dup2\n        /* \"SmartContract.sol\":527:544  new bytes(digits) */\n      0xffffffffffffffff\n      dup2\n      gt\n      iszero\n      tag_302\n      jumpi\n      tag_303\n      tag_304\n      jump\t// in\n    tag_303:\n    tag_302:\n      mload(0x40)\n      swap1\n      dup1\n      dup3\n      mstore\n      dup1\n      0x1f\n      add\n      not(0x1f)\n      and\n      0x20\n      add\n      dup3\n      add\n      0x40\n      mstore\n      dup1\n      iszero\n      tag_305\n      jumpi\n      dup2\n      0x20\n      add\n      0x01\n      dup3\n      mul\n      dup1\n      calldatasize\n      dup4\n      calldatacopy\n      dup1\n      dup3\n      add\n      swap2\n      pop\n      pop\n      swap1\n      pop\n    tag_305:\n      pop\n        /* \"SmartContract.sol\":505:544  bytes memory buffer = new bytes(digits) */\n      swap1\n      pop\n        /* \"SmartContract.sol\":555:709  while (value != 0) {... */\n    tag_306:\n        /* \"SmartContract.sol\":571:572  0 */\n      0x00\n        /* \"SmartContract.sol\":562:567  value */\n      dup6\n        /* \"SmartContract.sol\":562:572  value != 0 */\n      eq\n        /* \"SmartContract.sol\":555:709  while (value != 0) {... */\n      tag_307\n      jumpi\n        /* \"SmartContract.sol\":599:600  1 */\n      0x01\n        /* \"SmartContract.sol\":589:600  digits -= 1 */\n      dup3\n      tag_308\n      swap2\n      swap1\n      tag_198\n      jump\t// in\n    tag_308:\n      swap2\n      pop\n        /* \"SmartContract.sol\":666:668  10 */\n      0x0a\n        /* \"SmartContract.sol\":658:663  value */\n      dup6\n        /* \"SmartContract.sol\":658:668  value % 10 */\n      tag_309\n      swap2\n      swap1\n      tag_310\n      jump\t// in\n    tag_309:\n        /* \"SmartContract.sol\":645:647  48 */\n      0x30\n        /* \"SmartContract.sol\":645:669  48 + uint256(value % 10) */\n      tag_311\n      swap2\n      swap1\n      tag_200\n      jump\t// in\n    tag_311:\n        /* \"SmartContract.sol\":632:671  bytes1(uint8(48 + uint256(value % 10))) */\n      0xf8\n      shl\n        /* \"SmartContract.sol\":615:621  buffer */\n      dup2\n        /* \"SmartContract.sol\":622:628  digits */\n      dup4\n        /* \"SmartContract.sol\":615:629  buffer[digits] */\n      dup2\n      mload\n      dup2\n      lt\n      tag_312\n      jumpi\n      tag_313\n      tag_314\n      jump\t// in\n    tag_313:\n    tag_312:\n      0x20\n      add\n      add\n        /* \"SmartContract.sol\":615:671  buffer[digits] = bytes1(uint8(48 + uint256(value % 10))) */\n      swap1\n      not(0xffffffffffffffffffffffffffffffffffffffffffffffffffffffffffffff)\n      and\n      swap1\n      dup2\n      0x00\n      byte\n      swap1\n      mstore8\n      pop\n        /* \"SmartContract.sol\":695:697  10 */\n      0x0a\n        /* \"SmartContract.sol\":686:697  value /= 10 */\n      dup6\n      tag_315\n      swap2\n      swap1\n      tag_301\n      jump\t// in\n    tag_315:\n      swap5\n      pop\n        /* \"SmartContract.sol\":555:709  while (value != 0) {... */\n      jump(tag_306)\n    tag_307:\n        /* \"SmartContract.sol\":733:739  buffer */\n      dup1\n        /* \"SmartContract.sol\":719:740  return string(buffer) */\n      swap4\n      pop\n      pop\n      pop\n      pop\n        /* \"SmartContract.sol\":216:748  function toString(uint256 value) internal pure returns (string memory) {... */\n    tag_295:\n      swap2\n      swap1\n      pop\n      jump\t// out\n        /* \"SmartContract.sol\":8064:8495  function _mint(address to, uint256 tokenId) internal virtual {... */\n    tag_287:\n        /* \"SmartContract.sol\":8158:8159  0 */\n      0x00\n        /* \"SmartContract.sol\":8144:8160  to != address(0) */\n      0xffffffffffffffffffffffffffffffffffffffff\n      and\n        /* \"SmartContract.sol\":8144:8146  to */\n      dup3\n        /* \"SmartContract.sol\":8144:8160  to != address(0) */\n      0xffffffffffffffffffffffffffffffffffffffff\n      and\n      sub\n        /* \"SmartContract.sol\":8136:8197  require(to != address(0), \"ERC721: mint to the zero address\") */\n      tag_317\n      jumpi\n      mload(0x40)\n      0x08c379a000000000000000000000000000000000000000000000000000000000\n      dup2\n      mstore\n      0x04\n      add\n      tag_318\n      swap1\n      tag_319\n      jump\t// in\n    tag_318:\n      mload(0x40)\n      dup1\n      swap2\n      sub\n      swap1\n      revert\n    tag_317:\n        /* \"SmartContract.sol\":8217:8233  _exists(tokenId) */\n      tag_320\n        /* \"SmartContract.sol\":8225:8232  tokenId */\n      dup2\n        /* \"SmartContract.sol\":8217:8224  _exists */\n      tag_179\n        /* \"SmartContract.sol\":8217:8233  _exists(tokenId) */\n      jump\t// in\n    tag_320:\n        /* \"SmartContract.sol\":8216:8233  !_exists(tokenId) */\n      iszero\n        /* \"SmartContract.sol\":8208:8266  require(!_exists(tokenId), \"ERC721: token already minted\") */\n      tag_321\n      jumpi\n      mload(0x40)\n      0x08c379a000000000000000000000000000000000000000000000000000000000\n      dup2\n      mstore\n      0x04\n      add\n      tag_322\n      swap1\n      tag_323\n      jump\t// in\n    tag_322:\n      mload(0x40)\n      dup1\n      swap2\n      sub\n      swap1\n      revert\n    tag_321:\n        /* \"SmartContract.sol\":8277:8322  _beforeTokenTransfer(address(0), to, tokenId) */\n      tag_324\n        /* \"SmartContract.sol\":8306:8307  0 */\n      0x00\n        /* \"SmartContract.sol\":8310:8312  to */\n      dup4\n        /* \"SmartContract.sol\":8314:8321  tokenId */\n      dup4\n        /* \"SmartContract.sol\":8277:8297  _beforeTokenTransfer */\n      tag_196\n        /* \"SmartContract.sol\":8277:8322  _beforeTokenTransfer(address(0), to, tokenId) */\n      jump\t// in\n    tag_324:\n        /* \"SmartContract.sol\":8350:8351  1 */\n      0x01\n        /* \"SmartContract.sol\":8333:8342  _balances */\n      0x03\n        /* \"SmartContract.sol\":8333:8346  _balances[to] */\n      0x00\n        /* \"SmartContract.sol\":8343:8345  to */\n      dup5\n        /* \"SmartContract.sol\":8333:8346  _balances[to] */\n      0xffffffffffffffffffffffffffffffffffffffff\n      and\n      0xffffffffffffffffffffffffffffffffffffffff\n      and\n      dup2\n      mstore\n      0x20\n      add\n      swap1\n      dup2\n      mstore\n      0x20\n      add\n      0x00\n      keccak256\n      0x00\n        /* \"SmartContract.sol\":8333:8351  _balances[to] += 1 */\n      dup3\n      dup3\n      sload\n      tag_325\n      swap2\n      swap1\n      tag_200\n      jump\t// in\n    tag_325:\n      swap3\n      pop\n      pop\n      dup2\n      swap1\n      sstore\n      pop\n        /* \"SmartContract.sol\":8381:8383  to */\n      dup2\n        /* \"SmartContract.sol\":8362:8369  _owners */\n      0x02\n        /* \"SmartContract.sol\":8362:8378  _owners[tokenId] */\n      0x00\n        /* \"SmartContract.sol\":8370:8377  tokenId */\n      dup4\n        /* \"SmartContract.sol\":8362:8378  _owners[tokenId] */\n      dup2\n      mstore\n      0x20\n      add\n      swap1\n      dup2\n      mstore\n      0x20\n      add\n      0x00\n      keccak256\n      0x00\n        /* \"SmartContract.sol\":8362:8383  _owners[tokenId] = to */\n      0x0100\n      exp\n      dup2\n      sload\n      dup2\n      0xffffffffffffffffffffffffffffffffffffffff\n      mul\n      not\n      and\n      swap1\n      dup4\n      0xffffffffffffffffffffffffffffffffffffffff\n      and\n      mul\n      or\n      swap1\n      sstore\n      pop\n        /* \"SmartContract.sol\":8424:8431  tokenId */\n      dup1\n        /* \"SmartContract.sol\":8420:8422  to */\n      dup3\n        /* \"SmartContract.sol\":8399:8432  Transfer(address(0), to, tokenId) */\n      0xffffffffffffffffffffffffffffffffffffffff\n      and\n        /* \"SmartContract.sol\":8416:8417  0 */\n      0x00\n        /* \"SmartContract.sol\":8399:8432  Transfer(address(0), to, tokenId) */\n      0xffffffffffffffffffffffffffffffffffffffff\n      and\n      0xddf252ad1be2c89b69c2b068fc378daa952ba7f163c4a11628f55a4df523b3ef\n      mload(0x40)\n      mload(0x40)\n      dup1\n      swap2\n      sub\n      swap1\n      log4\n        /* \"SmartContract.sol\":8443:8487  _afterTokenTransfer(address(0), to, tokenId) */\n      tag_326\n        /* \"SmartContract.sol\":8471:8472  0 */\n      0x00\n        /* \"SmartContract.sol\":8475:8477  to */\n      dup4\n        /* \"SmartContract.sol\":8479:8486  tokenId */\n      dup4\n        /* \"SmartContract.sol\":8443:8462  _afterTokenTransfer */\n      tag_202\n        /* \"SmartContract.sol\":8443:8487  _afterTokenTransfer(address(0), to, tokenId) */\n      jump\t// in\n    tag_326:\n        /* \"SmartContract.sol\":8064:8495  function _mint(address to, uint256 tokenId) internal virtual {... */\n      pop\n      pop\n      jump\t// out\n    tag_257:\n      pop\n      dup1\n      sload\n      tag_327\n      swap1\n      tag_101\n      jump\t// in\n    tag_327:\n      0x00\n      dup3\n      sstore\n      dup1\n      0x1f\n      lt\n      tag_329\n      jumpi\n      pop\n      jump(tag_328)\n    tag_329:\n      0x1f\n      add\n      0x20\n      swap1\n      div\n      swap1\n      0x00\n      mstore\n      keccak256(0x00, 0x20)\n      swap1\n      dup2\n      add\n      swap1\n      tag_330\n      swap2\n      swap1\n      tag_331\n      jump\t// in\n    tag_330:\n    tag_328:\n      pop\n      jump\t// out\n    tag_331:\n    tag_332:\n      dup1\n      dup3\n      gt\n      iszero\n      tag_333\n      jumpi\n      0x00\n      dup2\n      0x00\n      swap1\n      sstore\n      pop\n      0x01\n      add\n      jump(tag_332)\n    tag_333:\n      pop\n      swap1\n      jump\t// out\n        /* \"#utility.yul\":7:82   */\n    tag_334:\n        /* \"#utility.yul\":40:46   */\n      0x00\n        /* \"#utility.yul\":73:75   */\n      0x40\n        /* \"#utility.yul\":67:76   */\n      mload\n        /* \"#utility.yul\":57:76   */\n      swap1\n      pop\n        /* \"#utility.yul\":7:82   */\n      swap1\n      jump\t// out\n        /* \"#utility.yul\":88:205   */\n    tag_335:\n        /* \"#utility.yul\":197:198   */\n      0x00\n        /* \"#utility.yul\":194:195   */\n      dup1\n        /* \"#utility.yul\":187:199   */\n      revert\n        /* \"#utility.yul\":211:328   */\n    tag_336:\n        /* \"#utility.yul\":320:321   */\n      0x00\n        /* \"#utility.yul\":317:318   */\n      dup1\n        /* \"#utility.yul\":310:322   */\n      revert\n        /* \"#utility.yul\":334:483   */\n    tag_337:\n        /* \"#utility.yul\":370:377   */\n      0x00\n        /* \"#utility.yul\":410:476   */\n      0xffffffff00000000000000000000000000000000000000000000000000000000\n        /* \"#utility.yul\":403:408   */\n      dup3\n        /* \"#utility.yul\":399:477   */\n      and\n        /* \"#utility.yul\":388:477   */\n      swap1\n      pop\n        /* \"#utility.yul\":334:483   */\n      swap2\n      swap1\n      pop\n      jump\t// out\n        /* \"#utility.yul\":489:609   */\n    tag_338:\n        /* \"#utility.yul\":561:584   */\n      tag_425\n        /* \"#utility.yul\":578:583   */\n      dup2\n        /* \"#utility.yul\":561:584   */\n      tag_337\n      jump\t// in\n    tag_425:\n        /* \"#utility.yul\":554:559   */\n      dup2\n        /* \"#utility.yul\":551:585   */\n      eq\n        /* \"#utility.yul\":541:603   */\n      tag_426\n      jumpi\n        /* \"#utility.yul\":599:600   */\n      0x00\n        /* \"#utility.yul\":596:597   */\n      dup1\n        /* \"#utility.yul\":589:601   */\n      revert\n        /* \"#utility.yul\":541:603   */\n    tag_426:\n        /* \"#utility.yul\":489:609   */\n      pop\n      jump\t// out\n        /* \"#utility.yul\":615:752   */\n    tag_339:\n        /* \"#utility.yul\":660:665   */\n      0x00\n        /* \"#utility.yul\":698:704   */\n      dup2\n        /* \"#utility.yul\":685:705   */\n      calldataload\n        /* \"#utility.yul\":676:705   */\n      swap1\n      pop\n        /* \"#utility.yul\":714:746   */\n      tag_428\n        /* \"#utility.yul\":740:745   */\n      dup2\n        /* \"#utility.yul\":714:746   */\n      tag_338\n      jump\t// in\n    tag_428:\n        /* \"#utility.yul\":615:752   */\n      swap3\n      swap2\n      pop\n      pop\n      jump\t// out\n        /* \"#utility.yul\":758:1085   */\n    tag_25:\n        /* \"#utility.yul\":816:822   */\n      0x00\n        /* \"#utility.yul\":865:867   */\n      0x20\n        /* \"#utility.yul\":853:862   */\n      dup3\n        /* \"#utility.yul\":844:851   */\n      dup5\n        /* \"#utility.yul\":840:863   */\n      sub\n        /* \"#utility.yul\":836:868   */\n      slt\n        /* \"#utility.yul\":833:952   */\n      iszero\n      tag_430\n      jumpi\n        /* \"#utility.yul\":871:950   */\n      tag_431\n      tag_335\n      jump\t// in\n    tag_431:\n        /* \"#utility.yul\":833:952   */\n    tag_430:\n        /* \"#utility.yul\":991:992   */\n      0x00\n        /* \"#utility.yul\":1016:1068   */\n      tag_432\n        /* \"#utility.yul\":1060:1067   */\n      dup5\n        /* \"#utility.yul\":1051:1057   */\n      dup3\n        /* \"#utility.yul\":1040:1049   */\n      dup6\n        /* \"#utility.yul\":1036:1058   */\n      add\n        /* \"#utility.yul\":1016:1068   */\n      tag_339\n      jump\t// in\n    tag_432:\n        /* \"#utility.yul\":1006:1068   */\n      swap2\n      pop\n        /* \"#utility.yul\":962:1078   */\n      pop\n        /* \"#utility.yul\":758:1085   */\n      swap3\n      swap2\n      pop\n      pop\n      jump\t// out\n        /* \"#utility.yul\":1091:1181   */\n    tag_340:\n        /* \"#utility.yul\":1125:1132   */\n      0x00\n        /* \"#utility.yul\":1168:1173   */\n      dup2\n        /* \"#utility.yul\":1161:1174   */\n      iszero\n        /* \"#utility.yul\":1154:1175   */\n      iszero\n        /* \"#utility.yul\":1143:1175   */\n      swap1\n      pop\n        /* \"#utility.yul\":1091:1181   */\n      swap2\n      swap1\n      pop\n      jump\t// out\n        /* \"#utility.yul\":1187:1296   */\n    tag_341:\n        /* \"#utility.yul\":1268:1289   */\n      tag_435\n        /* \"#utility.yul\":1283:1288   */\n      dup2\n        /* \"#utility.yul\":1268:1289   */\n      tag_340\n      jump\t// in\n    tag_435:\n        /* \"#utility.yul\":1263:1266   */\n      dup3\n        /* \"#utility.yul\":1256:1290   */\n      mstore\n        /* \"#utility.yul\":1187:1296   */\n      pop\n      pop\n      jump\t// out\n        /* \"#utility.yul\":1302:1512   */\n    tag_28:\n        /* \"#utility.yul\":1389:1393   */\n      0x00\n        /* \"#utility.yul\":1427:1429   */\n      0x20\n        /* \"#utility.yul\":1416:1425   */\n      dup3\n        /* \"#utility.yul\":1412:1430   */\n      add\n        /* \"#utility.yul\":1404:1430   */\n      swap1\n      pop\n        /* \"#utility.yul\":1440:1505   */\n      tag_437\n        /* \"#utility.yul\":1502:1503   */\n      0x00\n        /* \"#utility.yul\":1491:1500   */\n      dup4\n        /* \"#utility.yul\":1487:1504   */\n      add\n        /* \"#utility.yul\":1478:1484   */\n      dup5\n        /* \"#utility.yul\":1440:1505   */\n      tag_341\n      jump\t// in\n    tag_437:\n        /* \"#utility.yul\":1302:1512   */\n      swap3\n      swap2\n      pop\n      pop\n      jump\t// out\n        /* \"#utility.yul\":1518:1617   */\n    tag_342:\n        /* \"#utility.yul\":1570:1576   */\n      0x00\n        /* \"#utility.yul\":1604:1609   */\n      dup2\n        /* \"#utility.yul\":1598:1610   */\n      mload\n        /* \"#utility.yul\":1588:1610   */\n      swap1\n      pop\n        /* \"#utility.yul\":1518:1617   */\n      swap2\n      swap1\n      pop\n      jump\t// out\n        /* \"#utility.yul\":1623:1792   */\n    tag_343:\n        /* \"#utility.yul\":1707:1718   */\n      0x00\n        /* \"#utility.yul\":1741:1747   */\n      dup3\n        /* \"#utility.yul\":1736:1739   */\n      dup3\n        /* \"#utility.yul\":1729:1748   */\n      mstore\n        /* \"#utility.yul\":1781:1785   */\n      0x20\n        /* \"#utility.yul\":1776:1779   */\n      dup3\n        /* \"#utility.yul\":1772:1786   */\n      add\n        /* \"#utility.yul\":1757:1786   */\n      swap1\n      pop\n        /* \"#utility.yul\":1623:1792   */\n      swap3\n      swap2\n      pop\n      pop\n      jump\t// out\n        /* \"#utility.yul\":1798:2105   */\n    tag_344:\n        /* \"#utility.yul\":1866:1867   */\n      0x00\n        /* \"#utility.yul\":1876:1989   */\n    tag_441:\n        /* \"#utility.yul\":1890:1896   */\n      dup4\n        /* \"#utility.yul\":1887:1888   */\n      dup2\n        /* \"#utility.yul\":1884:1897   */\n      lt\n        /* \"#utility.yul\":1876:1989   */\n      iszero\n      tag_443\n      jumpi\n        /* \"#utility.yul\":1975:1976   */\n      dup1\n        /* \"#utility.yul\":1970:1973   */\n      dup3\n        /* \"#utility.yul\":1966:1977   */\n      add\n        /* \"#utility.yul\":1960:1978   */\n      mload\n        /* \"#utility.yul\":1956:1957   */\n      dup2\n        /* \"#utility.yul\":1951:1954   */\n      dup5\n        /* \"#utility.yul\":1947:1958   */\n      add\n        /* \"#utility.yul\":1940:1979   */\n      mstore\n        /* \"#utility.yul\":1912:1914   */\n      0x20\n        /* \"#utility.yul\":1909:1910   */\n      dup2\n        /* \"#utility.yul\":1905:1915   */\n      add\n        /* \"#utility.yul\":1900:1915   */\n      swap1\n      pop\n        /* \"#utility.yul\":1876:1989   */\n      jump(tag_441)\n    tag_443:\n        /* \"#utility.yul\":2007:2013   */\n      dup4\n        /* \"#utility.yul\":2004:2005   */\n      dup2\n        /* \"#utility.yul\":2001:2014   */\n      gt\n        /* \"#utility.yul\":1998:2099   */\n      iszero\n      tag_444\n      jumpi\n        /* \"#utility.yul\":2087:2088   */\n      0x00\n        /* \"#utility.yul\":2078:2084   */\n      dup5\n        /* \"#utility.yul\":2073:2076   */\n      dup5\n        /* \"#utility.yul\":2069:2085   */\n      add\n        /* \"#utility.yul\":2062:2089   */\n      mstore\n        /* \"#utility.yul\":1998:2099   */\n    tag_444:\n        /* \"#utility.yul\":1847:2105   */\n      pop\n        /* \"#utility.yul\":1798:2105   */\n      pop\n      pop\n      pop\n      jump\t// out\n        /* \"#utility.yul\":2111:2213   */\n    tag_345:\n        /* \"#utility.yul\":2152:2158   */\n      0x00\n        /* \"#utility.yul\":2203:2205   */\n      0x1f\n        /* \"#utility.yul\":2199:2206   */\n      not\n        /* \"#utility.yul\":2194:2196   */\n      0x1f\n        /* \"#utility.yul\":2187:2192   */\n      dup4\n        /* \"#utility.yul\":2183:2197   */\n      add\n        /* \"#utility.yul\":2179:2207   */\n      and\n        /* \"#utility.yul\":2169:2207   */\n      swap1\n      pop\n        /* \"#utility.yul\":2111:2213   */\n      swap2\n      swap1\n      pop\n      jump\t// out\n        /* \"#utility.yul\":2219:2583   */\n    tag_346:\n        /* \"#utility.yul\":2307:2310   */\n      0x00\n        /* \"#utility.yul\":2335:2374   */\n      tag_447\n        /* \"#utility.yul\":2368:2373   */\n      dup3\n        /* \"#utility.yul\":2335:2374   */\n      tag_342\n      jump\t// in\n    tag_447:\n        /* \"#utility.yul\":2390:2461   */\n      tag_448\n        /* \"#utility.yul\":2454:2460   */\n      dup2\n        /* \"#utility.yul\":2449:2452   */\n      dup6\n        /* \"#utility.yul\":2390:2461   */\n      tag_343\n      jump\t// in\n    tag_448:\n        /* \"#utility.yul\":2383:2461   */\n      swap4\n      pop\n        /* \"#utility.yul\":2470:2522   */\n      tag_449\n        /* \"#utility.yul\":2515:2521   */\n      dup2\n        /* \"#utility.yul\":2510:2513   */\n      dup6\n        /* \"#utility.yul\":2503:2507   */\n      0x20\n        /* \"#utility.yul\":2496:2501   */\n      dup7\n        /* \"#utility.yul\":2492:2508   */\n      add\n        /* \"#utility.yul\":2470:2522   */\n      tag_344\n      jump\t// in\n    tag_449:\n        /* \"#utility.yul\":2547:2576   */\n      tag_450\n        /* \"#utility.yul\":2569:2575   */\n      dup2\n        /* \"#utility.yul\":2547:2576   */\n      tag_345\n      jump\t// in\n    tag_450:\n        /* \"#utility.yul\":2542:2545   */\n      dup5\n        /* \"#utility.yul\":2538:2577   */\n      add\n        /* \"#utility.yul\":2531:2577   */\n      swap2\n      pop\n        /* \"#utility.yul\":2311:2583   */\n      pop\n        /* \"#utility.yul\":2219:2583   */\n      swap3\n      swap2\n      pop\n      pop\n      jump\t// out\n        /* \"#utility.yul\":2589:2902   */\n    tag_32:\n        /* \"#utility.yul\":2702:2706   */\n      0x00\n        /* \"#utility.yul\":2740:2742   */\n      0x20\n        /* \"#utility.yul\":2729:2738   */\n      dup3\n        /* \"#utility.yul\":2725:2743   */\n      add\n        /* \"#utility.yul\":2717:2743   */\n      swap1\n      pop\n        /* \"#utility.yul\":2789:2798   */\n      dup2\n        /* \"#utility.yul\":2783:2787   */\n      dup2\n        /* \"#utility.yul\":2779:2799   */\n      sub\n        /* \"#utility.yul\":2775:2776   */\n      0x00\n        /* \"#utility.yul\":2764:2773   */\n      dup4\n        /* \"#utility.yul\":2760:2777   */\n      add\n        /* \"#utility.yul\":2753:2800   */\n      mstore\n        /* \"#utility.yul\":2817:2895   */\n      tag_452\n        /* \"#utility.yul\":2890:2894   */\n      dup2\n        /* \"#utility.yul\":2881:2887   */\n      dup5\n        /* \"#utility.yul\":2817:2895   */\n      tag_346\n      jump\t// in\n    tag_452:\n        /* \"#utility.yul\":2809:2895   */\n      swap1\n      pop\n        /* \"#utility.yul\":2589:2902   */\n      swap3\n      swap2\n      pop\n      pop\n      jump\t// out\n        /* \"#utility.yul\":2908:2985   */\n    tag_347:\n        /* \"#utility.yul\":2945:2952   */\n      0x00\n        /* \"#utility.yul\":2974:2979   */\n      dup2\n        /* \"#utility.yul\":2963:2979   */\n      swap1\n      pop\n        /* \"#utility.yul\":2908:2985   */\n      swap2\n      swap1\n      pop\n      jump\t// out\n        /* \"#utility.yul\":2991:3113   */\n    tag_348:\n        /* \"#utility.yul\":3064:3088   */\n      tag_455\n        /* \"#utility.yul\":3082:3087   */\n      dup2\n        /* \"#utility.yul\":3064:3088   */\n      tag_347\n      jump\t// in\n    tag_455:\n        /* \"#utility.yul\":3057:3062   */\n      dup2\n        /* \"#utility.yul\":3054:3089   */\n      eq\n        /* \"#utility.yul\":3044:3107   */\n      tag_456\n      jumpi\n        /* \"#utility.yul\":3103:3104   */\n      0x00\n        /* \"#utility.yul\":3100:3101   */\n      dup1\n        /* \"#utility.yul\":3093:3105   */\n      revert\n        /* \"#utility.yul\":3044:3107   */\n    tag_456:\n        /* \"#utility.yul\":2991:3113   */\n      pop\n      jump\t// out\n        /* \"#utility.yul\":3119:3258   */\n    tag_349:\n        /* \"#utility.yul\":3165:3170   */\n      0x00\n        /* \"#utility.yul\":3203:3209   */\n      dup2\n        /* \"#utility.yul\":3190:3210   */\n      calldataload\n        /* \"#utility.yul\":3181:3210   */\n      swap1\n      pop\n        /* \"#utility.yul\":3219:3252   */\n      tag_458\n        /* \"#utility.yul\":3246:3251   */\n      dup2\n        /* \"#utility.yul\":3219:3252   */\n      tag_348\n      jump\t// in\n    tag_458:\n        /* \"#utility.yul\":3119:3258   */\n      swap3\n      swap2\n      pop\n      pop\n      jump\t// out\n        /* \"#utility.yul\":3264:3593   */\n    tag_35:\n        /* \"#utility.yul\":3323:3329   */\n      0x00\n        /* \"#utility.yul\":3372:3374   */\n      0x20\n        /* \"#utility.yul\":3360:3369   */\n      dup3\n        /* \"#utility.yul\":3351:3358   */\n      dup5\n        /* \"#utility.yul\":3347:3370   */\n      sub\n        /* \"#utility.yul\":3343:3375   */\n      slt\n        /* \"#utility.yul\":3340:3459   */\n      iszero\n      tag_460\n      jumpi\n        /* \"#utility.yul\":3378:3457   */\n      tag_461\n      tag_335\n      jump\t// in\n    tag_461:\n        /* \"#utility.yul\":3340:3459   */\n    tag_460:\n        /* \"#utility.yul\":3498:3499   */\n      0x00\n        /* \"#utility.yul\":3523:3576   */\n      tag_462\n        /* \"#utility.yul\":3568:3575   */\n      dup5\n        /* \"#utility.yul\":3559:3565   */\n      dup3\n        /* \"#utility.yul\":3548:3557   */\n      dup6\n        /* \"#utility.yul\":3544:3566   */\n      add\n        /* \"#utility.yul\":3523:3576   */\n      tag_349\n      jump\t// in\n    tag_462:\n        /* \"#utility.yul\":3513:3576   */\n      swap2\n      pop\n        /* \"#utility.yul\":3469:3586   */\n      pop\n        /* \"#utility.yul\":3264:3593   */\n      swap3\n      swap2\n      pop\n      pop\n      jump\t// out\n        /* \"#utility.yul\":3599:3725   */\n    tag_350:\n        /* \"#utility.yul\":3636:3643   */\n      0x00\n        /* \"#utility.yul\":3676:3718   */\n      0xffffffffffffffffffffffffffffffffffffffff\n        /* \"#utility.yul\":3669:3674   */\n      dup3\n        /* \"#utility.yul\":3665:3719   */\n      and\n        /* \"#utility.yul\":3654:3719   */\n      swap1\n      pop\n        /* \"#utility.yul\":3599:3725   */\n      swap2\n      swap1\n      pop\n      jump\t// out\n        /* \"#utility.yul\":3731:3827   */\n    tag_351:\n        /* \"#utility.yul\":3768:3775   */\n      0x00\n        /* \"#utility.yul\":3797:3821   */\n      tag_465\n        /* \"#utility.yul\":3815:3820   */\n      dup3\n        /* \"#utility.yul\":3797:3821   */\n      tag_350\n      jump\t// in\n    tag_465:\n        /* \"#utility.yul\":3786:3821   */\n      swap1\n      pop\n        /* \"#utility.yul\":3731:3827   */\n      swap2\n      swap1\n      pop\n      jump\t// out\n        /* \"#utility.yul\":3833:3951   */\n    tag_352:\n        /* \"#utility.yul\":3920:3944   */\n      tag_467\n        /* \"#utility.yul\":3938:3943   */\n      dup2\n        /* \"#utility.yul\":3920:3944   */\n      tag_351\n      jump\t// in\n    tag_467:\n        /* \"#utility.yul\":3915:3918   */\n      dup3\n        /* \"#utility.yul\":3908:3945   */\n      mstore\n        /* \"#utility.yul\":3833:3951   */\n      pop\n      pop\n      jump\t// out\n        /* \"#utility.yul\":3957:4179   */\n    tag_38:\n        /* \"#utility.yul\":4050:4054   */\n      0x00\n        /* \"#utility.yul\":4088:4090   */\n      0x20\n        /* \"#utility.yul\":4077:4086   */\n      dup3\n        /* \"#utility.yul\":4073:4091   */\n      add\n        /* \"#utility.yul\":4065:4091   */\n      swap1\n      pop\n        /* \"#utility.yul\":4101:4172   */\n      tag_469\n        /* \"#utility.yul\":4169:4170   */\n      0x00\n        /* \"#utility.yul\":4158:4167   */\n      dup4\n        /* \"#utility.yul\":4154:4171   */\n      add\n        /* \"#utility.yul\":4145:4151   */\n      dup5\n        /* \"#utility.yul\":4101:4172   */\n      tag_352\n      jump\t// in\n    tag_469:\n        /* \"#utility.yul\":3957:4179   */\n      swap3\n      swap2\n      pop\n      pop\n      jump\t// out\n        /* \"#utility.yul\":4185:4307   */\n    tag_353:\n        /* \"#utility.yul\":4258:4282   */\n      tag_471\n        /* \"#utility.yul\":4276:4281   */\n      dup2\n        /* \"#utility.yul\":4258:4282   */\n      tag_351\n      jump\t// in\n    tag_471:\n        /* \"#utility.yul\":4251:4256   */\n      dup2\n        /* \"#utility.yul\":4248:4283   */\n      eq\n        /* \"#utility.yul\":4238:4301   */\n      tag_472\n      jumpi\n        /* \"#utility.yul\":4297:4298   */\n      0x00\n        /* \"#utility.yul\":4294:4295   */\n      dup1\n        /* \"#utility.yul\":4287:4299   */\n      revert\n        /* \"#utility.yul\":4238:4301   */\n    tag_472:\n        /* \"#utility.yul\":4185:4307   */\n      pop\n      jump\t// out\n        /* \"#utility.yul\":4313:4452   */\n    tag_354:\n        /* \"#utility.yul\":4359:4364   */\n      0x00\n        /* \"#utility.yul\":4397:4403   */\n      dup2\n        /* \"#utility.yul\":4384:4404   */\n      calldataload\n        /* \"#utility.yul\":4375:4404   */\n      swap1\n      pop\n        /* \"#utility.yul\":4413:4446   */\n      tag_474\n        /* \"#utility.yul\":4440:4445   */\n      dup2\n        /* \"#utility.yul\":4413:4446   */\n      tag_353\n      jump\t// in\n    tag_474:\n        /* \"#utility.yul\":4313:4452   */\n      swap3\n      swap2\n      pop\n      pop\n      jump\t// out\n        /* \"#utility.yul\":4458:4932   */\n    tag_41:\n        /* \"#utility.yul\":4526:4532   */\n      0x00\n        /* \"#utility.yul\":4534:4540   */\n      dup1\n        /* \"#utility.yul\":4583:4585   */\n      0x40\n        /* \"#utility.yul\":4571:4580   */\n      dup4\n        /* \"#utility.yul\":4562:4569   */\n      dup6\n        /* \"#utility.yul\":4558:4581   */\n      sub\n        /* \"#utility.yul\":4554:4586   */\n      slt\n        /* \"#utility.yul\":4551:4670   */\n      iszero\n      tag_476\n      jumpi\n        /* \"#utility.yul\":4589:4668   */\n      tag_477\n      tag_335\n      jump\t// in\n    tag_477:\n        /* \"#utility.yul\":4551:4670   */\n    tag_476:\n        /* \"#utility.yul\":4709:4710   */\n      0x00\n        /* \"#utility.yul\":4734:4787   */\n      tag_478\n        /* \"#utility.yul\":4779:4786   */\n      dup6\n        /* \"#utility.yul\":4770:4776   */\n      dup3\n        /* \"#utility.yul\":4759:4768   */\n      dup7\n        /* \"#utility.yul\":4755:4777   */\n      add\n        /* \"#utility.yul\":4734:4787   */\n      tag_354\n      jump\t// in\n    tag_478:\n        /* \"#utility.yul\":4724:4787   */\n      swap3\n      pop\n        /* \"#utility.yul\":4680:4797   */\n      pop\n        /* \"#utility.yul\":4836:4838   */\n      0x20\n        /* \"#utility.yul\":4862:4915   */\n      tag_479\n        /* \"#utility.yul\":4907:4914   */\n      dup6\n        /* \"#utility.yul\":4898:4904   */\n      dup3\n        /* \"#utility.yul\":4887:4896   */\n      dup7\n        /* \"#utility.yul\":4883:4905   */\n      add\n        /* \"#utility.yul\":4862:4915   */\n      tag_349\n      jump\t// in\n    tag_479:\n        /* \"#utility.yul\":4852:4915   */\n      swap2\n      pop\n        /* \"#utility.yul\":4807:4925   */\n      pop\n        /* \"#utility.yul\":4458:4932   */\n      swap3\n      pop\n      swap3\n      swap1\n      pop\n      jump\t// out\n        /* \"#utility.yul\":4938:5557   */\n    tag_45:\n        /* \"#utility.yul\":5015:5021   */\n      0x00\n        /* \"#utility.yul\":5023:5029   */\n      dup1\n        /* \"#utility.yul\":5031:5037   */\n      0x00\n        /* \"#utility.yul\":5080:5082   */\n      0x60\n        /* \"#utility.yul\":5068:5077   */\n      dup5\n        /* \"#utility.yul\":5059:5066   */\n      dup7\n        /* \"#utility.yul\":5055:5078   */\n      sub\n        /* \"#utility.yul\":5051:5083   */\n      slt\n        /* \"#utility.yul\":5048:5167   */\n      iszero\n      tag_481\n      jumpi\n        /* \"#utility.yul\":5086:5165   */\n      tag_482\n      tag_335\n      jump\t// in\n    tag_482:\n        /* \"#utility.yul\":5048:5167   */\n    tag_481:\n        /* \"#utility.yul\":5206:5207   */\n      0x00\n        /* \"#utility.yul\":5231:5284   */\n      tag_483\n        /* \"#utility.yul\":5276:5283   */\n      dup7\n        /* \"#utility.yul\":5267:5273   */\n      dup3\n        /* \"#utility.yul\":5256:5265   */\n      dup8\n        /* \"#utility.yul\":5252:5274   */\n      add\n        /* \"#utility.yul\":5231:5284   */\n      tag_354\n      jump\t// in\n    tag_483:\n        /* \"#utility.yul\":5221:5284   */\n      swap4\n      pop\n        /* \"#utility.yul\":5177:5294   */\n      pop\n        /* \"#utility.yul\":5333:5335   */\n      0x20\n        /* \"#utility.yul\":5359:5412   */\n      tag_484\n        /* \"#utility.yul\":5404:5411   */\n      dup7\n        /* \"#utility.yul\":5395:5401   */\n      dup3\n        /* \"#utility.yul\":5384:5393   */\n      dup8\n        /* \"#utility.yul\":5380:5402   */\n      add\n        /* \"#utility.yul\":5359:5412   */\n      tag_354\n      jump\t// in\n    tag_484:\n        /* \"#utility.yul\":5349:5412   */\n      swap3\n      pop\n        /* \"#utility.yul\":5304:5422   */\n      pop\n        /* \"#utility.yul\":5461:5463   */\n      0x40\n        /* \"#utility.yul\":5487:5540   */\n      tag_485\n        /* \"#utility.yul\":5532:5539   */\n      dup7\n        /* \"#utility.yul\":5523:5529   */\n      dup3\n        /* \"#utility.yul\":5512:5521   */\n      dup8\n        /* \"#utility.yul\":5508:5530   */\n      add\n        /* \"#utility.yul\":5487:5540   */\n      tag_349\n      jump\t// in\n    tag_485:\n        /* \"#utility.yul\":5477:5540   */\n      swap2\n      pop\n        /* \"#utility.yul\":5432:5550   */\n      pop\n        /* \"#utility.yul\":4938:5557   */\n      swap3\n      pop\n      swap3\n      pop\n      swap3\n      jump\t// out\n        /* \"#utility.yul\":5563:5892   */\n    tag_59:\n        /* \"#utility.yul\":5622:5628   */\n      0x00\n        /* \"#utility.yul\":5671:5673   */\n      0x20\n        /* \"#utility.yul\":5659:5668   */\n      dup3\n        /* \"#utility.yul\":5650:5657   */\n      dup5\n        /* \"#utility.yul\":5646:5669   */\n      sub\n        /* \"#utility.yul\":5642:5674   */\n      slt\n        /* \"#utility.yul\":5639:5758   */\n      iszero\n      tag_487\n      jumpi\n        /* \"#utility.yul\":5677:5756   */\n      tag_488\n      tag_335\n      jump\t// in\n    tag_488:\n        /* \"#utility.yul\":5639:5758   */\n    tag_487:\n        /* \"#utility.yul\":5797:5798   */\n      0x00\n        /* \"#utility.yul\":5822:5875   */\n      tag_489\n        /* \"#utility.yul\":5867:5874   */\n      dup5\n        /* \"#utility.yul\":5858:5864   */\n      dup3\n        /* \"#utility.yul\":5847:5856   */\n      dup6\n        /* \"#utility.yul\":5843:5865   */\n      add\n        /* \"#utility.yul\":5822:5875   */\n      tag_354\n      jump\t// in\n    tag_489:\n        /* \"#utility.yul\":5812:5875   */\n      swap2\n      pop\n        /* \"#utility.yul\":5768:5885   */\n      pop\n        /* \"#utility.yul\":5563:5892   */\n      swap3\n      swap2\n      pop\n      pop\n      jump\t// out\n        /* \"#utility.yul\":5898:6016   */\n    tag_355:\n        /* \"#utility.yul\":5985:6009   */\n      tag_491\n        /* \"#utility.yul\":6003:6008   */\n      dup2\n        /* \"#utility.yul\":5985:6009   */\n      tag_347\n      jump\t// in\n    tag_491:\n        /* \"#utility.yul\":5980:5983   */\n      dup3\n        /* \"#utility.yul\":5973:6010   */\n      mstore\n        /* \"#utility.yul\":5898:6016   */\n      pop\n      pop\n      jump\t// out\n        /* \"#utility.yul\":6022:6244   */\n    tag_62:\n        /* \"#utility.yul\":6115:6119   */\n      0x00\n        /* \"#utility.yul\":6153:6155   */\n      0x20\n        /* \"#utility.yul\":6142:6151   */\n      dup3\n        /* \"#utility.yul\":6138:6156   */\n      add\n        /* \"#utility.yul\":6130:6156   */\n      swap1\n      pop\n        /* \"#utility.yul\":6166:6237   */\n      tag_493\n        /* \"#utility.yul\":6234:6235   */\n      0x00\n        /* \"#utility.yul\":6223:6232   */\n      dup4\n        /* \"#utility.yul\":6219:6236   */\n      add\n        /* \"#utility.yul\":6210:6216   */\n      dup5\n        /* \"#utility.yul\":6166:6237   */\n      tag_355\n      jump\t// in\n    tag_493:\n        /* \"#utility.yul\":6022:6244   */\n      swap3\n      swap2\n      pop\n      pop\n      jump\t// out\n        /* \"#utility.yul\":6250:6366   */\n    tag_356:\n        /* \"#utility.yul\":6320:6341   */\n      tag_495\n        /* \"#utility.yul\":6335:6340   */\n      dup2\n        /* \"#utility.yul\":6320:6341   */\n      tag_340\n      jump\t// in\n    tag_495:\n        /* \"#utility.yul\":6313:6318   */\n      dup2\n        /* \"#utility.yul\":6310:6342   */\n      eq\n        /* \"#utility.yul\":6300:6360   */\n      tag_496\n      jumpi\n        /* \"#utility.yul\":6356:6357   */\n      0x00\n        /* \"#utility.yul\":6353:6354   */\n      dup1\n        /* \"#utility.yul\":6346:6358   */\n      revert\n        /* \"#utility.yul\":6300:6360   */\n    tag_496:\n        /* \"#utility.yul\":6250:6366   */\n      pop\n      jump\t// out\n        /* \"#utility.yul\":6372:6505   */\n    tag_357:\n        /* \"#utility.yul\":6415:6420   */\n      0x00\n        /* \"#utility.yul\":6453:6459   */\n      dup2\n        /* \"#utility.yul\":6440:6460   */\n      calldataload\n        /* \"#utility.yul\":6431:6460   */\n      swap1\n      pop\n        /* \"#utility.yul\":6469:6499   */\n      tag_498\n        /* \"#utility.yul\":6493:6498   */\n      dup2\n        /* \"#utility.yul\":6469:6499   */\n      tag_356\n      jump\t// in\n    tag_498:\n        /* \"#utility.yul\":6372:6505   */\n      swap3\n      swap2\n      pop\n      pop\n      jump\t// out\n        /* \"#utility.yul\":6511:6979   */\n    tag_74:\n        /* \"#utility.yul\":6576:6582   */\n      0x00\n        /* \"#utility.yul\":6584:6590   */\n      dup1\n        /* \"#utility.yul\":6633:6635   */\n      0x40\n        /* \"#utility.yul\":6621:6630   */\n      dup4\n        /* \"#utility.yul\":6612:6619   */\n      dup6\n        /* \"#utility.yul\":6608:6631   */\n      sub\n        /* \"#utility.yul\":6604:6636   */\n      slt\n        /* \"#utility.yul\":6601:6720   */\n      iszero\n      tag_500\n      jumpi\n        /* \"#utility.yul\":6639:6718   */\n      tag_501\n      tag_335\n      jump\t// in\n    tag_501:\n        /* \"#utility.yul\":6601:6720   */\n    tag_500:\n        /* \"#utility.yul\":6759:6760   */\n      0x00\n        /* \"#utility.yul\":6784:6837   */\n      tag_502\n        /* \"#utility.yul\":6829:6836   */\n      dup6\n        /* \"#utility.yul\":6820:6826   */\n      dup3\n        /* \"#utility.yul\":6809:6818   */\n      dup7\n        /* \"#utility.yul\":6805:6827   */\n      add\n        /* \"#utility.yul\":6784:6837   */\n      tag_354\n      jump\t// in\n    tag_502:\n        /* \"#utility.yul\":6774:6837   */\n      swap3\n      pop\n        /* \"#utility.yul\":6730:6847   */\n      pop\n        /* \"#utility.yul\":6886:6888   */\n      0x20\n        /* \"#utility.yul\":6912:6962   */\n      tag_503\n        /* \"#utility.yul\":6954:6961   */\n      dup6\n        /* \"#utility.yul\":6945:6951   */\n      dup3\n        /* \"#utility.yul\":6934:6943   */\n      dup7\n        /* \"#utility.yul\":6930:6952   */\n      add\n        /* \"#utility.yul\":6912:6962   */\n      tag_357\n      jump\t// in\n    tag_503:\n        /* \"#utility.yul\":6902:6962   */\n      swap2\n      pop\n        /* \"#utility.yul\":6857:6972   */\n      pop\n        /* \"#utility.yul\":6511:6979   */\n      swap3\n      pop\n      swap3\n      swap1\n      pop\n      jump\t// out\n        /* \"#utility.yul\":6985:7102   */\n    tag_358:\n        /* \"#utility.yul\":7094:7095   */\n      0x00\n        /* \"#utility.yul\":7091:7092   */\n      dup1\n        /* \"#utility.yul\":7084:7096   */\n      revert\n        /* \"#utility.yul\":7108:7225   */\n    tag_359:\n        /* \"#utility.yul\":7217:7218   */\n      0x00\n        /* \"#utility.yul\":7214:7215   */\n      dup1\n        /* \"#utility.yul\":7207:7219   */\n      revert\n        /* \"#utility.yul\":7231:7411   */\n    tag_304:\n        /* \"#utility.yul\":7279:7356   */\n      0x4e487b7100000000000000000000000000000000000000000000000000000000\n        /* \"#utility.yul\":7276:7277   */\n      0x00\n        /* \"#utility.yul\":7269:7357   */\n      mstore\n        /* \"#utility.yul\":7376:7380   */\n      0x41\n        /* \"#utility.yul\":7373:7374   */\n      0x04\n        /* \"#utility.yul\":7366:7381   */\n      mstore\n        /* \"#utility.yul\":7400:7404   */\n      0x24\n        /* \"#utility.yul\":7397:7398   */\n      0x00\n        /* \"#utility.yul\":7390:7405   */\n      revert\n        /* \"#utility.yul\":7417:7698   */\n    tag_360:\n        /* \"#utility.yul\":7500:7527   */\n      tag_508\n        /* \"#utility.yul\":7522:7526   */\n      dup3\n        /* \"#utility.yul\":7500:7527   */\n      tag_345\n      jump\t// in\n    tag_508:\n        /* \"#utility.yul\":7492:7498   */\n      dup2\n        /* \"#utility.yul\":7488:7528   */\n      add\n        /* \"#utility.yul\":7630:7636   */\n      dup2\n        /* \"#utility.yul\":7618:7628   */\n      dup2\n        /* \"#utility.yul\":7615:7637   */\n      lt\n        /* \"#utility.yul\":7594:7612   */\n      0xffffffffffffffff\n        /* \"#utility.yul\":7582:7592   */\n      dup3\n        /* \"#utility.yul\":7579:7613   */\n      gt\n        /* \"#utility.yul\":7576:7638   */\n      or\n        /* \"#utility.yul\":7573:7661   */\n      iszero\n      tag_509\n      jumpi\n        /* \"#utility.yul\":7641:7659   */\n      tag_510\n      tag_304\n      jump\t// in\n    tag_510:\n        /* \"#utility.yul\":7573:7661   */\n    tag_509:\n        /* \"#utility.yul\":7681:7691   */\n      dup1\n        /* \"#utility.yul\":7677:7679   */\n      0x40\n        /* \"#utility.yul\":7670:7692   */\n      mstore\n        /* \"#utility.yul\":7460:7698   */\n      pop\n        /* \"#utility.yul\":7417:7698   */\n      pop\n      pop\n      jump\t// out\n        /* \"#utility.yul\":7704:7833   */\n    tag_361:\n        /* \"#utility.yul\":7738:7744   */\n      0x00\n        /* \"#utility.yul\":7765:7785   */\n      tag_512\n      tag_334\n      jump\t// in\n    tag_512:\n        /* \"#utility.yul\":7755:7785   */\n      swap1\n      pop\n        /* \"#utility.yul\":7794:7827   */\n      tag_513\n        /* \"#utility.yul\":7822:7826   */\n      dup3\n        /* \"#utility.yul\":7814:7820   */\n      dup3\n        /* \"#utility.yul\":7794:7827   */\n      tag_360\n      jump\t// in\n    tag_513:\n        /* \"#utility.yul\":7704:7833   */\n      swap2\n      swap1\n      pop\n      jump\t// out\n        /* \"#utility.yul\":7839:8146   */\n    tag_362:\n        /* \"#utility.yul\":7900:7904   */\n      0x00\n        /* \"#utility.yul\":7990:8008   */\n      0xffffffffffffffff\n        /* \"#utility.yul\":7982:7988   */\n      dup3\n        /* \"#utility.yul\":7979:8009   */\n      gt\n        /* \"#utility.yul\":7976:8032   */\n      iszero\n      tag_515\n      jumpi\n        /* \"#utility.yul\":8012:8030   */\n      tag_516\n      tag_304\n      jump\t// in\n    tag_516:\n        /* \"#utility.yul\":7976:8032   */\n    tag_515:\n        /* \"#utility.yul\":8050:8079   */\n      tag_517\n        /* \"#utility.yul\":8072:8078   */\n      dup3\n        /* \"#utility.yul\":8050:8079   */\n      tag_345\n      jump\t// in\n    tag_517:\n        /* \"#utility.yul\":8042:8079   */\n      swap1\n      pop\n        /* \"#utility.yul\":8134:8138   */\n      0x20\n        /* \"#utility.yul\":8128:8132   */\n      dup2\n        /* \"#utility.yul\":8124:8139   */\n      add\n        /* \"#utility.yul\":8116:8139   */\n      swap1\n      pop\n        /* \"#utility.yul\":7839:8146   */\n      swap2\n      swap1\n      pop\n      jump\t// out\n        /* \"#utility.yul\":8152:8306   */\n    tag_363:\n        /* \"#utility.yul\":8236:8242   */\n      dup3\n        /* \"#utility.yul\":8231:8234   */\n      dup2\n        /* \"#utility.yul\":8226:8229   */\n      dup4\n        /* \"#utility.yul\":8213:8243   */\n      calldatacopy\n        /* \"#utility.yul\":8298:8299   */\n      0x00\n        /* \"#utility.yul\":8289:8295   */\n      dup4\n        /* \"#utility.yul\":8284:8287   */\n      dup4\n        /* \"#utility.yul\":8280:8296   */\n      add\n        /* \"#utility.yul\":8273:8300   */\n      mstore\n        /* \"#utility.yul\":8152:8306   */\n      pop\n      pop\n      pop\n      jump\t// out\n        /* \"#utility.yul\":8312:8722   */\n    tag_364:\n        /* \"#utility.yul\":8389:8394   */\n      0x00\n        /* \"#utility.yul\":8414:8479   */\n      tag_520\n        /* \"#utility.yul\":8430:8478   */\n      tag_521\n        /* \"#utility.yul\":8471:8477   */\n      dup5\n        /* \"#utility.yul\":8430:8478   */\n      tag_362\n      jump\t// in\n    tag_521:\n        /* \"#utility.yul\":8414:8479   */\n      tag_361\n      jump\t// in\n    tag_520:\n        /* \"#utility.yul\":8405:8479   */\n      swap1\n      pop\n        /* \"#utility.yul\":8502:8508   */\n      dup3\n        /* \"#utility.yul\":8495:8500   */\n      dup2\n        /* \"#utility.yul\":8488:8509   */\n      mstore\n        /* \"#utility.yul\":8540:8544   */\n      0x20\n        /* \"#utility.yul\":8533:8538   */\n      dup2\n        /* \"#utility.yul\":8529:8545   */\n      add\n        /* \"#utility.yul\":8578:8581   */\n      dup5\n        /* \"#utility.yul\":8569:8575   */\n      dup5\n        /* \"#utility.yul\":8564:8567   */\n      dup5\n        /* \"#utility.yul\":8560:8576   */\n      add\n        /* \"#utility.yul\":8557:8582   */\n      gt\n        /* \"#utility.yul\":8554:8666   */\n      iszero\n      tag_522\n      jumpi\n        /* \"#utility.yul\":8585:8664   */\n      tag_523\n      tag_359\n      jump\t// in\n    tag_523:\n        /* \"#utility.yul\":8554:8666   */\n    tag_522:\n        /* \"#utility.yul\":8675:8716   */\n      tag_524\n        /* \"#utility.yul\":8709:8715   */\n      dup5\n        /* \"#utility.yul\":8704:8707   */\n      dup3\n        /* \"#utility.yul\":8699:8702   */\n      dup6\n        /* \"#utility.yul\":8675:8716   */\n      tag_363\n      jump\t// in\n    tag_524:\n        /* \"#utility.yul\":8395:8722   */\n      pop\n        /* \"#utility.yul\":8312:8722   */\n      swap4\n      swap3\n      pop\n      pop\n      pop\n      jump\t// out\n        /* \"#utility.yul\":8741:9079   */\n    tag_365:\n        /* \"#utility.yul\":8796:8801   */\n      0x00\n        /* \"#utility.yul\":8845:8848   */\n      dup3\n        /* \"#utility.yul\":8838:8842   */\n      0x1f\n        /* \"#utility.yul\":8830:8836   */\n      dup4\n        /* \"#utility.yul\":8826:8843   */\n      add\n        /* \"#utility.yul\":8822:8849   */\n      slt\n        /* \"#utility.yul\":8812:8934   */\n      tag_526\n      jumpi\n        /* \"#utility.yul\":8853:8932   */\n      tag_527\n      tag_358\n      jump\t// in\n    tag_527:\n        /* \"#utility.yul\":8812:8934   */\n    tag_526:\n        /* \"#utility.yul\":8970:8976   */\n      dup2\n        /* \"#utility.yul\":8957:8977   */\n      calldataload\n        /* \"#utility.yul\":8995:9073   */\n      tag_528\n        /* \"#utility.yul\":9069:9072   */\n      dup5\n        /* \"#utility.yul\":9061:9067   */\n      dup3\n        /* \"#utility.yul\":9054:9058   */\n      0x20\n        /* \"#utility.yul\":9046:9052   */\n      dup7\n        /* \"#utility.yul\":9042:9059   */\n      add\n        /* \"#utility.yul\":8995:9073   */\n      tag_364\n      jump\t// in\n    tag_528:\n        /* \"#utility.yul\":8986:9073   */\n      swap2\n      pop\n        /* \"#utility.yul\":8802:9079   */\n      pop\n        /* \"#utility.yul\":8741:9079   */\n      swap3\n      swap2\n      pop\n      pop\n      jump\t// out\n        /* \"#utility.yul\":9085:10028   */\n    tag_78:\n        /* \"#utility.yul\":9180:9186   */\n      0x00\n        /* \"#utility.yul\":9188:9194   */\n      dup1\n        /* \"#utility.yul\":9196:9202   */\n      0x00\n        /* \"#utility.yul\":9204:9210   */\n      dup1\n        /* \"#utility.yul\":9253:9256   */\n      0x80\n        /* \"#utility.yul\":9241:9250   */\n      dup6\n        /* \"#utility.yul\":9232:9239   */\n      dup8\n        /* \"#utility.yul\":9228:9251   */\n      sub\n        /* \"#utility.yul\":9224:9257   */\n      slt\n        /* \"#utility.yul\":9221:9341   */\n      iszero\n      tag_530\n      jumpi\n        /* \"#utility.yul\":9260:9339   */\n      tag_531\n      tag_335\n      jump\t// in\n    tag_531:\n        /* \"#utility.yul\":9221:9341   */\n    tag_530:\n        /* \"#utility.yul\":9380:9381   */\n      0x00\n        /* \"#utility.yul\":9405:9458   */\n      tag_532\n        /* \"#utility.yul\":9450:9457   */\n      dup8\n        /* \"#utility.yul\":9441:9447   */\n      dup3\n        /* \"#utility.yul\":9430:9439   */\n      dup9\n        /* \"#utility.yul\":9426:9448   */\n      add\n        /* \"#utility.yul\":9405:9458   */\n      tag_354\n      jump\t// in\n    tag_532:\n        /* \"#utility.yul\":9395:9458   */\n      swap5\n      pop\n        /* \"#utility.yul\":9351:9468   */\n      pop\n        /* \"#utility.yul\":9507:9509   */\n      0x20\n        /* \"#utility.yul\":9533:9586   */\n      tag_533\n        /* \"#utility.yul\":9578:9585   */\n      dup8\n        /* \"#utility.yul\":9569:9575   */\n      dup3\n        /* \"#utility.yul\":9558:9567   */\n      dup9\n        /* \"#utility.yul\":9554:9576   */\n      add\n        /* \"#utility.yul\":9533:9586   */\n      tag_354\n      jump\t// in\n    tag_533:\n        /* \"#utility.yul\":9523:9586   */\n      swap4\n      pop\n        /* \"#utility.yul\":9478:9596   */\n      pop\n        /* \"#utility.yul\":9635:9637   */\n      0x40\n        /* \"#utility.yul\":9661:9714   */\n      tag_534\n        /* \"#utility.yul\":9706:9713   */\n      dup8\n        /* \"#utility.yul\":9697:9703   */\n      dup3\n        /* \"#utility.yul\":9686:9695   */\n      dup9\n        /* \"#utility.yul\":9682:9704   */\n      add\n        /* \"#utility.yul\":9661:9714   */\n      tag_349\n      jump\t// in\n    tag_534:\n        /* \"#utility.yul\":9651:9714   */\n      swap3\n      pop\n        /* \"#utility.yul\":9606:9724   */\n      pop\n        /* \"#utility.yul\":9791:9793   */\n      0x60\n        /* \"#utility.yul\":9780:9789   */\n      dup6\n        /* \"#utility.yul\":9776:9794   */\n      add\n        /* \"#utility.yul\":9763:9795   */\n      calldataload\n        /* \"#utility.yul\":9822:9840   */\n      0xffffffffffffffff\n        /* \"#utility.yul\":9814:9820   */\n      dup2\n        /* \"#utility.yul\":9811:9841   */\n      gt\n        /* \"#utility.yul\":9808:9925   */\n      iszero\n      tag_535\n      jumpi\n        /* \"#utility.yul\":9844:9923   */\n      tag_536\n      tag_336\n      jump\t// in\n    tag_536:\n        /* \"#utility.yul\":9808:9925   */\n    tag_535:\n        /* \"#utility.yul\":9949:10011   */\n      tag_537\n        /* \"#utility.yul\":10003:10010   */\n      dup8\n        /* \"#utility.yul\":9994:10000   */\n      dup3\n        /* \"#utility.yul\":9983:9992   */\n      dup9\n        /* \"#utility.yul\":9979:10001   */\n      add\n        /* \"#utility.yul\":9949:10011   */\n      tag_365\n      jump\t// in\n    tag_537:\n        /* \"#utility.yul\":9939:10011   */\n      swap2\n      pop\n        /* \"#utility.yul\":9734:10021   */\n      pop\n        /* \"#utility.yul\":9085:10028   */\n      swap3\n      swap6\n      swap2\n      swap5\n      pop\n      swap3\n      pop\n      jump\t// out\n        /* \"#utility.yul\":10034:10342   */\n    tag_366:\n        /* \"#utility.yul\":10096:10100   */\n      0x00\n        /* \"#utility.yul\":10186:10204   */\n      0xffffffffffffffff\n        /* \"#utility.yul\":10178:10184   */\n      dup3\n        /* \"#utility.yul\":10175:10205   */\n      gt\n        /* \"#utility.yul\":10172:10228   */\n      iszero\n      tag_539\n      jumpi\n        /* \"#utility.yul\":10208:10226   */\n      tag_540\n      tag_304\n      jump\t// in\n    tag_540:\n        /* \"#utility.yul\":10172:10228   */\n    tag_539:\n        /* \"#utility.yul\":10246:10275   */\n      tag_541\n        /* \"#utility.yul\":10268:10274   */\n      dup3\n        /* \"#utility.yul\":10246:10275   */\n      tag_345\n      jump\t// in\n    tag_541:\n        /* \"#utility.yul\":10238:10275   */\n      swap1\n      pop\n        /* \"#utility.yul\":10330:10334   */\n      0x20\n        /* \"#utility.yul\":10324:10328   */\n      dup2\n        /* \"#utility.yul\":10320:10335   */\n      add\n        /* \"#utility.yul\":10312:10335   */\n      swap1\n      pop\n        /* \"#utility.yul\":10034:10342   */\n      swap2\n      swap1\n      pop\n      jump\t// out\n        /* \"#utility.yul\":10348:10760   */\n    tag_367:\n        /* \"#utility.yul\":10426:10431   */\n      0x00\n        /* \"#utility.yul\":10451:10517   */\n      tag_543\n        /* \"#utility.yul\":10467:10516   */\n      tag_544\n        /* \"#utility.yul\":10509:10515   */\n      dup5\n        /* \"#utility.yul\":10467:10516   */\n      tag_366\n      jump\t// in\n    tag_544:\n        /* \"#utility.yul\":10451:10517   */\n      tag_361\n      jump\t// in\n    tag_543:\n        /* \"#utility.yul\":10442:10517   */\n      swap1\n      pop\n        /* \"#utility.yul\":10540:10546   */\n      dup3\n        /* \"#utility.yul\":10533:10538   */\n      dup2\n        /* \"#utility.yul\":10526:10547   */\n      mstore\n        /* \"#utility.yul\":10578:10582   */\n      0x20\n        /* \"#utility.yul\":10571:10576   */\n      dup2\n        /* \"#utility.yul\":10567:10583   */\n      add\n        /* \"#utility.yul\":10616:10619   */\n      dup5\n        /* \"#utility.yul\":10607:10613   */\n      dup5\n        /* \"#utility.yul\":10602:10605   */\n      dup5\n        /* \"#utility.yul\":10598:10614   */\n      add\n        /* \"#utility.yul\":10595:10620   */\n      gt\n        /* \"#utility.yul\":10592:10704   */\n      iszero\n      tag_545\n      jumpi\n        /* \"#utility.yul\":10623:10702   */\n      tag_546\n      tag_359\n      jump\t// in\n    tag_546:\n        /* \"#utility.yul\":10592:10704   */\n    tag_545:\n        /* \"#utility.yul\":10713:10754   */\n      tag_547\n        /* \"#utility.yul\":10747:10753   */\n      dup5\n        /* \"#utility.yul\":10742:10745   */\n      dup3\n        /* \"#utility.yul\":10737:10740   */\n      dup6\n        /* \"#utility.yul\":10713:10754   */\n      tag_363\n      jump\t// in\n    tag_547:\n        /* \"#utility.yul\":10432:10760   */\n      pop\n        /* \"#utility.yul\":10348:10760   */\n      swap4\n      swap3\n      pop\n      pop\n      pop\n      jump\t// out\n        /* \"#utility.yul\":10780:11120   */\n    tag_368:\n        /* \"#utility.yul\":10836:10841   */\n      0x00\n        /* \"#utility.yul\":10885:10888   */\n      dup3\n        /* \"#utility.yul\":10878:10882   */\n      0x1f\n        /* \"#utility.yul\":10870:10876   */\n      dup4\n        /* \"#utility.yul\":10866:10883   */\n      add\n        /* \"#utility.yul\":10862:10889   */\n      slt\n        /* \"#utility.yul\":10852:10974   */\n      tag_549\n      jumpi\n        /* \"#utility.yul\":10893:10972   */\n      tag_550\n      tag_358\n      jump\t// in\n    tag_550:\n        /* \"#utility.yul\":10852:10974   */\n    tag_549:\n        /* \"#utility.yul\":11010:11016   */\n      dup2\n        /* \"#utility.yul\":10997:11017   */\n      calldataload\n        /* \"#utility.yul\":11035:11114   */\n      tag_551\n        /* \"#utility.yul\":11110:11113   */\n      dup5\n        /* \"#utility.yul\":11102:11108   */\n      dup3\n        /* \"#utility.yul\":11095:11099   */\n      0x20\n        /* \"#utility.yul\":11087:11093   */\n      dup7\n        /* \"#utility.yul\":11083:11100   */\n      add\n        /* \"#utility.yul\":11035:11114   */\n      tag_367\n      jump\t// in\n    tag_551:\n        /* \"#utility.yul\":11026:11114   */\n      swap2\n      pop\n        /* \"#utility.yul\":10842:11120   */\n      pop\n        /* \"#utility.yul\":10780:11120   */\n      swap3\n      swap2\n      pop\n      pop\n      jump\t// out\n        /* \"#utility.yul\":11126:11780   */\n    tag_86:\n        /* \"#utility.yul\":11204:11210   */\n      0x00\n        /* \"#utility.yul\":11212:11218   */\n      dup1\n        /* \"#utility.yul\":11261:11263   */\n      0x40\n        /* \"#utility.yul\":11249:11258   */\n      dup4\n        /* \"#utility.yul\":11240:11247   */\n      dup6\n        /* \"#utility.yul\":11236:11259   */\n      sub\n        /* \"#utility.yul\":11232:11264   */\n      slt\n        /* \"#utility.yul\":11229:11348   */\n      iszero\n      tag_553\n      jumpi\n        /* \"#utility.yul\":11267:11346   */\n      tag_554\n      tag_335\n      jump\t// in\n    tag_554:\n        /* \"#utility.yul\":11229:11348   */\n    tag_553:\n        /* \"#utility.yul\":11387:11388   */\n      0x00\n        /* \"#utility.yul\":11412:11465   */\n      tag_555\n        /* \"#utility.yul\":11457:11464   */\n      dup6\n        /* \"#utility.yul\":11448:11454   */\n      dup3\n        /* \"#utility.yul\":11437:11446   */\n      dup7\n        /* \"#utility.yul\":11433:11455   */\n      add\n        /* \"#utility.yul\":11412:11465   */\n      tag_354\n      jump\t// in\n    tag_555:\n        /* \"#utility.yul\":11402:11465   */\n      swap3\n      pop\n        /* \"#utility.yul\":11358:11475   */\n      pop\n        /* \"#utility.yul\":11542:11544   */\n      0x20\n        /* \"#utility.yul\":11531:11540   */\n      dup4\n        /* \"#utility.yul\":11527:11545   */\n      add\n        /* \"#utility.yul\":11514:11546   */\n      calldataload\n        /* \"#utility.yul\":11573:11591   */\n      0xffffffffffffffff\n        /* \"#utility.yul\":11565:11571   */\n      dup2\n        /* \"#utility.yul\":11562:11592   */\n      gt\n        /* \"#utility.yul\":11559:11676   */\n      iszero\n      tag_556\n      jumpi\n        /* \"#utility.yul\":11595:11674   */\n      tag_557\n      tag_336\n      jump\t// in\n    tag_557:\n        /* \"#utility.yul\":11559:11676   */\n    tag_556:\n        /* \"#utility.yul\":11700:11763   */\n      tag_558\n        /* \"#utility.yul\":11755:11762   */\n      dup6\n        /* \"#utility.yul\":11746:11752   */\n      dup3\n        /* \"#utility.yul\":11735:11744   */\n      dup7\n        /* \"#utility.yul\":11731:11753   */\n      add\n        /* \"#utility.yul\":11700:11763   */\n      tag_368\n      jump\t// in\n    tag_558:\n        /* \"#utility.yul\":11690:11763   */\n      swap2\n      pop\n        /* \"#utility.yul\":11485:11773   */\n      pop\n        /* \"#utility.yul\":11126:11780   */\n      swap3\n      pop\n      swap3\n      swap1\n      pop\n      jump\t// out\n        /* \"#utility.yul\":11786:12260   */\n    tag_91:\n        /* \"#utility.yul\":11854:11860   */\n      0x00\n        /* \"#utility.yul\":11862:11868   */\n      dup1\n        /* \"#utility.yul\":11911:11913   */\n      0x40\n        /* \"#utility.yul\":11899:11908   */\n      dup4\n        /* \"#utility.yul\":11890:11897   */\n      dup6\n        /* \"#utility.yul\":11886:11909   */\n      sub\n        /* \"#utility.yul\":11882:11914   */\n      slt\n        /* \"#utility.yul\":11879:11998   */\n      iszero\n      tag_560\n      jumpi\n        /* \"#utility.yul\":11917:11996   */\n      tag_561\n      tag_335\n      jump\t// in\n    tag_561:\n        /* \"#utility.yul\":11879:11998   */\n    tag_560:\n        /* \"#utility.yul\":12037:12038   */\n      0x00\n        /* \"#utility.yul\":12062:12115   */\n      tag_562\n        /* \"#utility.yul\":12107:12114   */\n      dup6\n        /* \"#utility.yul\":12098:12104   */\n      dup3\n        /* \"#utility.yul\":12087:12096   */\n      dup7\n        /* \"#utility.yul\":12083:12105   */\n      add\n        /* \"#utility.yul\":12062:12115   */\n      tag_354\n      jump\t// in\n    tag_562:\n        /* \"#utility.yul\":12052:12115   */\n      swap3\n      pop\n        /* \"#utility.yul\":12008:12125   */\n      pop\n        /* \"#utility.yul\":12164:12166   */\n      0x20\n        /* \"#utility.yul\":12190:12243   */\n      tag_563\n        /* \"#utility.yul\":12235:12242   */\n      dup6\n        /* \"#utility.yul\":12226:12232   */\n      dup3\n        /* \"#utility.yul\":12215:12224   */\n      dup7\n        /* \"#utility.yul\":12211:12233   */\n      add\n        /* \"#utility.yul\":12190:12243   */\n      tag_354\n      jump\t// in\n    tag_563:\n        /* \"#utility.yul\":12180:12243   */\n      swap2\n      pop\n        /* \"#utility.yul\":12135:12253   */\n      pop\n        /* \"#utility.yul\":11786:12260   */\n      swap3\n      pop\n      swap3\n      swap1\n      pop\n      jump\t// out\n        /* \"#utility.yul\":12266:12446   */\n    tag_369:\n        /* \"#utility.yul\":12314:12391   */\n      0x4e487b7100000000000000000000000000000000000000000000000000000000\n        /* \"#utility.yul\":12311:12312   */\n      0x00\n        /* \"#utility.yul\":12304:12392   */\n      mstore\n        /* \"#utility.yul\":12411:12415   */\n      0x22\n        /* \"#utility.yul\":12408:12409   */\n      0x04\n        /* \"#utility.yul\":12401:12416   */\n      mstore\n        /* \"#utility.yul\":12435:12439   */\n      0x24\n        /* \"#utility.yul\":12432:12433   */\n      0x00\n        /* \"#utility.yul\":12425:12440   */\n      revert\n        /* \"#utility.yul\":12452:12772   */\n    tag_101:\n        /* \"#utility.yul\":12496:12502   */\n      0x00\n        /* \"#utility.yul\":12533:12534   */\n      0x02\n        /* \"#utility.yul\":12527:12531   */\n      dup3\n        /* \"#utility.yul\":12523:12535   */\n      div\n        /* \"#utility.yul\":12513:12535   */\n      swap1\n      pop\n        /* \"#utility.yul\":12580:12581   */\n      0x01\n        /* \"#utility.yul\":12574:12578   */\n      dup3\n        /* \"#utility.yul\":12570:12582   */\n      and\n        /* \"#utility.yul\":12601:12619   */\n      dup1\n        /* \"#utility.yul\":12591:12672   */\n      tag_566\n      jumpi\n        /* \"#utility.yul\":12657:12661   */\n      0x7f\n        /* \"#utility.yul\":12649:12655   */\n      dup3\n        /* \"#utility.yul\":12645:12662   */\n      and\n        /* \"#utility.yul\":12635:12662   */\n      swap2\n      pop\n        /* \"#utility.yul\":12591:12672   */\n    tag_566:\n        /* \"#utility.yul\":12719:12721   */\n      0x20\n        /* \"#utility.yul\":12711:12717   */\n      dup3\n        /* \"#utility.yul\":12708:12722   */\n      lt\n        /* \"#utility.yul\":12688:12706   */\n      dup2\n        /* \"#utility.yul\":12685:12723   */\n      sub\n        /* \"#utility.yul\":12682:12766   */\n      tag_567\n      jumpi\n        /* \"#utility.yul\":12738:12756   */\n      tag_568\n      tag_369\n      jump\t// in\n    tag_568:\n        /* \"#utility.yul\":12682:12766   */\n    tag_567:\n        /* \"#utility.yul\":12503:12772   */\n      pop\n        /* \"#utility.yul\":12452:12772   */\n      swap2\n      swap1\n      pop\n      jump\t// out\n        /* \"#utility.yul\":12778:12998   */\n    tag_370:\n        /* \"#utility.yul\":12918:12952   */\n      0x4552433732313a20617070726f76616c20746f2063757272656e74206f776e65\n        /* \"#utility.yul\":12914:12915   */\n      0x00\n        /* \"#utility.yul\":12906:12912   */\n      dup3\n        /* \"#utility.yul\":12902:12916   */\n      add\n        /* \"#utility.yul\":12895:12953   */\n      mstore\n        /* \"#utility.yul\":12987:12990   */\n      0x7200000000000000000000000000000000000000000000000000000000000000\n        /* \"#utility.yul\":12982:12984   */\n      0x20\n        /* \"#utility.yul\":12974:12980   */\n      dup3\n        /* \"#utility.yul\":12970:12985   */\n      add\n        /* \"#utility.yul\":12963:12991   */\n      mstore\n        /* \"#utility.yul\":12778:12998   */\n      pop\n      jump\t// out\n        /* \"#utility.yul\":13004:13370   */\n    tag_371:\n        /* \"#utility.yul\":13146:13149   */\n      0x00\n        /* \"#utility.yul\":13167:13234   */\n      tag_571\n        /* \"#utility.yul\":13231:13233   */\n      0x21\n        /* \"#utility.yul\":13226:13229   */\n      dup4\n        /* \"#utility.yul\":13167:13234   */\n      tag_343\n      jump\t// in\n    tag_571:\n        /* \"#utility.yul\":13160:13234   */\n      swap2\n      pop\n        /* \"#utility.yul\":13243:13336   */\n      tag_572\n        /* \"#utility.yul\":13332:13335   */\n      dup3\n        /* \"#utility.yul\":13243:13336   */\n      tag_370\n      jump\t// in\n    tag_572:\n        /* \"#utility.yul\":13361:13363   */\n      0x40\n        /* \"#utility.yul\":13356:13359   */\n      dup3\n        /* \"#utility.yul\":13352:13364   */\n      add\n        /* \"#utility.yul\":13345:13364   */\n      swap1\n      pop\n        /* \"#utility.yul\":13004:13370   */\n      swap2\n      swap1\n      pop\n      jump\t// out\n        /* \"#utility.yul\":13376:13795   */\n    tag_112:\n        /* \"#utility.yul\":13542:13546   */\n      0x00\n        /* \"#utility.yul\":13580:13582   */\n      0x20\n        /* \"#utility.yul\":13569:13578   */\n      dup3\n        /* \"#utility.yul\":13565:13583   */\n      add\n        /* \"#utility.yul\":13557:13583   */\n      swap1\n      pop\n        /* \"#utility.yul\":13629:13638   */\n      dup2\n        /* \"#utility.yul\":13623:13627   */\n      dup2\n        /* \"#utility.yul\":13619:13639   */\n      sub\n        /* \"#utility.yul\":13615:13616   */\n      0x00\n        /* \"#utility.yul\":13604:13613   */\n      dup4\n        /* \"#utility.yul\":13600:13617   */\n      add\n        /* \"#utility.yul\":13593:13640   */\n      mstore\n        /* \"#utility.yul\":13657:13788   */\n      tag_574\n        /* \"#utility.yul\":13783:13787   */\n      dup2\n        /* \"#utility.yul\":13657:13788   */\n      tag_371\n      jump\t// in\n    tag_574:\n        /* \"#utility.yul\":13649:13788   */\n      swap1\n      pop\n        /* \"#utility.yul\":13376:13795   */\n      swap2\n      swap1\n      pop\n      jump\t// out\n        /* \"#utility.yul\":13801:14050   */\n    tag_372:\n        /* \"#utility.yul\":13941:13975   */\n      0x4552433732313a20617070726f76652063616c6c6572206973206e6f7420746f\n        /* \"#utility.yul\":13937:13938   */\n      0x00\n        /* \"#utility.yul\":13929:13935   */\n      dup3\n        /* \"#utility.yul\":13925:13939   */\n      add\n        /* \"#utility.yul\":13918:13976   */\n      mstore\n        /* \"#utility.yul\":14010:14042   */\n      0x6b656e206f776e6572206e6f7220617070726f76656420666f7220616c6c0000\n        /* \"#utility.yul\":14005:14007   */\n      0x20\n        /* \"#utility.yul\":13997:14003   */\n      dup3\n        /* \"#utility.yul\":13993:14008   */\n      add\n        /* \"#utility.yul\":13986:14043   */\n      mstore\n        /* \"#utility.yul\":13801:14050   */\n      pop\n      jump\t// out\n        /* \"#utility.yul\":14056:14422   */\n    tag_373:\n        /* \"#utility.yul\":14198:14201   */\n      0x00\n        /* \"#utility.yul\":14219:14286   */\n      tag_577\n        /* \"#utility.yul\":14283:14285   */\n      0x3e\n        /* \"#utility.yul\":14278:14281   */\n      dup4\n        /* \"#utility.yul\":14219:14286   */\n      tag_343\n      jump\t// in\n    tag_577:\n        /* \"#utility.yul\":14212:14286   */\n      swap2\n      pop\n        /* \"#utility.yul\":14295:14388   */\n      tag_578\n        /* \"#utility.yul\":14384:14387   */\n      dup3\n        /* \"#utility.yul\":14295:14388   */\n      tag_372\n      jump\t// in\n    tag_578:\n        /* \"#utility.yul\":14413:14415   */\n      0x40\n        /* \"#utility.yul\":14408:14411   */\n      dup3\n        /* \"#utility.yul\":14404:14416   */\n      add\n        /* \"#utility.yul\":14397:14416   */\n      swap1\n      pop\n        /* \"#utility.yul\":14056:14422   */\n      swap2\n      swap1\n      pop\n      jump\t// out\n        /* \"#utility.yul\":14428:14847   */\n    tag_117:\n        /* \"#utility.yul\":14594:14598   */\n      0x00\n        /* \"#utility.yul\":14632:14634   */\n      0x20\n        /* \"#utility.yul\":14621:14630   */\n      dup3\n        /* \"#utility.yul\":14617:14635   */\n      add\n        /* \"#utility.yul\":14609:14635   */\n      swap1\n      pop\n        /* \"#utility.yul\":14681:14690   */\n      dup2\n        /* \"#utility.yul\":14675:14679   */\n      dup2\n        /* \"#utility.yul\":14671:14691   */\n      sub\n        /* \"#utility.yul\":14667:14668   */\n      0x00\n        /* \"#utility.yul\":14656:14665   */\n      dup4\n        /* \"#utility.yul\":14652:14669   */\n      add\n        /* \"#utility.yul\":14645:14692   */\n      mstore\n        /* \"#utility.yul\":14709:14840   */\n      tag_580\n        /* \"#utility.yul\":14835:14839   */\n      dup2\n        /* \"#utility.yul\":14709:14840   */\n      tag_373\n      jump\t// in\n    tag_580:\n        /* \"#utility.yul\":14701:14840   */\n      swap1\n      pop\n        /* \"#utility.yul\":14428:14847   */\n      swap2\n      swap1\n      pop\n      jump\t// out\n        /* \"#utility.yul\":14853:15086   */\n    tag_374:\n        /* \"#utility.yul\":14993:15027   */\n      0x4552433732313a2063616c6c6572206973206e6f7420746f6b656e206f776e65\n        /* \"#utility.yul\":14989:14990   */\n      0x00\n        /* \"#utility.yul\":14981:14987   */\n      dup3\n        /* \"#utility.yul\":14977:14991   */\n      add\n        /* \"#utility.yul\":14970:15028   */\n      mstore\n        /* \"#utility.yul\":15062:15078   */\n      0x72206e6f7220617070726f766564000000000000000000000000000000000000\n        /* \"#utility.yul\":15057:15059   */\n      0x20\n        /* \"#utility.yul\":15049:15055   */\n      dup3\n        /* \"#utility.yul\":15045:15060   */\n      add\n        /* \"#utility.yul\":15038:15079   */\n      mstore\n        /* \"#utility.yul\":14853:15086   */\n      pop\n      jump\t// out\n        /* \"#utility.yul\":15092:15458   */\n    tag_375:\n        /* \"#utility.yul\":15234:15237   */\n      0x00\n        /* \"#utility.yul\":15255:15322   */\n      tag_583\n        /* \"#utility.yul\":15319:15321   */\n      0x2e\n        /* \"#utility.yul\":15314:15317   */\n      dup4\n        /* \"#utility.yul\":15255:15322   */\n      tag_343\n      jump\t// in\n    tag_583:\n        /* \"#utility.yul\":15248:15322   */\n      swap2\n      pop\n        /* \"#utility.yul\":15331:15424   */\n      tag_584\n        /* \"#utility.yul\":15420:15423   */\n      dup3\n        /* \"#utility.yul\":15331:15424   */\n      tag_374\n      jump\t// in\n    tag_584:\n        /* \"#utility.yul\":15449:15451   */\n      0x40\n        /* \"#utility.yul\":15444:15447   */\n      dup3\n        /* \"#utility.yul\":15440:15452   */\n      add\n        /* \"#utility.yul\":15433:15452   */\n      swap1\n      pop\n        /* \"#utility.yul\":15092:15458   */\n      swap2\n      swap1\n      pop\n      jump\t// out\n        /* \"#utility.yul\":15464:15883   */\n    tag_125:\n        /* \"#utility.yul\":15630:15634   */\n      0x00\n        /* \"#utility.yul\":15668:15670   */\n      0x20\n        /* \"#utility.yul\":15657:15666   */\n      dup3\n        /* \"#utility.yul\":15653:15671   */\n      add\n        /* \"#utility.yul\":15645:15671   */\n      swap1\n      pop\n        /* \"#utility.yul\":15717:15726   */\n      dup2\n        /* \"#utility.yul\":15711:15715   */\n      dup2\n        /* \"#utility.yul\":15707:15727   */\n      sub\n        /* \"#utility.yul\":15703:15704   */\n      0x00\n        /* \"#utility.yul\":15692:15701   */\n      dup4\n        /* \"#utility.yul\":15688:15705   */\n      add\n        /* \"#utility.yul\":15681:15728   */\n      mstore\n        /* \"#utility.yul\":15745:15876   */\n      tag_586\n        /* \"#utility.yul\":15871:15875   */\n      dup2\n        /* \"#utility.yul\":15745:15876   */\n      tag_375\n      jump\t// in\n    tag_586:\n        /* \"#utility.yul\":15737:15876   */\n      swap1\n      pop\n        /* \"#utility.yul\":15464:15883   */\n      swap2\n      swap1\n      pop\n      jump\t// out\n        /* \"#utility.yul\":15889:16112   */\n    tag_376:\n        /* \"#utility.yul\":16029:16063   */\n      0x4552433732313a204275726e696e672066726f6d20696e76616c696420616363\n        /* \"#utility.yul\":16025:16026   */\n      0x00\n        /* \"#utility.yul\":16017:16023   */\n      dup3\n        /* \"#utility.yul\":16013:16027   */\n      add\n        /* \"#utility.yul\":16006:16064   */\n      mstore\n        /* \"#utility.yul\":16098:16104   */\n      0x6f756e7400000000000000000000000000000000000000000000000000000000\n        /* \"#utility.yul\":16093:16095   */\n      0x20\n        /* \"#utility.yul\":16085:16091   */\n      dup3\n        /* \"#utility.yul\":16081:16096   */\n      add\n        /* \"#utility.yul\":16074:16105   */\n      mstore\n        /* \"#utility.yul\":15889:16112   */\n      pop\n      jump\t// out\n        /* \"#utility.yul\":16118:16484   */\n    tag_377:\n        /* \"#utility.yul\":16260:16263   */\n      0x00\n        /* \"#utility.yul\":16281:16348   */\n      tag_589\n        /* \"#utility.yul\":16345:16347   */\n      0x24\n        /* \"#utility.yul\":16340:16343   */\n      dup4\n        /* \"#utility.yul\":16281:16348   */\n      tag_343\n      jump\t// in\n    tag_589:\n        /* \"#utility.yul\":16274:16348   */\n      swap2\n      pop\n        /* \"#utility.yul\":16357:16450   */\n      tag_590\n        /* \"#utility.yul\":16446:16449   */\n      dup3\n        /* \"#utility.yul\":16357:16450   */\n      tag_376\n      jump\t// in\n    tag_590:\n        /* \"#utility.yul\":16475:16477   */\n      0x40\n        /* \"#utility.yul\":16470:16473   */\n      dup3\n        /* \"#utility.yul\":16466:16478   */\n      add\n        /* \"#utility.yul\":16459:16478   */\n      swap1\n      pop\n        /* \"#utility.yul\":16118:16484   */\n      swap2\n      swap1\n      pop\n      jump\t// out\n        /* \"#utility.yul\":16490:16909   */\n    tag_131:\n        /* \"#utility.yul\":16656:16660   */\n      0x00\n        /* \"#utility.yul\":16694:16696   */\n      0x20\n        /* \"#utility.yul\":16683:16692   */\n      dup3\n        /* \"#utility.yul\":16679:16697   */\n      add\n        /* \"#utility.yul\":16671:16697   */\n      swap1\n      pop\n        /* \"#utility.yul\":16743:16752   */\n      dup2\n        /* \"#utility.yul\":16737:16741   */\n      dup2\n        /* \"#utility.yul\":16733:16753   */\n      sub\n        /* \"#utility.yul\":16729:16730   */\n      0x00\n        /* \"#utility.yul\":16718:16727   */\n      dup4\n        /* \"#utility.yul\":16714:16731   */\n      add\n        /* \"#utility.yul\":16707:16754   */\n      mstore\n        /* \"#utility.yul\":16771:16902   */\n      tag_592\n        /* \"#utility.yul\":16897:16901   */\n      dup2\n        /* \"#utility.yul\":16771:16902   */\n      tag_377\n      jump\t// in\n    tag_592:\n        /* \"#utility.yul\":16763:16902   */\n      swap1\n      pop\n        /* \"#utility.yul\":16490:16909   */\n      swap2\n      swap1\n      pop\n      jump\t// out\n        /* \"#utility.yul\":16915:17089   */\n    tag_378:\n        /* \"#utility.yul\":17055:17081   */\n      0x4552433732313a20696e76616c696420746f6b656e2049440000000000000000\n        /* \"#utility.yul\":17051:17052   */\n      0x00\n        /* \"#utility.yul\":17043:17049   */\n      dup3\n        /* \"#utility.yul\":17039:17053   */\n      add\n        /* \"#utility.yul\":17032:17082   */\n      mstore\n        /* \"#utility.yul\":16915:17089   */\n      pop\n      jump\t// out\n        /* \"#utility.yul\":17095:17461   */\n    tag_379:\n        /* \"#utility.yul\":17237:17240   */\n      0x00\n        /* \"#utility.yul\":17258:17325   */\n      tag_595\n        /* \"#utility.yul\":17322:17324   */\n      0x18\n        /* \"#utility.yul\":17317:17320   */\n      dup4\n        /* \"#utility.yul\":17258:17325   */\n      tag_343\n      jump\t// in\n    tag_595:\n        /* \"#utility.yul\":17251:17325   */\n      swap2\n      pop\n        /* \"#utility.yul\":17334:17427   */\n      tag_596\n        /* \"#utility.yul\":17423:17426   */\n      dup3\n        /* \"#utility.yul\":17334:17427   */\n      tag_378\n      jump\t// in\n    tag_596:\n        /* \"#utility.yul\":17452:17454   */\n      0x20\n        /* \"#utility.yul\":17447:17450   */\n      dup3\n        /* \"#utility.yul\":17443:17455   */\n      add\n        /* \"#utility.yul\":17436:17455   */\n      swap1\n      pop\n        /* \"#utility.yul\":17095:17461   */\n      swap2\n      swap1\n      pop\n      jump\t// out\n        /* \"#utility.yul\":17467:17886   */\n    tag_139:\n        /* \"#utility.yul\":17633:17637   */\n      0x00\n        /* \"#utility.yul\":17671:17673   */\n      0x20\n        /* \"#utility.yul\":17660:17669   */\n      dup3\n        /* \"#utility.yul\":17656:17674   */\n      add\n        /* \"#utility.yul\":17648:17674   */\n      swap1\n      pop\n        /* \"#utility.yul\":17720:17729   */\n      dup2\n        /* \"#utility.yul\":17714:17718   */\n      dup2\n        /* \"#utility.yul\":17710:17730   */\n      sub\n        /* \"#utility.yul\":17706:17707   */\n      0x00\n        /* \"#utility.yul\":17695:17704   */\n      dup4\n        /* \"#utility.yul\":17691:17708   */\n      add\n        /* \"#utility.yul\":17684:17731   */\n      mstore\n        /* \"#utility.yul\":17748:17879   */\n      tag_598\n        /* \"#utility.yul\":17874:17878   */\n      dup2\n        /* \"#utility.yul\":17748:17879   */\n      tag_379\n      jump\t// in\n    tag_598:\n        /* \"#utility.yul\":17740:17879   */\n      swap1\n      pop\n        /* \"#utility.yul\":17467:17886   */\n      swap2\n      swap1\n      pop\n      jump\t// out\n        /* \"#utility.yul\":17892:18120   */\n    tag_380:\n        /* \"#utility.yul\":18032:18066   */\n      0x4552433732313a2061646472657373207a65726f206973206e6f742061207661\n        /* \"#utility.yul\":18028:18029   */\n      0x00\n        /* \"#utility.yul\":18020:18026   */\n      dup3\n        /* \"#utility.yul\":18016:18030   */\n      add\n        /* \"#utility.yul\":18009:18067   */\n      mstore\n        /* \"#utility.yul\":18101:18112   */\n      0x6c6964206f776e65720000000000000000000000000000000000000000000000\n        /* \"#utility.yul\":18096:18098   */\n      0x20\n        /* \"#utility.yul\":18088:18094   */\n      dup3\n        /* \"#utility.yul\":18084:18099   */\n      add\n        /* \"#utility.yul\":18077:18113   */\n      mstore\n        /* \"#utility.yul\":17892:18120   */\n      pop\n      jump\t// out\n        /* \"#utility.yul\":18126:18492   */\n    tag_381:\n        /* \"#utility.yul\":18268:18271   */\n      0x00\n        /* \"#utility.yul\":18289:18356   */\n      tag_601\n        /* \"#utility.yul\":18353:18355   */\n      0x29\n        /* \"#utility.yul\":18348:18351   */\n      dup4\n        /* \"#utility.yul\":18289:18356   */\n      tag_343\n      jump\t// in\n    tag_601:\n        /* \"#utility.yul\":18282:18356   */\n      swap2\n      pop\n        /* \"#utility.yul\":18365:18458   */\n      tag_602\n        /* \"#utility.yul\":18454:18457   */\n      dup3\n        /* \"#utility.yul\":18365:18458   */\n      tag_380\n      jump\t// in\n    tag_602:\n        /* \"#utility.yul\":18483:18485   */\n      0x40\n        /* \"#utility.yul\":18478:18481   */\n      dup3\n        /* \"#utility.yul\":18474:18486   */\n      add\n        /* \"#utility.yul\":18467:18486   */\n      swap1\n      pop\n        /* \"#utility.yul\":18126:18492   */\n      swap2\n      swap1\n      pop\n      jump\t// out\n        /* \"#utility.yul\":18498:18917   */\n    tag_143:\n        /* \"#utility.yul\":18664:18668   */\n      0x00\n        /* \"#utility.yul\":18702:18704   */\n      0x20\n        /* \"#utility.yul\":18691:18700   */\n      dup3\n        /* \"#utility.yul\":18687:18705   */\n      add\n        /* \"#utility.yul\":18679:18705   */\n      swap1\n      pop\n        /* \"#utility.yul\":18751:18760   */\n      dup2\n        /* \"#utility.yul\":18745:18749   */\n      dup2\n        /* \"#utility.yul\":18741:18761   */\n      sub\n        /* \"#utility.yul\":18737:18738   */\n      0x00\n        /* \"#utility.yul\":18726:18735   */\n      dup4\n        /* \"#utility.yul\":18722:18739   */\n      add\n        /* \"#utility.yul\":18715:18762   */\n      mstore\n        /* \"#utility.yul\":18779:18910   */\n      tag_604\n        /* \"#utility.yul\":18905:18909   */\n      dup2\n        /* \"#utility.yul\":18779:18910   */\n      tag_381\n      jump\t// in\n    tag_604:\n        /* \"#utility.yul\":18771:18910   */\n      swap1\n      pop\n        /* \"#utility.yul\":18498:18917   */\n      swap2\n      swap1\n      pop\n      jump\t// out\n        /* \"#utility.yul\":18923:19103   */\n    tag_382:\n        /* \"#utility.yul\":18971:19048   */\n      0x4e487b7100000000000000000000000000000000000000000000000000000000\n        /* \"#utility.yul\":18968:18969   */\n      0x00\n        /* \"#utility.yul\":18961:19049   */\n      mstore\n        /* \"#utility.yul\":19068:19072   */\n      0x11\n        /* \"#utility.yul\":19065:19066   */\n      0x04\n        /* \"#utility.yul\":19058:19073   */\n      mstore\n        /* \"#utility.yul\":19092:19096   */\n      0x24\n        /* \"#utility.yul\":19089:19090   */\n      0x00\n        /* \"#utility.yul\":19082:19097   */\n      revert\n        /* \"#utility.yul\":19109:19342   */\n    tag_174:\n        /* \"#utility.yul\":19148:19151   */\n      0x00\n        /* \"#utility.yul\":19171:19195   */\n      tag_607\n        /* \"#utility.yul\":19189:19194   */\n      dup3\n        /* \"#utility.yul\":19171:19195   */\n      tag_347\n      jump\t// in\n    tag_607:\n        /* \"#utility.yul\":19162:19195   */\n      swap2\n      pop\n        /* \"#utility.yul\":19217:19283   */\n      0xffffffffffffffffffffffffffffffffffffffffffffffffffffffffffffffff\n        /* \"#utility.yul\":19210:19215   */\n      dup3\n        /* \"#utility.yul\":19207:19284   */\n      sub\n        /* \"#utility.yul\":19204:19307   */\n      tag_608\n      jumpi\n        /* \"#utility.yul\":19287:19305   */\n      tag_609\n      tag_382\n      jump\t// in\n    tag_609:\n        /* \"#utility.yul\":19204:19307   */\n    tag_608:\n        /* \"#utility.yul\":19334:19335   */\n      0x01\n        /* \"#utility.yul\":19327:19332   */\n      dup3\n        /* \"#utility.yul\":19323:19336   */\n      add\n        /* \"#utility.yul\":19316:19336   */\n      swap1\n      pop\n        /* \"#utility.yul\":19109:19342   */\n      swap2\n      swap1\n      pop\n      jump\t// out\n        /* \"#utility.yul\":19348:19572   */\n    tag_383:\n        /* \"#utility.yul\":19488:19522   */\n      0x4552433732313a207472616e736665722066726f6d20696e636f727265637420\n        /* \"#utility.yul\":19484:19485   */\n      0x00\n        /* \"#utility.yul\":19476:19482   */\n      dup3\n        /* \"#utility.yul\":19472:19486   */\n      add\n        /* \"#utility.yul\":19465:19523   */\n      mstore\n        /* \"#utility.yul\":19557:19564   */\n      0x6f776e6572000000000000000000000000000000000000000000000000000000\n        /* \"#utility.yul\":19552:19554   */\n      0x20\n        /* \"#utility.yul\":19544:19550   */\n      dup3\n        /* \"#utility.yul\":19540:19555   */\n      add\n        /* \"#utility.yul\":19533:19565   */\n      mstore\n        /* \"#utility.yul\":19348:19572   */\n      pop\n      jump\t// out\n        /* \"#utility.yul\":19578:19944   */\n    tag_384:\n        /* \"#utility.yul\":19720:19723   */\n      0x00\n        /* \"#utility.yul\":19741:19808   */\n      tag_612\n        /* \"#utility.yul\":19805:19807   */\n      0x25\n        /* \"#utility.yul\":19800:19803   */\n      dup4\n        /* \"#utility.yul\":19741:19808   */\n      tag_343\n      jump\t// in\n    tag_612:\n        /* \"#utility.yul\":19734:19808   */\n      swap2\n      pop\n        /* \"#utility.yul\":19817:19910   */\n      tag_613\n        /* \"#utility.yul\":19906:19909   */\n      dup3\n        /* \"#utility.yul\":19817:19910   */\n      tag_383\n      jump\t// in\n    tag_613:\n        /* \"#utility.yul\":19935:19937   */\n      0x40\n        /* \"#utility.yul\":19930:19933   */\n      dup3\n        /* \"#utility.yul\":19926:19938   */\n      add\n        /* \"#utility.yul\":19919:19938   */\n      swap1\n      pop\n        /* \"#utility.yul\":19578:19944   */\n      swap2\n      swap1\n      pop\n      jump\t// out\n        /* \"#utility.yul\":19950:20369   */\n    tag_191:\n        /* \"#utility.yul\":20116:20120   */\n      0x00\n        /* \"#utility.yul\":20154:20156   */\n      0x20\n        /* \"#utility.yul\":20143:20152   */\n      dup3\n        /* \"#utility.yul\":20139:20157   */\n      add\n        /* \"#utility.yul\":20131:20157   */\n      swap1\n      pop\n        /* \"#utility.yul\":20203:20212   */\n      dup2\n        /* \"#utility.yul\":20197:20201   */\n      dup2\n        /* \"#utility.yul\":20193:20213   */\n      sub\n        /* \"#utility.yul\":20189:20190   */\n      0x00\n        /* \"#utility.yul\":20178:20187   */\n      dup4\n        /* \"#utility.yul\":20174:20191   */\n      add\n        /* \"#utility.yul\":20167:20214   */\n      mstore\n        /* \"#utility.yul\":20231:20362   */\n      tag_615\n        /* \"#utility.yul\":20357:20361   */\n      dup2\n        /* \"#utility.yul\":20231:20362   */\n      tag_384\n      jump\t// in\n    tag_615:\n        /* \"#utility.yul\":20223:20362   */\n      swap1\n      pop\n        /* \"#utility.yul\":19950:20369   */\n      swap2\n      swap1\n      pop\n      jump\t// out\n        /* \"#utility.yul\":20375:20598   */\n    tag_385:\n        /* \"#utility.yul\":20515:20549   */\n      0x4552433732313a207472616e7366657220746f20746865207a65726f20616464\n        /* \"#utility.yul\":20511:20512   */\n      0x00\n        /* \"#utility.yul\":20503:20509   */\n      dup3\n        /* \"#utility.yul\":20499:20513   */\n      add\n        /* \"#utility.yul\":20492:20550   */\n      mstore\n        /* \"#utility.yul\":20584:20590   */\n      0x7265737300000000000000000000000000000000000000000000000000000000\n        /* \"#utility.yul\":20579:20581   */\n      0x20\n        /* \"#utility.yul\":20571:20577   */\n      dup3\n        /* \"#utility.yul\":20567:20582   */\n      add\n        /* \"#utility.yul\":20560:20591   */\n      mstore\n        /* \"#utility.yul\":20375:20598   */\n      pop\n      jump\t// out\n        /* \"#utility.yul\":20604:20970   */\n    tag_386:\n        /* \"#utility.yul\":20746:20749   */\n      0x00\n        /* \"#utility.yul\":20767:20834   */\n      tag_618\n        /* \"#utility.yul\":20831:20833   */\n      0x24\n        /* \"#utility.yul\":20826:20829   */\n      dup4\n        /* \"#utility.yul\":20767:20834   */\n      tag_343\n      jump\t// in\n    tag_618:\n        /* \"#utility.yul\":20760:20834   */\n      swap2\n      pop\n        /* \"#utility.yul\":20843:20936   */\n      tag_619\n        /* \"#utility.yul\":20932:20935   */\n      dup3\n        /* \"#utility.yul\":20843:20936   */\n      tag_385\n      jump\t// in\n    tag_619:\n        /* \"#utility.yul\":20961:20963   */\n      0x40\n        /* \"#utility.yul\":20956:20959   */\n      dup3\n        /* \"#utility.yul\":20952:20964   */\n      add\n        /* \"#utility.yul\":20945:20964   */\n      swap1\n      pop\n        /* \"#utility.yul\":20604:20970   */\n      swap2\n      swap1\n      pop\n      jump\t// out\n        /* \"#utility.yul\":20976:21395   */\n    tag_194:\n        /* \"#utility.yul\":21142:21146   */\n      0x00\n        /* \"#utility.yul\":21180:21182   */\n      0x20\n        /* \"#utility.yul\":21169:21178   */\n      dup3\n        /* \"#utility.yul\":21165:21183   */\n      add\n        /* \"#utility.yul\":21157:21183   */\n      swap1\n      pop\n        /* \"#utility.yul\":21229:21238   */\n      dup2\n        /* \"#utility.yul\":21223:21227   */\n      dup2\n        /* \"#utility.yul\":21219:21239   */\n      sub\n        /* \"#utility.yul\":21215:21216   */\n      0x00\n        /* \"#utility.yul\":21204:21213   */\n      dup4\n        /* \"#utility.yul\":21200:21217   */\n      add\n        /* \"#utility.yul\":21193:21240   */\n      mstore\n        /* \"#utility.yul\":21257:21388   */\n      tag_621\n        /* \"#utility.yul\":21383:21387   */\n      dup2\n        /* \"#utility.yul\":21257:21388   */\n      tag_386\n      jump\t// in\n    tag_621:\n        /* \"#utility.yul\":21249:21388   */\n      swap1\n      pop\n        /* \"#utility.yul\":20976:21395   */\n      swap2\n      swap1\n      pop\n      jump\t// out\n        /* \"#utility.yul\":21401:21592   */\n    tag_198:\n        /* \"#utility.yul\":21441:21445   */\n      0x00\n        /* \"#utility.yul\":21461:21481   */\n      tag_623\n        /* \"#utility.yul\":21479:21480   */\n      dup3\n        /* \"#utility.yul\":21461:21481   */\n      tag_347\n      jump\t// in\n    tag_623:\n        /* \"#utility.yul\":21456:21481   */\n      swap2\n      pop\n        /* \"#utility.yul\":21495:21515   */\n      tag_624\n        /* \"#utility.yul\":21513:21514   */\n      dup4\n        /* \"#utility.yul\":21495:21515   */\n      tag_347\n      jump\t// in\n    tag_624:\n        /* \"#utility.yul\":21490:21515   */\n      swap3\n      pop\n        /* \"#utility.yul\":21534:21535   */\n      dup3\n        /* \"#utility.yul\":21531:21532   */\n      dup3\n        /* \"#utility.yul\":21528:21536   */\n      lt\n        /* \"#utility.yul\":21525:21559   */\n      iszero\n      tag_625\n      jumpi\n        /* \"#utility.yul\":21539:21557   */\n      tag_626\n      tag_382\n      jump\t// in\n    tag_626:\n        /* \"#utility.yul\":21525:21559   */\n    tag_625:\n        /* \"#utility.yul\":21584:21585   */\n      dup3\n        /* \"#utility.yul\":21581:21582   */\n      dup3\n        /* \"#utility.yul\":21577:21586   */\n      sub\n        /* \"#utility.yul\":21569:21586   */\n      swap1\n      pop\n        /* \"#utility.yul\":21401:21592   */\n      swap3\n      swap2\n      pop\n      pop\n      jump\t// out\n        /* \"#utility.yul\":21598:21903   */\n    tag_200:\n        /* \"#utility.yul\":21638:21641   */\n      0x00\n        /* \"#utility.yul\":21657:21677   */\n      tag_628\n        /* \"#utility.yul\":21675:21676   */\n      dup3\n        /* \"#utility.yul\":21657:21677   */\n      tag_347\n      jump\t// in\n    tag_628:\n        /* \"#utility.yul\":21652:21677   */\n      swap2\n      pop\n        /* \"#utility.yul\":21691:21711   */\n      tag_629\n        /* \"#utility.yul\":21709:21710   */\n      dup4\n        /* \"#utility.yul\":21691:21711   */\n      tag_347\n      jump\t// in\n    tag_629:\n        /* \"#utility.yul\":21686:21711   */\n      swap3\n      pop\n        /* \"#utility.yul\":21845:21846   */\n      dup3\n        /* \"#utility.yul\":21777:21843   */\n      0xffffffffffffffffffffffffffffffffffffffffffffffffffffffffffffffff\n        /* \"#utility.yul\":21773:21847   */\n      sub\n        /* \"#utility.yul\":21770:21771   */\n      dup3\n        /* \"#utility.yul\":21767:21848   */\n      gt\n        /* \"#utility.yul\":21764:21871   */\n      iszero\n      tag_630\n      jumpi\n        /* \"#utility.yul\":21851:21869   */\n      tag_631\n      tag_382\n      jump\t// in\n    tag_631:\n        /* \"#utility.yul\":21764:21871   */\n    tag_630:\n        /* \"#utility.yul\":21895:21896   */\n      dup3\n        /* \"#utility.yul\":21892:21893   */\n      dup3\n        /* \"#utility.yul\":21888:21897   */\n      add\n        /* \"#utility.yul\":21881:21897   */\n      swap1\n      pop\n        /* \"#utility.yul\":21598:21903   */\n      swap3\n      swap2\n      pop\n      pop\n      jump\t// out\n        /* \"#utility.yul\":21909:22084   */\n    tag_387:\n        /* \"#utility.yul\":22049:22076   */\n      0x4552433732313a20617070726f766520746f2063616c6c657200000000000000\n        /* \"#utility.yul\":22045:22046   */\n      0x00\n        /* \"#utility.yul\":22037:22043   */\n      dup3\n        /* \"#utility.yul\":22033:22047   */\n      add\n        /* \"#utility.yul\":22026:22077   */\n      mstore\n        /* \"#utility.yul\":21909:22084   */\n      pop\n      jump\t// out\n        /* \"#utility.yul\":22090:22456   */\n    tag_388:\n        /* \"#utility.yul\":22232:22235   */\n      0x00\n        /* \"#utility.yul\":22253:22320   */\n      tag_634\n        /* \"#utility.yul\":22317:22319   */\n      0x19\n        /* \"#utility.yul\":22312:22315   */\n      dup4\n        /* \"#utility.yul\":22253:22320   */\n      tag_343\n      jump\t// in\n    tag_634:\n        /* \"#utility.yul\":22246:22320   */\n      swap2\n      pop\n        /* \"#utility.yul\":22329:22422   */\n      tag_635\n        /* \"#utility.yul\":22418:22421   */\n      dup3\n        /* \"#utility.yul\":22329:22422   */\n      tag_387\n      jump\t// in\n    tag_635:\n        /* \"#utility.yul\":22447:22449   */\n      0x20\n        /* \"#utility.yul\":22442:22445   */\n      dup3\n        /* \"#utility.yul\":22438:22450   */\n      add\n        /* \"#utility.yul\":22431:22450   */\n      swap1\n      pop\n        /* \"#utility.yul\":22090:22456   */\n      swap2\n      swap1\n      pop\n      jump\t// out\n        /* \"#utility.yul\":22462:22881   */\n    tag_214:\n        /* \"#utility.yul\":22628:22632   */\n      0x00\n        /* \"#utility.yul\":22666:22668   */\n      0x20\n        /* \"#utility.yul\":22655:22664   */\n      dup3\n        /* \"#utility.yul\":22651:22669   */\n      add\n        /* \"#utility.yul\":22643:22669   */\n      swap1\n      pop\n        /* \"#utility.yul\":22715:22724   */\n      dup2\n        /* \"#utility.yul\":22709:22713   */\n      dup2\n        /* \"#utility.yul\":22705:22725   */\n      sub\n        /* \"#utility.yul\":22701:22702   */\n      0x00\n        /* \"#utility.yul\":22690:22699   */\n      dup4\n        /* \"#utility.yul\":22686:22703   */\n      add\n        /* \"#utility.yul\":22679:22726   */\n      mstore\n        /* \"#utility.yul\":22743:22874   */\n      tag_637\n        /* \"#utility.yul\":22869:22873   */\n      dup2\n        /* \"#utility.yul\":22743:22874   */\n      tag_388\n      jump\t// in\n    tag_637:\n        /* \"#utility.yul\":22735:22874   */\n      swap1\n      pop\n        /* \"#utility.yul\":22462:22881   */\n      swap2\n      swap1\n      pop\n      jump\t// out\n        /* \"#utility.yul\":22887:23124   */\n    tag_389:\n        /* \"#utility.yul\":23027:23061   */\n      0x4552433732313a207472616e7366657220746f206e6f6e204552433732315265\n        /* \"#utility.yul\":23023:23024   */\n      0x00\n        /* \"#utility.yul\":23015:23021   */\n      dup3\n        /* \"#utility.yul\":23011:23025   */\n      add\n        /* \"#utility.yul\":23004:23062   */\n      mstore\n        /* \"#utility.yul\":23096:23116   */\n      0x63656976657220696d706c656d656e7465720000000000000000000000000000\n        /* \"#utility.yul\":23091:23093   */\n      0x20\n        /* \"#utility.yul\":23083:23089   */\n      dup3\n        /* \"#utility.yul\":23079:23094   */\n      add\n        /* \"#utility.yul\":23072:23117   */\n      mstore\n        /* \"#utility.yul\":22887:23124   */\n      pop\n      jump\t// out\n        /* \"#utility.yul\":23130:23496   */\n    tag_390:\n        /* \"#utility.yul\":23272:23275   */\n      0x00\n        /* \"#utility.yul\":23293:23360   */\n      tag_640\n        /* \"#utility.yul\":23357:23359   */\n      0x32\n        /* \"#utility.yul\":23352:23355   */\n      dup4\n        /* \"#utility.yul\":23293:23360   */\n      tag_343\n      jump\t// in\n    tag_640:\n        /* \"#utility.yul\":23286:23360   */\n      swap2\n      pop\n        /* \"#utility.yul\":23369:23462   */\n      tag_641\n        /* \"#utility.yul\":23458:23461   */\n      dup3\n        /* \"#utility.yul\":23369:23462   */\n      tag_389\n      jump\t// in\n    tag_641:\n        /* \"#utility.yul\":23487:23489   */\n      0x40\n        /* \"#utility.yul\":23482:23485   */\n      dup3\n        /* \"#utility.yul\":23478:23490   */\n      add\n        /* \"#utility.yul\":23471:23490   */\n      swap1\n      pop\n        /* \"#utility.yul\":23130:23496   */\n      swap2\n      swap1\n      pop\n      jump\t// out\n        /* \"#utility.yul\":23502:23921   */\n    tag_222:\n        /* \"#utility.yul\":23668:23672   */\n      0x00\n        /* \"#utility.yul\":23706:23708   */\n      0x20\n        /* \"#utility.yul\":23695:23704   */\n      dup3\n        /* \"#utility.yul\":23691:23709   */\n      add\n        /* \"#utility.yul\":23683:23709   */\n      swap1\n      pop\n        /* \"#utility.yul\":23755:23764   */\n      dup2\n        /* \"#utility.yul\":23749:23753   */\n      dup2\n        /* \"#utility.yul\":23745:23765   */\n      sub\n        /* \"#utility.yul\":23741:23742   */\n      0x00\n        /* \"#utility.yul\":23730:23739   */\n      dup4\n        /* \"#utility.yul\":23726:23743   */\n      add\n        /* \"#utility.yul\":23719:23766   */\n      mstore\n        /* \"#utility.yul\":23783:23914   */\n      tag_643\n        /* \"#utility.yul\":23909:23913   */\n      dup2\n        /* \"#utility.yul\":23783:23914   */\n      tag_390\n      jump\t// in\n    tag_643:\n        /* \"#utility.yul\":23775:23914   */\n      swap1\n      pop\n        /* \"#utility.yul\":23502:23921   */\n      swap2\n      swap1\n      pop\n      jump\t// out\n        /* \"#utility.yul\":23927:24075   */\n    tag_391:\n        /* \"#utility.yul\":24029:24040   */\n      0x00\n        /* \"#utility.yul\":24066:24069   */\n      dup2\n        /* \"#utility.yul\":24051:24069   */\n      swap1\n      pop\n        /* \"#utility.yul\":23927:24075   */\n      swap3\n      swap2\n      pop\n      pop\n      jump\t// out\n        /* \"#utility.yul\":24081:24458   */\n    tag_392:\n        /* \"#utility.yul\":24187:24190   */\n      0x00\n        /* \"#utility.yul\":24215:24254   */\n      tag_646\n        /* \"#utility.yul\":24248:24253   */\n      dup3\n        /* \"#utility.yul\":24215:24254   */\n      tag_342\n      jump\t// in\n    tag_646:\n        /* \"#utility.yul\":24270:24359   */\n      tag_647\n        /* \"#utility.yul\":24352:24358   */\n      dup2\n        /* \"#utility.yul\":24347:24350   */\n      dup6\n        /* \"#utility.yul\":24270:24359   */\n      tag_391\n      jump\t// in\n    tag_647:\n        /* \"#utility.yul\":24263:24359   */\n      swap4\n      pop\n        /* \"#utility.yul\":24368:24420   */\n      tag_648\n        /* \"#utility.yul\":24413:24419   */\n      dup2\n        /* \"#utility.yul\":24408:24411   */\n      dup6\n        /* \"#utility.yul\":24401:24405   */\n      0x20\n        /* \"#utility.yul\":24394:24399   */\n      dup7\n        /* \"#utility.yul\":24390:24406   */\n      add\n        /* \"#utility.yul\":24368:24420   */\n      tag_344\n      jump\t// in\n    tag_648:\n        /* \"#utility.yul\":24445:24451   */\n      dup1\n        /* \"#utility.yul\":24440:24443   */\n      dup5\n        /* \"#utility.yul\":24436:24452   */\n      add\n        /* \"#utility.yul\":24429:24452   */\n      swap2\n      pop\n        /* \"#utility.yul\":24191:24458   */\n      pop\n        /* \"#utility.yul\":24081:24458   */\n      swap3\n      swap2\n      pop\n      pop\n      jump\t// out\n        /* \"#utility.yul\":24464:24899   */\n    tag_235:\n        /* \"#utility.yul\":24644:24647   */\n      0x00\n        /* \"#utility.yul\":24666:24761   */\n      tag_650\n        /* \"#utility.yul\":24757:24760   */\n      dup3\n        /* \"#utility.yul\":24748:24754   */\n      dup6\n        /* \"#utility.yul\":24666:24761   */\n      tag_392\n      jump\t// in\n    tag_650:\n        /* \"#utility.yul\":24659:24761   */\n      swap2\n      pop\n        /* \"#utility.yul\":24778:24873   */\n      tag_651\n        /* \"#utility.yul\":24869:24872   */\n      dup3\n        /* \"#utility.yul\":24860:24866   */\n      dup5\n        /* \"#utility.yul\":24778:24873   */\n      tag_392\n      jump\t// in\n    tag_651:\n        /* \"#utility.yul\":24771:24873   */\n      swap2\n      pop\n        /* \"#utility.yul\":24890:24893   */\n      dup2\n        /* \"#utility.yul\":24883:24893   */\n      swap1\n      pop\n        /* \"#utility.yul\":24464:24899   */\n      swap4\n      swap3\n      pop\n      pop\n      pop\n      jump\t// out\n        /* \"#utility.yul\":24905:25138   */\n    tag_393:\n        /* \"#utility.yul\":25045:25079   */\n      0x45524337323155524953746f726167653a2055524920736574206f66206e6f6e\n        /* \"#utility.yul\":25041:25042   */\n      0x00\n        /* \"#utility.yul\":25033:25039   */\n      dup3\n        /* \"#utility.yul\":25029:25043   */\n      add\n        /* \"#utility.yul\":25022:25080   */\n      mstore\n        /* \"#utility.yul\":25114:25130   */\n      0x6578697374656e7420746f6b656e000000000000000000000000000000000000\n        /* \"#utility.yul\":25109:25111   */\n      0x20\n        /* \"#utility.yul\":25101:25107   */\n      dup3\n        /* \"#utility.yul\":25097:25112   */\n      add\n        /* \"#utility.yul\":25090:25131   */\n      mstore\n        /* \"#utility.yul\":24905:25138   */\n      pop\n      jump\t// out\n        /* \"#utility.yul\":25144:25510   */\n    tag_394:\n        /* \"#utility.yul\":25286:25289   */\n      0x00\n        /* \"#utility.yul\":25307:25374   */\n      tag_654\n        /* \"#utility.yul\":25371:25373   */\n      0x2e\n        /* \"#utility.yul\":25366:25369   */\n      dup4\n        /* \"#utility.yul\":25307:25374   */\n      tag_343\n      jump\t// in\n    tag_654:\n        /* \"#utility.yul\":25300:25374   */\n      swap2\n      pop\n        /* \"#utility.yul\":25383:25476   */\n      tag_655\n        /* \"#utility.yul\":25472:25475   */\n      dup3\n        /* \"#utility.yul\":25383:25476   */\n      tag_393\n      jump\t// in\n    tag_655:\n        /* \"#utility.yul\":25501:25503   */\n      0x40\n        /* \"#utility.yul\":25496:25499   */\n      dup3\n        /* \"#utility.yul\":25492:25504   */\n      add\n        /* \"#utility.yul\":25485:25504   */\n      swap1\n      pop\n        /* \"#utility.yul\":25144:25510   */\n      swap2\n      swap1\n      pop\n      jump\t// out\n        /* \"#utility.yul\":25516:25935   */\n    tag_245:\n        /* \"#utility.yul\":25682:25686   */\n      0x00\n        /* \"#utility.yul\":25720:25722   */\n      0x20\n        /* \"#utility.yul\":25709:25718   */\n      dup3\n        /* \"#utility.yul\":25705:25723   */\n      add\n        /* \"#utility.yul\":25697:25723   */\n      swap1\n      pop\n        /* \"#utility.yul\":25769:25778   */\n      dup2\n        /* \"#utility.yul\":25763:25767   */\n      dup2\n        /* \"#utility.yul\":25759:25779   */\n      sub\n        /* \"#utility.yul\":25755:25756   */\n      0x00\n        /* \"#utility.yul\":25744:25753   */\n      dup4\n        /* \"#utility.yul\":25740:25757   */\n      add\n        /* \"#utility.yul\":25733:25780   */\n      mstore\n        /* \"#utility.yul\":25797:25928   */\n      tag_657\n        /* \"#utility.yul\":25923:25927   */\n      dup2\n        /* \"#utility.yul\":25797:25928   */\n      tag_394\n      jump\t// in\n    tag_657:\n        /* \"#utility.yul\":25789:25928   */\n      swap1\n      pop\n        /* \"#utility.yul\":25516:25935   */\n      swap2\n      swap1\n      pop\n      jump\t// out\n        /* \"#utility.yul\":25941:26082   */\n    tag_395:\n        /* \"#utility.yul\":25990:25994   */\n      0x00\n        /* \"#utility.yul\":26013:26016   */\n      dup2\n        /* \"#utility.yul\":26005:26016   */\n      swap1\n      pop\n        /* \"#utility.yul\":26036:26039   */\n      dup2\n        /* \"#utility.yul\":26033:26034   */\n      0x00\n        /* \"#utility.yul\":26026:26040   */\n      mstore\n        /* \"#utility.yul\":26070:26074   */\n      0x20\n        /* \"#utility.yul\":26067:26068   */\n      0x00\n        /* \"#utility.yul\":26057:26075   */\n      keccak256\n        /* \"#utility.yul\":26049:26075   */\n      swap1\n      pop\n        /* \"#utility.yul\":25941:26082   */\n      swap2\n      swap1\n      pop\n      jump\t// out\n        /* \"#utility.yul\":26088:26181   */\n    tag_396:\n        /* \"#utility.yul\":26125:26131   */\n      0x00\n        /* \"#utility.yul\":26172:26174   */\n      0x20\n        /* \"#utility.yul\":26167:26169   */\n      0x1f\n        /* \"#utility.yul\":26160:26165   */\n      dup4\n        /* \"#utility.yul\":26156:26170   */\n      add\n        /* \"#utility.yul\":26152:26175   */\n      div\n        /* \"#utility.yul\":26142:26175   */\n      swap1\n      pop\n        /* \"#utility.yul\":26088:26181   */\n      swap2\n      swap1\n      pop\n      jump\t// out\n        /* \"#utility.yul\":26187:26294   */\n    tag_397:\n        /* \"#utility.yul\":26231:26239   */\n      0x00\n        /* \"#utility.yul\":26281:26286   */\n      dup3\n        /* \"#utility.yul\":26275:26279   */\n      dup3\n        /* \"#utility.yul\":26271:26287   */\n      shl\n        /* \"#utility.yul\":26250:26287   */\n      swap1\n      pop\n        /* \"#utility.yul\":26187:26294   */\n      swap3\n      swap2\n      pop\n      pop\n      jump\t// out\n        /* \"#utility.yul\":26300:26693   */\n    tag_398:\n        /* \"#utility.yul\":26369:26375   */\n      0x00\n        /* \"#utility.yul\":26419:26420   */\n      0x08\n        /* \"#utility.yul\":26407:26417   */\n      dup4\n        /* \"#utility.yul\":26403:26421   */\n      mul\n        /* \"#utility.yul\":26442:26539   */\n      tag_662\n        /* \"#utility.yul\":26472:26538   */\n      0xffffffffffffffffffffffffffffffffffffffffffffffffffffffffffffffff\n        /* \"#utility.yul\":26461:26470   */\n      dup3\n        /* \"#utility.yul\":26442:26539   */\n      tag_397\n      jump\t// in\n    tag_662:\n        /* \"#utility.yul\":26560:26599   */\n      tag_663\n        /* \"#utility.yul\":26590:26598   */\n      dup7\n        /* \"#utility.yul\":26579:26588   */\n      dup4\n        /* \"#utility.yul\":26560:26599   */\n      tag_397\n      jump\t// in\n    tag_663:\n        /* \"#utility.yul\":26548:26599   */\n      swap6\n      pop\n        /* \"#utility.yul\":26632:26636   */\n      dup1\n        /* \"#utility.yul\":26628:26637   */\n      not\n        /* \"#utility.yul\":26621:26626   */\n      dup5\n        /* \"#utility.yul\":26617:26638   */\n      and\n        /* \"#utility.yul\":26608:26638   */\n      swap4\n      pop\n        /* \"#utility.yul\":26681:26685   */\n      dup1\n        /* \"#utility.yul\":26671:26679   */\n      dup7\n        /* \"#utility.yul\":26667:26686   */\n      and\n        /* \"#utility.yul\":26660:26665   */\n      dup5\n        /* \"#utility.yul\":26657:26687   */\n      or\n        /* \"#utility.yul\":26647:26687   */\n      swap3\n      pop\n        /* \"#utility.yul\":26376:26693   */\n      pop\n      pop\n        /* \"#utility.yul\":26300:26693   */\n      swap4\n      swap3\n      pop\n      pop\n      pop\n      jump\t// out\n        /* \"#utility.yul\":26699:26759   */\n    tag_399:\n        /* \"#utility.yul\":26727:26730   */\n      0x00\n        /* \"#utility.yul\":26748:26753   */\n      dup2\n        /* \"#utility.yul\":26741:26753   */\n      swap1\n      pop\n        /* \"#utility.yul\":26699:26759   */\n      swap2\n      swap1\n      pop\n      jump\t// out\n        /* \"#utility.yul\":26765:26907   */\n    tag_400:\n        /* \"#utility.yul\":26815:26824   */\n      0x00\n        /* \"#utility.yul\":26848:26901   */\n      tag_666\n        /* \"#utility.yul\":26866:26900   */\n      tag_667\n        /* \"#utility.yul\":26875:26899   */\n      tag_668\n        /* \"#utility.yul\":26893:26898   */\n      dup5\n        /* \"#utility.yul\":26875:26899   */\n      tag_347\n      jump\t// in\n    tag_668:\n        /* \"#utility.yul\":26866:26900   */\n      tag_399\n      jump\t// in\n    tag_667:\n        /* \"#utility.yul\":26848:26901   */\n      tag_347\n      jump\t// in\n    tag_666:\n        /* \"#utility.yul\":26835:26901   */\n      swap1\n      pop\n        /* \"#utility.yul\":26765:26907   */\n      swap2\n      swap1\n      pop\n      jump\t// out\n        /* \"#utility.yul\":26913:26988   */\n    tag_401:\n        /* \"#utility.yul\":26956:26959   */\n      0x00\n        /* \"#utility.yul\":26977:26982   */\n      dup2\n        /* \"#utility.yul\":26970:26982   */\n      swap1\n      pop\n        /* \"#utility.yul\":26913:26988   */\n      swap2\n      swap1\n      pop\n      jump\t// out\n        /* \"#utility.yul\":26994:27263   */\n    tag_402:\n        /* \"#utility.yul\":27104:27143   */\n      tag_671\n        /* \"#utility.yul\":27135:27142   */\n      dup4\n        /* \"#utility.yul\":27104:27143   */\n      tag_400\n      jump\t// in\n    tag_671:\n        /* \"#utility.yul\":27165:27256   */\n      tag_672\n        /* \"#utility.yul\":27214:27255   */\n      tag_673\n        /* \"#utility.yul\":27238:27254   */\n      dup3\n        /* \"#utility.yul\":27214:27255   */\n      tag_401\n      jump\t// in\n    tag_673:\n        /* \"#utility.yul\":27206:27212   */\n      dup5\n        /* \"#utility.yul\":27199:27203   */\n      dup5\n        /* \"#utility.yul\":27193:27204   */\n      sload\n        /* \"#utility.yul\":27165:27256   */\n      tag_398\n      jump\t// in\n    tag_672:\n        /* \"#utility.yul\":27159:27163   */\n      dup3\n        /* \"#utility.yul\":27152:27257   */\n      sstore\n        /* \"#utility.yul\":27070:27263   */\n      pop\n        /* \"#utility.yul\":26994:27263   */\n      pop\n      pop\n      pop\n      jump\t// out\n        /* \"#utility.yul\":27269:27342   */\n    tag_403:\n        /* \"#utility.yul\":27314:27317   */\n      0x00\n        /* \"#utility.yul\":27269:27342   */\n      swap1\n      jump\t// out\n        /* \"#utility.yul\":27348:27537   */\n    tag_404:\n        /* \"#utility.yul\":27425:27457   */\n      tag_676\n      tag_403\n      jump\t// in\n    tag_676:\n        /* \"#utility.yul\":27466:27531   */\n      tag_677\n        /* \"#utility.yul\":27524:27530   */\n      dup2\n        /* \"#utility.yul\":27516:27522   */\n      dup5\n        /* \"#utility.yul\":27510:27514   */\n      dup5\n        /* \"#utility.yul\":27466:27531   */\n      tag_402\n      jump\t// in\n    tag_677:\n        /* \"#utility.yul\":27401:27537   */\n      pop\n        /* \"#utility.yul\":27348:27537   */\n      pop\n      pop\n      jump\t// out\n        /* \"#utility.yul\":27543:27729   */\n    tag_405:\n        /* \"#utility.yul\":27603:27723   */\n    tag_679:\n        /* \"#utility.yul\":27620:27623   */\n      dup2\n        /* \"#utility.yul\":27613:27618   */\n      dup2\n        /* \"#utility.yul\":27610:27624   */\n      lt\n        /* \"#utility.yul\":27603:27723   */\n      iszero\n      tag_681\n      jumpi\n        /* \"#utility.yul\":27674:27713   */\n      tag_682\n        /* \"#utility.yul\":27711:27712   */\n      0x00\n        /* \"#utility.yul\":27704:27709   */\n      dup3\n        /* \"#utility.yul\":27674:27713   */\n      tag_404\n      jump\t// in\n    tag_682:\n        /* \"#utility.yul\":27647:27648   */\n      0x01\n        /* \"#utility.yul\":27640:27645   */\n      dup2\n        /* \"#utility.yul\":27636:27649   */\n      add\n        /* \"#utility.yul\":27627:27649   */\n      swap1\n      pop\n        /* \"#utility.yul\":27603:27723   */\n      jump(tag_679)\n    tag_681:\n        /* \"#utility.yul\":27543:27729   */\n      pop\n      pop\n      jump\t// out\n        /* \"#utility.yul\":27735:28278   */\n    tag_406:\n        /* \"#utility.yul\":27836:27838   */\n      0x1f\n        /* \"#utility.yul\":27831:27834   */\n      dup3\n        /* \"#utility.yul\":27828:27839   */\n      gt\n        /* \"#utility.yul\":27825:28271   */\n      iszero\n      tag_684\n      jumpi\n        /* \"#utility.yul\":27870:27908   */\n      tag_685\n        /* \"#utility.yul\":27902:27907   */\n      dup2\n        /* \"#utility.yul\":27870:27908   */\n      tag_395\n      jump\t// in\n    tag_685:\n        /* \"#utility.yul\":27954:27983   */\n      tag_686\n        /* \"#utility.yul\":27972:27982   */\n      dup5\n        /* \"#utility.yul\":27954:27983   */\n      tag_396\n      jump\t// in\n    tag_686:\n        /* \"#utility.yul\":27944:27952   */\n      dup2\n        /* \"#utility.yul\":27940:27984   */\n      add\n        /* \"#utility.yul\":28137:28139   */\n      0x20\n        /* \"#utility.yul\":28125:28135   */\n      dup6\n        /* \"#utility.yul\":28122:28140   */\n      lt\n        /* \"#utility.yul\":28119:28168   */\n      iszero\n      tag_687\n      jumpi\n        /* \"#utility.yul\":28158:28166   */\n      dup2\n        /* \"#utility.yul\":28143:28166   */\n      swap1\n      pop\n        /* \"#utility.yul\":28119:28168   */\n    tag_687:\n        /* \"#utility.yul\":28181:28261   */\n      tag_688\n        /* \"#utility.yul\":28237:28259   */\n      tag_689\n        /* \"#utility.yul\":28255:28258   */\n      dup6\n        /* \"#utility.yul\":28237:28259   */\n      tag_396\n      jump\t// in\n    tag_689:\n        /* \"#utility.yul\":28227:28235   */\n      dup4\n        /* \"#utility.yul\":28223:28260   */\n      add\n        /* \"#utility.yul\":28210:28221   */\n      dup3\n        /* \"#utility.yul\":28181:28261   */\n      tag_405\n      jump\t// in\n    tag_688:\n        /* \"#utility.yul\":27840:28271   */\n      pop\n      pop\n        /* \"#utility.yul\":27825:28271   */\n    tag_684:\n        /* \"#utility.yul\":27735:28278   */\n      pop\n      pop\n      pop\n      jump\t// out\n        /* \"#utility.yul\":28284:28401   */\n    tag_407:\n        /* \"#utility.yul\":28338:28346   */\n      0x00\n        /* \"#utility.yul\":28388:28393   */\n      dup3\n        /* \"#utility.yul\":28382:28386   */\n      dup3\n        /* \"#utility.yul\":28378:28394   */\n      shr\n        /* \"#utility.yul\":28357:28394   */\n      swap1\n      pop\n        /* \"#utility.yul\":28284:28401   */\n      swap3\n      swap2\n      pop\n      pop\n      jump\t// out\n        /* \"#utility.yul\":28407:28576   */\n    tag_408:\n        /* \"#utility.yul\":28451:28457   */\n      0x00\n        /* \"#utility.yul\":28484:28535   */\n      tag_692\n        /* \"#utility.yul\":28532:28533   */\n      0x00\n        /* \"#utility.yul\":28528:28534   */\n      not\n        /* \"#utility.yul\":28520:28525   */\n      dup5\n        /* \"#utility.yul\":28517:28518   */\n      0x08\n        /* \"#utility.yul\":28513:28526   */\n      mul\n        /* \"#utility.yul\":28484:28535   */\n      tag_407\n      jump\t// in\n    tag_692:\n        /* \"#utility.yul\":28480:28536   */\n      not\n        /* \"#utility.yul\":28565:28569   */\n      dup1\n        /* \"#utility.yul\":28559:28563   */\n      dup4\n        /* \"#utility.yul\":28555:28570   */\n      and\n        /* \"#utility.yul\":28545:28570   */\n      swap2\n      pop\n        /* \"#utility.yul\":28458:28576   */\n      pop\n        /* \"#utility.yul\":28407:28576   */\n      swap3\n      swap2\n      pop\n      pop\n      jump\t// out\n        /* \"#utility.yul\":28581:28876   */\n    tag_409:\n        /* \"#utility.yul\":28657:28661   */\n      0x00\n        /* \"#utility.yul\":28803:28832   */\n      tag_694\n        /* \"#utility.yul\":28828:28831   */\n      dup4\n        /* \"#utility.yul\":28822:28826   */\n      dup4\n        /* \"#utility.yul\":28803:28832   */\n      tag_408\n      jump\t// in\n    tag_694:\n        /* \"#utility.yul\":28795:28832   */\n      swap2\n      pop\n        /* \"#utility.yul\":28865:28868   */\n      dup3\n        /* \"#utility.yul\":28862:28863   */\n      0x02\n        /* \"#utility.yul\":28858:28869   */\n      mul\n        /* \"#utility.yul\":28852:28856   */\n      dup3\n        /* \"#utility.yul\":28849:28870   */\n      or\n        /* \"#utility.yul\":28841:28870   */\n      swap1\n      pop\n        /* \"#utility.yul\":28581:28876   */\n      swap3\n      swap2\n      pop\n      pop\n      jump\t// out\n        /* \"#utility.yul\":28881:30276   */\n    tag_247:\n        /* \"#utility.yul\":28998:29035   */\n      tag_696\n        /* \"#utility.yul\":29031:29034   */\n      dup3\n        /* \"#utility.yul\":28998:29035   */\n      tag_342\n      jump\t// in\n    tag_696:\n        /* \"#utility.yul\":29100:29118   */\n      0xffffffffffffffff\n        /* \"#utility.yul\":29092:29098   */\n      dup2\n        /* \"#utility.yul\":29089:29119   */\n      gt\n        /* \"#utility.yul\":29086:29142   */\n      iszero\n      tag_697\n      jumpi\n        /* \"#utility.yul\":29122:29140   */\n      tag_698\n      tag_304\n      jump\t// in\n    tag_698:\n        /* \"#utility.yul\":29086:29142   */\n    tag_697:\n        /* \"#utility.yul\":29166:29204   */\n      tag_699\n        /* \"#utility.yul\":29198:29202   */\n      dup3\n        /* \"#utility.yul\":29192:29203   */\n      sload\n        /* \"#utility.yul\":29166:29204   */\n      tag_101\n      jump\t// in\n    tag_699:\n        /* \"#utility.yul\":29251:29318   */\n      tag_700\n        /* \"#utility.yul\":29311:29317   */\n      dup3\n        /* \"#utility.yul\":29303:29309   */\n      dup3\n        /* \"#utility.yul\":29297:29301   */\n      dup6\n        /* \"#utility.yul\":29251:29318   */\n      tag_406\n      jump\t// in\n    tag_700:\n        /* \"#utility.yul\":29345:29346   */\n      0x00\n        /* \"#utility.yul\":29369:29373   */\n      0x20\n        /* \"#utility.yul\":29356:29373   */\n      swap1\n      pop\n        /* \"#utility.yul\":29401:29403   */\n      0x1f\n        /* \"#utility.yul\":29393:29399   */\n      dup4\n        /* \"#utility.yul\":29390:29404   */\n      gt\n        /* \"#utility.yul\":29418:29419   */\n      0x01\n        /* \"#utility.yul\":29413:30031   */\n      dup2\n      eq\n      tag_702\n      jumpi\n        /* \"#utility.yul\":30075:30076   */\n      0x00\n        /* \"#utility.yul\":30092:30098   */\n      dup5\n        /* \"#utility.yul\":30089:30166   */\n      iszero\n      tag_703\n      jumpi\n        /* \"#utility.yul\":30141:30150   */\n      dup3\n        /* \"#utility.yul\":30136:30139   */\n      dup8\n        /* \"#utility.yul\":30132:30151   */\n      add\n        /* \"#utility.yul\":30126:30152   */\n      mload\n        /* \"#utility.yul\":30117:30152   */\n      swap1\n      pop\n        /* \"#utility.yul\":30089:30166   */\n    tag_703:\n        /* \"#utility.yul\":30192:30259   */\n      tag_704\n        /* \"#utility.yul\":30252:30258   */\n      dup6\n        /* \"#utility.yul\":30245:30250   */\n      dup3\n        /* \"#utility.yul\":30192:30259   */\n      tag_409\n      jump\t// in\n    tag_704:\n        /* \"#utility.yul\":30186:30190   */\n      dup7\n        /* \"#utility.yul\":30179:30260   */\n      sstore\n        /* \"#utility.yul\":30048:30270   */\n      pop\n        /* \"#utility.yul\":29383:30270   */\n      jump(tag_701)\n        /* \"#utility.yul\":29413:30031   */\n    tag_702:\n        /* \"#utility.yul\":29465:29469   */\n      0x1f\n        /* \"#utility.yul\":29461:29470   */\n      not\n        /* \"#utility.yul\":29453:29459   */\n      dup5\n        /* \"#utility.yul\":29449:29471   */\n      and\n        /* \"#utility.yul\":29499:29536   */\n      tag_705\n        /* \"#utility.yul\":29531:29535   */\n      dup7\n        /* \"#utility.yul\":29499:29536   */\n      tag_395\n      jump\t// in\n    tag_705:\n        /* \"#utility.yul\":29558:29559   */\n      0x00\n        /* \"#utility.yul\":29572:29780   */\n    tag_706:\n        /* \"#utility.yul\":29586:29593   */\n      dup3\n        /* \"#utility.yul\":29583:29584   */\n      dup2\n        /* \"#utility.yul\":29580:29594   */\n      lt\n        /* \"#utility.yul\":29572:29780   */\n      iszero\n      tag_708\n      jumpi\n        /* \"#utility.yul\":29665:29674   */\n      dup5\n        /* \"#utility.yul\":29660:29663   */\n      dup10\n        /* \"#utility.yul\":29656:29675   */\n      add\n        /* \"#utility.yul\":29650:29676   */\n      mload\n        /* \"#utility.yul\":29642:29648   */\n      dup3\n        /* \"#utility.yul\":29635:29677   */\n      sstore\n        /* \"#utility.yul\":29716:29717   */\n      0x01\n        /* \"#utility.yul\":29708:29714   */\n      dup3\n        /* \"#utility.yul\":29704:29718   */\n      add\n        /* \"#utility.yul\":29694:29718   */\n      swap2\n      pop\n        /* \"#utility.yul\":29763:29765   */\n      0x20\n        /* \"#utility.yul\":29752:29761   */\n      dup6\n        /* \"#utility.yul\":29748:29766   */\n      add\n        /* \"#utility.yul\":29735:29766   */\n      swap5\n      pop\n        /* \"#utility.yul\":29609:29613   */\n      0x20\n        /* \"#utility.yul\":29606:29607   */\n      dup2\n        /* \"#utility.yul\":29602:29614   */\n      add\n        /* \"#utility.yul\":29597:29614   */\n      swap1\n      pop\n        /* \"#utility.yul\":29572:29780   */\n      jump(tag_706)\n    tag_708:\n        /* \"#utility.yul\":29808:29814   */\n      dup7\n        /* \"#utility.yul\":29799:29806   */\n      dup4\n        /* \"#utility.yul\":29796:29815   */\n      lt\n        /* \"#utility.yul\":29793:29972   */\n      iszero\n      tag_709\n      jumpi\n        /* \"#utility.yul\":29866:29875   */\n      dup5\n        /* \"#utility.yul\":29861:29864   */\n      dup10\n        /* \"#utility.yul\":29857:29876   */\n      add\n        /* \"#utility.yul\":29851:29877   */\n      mload\n        /* \"#utility.yul\":29909:29957   */\n      tag_710\n        /* \"#utility.yul\":29951:29955   */\n      0x1f\n        /* \"#utility.yul\":29943:29949   */\n      dup10\n        /* \"#utility.yul\":29939:29956   */\n      and\n        /* \"#utility.yul\":29928:29937   */\n      dup3\n        /* \"#utility.yul\":29909:29957   */\n      tag_408\n      jump\t// in\n    tag_710:\n        /* \"#utility.yul\":29901:29907   */\n      dup4\n        /* \"#utility.yul\":29894:29958   */\n      sstore\n        /* \"#utility.yul\":29816:29972   */\n      pop\n        /* \"#utility.yul\":29793:29972   */\n    tag_709:\n        /* \"#utility.yul\":30018:30019   */\n      0x01\n        /* \"#utility.yul\":30014:30015   */\n      0x02\n        /* \"#utility.yul\":30006:30012   */\n      dup9\n        /* \"#utility.yul\":30002:30016   */\n      mul\n        /* \"#utility.yul\":29998:30020   */\n      add\n        /* \"#utility.yul\":29992:29996   */\n      dup9\n        /* \"#utility.yul\":29985:30021   */\n      sstore\n        /* \"#utility.yul\":29420:30031   */\n      pop\n      pop\n      pop\n        /* \"#utility.yul\":29383:30270   */\n    tag_701:\n      pop\n        /* \"#utility.yul\":28973:30276   */\n      pop\n      pop\n      pop\n        /* \"#utility.yul\":28881:30276   */\n      pop\n      pop\n      jump\t// out\n        /* \"#utility.yul\":30282:30380   */\n    tag_410:\n        /* \"#utility.yul\":30333:30339   */\n      0x00\n        /* \"#utility.yul\":30367:30372   */\n      dup2\n        /* \"#utility.yul\":30361:30373   */\n      mload\n        /* \"#utility.yul\":30351:30373   */\n      swap1\n      pop\n        /* \"#utility.yul\":30282:30380   */\n      swap2\n      swap1\n      pop\n      jump\t// out\n        /* \"#utility.yul\":30386:30554   */\n    tag_411:\n        /* \"#utility.yul\":30469:30480   */\n      0x00\n        /* \"#utility.yul\":30503:30509   */\n      dup3\n        /* \"#utility.yul\":30498:30501   */\n      dup3\n        /* \"#utility.yul\":30491:30510   */\n      mstore\n        /* \"#utility.yul\":30543:30547   */\n      0x20\n        /* \"#utility.yul\":30538:30541   */\n      dup3\n        /* \"#utility.yul\":30534:30548   */\n      add\n        /* \"#utility.yul\":30519:30548   */\n      swap1\n      pop\n        /* \"#utility.yul\":30386:30554   */\n      swap3\n      swap2\n      pop\n      pop\n      jump\t// out\n        /* \"#utility.yul\":30560:30920   */\n    tag_412:\n        /* \"#utility.yul\":30646:30649   */\n      0x00\n        /* \"#utility.yul\":30674:30712   */\n      tag_714\n        /* \"#utility.yul\":30706:30711   */\n      dup3\n        /* \"#utility.yul\":30674:30712   */\n      tag_410\n      jump\t// in\n    tag_714:\n        /* \"#utility.yul\":30728:30798   */\n      tag_715\n        /* \"#utility.yul\":30791:30797   */\n      dup2\n        /* \"#utility.yul\":30786:30789   */\n      dup6\n        /* \"#utility.yul\":30728:30798   */\n      tag_411\n      jump\t// in\n    tag_715:\n        /* \"#utility.yul\":30721:30798   */\n      swap4\n      pop\n        /* \"#utility.yul\":30807:30859   */\n      tag_716\n        /* \"#utility.yul\":30852:30858   */\n      dup2\n        /* \"#utility.yul\":30847:30850   */\n      dup6\n        /* \"#utility.yul\":30840:30844   */\n      0x20\n        /* \"#utility.yul\":30833:30838   */\n      dup7\n        /* \"#utility.yul\":30829:30845   */\n      add\n        /* \"#utility.yul\":30807:30859   */\n      tag_344\n      jump\t// in\n    tag_716:\n        /* \"#utility.yul\":30884:30913   */\n      tag_717\n        /* \"#utility.yul\":30906:30912   */\n      dup2\n        /* \"#utility.yul\":30884:30913   */\n      tag_345\n      jump\t// in\n    tag_717:\n        /* \"#utility.yul\":30879:30882   */\n      dup5\n        /* \"#utility.yul\":30875:30914   */\n      add\n        /* \"#utility.yul\":30868:30914   */\n      swap2\n      pop\n        /* \"#utility.yul\":30650:30920   */\n      pop\n        /* \"#utility.yul\":30560:30920   */\n      swap3\n      swap2\n      pop\n      pop\n      jump\t// out\n        /* \"#utility.yul\":30926:31566   */\n    tag_261:\n        /* \"#utility.yul\":31121:31125   */\n      0x00\n        /* \"#utility.yul\":31159:31162   */\n      0x80\n        /* \"#utility.yul\":31148:31157   */\n      dup3\n        /* \"#utility.yul\":31144:31163   */\n      add\n        /* \"#utility.yul\":31136:31163   */\n      swap1\n      pop\n        /* \"#utility.yul\":31173:31244   */\n      tag_719\n        /* \"#utility.yul\":31241:31242   */\n      0x00\n        /* \"#utility.yul\":31230:31239   */\n      dup4\n        /* \"#utility.yul\":31226:31243   */\n      add\n        /* \"#utility.yul\":31217:31223   */\n      dup8\n        /* \"#utility.yul\":31173:31244   */\n      tag_352\n      jump\t// in\n    tag_719:\n        /* \"#utility.yul\":31254:31326   */\n      tag_720\n        /* \"#utility.yul\":31322:31324   */\n      0x20\n        /* \"#utility.yul\":31311:31320   */\n      dup4\n        /* \"#utility.yul\":31307:31325   */\n      add\n        /* \"#utility.yul\":31298:31304   */\n      dup7\n        /* \"#utility.yul\":31254:31326   */\n      tag_352\n      jump\t// in\n    tag_720:\n        /* \"#utility.yul\":31336:31408   */\n      tag_721\n        /* \"#utility.yul\":31404:31406   */\n      0x40\n        /* \"#utility.yul\":31393:31402   */\n      dup4\n        /* \"#utility.yul\":31389:31407   */\n      add\n        /* \"#utility.yul\":31380:31386   */\n      dup6\n        /* \"#utility.yul\":31336:31408   */\n      tag_355\n      jump\t// in\n    tag_721:\n        /* \"#utility.yul\":31455:31464   */\n      dup2\n        /* \"#utility.yul\":31449:31453   */\n      dup2\n        /* \"#utility.yul\":31445:31465   */\n      sub\n        /* \"#utility.yul\":31440:31442   */\n      0x60\n        /* \"#utility.yul\":31429:31438   */\n      dup4\n        /* \"#utility.yul\":31425:31443   */\n      add\n        /* \"#utility.yul\":31418:31466   */\n      mstore\n        /* \"#utility.yul\":31483:31559   */\n      tag_722\n        /* \"#utility.yul\":31554:31558   */\n      dup2\n        /* \"#utility.yul\":31545:31551   */\n      dup5\n        /* \"#utility.yul\":31483:31559   */\n      tag_412\n      jump\t// in\n    tag_722:\n        /* \"#utility.yul\":31475:31559   */\n      swap1\n      pop\n        /* \"#utility.yul\":30926:31566   */\n      swap6\n      swap5\n      pop\n      pop\n      pop\n      pop\n      pop\n      jump\t// out\n        /* \"#utility.yul\":31572:31713   */\n    tag_413:\n        /* \"#utility.yul\":31628:31633   */\n      0x00\n        /* \"#utility.yul\":31659:31665   */\n      dup2\n        /* \"#utility.yul\":31653:31666   */\n      mload\n        /* \"#utility.yul\":31644:31666   */\n      swap1\n      pop\n        /* \"#utility.yul\":31675:31707   */\n      tag_724\n        /* \"#utility.yul\":31701:31706   */\n      dup2\n        /* \"#utility.yul\":31675:31707   */\n      tag_338\n      jump\t// in\n    tag_724:\n        /* \"#utility.yul\":31572:31713   */\n      swap3\n      swap2\n      pop\n      pop\n      jump\t// out\n        /* \"#utility.yul\":31719:32068   */\n    tag_264:\n        /* \"#utility.yul\":31788:31794   */\n      0x00\n        /* \"#utility.yul\":31837:31839   */\n      0x20\n        /* \"#utility.yul\":31825:31834   */\n      dup3\n        /* \"#utility.yul\":31816:31823   */\n      dup5\n        /* \"#utility.yul\":31812:31835   */\n      sub\n        /* \"#utility.yul\":31808:31840   */\n      slt\n        /* \"#utility.yul\":31805:31924   */\n      iszero\n      tag_726\n      jumpi\n        /* \"#utility.yul\":31843:31922   */\n      tag_727\n      tag_335\n      jump\t// in\n    tag_727:\n        /* \"#utility.yul\":31805:31924   */\n    tag_726:\n        /* \"#utility.yul\":31963:31964   */\n      0x00\n        /* \"#utility.yul\":31988:32051   */\n      tag_728\n        /* \"#utility.yul\":32043:32050   */\n      dup5\n        /* \"#utility.yul\":32034:32040   */\n      dup3\n        /* \"#utility.yul\":32023:32032   */\n      dup6\n        /* \"#utility.yul\":32019:32041   */\n      add\n        /* \"#utility.yul\":31988:32051   */\n      tag_413\n      jump\t// in\n    tag_728:\n        /* \"#utility.yul\":31978:32051   */\n      swap2\n      pop\n        /* \"#utility.yul\":31934:32061   */\n      pop\n        /* \"#utility.yul\":31719:32068   */\n      swap3\n      swap2\n      pop\n      pop\n      jump\t// out\n        /* \"#utility.yul\":32074:32254   */\n    tag_414:\n        /* \"#utility.yul\":32122:32199   */\n      0x4e487b7100000000000000000000000000000000000000000000000000000000\n        /* \"#utility.yul\":32119:32120   */\n      0x00\n        /* \"#utility.yul\":32112:32200   */\n      mstore\n        /* \"#utility.yul\":32219:32223   */\n      0x12\n        /* \"#utility.yul\":32216:32217   */\n      0x04\n        /* \"#utility.yul\":32209:32224   */\n      mstore\n        /* \"#utility.yul\":32243:32247   */\n      0x24\n        /* \"#utility.yul\":32240:32241   */\n      0x00\n        /* \"#utility.yul\":32233:32248   */\n      revert\n        /* \"#utility.yul\":32260:32445   */\n    tag_301:\n        /* \"#utility.yul\":32300:32301   */\n      0x00\n        /* \"#utility.yul\":32317:32337   */\n      tag_731\n        /* \"#utility.yul\":32335:32336   */\n      dup3\n        /* \"#utility.yul\":32317:32337   */\n      tag_347\n      jump\t// in\n    tag_731:\n        /* \"#utility.yul\":32312:32337   */\n      swap2\n      pop\n        /* \"#utility.yul\":32351:32371   */\n      tag_732\n        /* \"#utility.yul\":32369:32370   */\n      dup4\n        /* \"#utility.yul\":32351:32371   */\n      tag_347\n      jump\t// in\n    tag_732:\n        /* \"#utility.yul\":32346:32371   */\n      swap3\n      pop\n        /* \"#utility.yul\":32390:32391   */\n      dup3\n        /* \"#utility.yul\":32380:32415   */\n      tag_733\n      jumpi\n        /* \"#utility.yul\":32395:32413   */\n      tag_734\n      tag_414\n      jump\t// in\n    tag_734:\n        /* \"#utility.yul\":32380:32415   */\n    tag_733:\n        /* \"#utility.yul\":32437:32438   */\n      dup3\n        /* \"#utility.yul\":32434:32435   */\n      dup3\n        /* \"#utility.yul\":32430:32439   */\n      div\n        /* \"#utility.yul\":32425:32439   */\n      swap1\n      pop\n        /* \"#utility.yul\":32260:32445   */\n      swap3\n      swap2\n      pop\n      pop\n      jump\t// out\n        /* \"#utility.yul\":32451:32627   */\n    tag_310:\n        /* \"#utility.yul\":32483:32484   */\n      0x00\n        /* \"#utility.yul\":32500:32520   */\n      tag_736\n        /* \"#utility.yul\":32518:32519   */\n      dup3\n        /* \"#utility.yul\":32500:32520   */\n      tag_347\n      jump\t// in\n    tag_736:\n        /* \"#utility.yul\":32495:32520   */\n      swap2\n      pop\n        /* \"#utility.yul\":32534:32554   */\n      tag_737\n        /* \"#utility.yul\":32552:32553   */\n      dup4\n        /* \"#utility.yul\":32534:32554   */\n      tag_347\n      jump\t// in\n    tag_737:\n        /* \"#utility.yul\":32529:32554   */\n      swap3\n      pop\n        /* \"#utility.yul\":32573:32574   */\n      dup3\n        /* \"#utility.yul\":32563:32598   */\n      tag_738\n      jumpi\n        /* \"#utility.yul\":32578:32596   */\n      tag_739\n      tag_414\n      jump\t// in\n    tag_739:\n        /* \"#utility.yul\":32563:32598   */\n    tag_738:\n        /* \"#utility.yul\":32619:32620   */\n      dup3\n        /* \"#utility.yul\":32616:32617   */\n      dup3\n        /* \"#utility.yul\":32612:32621   */\n      mod\n        /* \"#utility.yul\":32607:32621   */\n      swap1\n      pop\n        /* \"#utility.yul\":32451:32627   */\n      swap3\n      swap2\n      pop\n      pop\n      jump\t// out\n        /* \"#utility.yul\":32633:32813   */\n    tag_314:\n        /* \"#utility.yul\":32681:32758   */\n      0x4e487b7100000000000000000000000000000000000000000000000000000000\n        /* \"#utility.yul\":32678:32679   */\n      0x00\n        /* \"#utility.yul\":32671:32759   */\n      mstore\n        /* \"#utility.yul\":32778:32782   */\n      0x32\n        /* \"#utility.yul\":32775:32776   */\n      0x04\n        /* \"#utility.yul\":32768:32783   */\n      mstore\n        /* \"#utility.yul\":32802:32806   */\n      0x24\n        /* \"#utility.yul\":32799:32800   */\n      0x00\n        /* \"#utility.yul\":32792:32807   */\n      revert\n        /* \"#utility.yul\":32819:33001   */\n    tag_415:\n        /* \"#utility.yul\":32959:32993   */\n      0x4552433732313a206d696e7420746f20746865207a65726f2061646472657373\n        /* \"#utility.yul\":32955:32956   */\n      0x00\n        /* \"#utility.yul\":32947:32953   */\n      dup3\n        /* \"#utility.yul\":32943:32957   */\n      add\n        /* \"#utility.yul\":32936:32994   */\n      mstore\n        /* \"#utility.yul\":32819:33001   */\n      pop\n      jump\t// out\n        /* \"#utility.yul\":33007:33373   */\n    tag_416:\n        /* \"#utility.yul\":33149:33152   */\n      0x00\n        /* \"#utility.yul\":33170:33237   */\n      tag_743\n        /* \"#utility.yul\":33234:33236   */\n      0x20\n        /* \"#utility.yul\":33229:33232   */\n      dup4\n        /* \"#utility.yul\":33170:33237   */\n      tag_343\n      jump\t// in\n    tag_743:\n        /* \"#utility.yul\":33163:33237   */\n      swap2\n      pop\n        /* \"#utility.yul\":33246:33339   */\n      tag_744\n        /* \"#utility.yul\":33335:33338   */\n      dup3\n        /* \"#utility.yul\":33246:33339   */\n      tag_415\n      jump\t// in\n    tag_744:\n        /* \"#utility.yul\":33364:33366   */\n      0x20\n        /* \"#utility.yul\":33359:33362   */\n      dup3\n        /* \"#utility.yul\":33355:33367   */\n      add\n        /* \"#utility.yul\":33348:33367   */\n      swap1\n      pop\n        /* \"#utility.yul\":33007:33373   */\n      swap2\n      swap1\n      pop\n      jump\t// out\n        /* \"#utility.yul\":33379:33798   */\n    tag_319:\n        /* \"#utility.yul\":33545:33549   */\n      0x00\n        /* \"#utility.yul\":33583:33585   */\n      0x20\n        /* \"#utility.yul\":33572:33581   */\n      dup3\n        /* \"#utility.yul\":33568:33586   */\n      add\n        /* \"#utility.yul\":33560:33586   */\n      swap1\n      pop\n        /* \"#utility.yul\":33632:33641   */\n      dup2\n        /* \"#utility.yul\":33626:33630   */\n      dup2\n        /* \"#utility.yul\":33622:33642   */\n      sub\n        /* \"#utility.yul\":33618:33619   */\n      0x00\n        /* \"#utility.yul\":33607:33616   */\n      dup4\n        /* \"#utility.yul\":33603:33620   */\n      add\n        /* \"#utility.yul\":33596:33643   */\n      mstore\n        /* \"#utility.yul\":33660:33791   */\n      tag_746\n        /* \"#utility.yul\":33786:33790   */\n      dup2\n        /* \"#utility.yul\":33660:33791   */\n      tag_416\n      jump\t// in\n    tag_746:\n        /* \"#utility.yul\":33652:33791   */\n      swap1\n      pop\n        /* \"#utility.yul\":33379:33798   */\n      swap2\n      swap1\n      pop\n      jump\t// out\n        /* \"#utility.yul\":33804:33982   */\n    tag_417:\n        /* \"#utility.yul\":33944:33974   */\n      0x4552433732313a20746f6b656e20616c7265616479206d696e74656400000000\n        /* \"#utility.yul\":33940:33941   */\n      0x00\n        /* \"#utility.yul\":33932:33938   */\n      dup3\n        /* \"#utility.yul\":33928:33942   */\n      add\n        /* \"#utility.yul\":33921:33975   */\n      mstore\n        /* \"#utility.yul\":33804:33982   */\n      pop\n      jump\t// out\n        /* \"#utility.yul\":33988:34354   */\n    tag_418:\n        /* \"#utility.yul\":34130:34133   */\n      0x00\n        /* \"#utility.yul\":34151:34218   */\n      tag_749\n        /* \"#utility.yul\":34215:34217   */\n      0x1c\n        /* \"#utility.yul\":34210:34213   */\n      dup4\n        /* \"#utility.yul\":34151:34218   */\n      tag_343\n      jump\t// in\n    tag_749:\n        /* \"#utility.yul\":34144:34218   */\n      swap2\n      pop\n        /* \"#utility.yul\":34227:34320   */\n      tag_750\n        /* \"#utility.yul\":34316:34319   */\n      dup3\n        /* \"#utility.yul\":34227:34320   */\n      tag_417\n      jump\t// in\n    tag_750:\n        /* \"#utility.yul\":34345:34347   */\n      0x20\n        /* \"#utility.yul\":34340:34343   */\n      dup3\n        /* \"#utility.yul\":34336:34348   */\n      add\n        /* \"#utility.yul\":34329:34348   */\n      swap1\n      pop\n        /* \"#utility.yul\":33988:34354   */\n      swap2\n      swap1\n      pop\n      jump\t// out\n        /* \"#utility.yul\":34360:34779   */\n    tag_323:\n        /* \"#utility.yul\":34526:34530   */\n      0x00\n        /* \"#utility.yul\":34564:34566   */\n      0x20\n        /* \"#utility.yul\":34553:34562   */\n      dup3\n        /* \"#utility.yul\":34549:34567   */\n      add\n        /* \"#utility.yul\":34541:34567   */\n      swap1\n      pop\n        /* \"#utility.yul\":34613:34622   */\n      dup2\n        /* \"#utility.yul\":34607:34611   */\n      dup2\n        /* \"#utility.yul\":34603:34623   */\n      sub\n        /* \"#utility.yul\":34599:34600   */\n      0x00\n        /* \"#utility.yul\":34588:34597   */\n      dup4\n        /* \"#utility.yul\":34584:34601   */\n      add\n        /* \"#utility.yul\":34577:34624   */\n      mstore\n        /* \"#utility.yul\":34641:34772   */\n      tag_752\n        /* \"#utility.yul\":34767:34771   */\n      dup2\n        /* \"#utility.yul\":34641:34772   */\n      tag_418\n      jump\t// in\n    tag_752:\n        /* \"#utility.yul\":34633:34772   */\n      swap1\n      pop\n        /* \"#utility.yul\":34360:34779   */\n      swap2\n      swap1\n      pop\n      jump\t// out\n\n    auxdata: 0xa2646970667358221220818b9e888f69776635aa158d8f7d20f278c300e3dab4cb96e30ebeb2fa63203b64736f6c634300080f0033\n}\n","bytecode":{"linkReferences":{},"object":"608060405260016007553480156200001657600080fd5b506040518060400160405280600881526020017f57617272616e74790000000000000000000000000000000000000000000000008152506040518060400160405280600381526020017f574152000000000000000000000000000000000000000000000000000000000081525081600090816200009491906200036a565b508060019081620000a691906200036a565b50505033600860006101000a81548173ffffffffffffffffffffffffffffffffffffffff021916908373ffffffffffffffffffffffffffffffffffffffff16021790555062000451565b600081519050919050565b7f4e487b7100000000000000000000000000000000000000000000000000000000600052604160045260246000fd5b7f4e487b7100000000000000000000000000000000000000000000000000000000600052602260045260246000fd5b600060028204905060018216806200017257607f821691505b6020821081036200018857620001876200012a565b5b50919050565b60008190508160005260206000209050919050565b60006020601f8301049050919050565b600082821b905092915050565b600060088302620001f27fffffffffffffffffffffffffffffffffffffffffffffffffffffffffffffffff82620001b3565b620001fe8683620001b3565b95508019841693508086168417925050509392505050565b6000819050919050565b6000819050919050565b60006200024b620002456200023f8462000216565b62000220565b62000216565b9050919050565b6000819050919050565b62000267836200022a565b6200027f620002768262000252565b848454620001c0565b825550505050565b600090565b6200029662000287565b620002a38184846200025c565b505050565b5b81811015620002cb57620002bf6000826200028c565b600181019050620002a9565b5050565b601f8211156200031a57620002e4816200018e565b620002ef84620001a3565b81016020851015620002ff578190505b620003176200030e85620001a3565b830182620002a8565b50505b505050565b600082821c905092915050565b60006200033f600019846008026200031f565b1980831691505092915050565b60006200035a83836200032c565b9150826002028217905092915050565b6200037582620000f0565b67ffffffffffffffff811115620003915762000390620000fb565b5b6200039d825462000159565b620003aa828285620002cf565b600060209050601f831160018114620003e25760008415620003cd578287015190505b620003d985826200034c565b86555062000449565b601f198416620003f2866200018e565b60005b828110156200041c57848901518255600182019150602085019450602081019050620003f5565b868310156200043c578489015162000438601f8916826200032c565b8355505b6001600288020188555050505b505050505050565b61318780620004616000396000f3fe608060405234801561001057600080fd5b506004361061010b5760003560e01c806370a08231116100a2578063a22cb46511610071578063a22cb465146102b6578063b88d4fde146102d2578063c87b56dd146102ee578063d204c45e1461031e578063e985e9c51461034e5761010b565b806370a082311461022e5780638da5cb5b1461025e57806395d89b411461027c5780639f9872441461029a5761010b565b806323b872dd116100de57806323b872dd146101aa57806325a293c3146101c657806342842e0e146101e25780636352211e146101fe5761010b565b806301ffc9a71461011057806306fdde0314610140578063081812fc1461015e578063095ea7b31461018e575b600080fd5b61012a60048036038101906101259190611e49565b61037e565b6040516101379190611e91565b60405180910390f35b610148610460565b6040516101559190611f45565b60405180910390f35b61017860048036038101906101739190611f9d565b6104f2565b604051610185919061200b565b60405180910390f35b6101a860048036038101906101a39190612052565b610538565b005b6101c460048036038101906101bf9190612092565b61066c565b005b6101e060048036038101906101db9190611f9d565b6106c5565b005b6101fc60048036038101906101f79190612092565b610761565b005b61021860048036038101906102139190611f9d565b610781565b604051610225919061200b565b60405180910390f35b610248600480360381019061024391906120e5565b610832565b6040516102559190612121565b60405180910390f35b6102666108e9565b604051610273919061200b565b60405180910390f35b61028461090f565b6040516102919190611f45565b60405180910390f35b6102b460048036038101906102af9190611f9d565b6109a1565b005b6102d060048036038101906102cb9190612168565b610a4e565b005b6102ec60048036038101906102e791906122dd565b610a5d565b005b61030860048036038101906103039190611f9d565b610ab8565b6040516103159190611f45565b60405180910390f35b61033860048036038101906103339190612401565b610aca565b6040516103459190612121565b60405180910390f35b6103686004803603810190610363919061245d565b610b08565b6040516103759190611e91565b60405180910390f35b60007f80ac58cd000000000000000000000000000000000000000000000000000000007bffffffffffffffffffffffffffffffffffffffffffffffffffffffff1916827bffffffffffffffffffffffffffffffffffffffffffffffffffffffff1916148061044957507f5b5e139f000000000000000000000000000000000000000000000000000000007bffffffffffffffffffffffffffffffffffffffffffffffffffffffff1916827bffffffffffffffffffffffffffffffffffffffffffffffffffffffff1916145b80610459575061045882610b9c565b5b9050919050565b60606000805461046f906124cc565b80601f016020809104026020016040519081016040528092919081815260200182805461049b906124cc565b80156104e85780601f106104bd576101008083540402835291602001916104e8565b820191906000526020600020905b8154815290600101906020018083116104cb57829003601f168201915b5050505050905090565b60006104fd82610c06565b6004600083815260200190815260200160002060009054906101000a900473ffffffffffffffffffffffffffffffffffffffff169050919050565b60006002600083815260200190815260200160002060009054906101000a900473ffffffffffffffffffffffffffffffffffffffff1690508073ffffffffffffffffffffffffffffffffffffffff168373ffffffffffffffffffffffffffffffffffffffff16036105de576040517f08c379a00000000000000000000000000000000000000000000000000000000081526004016105d59061256f565b60405180910390fd5b8073ffffffffffffffffffffffffffffffffffffffff163373ffffffffffffffffffffffffffffffffffffffff16148061061e575061061d8133610b08565b5b61065d576040517f08c379a000000000000000000000000000000000000000000000000000000000815260040161065490612601565b60405180910390fd5b6106678383610c51565b505050565b6106763382610d35565b6106b5576040517f08c379a00000000000000000000000000000000000000000000000000000000081526004016106ac90612693565b60405180910390fd5b6106c0838383610df5565b505050565b600860009054906101000a900473ffffffffffffffffffffffffffffffffffffffff1673ffffffffffffffffffffffffffffffffffffffff163373ffffffffffffffffffffffffffffffffffffffff1614610755576040517f08c379a000000000000000000000000000000000000000000000000000000000815260040161074c90612725565b60405180910390fd5b61075e816110b1565b50565b61077c83838360405180602001604052806000815250610a5d565b505050565b6000806002600084815260200190815260200160002060009054906101000a900473ffffffffffffffffffffffffffffffffffffffff169050600073ffffffffffffffffffffffffffffffffffffffff168173ffffffffffffffffffffffffffffffffffffffff1603610829576040517f08c379a000000000000000000000000000000000000000000000000000000000815260040161082090612791565b60405180910390fd5b80915050919050565b60008073ffffffffffffffffffffffffffffffffffffffff168273ffffffffffffffffffffffffffffffffffffffff16036108a2576040517f08c379a000000000000000000000000000000000000000000000000000000000815260040161089990612823565b60405180910390fd5b600360008373ffffffffffffffffffffffffffffffffffffffff1673ffffffffffffffffffffffffffffffffffffffff168152602001908152602001600020549050919050565b600860009054906101000a900473ffffffffffffffffffffffffffffffffffffffff1681565b60606001805461091e906124cc565b80601f016020809104026020016040519081016040528092919081815260200182805461094a906124cc565b80156109975780601f1061096c57610100808354040283529160200191610997565b820191906000526020600020905b81548152906001019060200180831161097a57829003601f168201915b5050505050905090565b600860009054906101000a900473ffffffffffffffffffffffffffffffffffffffff1673ffffffffffffffffffffffffffffffffffffffff163373ffffffffffffffffffffffffffffffffffffffff1614610a31576040517f08c379a0000000000000000000000000000000000000000000000000000000008152600401610a2890612725565b60405180910390fd5b6000610a3c82610781565b9050610a4a816000846110bd565b5050565b610a59338383611269565b5050565b610a673383610d35565b610aa6576040517f08c379a0000000000000000000000000000000000000000000000000000000008152600401610a9d90612693565b60405180910390fd5b610ab2848484846113d5565b50505050565b6060610ac382611431565b9050919050565b6000806007549050610adc8482611543565b610ae68184611561565b60076000815480929190610af990612872565b91905055508091505092915050565b6000600560008473ffffffffffffffffffffffffffffffffffffffff1673ffffffffffffffffffffffffffffffffffffffff16815260200190815260200160002060008373ffffffffffffffffffffffffffffffffffffffff1673ffffffffffffffffffffffffffffffffffffffff16815260200190815260200160002060009054906101000a900460ff16905092915050565b60007f01ffc9a7000000000000000000000000000000000000000000000000000000007bffffffffffffffffffffffffffffffffffffffffffffffffffffffff1916827bffffffffffffffffffffffffffffffffffffffffffffffffffffffff1916149050919050565b610c0f816115ce565b610c4e576040517f08c379a0000000000000000000000000000000000000000000000000000000008152600401610c4590612791565b60405180910390fd5b50565b816004600083815260200190815260200160002060006101000a81548173ffffffffffffffffffffffffffffffffffffffff021916908373ffffffffffffffffffffffffffffffffffffffff160217905550808273ffffffffffffffffffffffffffffffffffffffff166002600084815260200190815260200160002060009054906101000a900473ffffffffffffffffffffffffffffffffffffffff1673ffffffffffffffffffffffffffffffffffffffff167f8c5be1e5ebec7d5bd14f71427d1e84f3dd0314c0f7b2291e5b200ac8c7c3b92560405160405180910390a45050565b6000806002600084815260200190815260200160002060009054906101000a900473ffffffffffffffffffffffffffffffffffffffff1690508073ffffffffffffffffffffffffffffffffffffffff168473ffffffffffffffffffffffffffffffffffffffff161480610dae5750610dad8185610b08565b5b80610dec57508373ffffffffffffffffffffffffffffffffffffffff16610dd4846104f2565b73ffffffffffffffffffffffffffffffffffffffff16145b91505092915050565b8273ffffffffffffffffffffffffffffffffffffffff166002600083815260200190815260200160002060009054906101000a900473ffffffffffffffffffffffffffffffffffffffff1673ffffffffffffffffffffffffffffffffffffffff1614610e96576040517f08c379a0000000000000000000000000000000000000000000000000000000008152600401610e8d9061292c565b60405180910390fd5b600073ffffffffffffffffffffffffffffffffffffffff168273ffffffffffffffffffffffffffffffffffffffff1603610f05576040517f08c379a0000000000000000000000000000000000000000000000000000000008152600401610efc906129be565b60405180910390fd5b610f1083838361163a565b6004600082815260200190815260200160002060006101000a81549073ffffffffffffffffffffffffffffffffffffffff02191690556001600360008573ffffffffffffffffffffffffffffffffffffffff1673ffffffffffffffffffffffffffffffffffffffff1681526020019081526020016000206000828254610f9691906129de565b925050819055506001600360008473ffffffffffffffffffffffffffffffffffffffff1673ffffffffffffffffffffffffffffffffffffffff1681526020019081526020016000206000828254610fed9190612a12565b92505081905550816002600083815260200190815260200160002060006101000a81548173ffffffffffffffffffffffffffffffffffffffff021916908373ffffffffffffffffffffffffffffffffffffffff160217905550808273ffffffffffffffffffffffffffffffffffffffff168473ffffffffffffffffffffffffffffffffffffffff167fddf252ad1be2c89b69c2b068fc378daa952ba7f163c4a11628f55a4df523b3ef60405160405180910390a46110ac83838361163f565b505050565b6110ba81611644565b50565b6110c883838361163a565b6004600082815260200190815260200160002060006101000a81549073ffffffffffffffffffffffffffffffffffffffff02191690556001600360008573ffffffffffffffffffffffffffffffffffffffff1673ffffffffffffffffffffffffffffffffffffffff168152602001908152602001600020600082825461114e91906129de565b925050819055506001600360008473ffffffffffffffffffffffffffffffffffffffff1673ffffffffffffffffffffffffffffffffffffffff16815260200190815260200160002060008282546111a59190612a12565b92505081905550816002600083815260200190815260200160002060006101000a81548173ffffffffffffffffffffffffffffffffffffffff021916908373ffffffffffffffffffffffffffffffffffffffff160217905550808273ffffffffffffffffffffffffffffffffffffffff168473ffffffffffffffffffffffffffffffffffffffff167fddf252ad1be2c89b69c2b068fc378daa952ba7f163c4a11628f55a4df523b3ef60405160405180910390a461126483838361163f565b505050565b8173ffffffffffffffffffffffffffffffffffffffff168373ffffffffffffffffffffffffffffffffffffffff16036112d7576040517f08c379a00000000000000000000000000000000000000000000000000000000081526004016112ce90612ab4565b60405180910390fd5b80600560008573ffffffffffffffffffffffffffffffffffffffff1673ffffffffffffffffffffffffffffffffffffffff16815260200190815260200160002060008473ffffffffffffffffffffffffffffffffffffffff1673ffffffffffffffffffffffffffffffffffffffff16815260200190815260200160002060006101000a81548160ff0219169083151502179055508173ffffffffffffffffffffffffffffffffffffffff168373ffffffffffffffffffffffffffffffffffffffff167f17307eab39ab6107e8899845ad3d59bd9653f200f220920489ca2b5937696c31836040516113c89190611e91565b60405180910390a3505050565b6113e0848484610df5565b6113ec84848484611697565b61142b576040517f08c379a000000000000000000000000000000000000000000000000000000000815260040161142290612b46565b60405180910390fd5b50505050565b606061143c82610c06565b600060066000848152602001908152602001600020805461145c906124cc565b80601f0160208091040260200160405190810160405280929190818152602001828054611488906124cc565b80156114d55780601f106114aa576101008083540402835291602001916114d5565b820191906000526020600020905b8154815290600101906020018083116114b857829003601f168201915b5050505050905060006114e66117fa565b905060008151036114fb57819250505061153e565b600082511115611530578082604051602001611518929190612ba2565b6040516020818303038152906040529250505061153e565b61153984611811565b925050505b919050565b61155d828260405180602001604052806000815250611879565b5050565b61156a826115ce565b6115a9576040517f08c379a00000000000000000000000000000000000000000000000000000000081526004016115a090612c38565b60405180910390fd5b806006600084815260200190815260200160002090816115c99190612e04565b505050565b60008073ffffffffffffffffffffffffffffffffffffffff166002600084815260200190815260200160002060009054906101000a900473ffffffffffffffffffffffffffffffffffffffff1673ffffffffffffffffffffffffffffffffffffffff1614159050919050565b505050565b505050565b61164d816118d4565b600060066000838152602001908152602001600020805461166d906124cc565b905014611694576006600082815260200190815260200160002060006116939190611d80565b5b50565b60006001156117ed578373ffffffffffffffffffffffffffffffffffffffff1663150b7a02338786866040518563ffffffff1660e01b81526004016116df9493929190612f2b565b6020604051808303816000875af192505050801561171b57506040513d601f19601f820116820180604052508101906117189190612f8c565b60015b61179d573d806000811461174b576040519150601f19603f3d011682016040523d82523d6000602084013e611750565b606091505b506000815103611795576040517f08c379a000000000000000000000000000000000000000000000000000000000815260040161178c90612b46565b60405180910390fd5b805181602001fd5b63150b7a0260e01b7bffffffffffffffffffffffffffffffffffffffffffffffffffffffff1916817bffffffffffffffffffffffffffffffffffffffffffffffffffffffff1916149150506117f2565b600190505b949350505050565b606060405180602001604052806000815250905090565b606061181c82610c06565b60006118266117fa565b905060008151116118465760405180602001604052806000815250611871565b8061185084611a47565b604051602001611861929190612ba2565b6040516020818303038152906040525b915050919050565b6118838383611ba7565b6118906000848484611697565b6118cf576040517f08c379a00000000000000000000000000000000000000000000000000000000081526004016118c690612b46565b60405180910390fd5b505050565b60006002600083815260200190815260200160002060009054906101000a900473ffffffffffffffffffffffffffffffffffffffff1690506119188160008461163a565b6004600083815260200190815260200160002060006101000a81549073ffffffffffffffffffffffffffffffffffffffff02191690556001600360008373ffffffffffffffffffffffffffffffffffffffff1673ffffffffffffffffffffffffffffffffffffffff168152602001908152602001600020600082825461199e91906129de565b925050819055506002600083815260200190815260200160002060006101000a81549073ffffffffffffffffffffffffffffffffffffffff021916905581600073ffffffffffffffffffffffffffffffffffffffff168273ffffffffffffffffffffffffffffffffffffffff167fddf252ad1be2c89b69c2b068fc378daa952ba7f163c4a11628f55a4df523b3ef60405160405180910390a4611a438160008461163f565b5050565b606060008203611a8e576040518060400160405280600181526020017f30000000000000000000000000000000000000000000000000000000000000008152509050611ba2565b600082905060005b60008214611ac0578080611aa990612872565b915050600a82611ab99190612fe8565b9150611a96565b60008167ffffffffffffffff811115611adc57611adb6121b2565b5b6040519080825280601f01601f191660200182016040528015611b0e5781602001600182028036833780820191505090505b5090505b60008514611b9b57600182611b2791906129de565b9150600a85611b369190613019565b6030611b429190612a12565b60f81b818381518110611b5857611b5761304a565b5b60200101907effffffffffffffffffffffffffffffffffffffffffffffffffffffffffffff1916908160001a905350600a85611b949190612fe8565b9450611b12565b8093505050505b919050565b600073ffffffffffffffffffffffffffffffffffffffff168273ffffffffffffffffffffffffffffffffffffffff1603611c16576040517f08c379a0000000000000000000000000000000000000000000000000000000008152600401611c0d906130c5565b60405180910390fd5b611c1f816115ce565b15611c5f576040517f08c379a0000000000000000000000000000000000000000000000000000000008152600401611c5690613131565b60405180910390fd5b611c6b6000838361163a565b6001600360008473ffffffffffffffffffffffffffffffffffffffff1673ffffffffffffffffffffffffffffffffffffffff1681526020019081526020016000206000828254611cbb9190612a12565b92505081905550816002600083815260200190815260200160002060006101000a81548173ffffffffffffffffffffffffffffffffffffffff021916908373ffffffffffffffffffffffffffffffffffffffff160217905550808273ffffffffffffffffffffffffffffffffffffffff16600073ffffffffffffffffffffffffffffffffffffffff167fddf252ad1be2c89b69c2b068fc378daa952ba7f163c4a11628f55a4df523b3ef60405160405180910390a4611d7c6000838361163f565b5050565b508054611d8c906124cc565b6000825580601f10611d9e5750611dbd565b601f016020900490600052602060002090810190611dbc9190611dc0565b5b50565b5b80821115611dd9576000816000905550600101611dc1565b5090565b6000604051905090565b600080fd5b600080fd5b60007fffffffff0000000000000000000000000000000000000000000000000000000082169050919050565b611e2681611df1565b8114611e3157600080fd5b50565b600081359050611e4381611e1d565b92915050565b600060208284031215611e5f57611e5e611de7565b5b6000611e6d84828501611e34565b91505092915050565b60008115159050919050565b611e8b81611e76565b82525050565b6000602082019050611ea66000830184611e82565b92915050565b600081519050919050565b600082825260208201905092915050565b60005b83811015611ee6578082015181840152602081019050611ecb565b83811115611ef5576000848401525b50505050565b6000601f19601f8301169050919050565b6000611f1782611eac565b611f218185611eb7565b9350611f31818560208601611ec8565b611f3a81611efb565b840191505092915050565b60006020820190508181036000830152611f5f8184611f0c565b905092915050565b6000819050919050565b611f7a81611f67565b8114611f8557600080fd5b50565b600081359050611f9781611f71565b92915050565b600060208284031215611fb357611fb2611de7565b5b6000611fc184828501611f88565b91505092915050565b600073ffffffffffffffffffffffffffffffffffffffff82169050919050565b6000611ff582611fca565b9050919050565b61200581611fea565b82525050565b60006020820190506120206000830184611ffc565b92915050565b61202f81611fea565b811461203a57600080fd5b50565b60008135905061204c81612026565b92915050565b6000806040838503121561206957612068611de7565b5b60006120778582860161203d565b925050602061208885828601611f88565b9150509250929050565b6000806000606084860312156120ab576120aa611de7565b5b60006120b98682870161203d565b93505060206120ca8682870161203d565b92505060406120db86828701611f88565b9150509250925092565b6000602082840312156120fb576120fa611de7565b5b60006121098482850161203d565b91505092915050565b61211b81611f67565b82525050565b60006020820190506121366000830184612112565b92915050565b61214581611e76565b811461215057600080fd5b50565b6000813590506121628161213c565b92915050565b6000806040838503121561217f5761217e611de7565b5b600061218d8582860161203d565b925050602061219e85828601612153565b9150509250929050565b600080fd5b600080fd5b7f4e487b7100000000000000000000000000000000000000000000000000000000600052604160045260246000fd5b6121ea82611efb565b810181811067ffffffffffffffff82111715612209576122086121b2565b5b80604052505050565b600061221c611ddd565b905061222882826121e1565b919050565b600067ffffffffffffffff821115612248576122476121b2565b5b61225182611efb565b9050602081019050919050565b82818337600083830152505050565b600061228061227b8461222d565b612212565b90508281526020810184848401111561229c5761229b6121ad565b5b6122a784828561225e565b509392505050565b600082601f8301126122c4576122c36121a8565b5b81356122d484826020860161226d565b91505092915050565b600080600080608085870312156122f7576122f6611de7565b5b60006123058782880161203d565b94505060206123168782880161203d565b935050604061232787828801611f88565b925050606085013567ffffffffffffffff81111561234857612347611dec565b5b612354878288016122af565b91505092959194509250565b600067ffffffffffffffff82111561237b5761237a6121b2565b5b61238482611efb565b9050602081019050919050565b60006123a461239f84612360565b612212565b9050828152602081018484840111156123c0576123bf6121ad565b5b6123cb84828561225e565b509392505050565b600082601f8301126123e8576123e76121a8565b5b81356123f8848260208601612391565b91505092915050565b6000806040838503121561241857612417611de7565b5b60006124268582860161203d565b925050602083013567ffffffffffffffff81111561244757612446611dec565b5b612453858286016123d3565b9150509250929050565b6000806040838503121561247457612473611de7565b5b60006124828582860161203d565b92505060206124938582860161203d565b9150509250929050565b7f4e487b7100000000000000000000000000000000000000000000000000000000600052602260045260246000fd5b600060028204905060018216806124e457607f821691505b6020821081036124f7576124f661249d565b5b50919050565b7f4552433732313a20617070726f76616c20746f2063757272656e74206f776e6560008201527f7200000000000000000000000000000000000000000000000000000000000000602082015250565b6000612559602183611eb7565b9150612564826124fd565b604082019050919050565b600060208201905081810360008301526125888161254c565b9050919050565b7f4552433732313a20617070726f76652063616c6c6572206973206e6f7420746f60008201527f6b656e206f776e6572206e6f7220617070726f76656420666f7220616c6c0000602082015250565b60006125eb603e83611eb7565b91506125f68261258f565b604082019050919050565b6000602082019050818103600083015261261a816125de565b9050919050565b7f4552433732313a2063616c6c6572206973206e6f7420746f6b656e206f776e6560008201527f72206e6f7220617070726f766564000000000000000000000000000000000000602082015250565b600061267d602e83611eb7565b915061268882612621565b604082019050919050565b600060208201905081810360008301526126ac81612670565b9050919050565b7f4552433732313a204275726e696e672066726f6d20696e76616c69642061636360008201527f6f756e7400000000000000000000000000000000000000000000000000000000602082015250565b600061270f602483611eb7565b915061271a826126b3565b604082019050919050565b6000602082019050818103600083015261273e81612702565b9050919050565b7f4552433732313a20696e76616c696420746f6b656e2049440000000000000000600082015250565b600061277b601883611eb7565b915061278682612745565b602082019050919050565b600060208201905081810360008301526127aa8161276e565b9050919050565b7f4552433732313a2061646472657373207a65726f206973206e6f74206120766160008201527f6c6964206f776e65720000000000000000000000000000000000000000000000602082015250565b600061280d602983611eb7565b9150612818826127b1565b604082019050919050565b6000602082019050818103600083015261283c81612800565b9050919050565b7f4e487b7100000000000000000000000000000000000000000000000000000000600052601160045260246000fd5b600061287d82611f67565b91507fffffffffffffffffffffffffffffffffffffffffffffffffffffffffffffffff82036128af576128ae612843565b5b600182019050919050565b7f4552433732313a207472616e736665722066726f6d20696e636f72726563742060008201527f6f776e6572000000000000000000000000000000000000000000000000000000602082015250565b6000612916602583611eb7565b9150612921826128ba565b604082019050919050565b6000602082019050818103600083015261294581612909565b9050919050565b7f4552433732313a207472616e7366657220746f20746865207a65726f2061646460008201527f7265737300000000000000000000000000000000000000000000000000000000602082015250565b60006129a8602483611eb7565b91506129b38261294c565b604082019050919050565b600060208201905081810360008301526129d78161299b565b9050919050565b60006129e982611f67565b91506129f483611f67565b925082821015612a0757612a06612843565b5b828203905092915050565b6000612a1d82611f67565b9150612a2883611f67565b9250827fffffffffffffffffffffffffffffffffffffffffffffffffffffffffffffffff03821115612a5d57612a5c612843565b5b828201905092915050565b7f4552433732313a20617070726f766520746f2063616c6c657200000000000000600082015250565b6000612a9e601983611eb7565b9150612aa982612a68565b602082019050919050565b60006020820190508181036000830152612acd81612a91565b9050919050565b7f4552433732313a207472616e7366657220746f206e6f6e20455243373231526560008201527f63656976657220696d706c656d656e7465720000000000000000000000000000602082015250565b6000612b30603283611eb7565b9150612b3b82612ad4565b604082019050919050565b60006020820190508181036000830152612b5f81612b23565b9050919050565b600081905092915050565b6000612b7c82611eac565b612b868185612b66565b9350612b96818560208601611ec8565b80840191505092915050565b6000612bae8285612b71565b9150612bba8284612b71565b91508190509392505050565b7f45524337323155524953746f726167653a2055524920736574206f66206e6f6e60008201527f6578697374656e7420746f6b656e000000000000000000000000000000000000602082015250565b6000612c22602e83611eb7565b9150612c2d82612bc6565b604082019050919050565b60006020820190508181036000830152612c5181612c15565b9050919050565b60008190508160005260206000209050919050565b60006020601f8301049050919050565b600082821b905092915050565b600060088302612cba7fffffffffffffffffffffffffffffffffffffffffffffffffffffffffffffffff82612c7d565b612cc48683612c7d565b95508019841693508086168417925050509392505050565b6000819050919050565b6000612d01612cfc612cf784611f67565b612cdc565b611f67565b9050919050565b6000819050919050565b612d1b83612ce6565b612d2f612d2782612d08565b848454612c8a565b825550505050565b600090565b612d44612d37565b612d4f818484612d12565b505050565b5b81811015612d7357612d68600082612d3c565b600181019050612d55565b5050565b601f821115612db857612d8981612c58565b612d9284612c6d565b81016020851015612da1578190505b612db5612dad85612c6d565b830182612d54565b50505b505050565b600082821c905092915050565b6000612ddb60001984600802612dbd565b1980831691505092915050565b6000612df48383612dca565b9150826002028217905092915050565b612e0d82611eac565b67ffffffffffffffff811115612e2657612e256121b2565b5b612e3082546124cc565b612e3b828285612d77565b600060209050601f831160018114612e6e5760008415612e5c578287015190505b612e668582612de8565b865550612ece565b601f198416612e7c86612c58565b60005b82811015612ea457848901518255600182019150602085019450602081019050612e7f565b86831015612ec15784890151612ebd601f891682612dca565b8355505b6001600288020188555050505b505050505050565b600081519050919050565b600082825260208201905092915050565b6000612efd82612ed6565b612f078185612ee1565b9350612f17818560208601611ec8565b612f2081611efb565b840191505092915050565b6000608082019050612f406000830187611ffc565b612f4d6020830186611ffc565b612f5a6040830185612112565b8181036060830152612f6c8184612ef2565b905095945050505050565b600081519050612f8681611e1d565b92915050565b600060208284031215612fa257612fa1611de7565b5b6000612fb084828501612f77565b91505092915050565b7f4e487b7100000000000000000000000000000000000000000000000000000000600052601260045260246000fd5b6000612ff382611f67565b9150612ffe83611f67565b92508261300e5761300d612fb9565b5b828204905092915050565b600061302482611f67565b915061302f83611f67565b92508261303f5761303e612fb9565b5b828206905092915050565b7f4e487b7100000000000000000000000000000000000000000000000000000000600052603260045260246000fd5b7f4552433732313a206d696e7420746f20746865207a65726f2061646472657373600082015250565b60006130af602083611eb7565b91506130ba82613079565b602082019050919050565b600060208201905081810360008301526130de816130a2565b9050919050565b7f4552433732313a20746f6b656e20616c7265616479206d696e74656400000000600082015250565b600061311b601c83611eb7565b9150613126826130e5565b602082019050919050565b6000602082019050818103600083015261314a8161310e565b905091905056fea2646970667358221220818b9e888f69776635aa158d8f7d20f278c300e3dab4cb96e30ebeb2fa63203b64736f6c634300080f0033","opcodes":"PUSH1 0x80 PUSH1 0x40 MSTORE PUSH1 0x1 PUSH1 0x7 SSTORE CALLVALUE DUP1 ISZERO PUSH3 0x16 JUMPI PUSH1 0x0 DUP1 REVERT JUMPDEST POP PUSH1 0x40 MLOAD DUP1 PUSH1 0x40 ADD PUSH1 0x40 MSTORE DUP1 PUSH1 0x8 DUP2 MSTORE PUSH1 0x20 ADD PUSH32 0x57617272616E7479000000000000000000000000000000000000000000000000 DUP2 MSTORE POP PUSH1 0x40 MLOAD DUP1 PUSH1 0x40 ADD PUSH1 0x40 MSTORE DUP1 PUSH1 0x3 DUP2 MSTORE PUSH1 0x20 ADD PUSH32 0x5741520000000000000000000000000000000000000000000000000000000000 DUP2 MSTORE POP DUP2 PUSH1 0x0 SWAP1 DUP2 PUSH3 0x94 SWAP2 SWAP1 PUSH3 0x36A JUMP JUMPDEST POP DUP1 PUSH1 0x1 SWAP1 DUP2 PUSH3 0xA6 SWAP2 SWAP1 PUSH3 0x36A JUMP JUMPDEST POP POP POP CALLER PUSH1 0x8 PUSH1 0x0 PUSH2 0x100 EXP DUP2 SLOAD DUP2 PUSH20 0xFFFFFFFFFFFFFFFFFFFFFFFFFFFFFFFFFFFFFFFF MUL NOT AND SWAP1 DUP4 PUSH20 0xFFFFFFFFFFFFFFFFFFFFFFFFFFFFFFFFFFFFFFFF AND MUL OR SWAP1 SSTORE POP PUSH3 0x451 JUMP JUMPDEST PUSH1 0x0 DUP2 MLOAD SWAP1 POP SWAP2 SWAP1 POP JUMP JUMPDEST PUSH32 0x4E487B7100000000000000000000000000000000000000000000000000000000 PUSH1 0x0 MSTORE PUSH1 0x41 PUSH1 0x4 MSTORE PUSH1 0x24 PUSH1 0x0 REVERT JUMPDEST PUSH32 0x4E487B7100000000000000000000000000000000000000000000000000000000 PUSH1 0x0 MSTORE PUSH1 0x22 PUSH1 0x4 MSTORE PUSH1 0x24 PUSH1 0x0 REVERT JUMPDEST PUSH1 0x0 PUSH1 0x2 DUP3 DIV SWAP1 POP PUSH1 0x1 DUP3 AND DUP1 PUSH3 0x172 JUMPI PUSH1 0x7F DUP3 AND SWAP2 POP JUMPDEST PUSH1 0x20 DUP3 LT DUP2 SUB PUSH3 0x188 JUMPI PUSH3 0x187 PUSH3 0x12A JUMP JUMPDEST JUMPDEST POP SWAP2 SWAP1 POP JUMP JUMPDEST PUSH1 0x0 DUP2 SWAP1 POP DUP2 PUSH1 0x0 MSTORE PUSH1 0x20 PUSH1 0x0 KECCAK256 SWAP1 POP SWAP2 SWAP1 POP JUMP JUMPDEST PUSH1 0x0 PUSH1 0x20 PUSH1 0x1F DUP4 ADD DIV SWAP1 POP SWAP2 SWAP1 POP JUMP JUMPDEST PUSH1 0x0 DUP3 DUP3 SHL SWAP1 POP SWAP3 SWAP2 POP POP JUMP JUMPDEST PUSH1 0x0 PUSH1 0x8 DUP4 MUL PUSH3 0x1F2 PUSH32 0xFFFFFFFFFFFFFFFFFFFFFFFFFFFFFFFFFFFFFFFFFFFFFFFFFFFFFFFFFFFFFFFF DUP3 PUSH3 0x1B3 JUMP JUMPDEST PUSH3 0x1FE DUP7 DUP4 PUSH3 0x1B3 JUMP JUMPDEST SWAP6 POP DUP1 NOT DUP5 AND SWAP4 POP DUP1 DUP7 AND DUP5 OR SWAP3 POP POP POP SWAP4 SWAP3 POP POP POP JUMP JUMPDEST PUSH1 0x0 DUP2 SWAP1 POP SWAP2 SWAP1 POP JUMP JUMPDEST PUSH1 0x0 DUP2 SWAP1 POP SWAP2 SWAP1 POP JUMP JUMPDEST PUSH1 0x0 PUSH3 0x24B PUSH3 0x245 PUSH3 0x23F DUP5 PUSH3 0x216 JUMP JUMPDEST PUSH3 0x220 JUMP JUMPDEST PUSH3 0x216 JUMP JUMPDEST SWAP1 POP SWAP2 SWAP1 POP JUMP JUMPDEST PUSH1 0x0 DUP2 SWAP1 POP SWAP2 SWAP1 POP JUMP JUMPDEST PUSH3 0x267 DUP4 PUSH3 0x22A JUMP JUMPDEST PUSH3 0x27F PUSH3 0x276 DUP3 PUSH3 0x252 JUMP JUMPDEST DUP5 DUP5 SLOAD PUSH3 0x1C0 JUMP JUMPDEST DUP3 SSTORE POP POP POP POP JUMP JUMPDEST PUSH1 0x0 SWAP1 JUMP JUMPDEST PUSH3 0x296 PUSH3 0x287 JUMP JUMPDEST PUSH3 0x2A3 DUP2 DUP5 DUP5 PUSH3 0x25C JUMP JUMPDEST POP POP POP JUMP JUMPDEST JUMPDEST DUP2 DUP2 LT ISZERO PUSH3 0x2CB JUMPI PUSH3 0x2BF PUSH1 0x0 DUP3 PUSH3 0x28C JUMP JUMPDEST PUSH1 0x1 DUP2 ADD SWAP1 POP PUSH3 0x2A9 JUMP JUMPDEST POP POP JUMP JUMPDEST PUSH1 0x1F DUP3 GT ISZERO PUSH3 0x31A JUMPI PUSH3 0x2E4 DUP2 PUSH3 0x18E JUMP JUMPDEST PUSH3 0x2EF DUP5 PUSH3 0x1A3 JUMP JUMPDEST DUP2 ADD PUSH1 0x20 DUP6 LT ISZERO PUSH3 0x2FF JUMPI DUP2 SWAP1 POP JUMPDEST PUSH3 0x317 PUSH3 0x30E DUP6 PUSH3 0x1A3 JUMP JUMPDEST DUP4 ADD DUP3 PUSH3 0x2A8 JUMP JUMPDEST POP POP JUMPDEST POP POP POP JUMP JUMPDEST PUSH1 0x0 DUP3 DUP3 SHR SWAP1 POP SWAP3 SWAP2 POP POP JUMP JUMPDEST PUSH1 0x0 PUSH3 0x33F PUSH1 0x0 NOT DUP5 PUSH1 0x8 MUL PUSH3 0x31F JUMP JUMPDEST NOT DUP1 DUP4 AND SWAP2 POP POP SWAP3 SWAP2 POP POP JUMP JUMPDEST PUSH1 0x0 PUSH3 0x35A DUP4 DUP4 PUSH3 0x32C JUMP JUMPDEST SWAP2 POP DUP3 PUSH1 0x2 MUL DUP3 OR SWAP1 POP SWAP3 SWAP2 POP POP JUMP JUMPDEST PUSH3 0x375 DUP3 PUSH3 0xF0 JUMP JUMPDEST PUSH8 0xFFFFFFFFFFFFFFFF DUP2 GT ISZERO PUSH3 0x391 JUMPI PUSH3 0x390 PUSH3 0xFB JUMP JUMPDEST JUMPDEST PUSH3 0x39D DUP3 SLOAD PUSH3 0x159 JUMP JUMPDEST PUSH3 0x3AA DUP3 DUP3 DUP6 PUSH3 0x2CF JUMP JUMPDEST PUSH1 0x0 PUSH1 0x20 SWAP1 POP PUSH1 0x1F DUP4 GT PUSH1 0x1 DUP2 EQ PUSH3 0x3E2 JUMPI PUSH1 0x0 DUP5 ISZERO PUSH3 0x3CD JUMPI DUP3 DUP8 ADD MLOAD SWAP1 POP JUMPDEST PUSH3 0x3D9 DUP6 DUP3 PUSH3 0x34C JUMP JUMPDEST DUP7 SSTORE POP PUSH3 0x449 JUMP JUMPDEST PUSH1 0x1F NOT DUP5 AND PUSH3 0x3F2 DUP7 PUSH3 0x18E JUMP JUMPDEST PUSH1 0x0 JUMPDEST DUP3 DUP2 LT ISZERO PUSH3 0x41C JUMPI DUP5 DUP10 ADD MLOAD DUP3 SSTORE PUSH1 0x1 DUP3 ADD SWAP2 POP PUSH1 0x20 DUP6 ADD SWAP5 POP PUSH1 0x20 DUP2 ADD SWAP1 POP PUSH3 0x3F5 JUMP JUMPDEST DUP7 DUP4 LT ISZERO PUSH3 0x43C JUMPI DUP5 DUP10 ADD MLOAD PUSH3 0x438 PUSH1 0x1F DUP10 AND DUP3 PUSH3 0x32C JUMP JUMPDEST DUP4 SSTORE POP JUMPDEST PUSH1 0x1 PUSH1 0x2 DUP9 MUL ADD DUP9 SSTORE POP POP POP JUMPDEST POP POP POP POP POP POP JUMP JUMPDEST PUSH2 0x3187 DUP1 PUSH3 0x461 PUSH1 0x0 CODECOPY PUSH1 0x0 RETURN INVALID PUSH1 0x80 PUSH1 0x40 MSTORE CALLVALUE DUP1 ISZERO PUSH2 0x10 JUMPI PUSH1 0x0 DUP1 REVERT JUMPDEST POP PUSH1 0x4 CALLDATASIZE LT PUSH2 0x10B JUMPI PUSH1 0x0 CALLDATALOAD PUSH1 0xE0 SHR DUP1 PUSH4 0x70A08231 GT PUSH2 0xA2 JUMPI DUP1 PUSH4 0xA22CB465 GT PUSH2 0x71 JUMPI DUP1 PUSH4 0xA22CB465 EQ PUSH2 0x2B6 JUMPI DUP1 PUSH4 0xB88D4FDE EQ PUSH2 0x2D2 JUMPI DUP1 PUSH4 0xC87B56DD EQ PUSH2 0x2EE JUMPI DUP1 PUSH4 0xD204C45E EQ PUSH2 0x31E JUMPI DUP1 PUSH4 0xE985E9C5 EQ PUSH2 0x34E JUMPI PUSH2 0x10B JUMP JUMPDEST DUP1 PUSH4 0x70A08231 EQ PUSH2 0x22E JUMPI DUP1 PUSH4 0x8DA5CB5B EQ PUSH2 0x25E JUMPI DUP1 PUSH4 0x95D89B41 EQ PUSH2 0x27C JUMPI DUP1 PUSH4 0x9F987244 EQ PUSH2 0x29A JUMPI PUSH2 0x10B JUMP JUMPDEST DUP1 PUSH4 0x23B872DD GT PUSH2 0xDE JUMPI DUP1 PUSH4 0x23B872DD EQ PUSH2 0x1AA JUMPI DUP1 PUSH4 0x25A293C3 EQ PUSH2 0x1C6 JUMPI DUP1 PUSH4 0x42842E0E EQ PUSH2 0x1E2 JUMPI DUP1 PUSH4 0x6352211E EQ PUSH2 0x1FE JUMPI PUSH2 0x10B JUMP JUMPDEST DUP1 PUSH4 0x1FFC9A7 EQ PUSH2 0x110 JUMPI DUP1 PUSH4 0x6FDDE03 EQ PUSH2 0x140 JUMPI DUP1 PUSH4 0x81812FC EQ PUSH2 0x15E JUMPI DUP1 PUSH4 0x95EA7B3 EQ PUSH2 0x18E JUMPI JUMPDEST PUSH1 0x0 DUP1 REVERT JUMPDEST PUSH2 0x12A PUSH1 0x4 DUP1 CALLDATASIZE SUB DUP2 ADD SWAP1 PUSH2 0x125 SWAP2 SWAP1 PUSH2 0x1E49 JUMP JUMPDEST PUSH2 0x37E JUMP JUMPDEST PUSH1 0x40 MLOAD PUSH2 0x137 SWAP2 SWAP1 PUSH2 0x1E91 JUMP JUMPDEST PUSH1 0x40 MLOAD DUP1 SWAP2 SUB SWAP1 RETURN JUMPDEST PUSH2 0x148 PUSH2 0x460 JUMP JUMPDEST PUSH1 0x40 MLOAD PUSH2 0x155 SWAP2 SWAP1 PUSH2 0x1F45 JUMP JUMPDEST PUSH1 0x40 MLOAD DUP1 SWAP2 SUB SWAP1 RETURN JUMPDEST PUSH2 0x178 PUSH1 0x4 DUP1 CALLDATASIZE SUB DUP2 ADD SWAP1 PUSH2 0x173 SWAP2 SWAP1 PUSH2 0x1F9D JUMP JUMPDEST PUSH2 0x4F2 JUMP JUMPDEST PUSH1 0x40 MLOAD PUSH2 0x185 SWAP2 SWAP1 PUSH2 0x200B JUMP JUMPDEST PUSH1 0x40 MLOAD DUP1 SWAP2 SUB SWAP1 RETURN JUMPDEST PUSH2 0x1A8 PUSH1 0x4 DUP1 CALLDATASIZE SUB DUP2 ADD SWAP1 PUSH2 0x1A3 SWAP2 SWAP1 PUSH2 0x2052 JUMP JUMPDEST PUSH2 0x538 JUMP JUMPDEST STOP JUMPDEST PUSH2 0x1C4 PUSH1 0x4 DUP1 CALLDATASIZE SUB DUP2 ADD SWAP1 PUSH2 0x1BF SWAP2 SWAP1 PUSH2 0x2092 JUMP JUMPDEST PUSH2 0x66C JUMP JUMPDEST STOP JUMPDEST PUSH2 0x1E0 PUSH1 0x4 DUP1 CALLDATASIZE SUB DUP2 ADD SWAP1 PUSH2 0x1DB SWAP2 SWAP1 PUSH2 0x1F9D JUMP JUMPDEST PUSH2 0x6C5 JUMP JUMPDEST STOP JUMPDEST PUSH2 0x1FC PUSH1 0x4 DUP1 CALLDATASIZE SUB DUP2 ADD SWAP1 PUSH2 0x1F7 SWAP2 SWAP1 PUSH2 0x2092 JUMP JUMPDEST PUSH2 0x761 JUMP JUMPDEST STOP JUMPDEST PUSH2 0x218 PUSH1 0x4 DUP1 CALLDATASIZE SUB DUP2 ADD SWAP1 PUSH2 0x213 SWAP2 SWAP1 PUSH2 0x1F9D JUMP JUMPDEST PUSH2 0x781 JUMP JUMPDEST PUSH1 0x40 MLOAD PUSH2 0x225 SWAP2 SWAP1 PUSH2 0x200B JUMP JUMPDEST PUSH1 0x40 MLOAD DUP1 SWAP2 SUB SWAP1 RETURN JUMPDEST PUSH2 0x248 PUSH1 0x4 DUP1 CALLDATASIZE SUB DUP2 ADD SWAP1 PUSH2 0x243 SWAP2 SWAP1 PUSH2 0x20E5 JUMP JUMPDEST PUSH2 0x832 JUMP JUMPDEST PUSH1 0x40 MLOAD PUSH2 0x255 SWAP2 SWAP1 PUSH2 0x2121 JUMP JUMPDEST PUSH1 0x40 MLOAD DUP1 SWAP2 SUB SWAP1 RETURN JUMPDEST PUSH2 0x266 PUSH2 0x8E9 JUMP JUMPDEST PUSH1 0x40 MLOAD PUSH2 0x273 SWAP2 SWAP1 PUSH2 0x200B JUMP JUMPDEST PUSH1 0x40 MLOAD DUP1 SWAP2 SUB SWAP1 RETURN JUMPDEST PUSH2 0x284 PUSH2 0x90F JUMP JUMPDEST PUSH1 0x40 MLOAD PUSH2 0x291 SWAP2 SWAP1 PUSH2 0x1F45 JUMP JUMPDEST PUSH1 0x40 MLOAD DUP1 SWAP2 SUB SWAP1 RETURN JUMPDEST PUSH2 0x2B4 PUSH1 0x4 DUP1 CALLDATASIZE SUB DUP2 ADD SWAP1 PUSH2 0x2AF SWAP2 SWAP1 PUSH2 0x1F9D JUMP JUMPDEST PUSH2 0x9A1 JUMP JUMPDEST STOP JUMPDEST PUSH2 0x2D0 PUSH1 0x4 DUP1 CALLDATASIZE SUB DUP2 ADD SWAP1 PUSH2 0x2CB SWAP2 SWAP1 PUSH2 0x2168 JUMP JUMPDEST PUSH2 0xA4E JUMP JUMPDEST STOP JUMPDEST PUSH2 0x2EC PUSH1 0x4 DUP1 CALLDATASIZE SUB DUP2 ADD SWAP1 PUSH2 0x2E7 SWAP2 SWAP1 PUSH2 0x22DD JUMP JUMPDEST PUSH2 0xA5D JUMP JUMPDEST STOP JUMPDEST PUSH2 0x308 PUSH1 0x4 DUP1 CALLDATASIZE SUB DUP2 ADD SWAP1 PUSH2 0x303 SWAP2 SWAP1 PUSH2 0x1F9D JUMP JUMPDEST PUSH2 0xAB8 JUMP JUMPDEST PUSH1 0x40 MLOAD PUSH2 0x315 SWAP2 SWAP1 PUSH2 0x1F45 JUMP JUMPDEST PUSH1 0x40 MLOAD DUP1 SWAP2 SUB SWAP1 RETURN JUMPDEST PUSH2 0x338 PUSH1 0x4 DUP1 CALLDATASIZE SUB DUP2 ADD SWAP1 PUSH2 0x333 SWAP2 SWAP1 PUSH2 0x2401 JUMP JUMPDEST PUSH2 0xACA JUMP JUMPDEST PUSH1 0x40 MLOAD PUSH2 0x345 SWAP2 SWAP1 PUSH2 0x2121 JUMP JUMPDEST PUSH1 0x40 MLOAD DUP1 SWAP2 SUB SWAP1 RETURN JUMPDEST PUSH2 0x368 PUSH1 0x4 DUP1 CALLDATASIZE SUB DUP2 ADD SWAP1 PUSH2 0x363 SWAP2 SWAP1 PUSH2 0x245D JUMP JUMPDEST PUSH2 0xB08 JUMP JUMPDEST PUSH1 0x40 MLOAD PUSH2 0x375 SWAP2 SWAP1 PUSH2 0x1E91 JUMP JUMPDEST PUSH1 0x40 MLOAD DUP1 SWAP2 SUB SWAP1 RETURN JUMPDEST PUSH1 0x0 PUSH32 0x80AC58CD00000000000000000000000000000000000000000000000000000000 PUSH28 0xFFFFFFFFFFFFFFFFFFFFFFFFFFFFFFFFFFFFFFFFFFFFFFFFFFFFFFFF NOT AND DUP3 PUSH28 0xFFFFFFFFFFFFFFFFFFFFFFFFFFFFFFFFFFFFFFFFFFFFFFFFFFFFFFFF NOT AND EQ DUP1 PUSH2 0x449 JUMPI POP PUSH32 0x5B5E139F00000000000000000000000000000000000000000000000000000000 PUSH28 0xFFFFFFFFFFFFFFFFFFFFFFFFFFFFFFFFFFFFFFFFFFFFFFFFFFFFFFFF NOT AND DUP3 PUSH28 0xFFFFFFFFFFFFFFFFFFFFFFFFFFFFFFFFFFFFFFFFFFFFFFFFFFFFFFFF NOT AND EQ JUMPDEST DUP1 PUSH2 0x459 JUMPI POP PUSH2 0x458 DUP3 PUSH2 0xB9C JUMP JUMPDEST JUMPDEST SWAP1 POP SWAP2 SWAP1 POP JUMP JUMPDEST PUSH1 0x60 PUSH1 0x0 DUP1 SLOAD PUSH2 0x46F SWAP1 PUSH2 0x24CC JUMP JUMPDEST DUP1 PUSH1 0x1F ADD PUSH1 0x20 DUP1 SWAP2 DIV MUL PUSH1 0x20 ADD PUSH1 0x40 MLOAD SWAP1 DUP2 ADD PUSH1 0x40 MSTORE DUP1 SWAP3 SWAP2 SWAP1 DUP2 DUP2 MSTORE PUSH1 0x20 ADD DUP3 DUP1 SLOAD PUSH2 0x49B SWAP1 PUSH2 0x24CC JUMP JUMPDEST DUP1 ISZERO PUSH2 0x4E8 JUMPI DUP1 PUSH1 0x1F LT PUSH2 0x4BD JUMPI PUSH2 0x100 DUP1 DUP4 SLOAD DIV MUL DUP4 MSTORE SWAP2 PUSH1 0x20 ADD SWAP2 PUSH2 0x4E8 JUMP JUMPDEST DUP3 ADD SWAP2 SWAP1 PUSH1 0x0 MSTORE PUSH1 0x20 PUSH1 0x0 KECCAK256 SWAP1 JUMPDEST DUP2 SLOAD DUP2 MSTORE SWAP1 PUSH1 0x1 ADD SWAP1 PUSH1 0x20 ADD DUP1 DUP4 GT PUSH2 0x4CB JUMPI DUP3 SWAP1 SUB PUSH1 0x1F AND DUP3 ADD SWAP2 JUMPDEST POP POP POP POP POP SWAP1 POP SWAP1 JUMP JUMPDEST PUSH1 0x0 PUSH2 0x4FD DUP3 PUSH2 0xC06 JUMP JUMPDEST PUSH1 0x4 PUSH1 0x0 DUP4 DUP2 MSTORE PUSH1 0x20 ADD SWAP1 DUP2 MSTORE PUSH1 0x20 ADD PUSH1 0x0 KECCAK256 PUSH1 0x0 SWAP1 SLOAD SWAP1 PUSH2 0x100 EXP SWAP1 DIV PUSH20 0xFFFFFFFFFFFFFFFFFFFFFFFFFFFFFFFFFFFFFFFF AND SWAP1 POP SWAP2 SWAP1 POP JUMP JUMPDEST PUSH1 0x0 PUSH1 0x2 PUSH1 0x0 DUP4 DUP2 MSTORE PUSH1 0x20 ADD SWAP1 DUP2 MSTORE PUSH1 0x20 ADD PUSH1 0x0 KECCAK256 PUSH1 0x0 SWAP1 SLOAD SWAP1 PUSH2 0x100 EXP SWAP1 DIV PUSH20 0xFFFFFFFFFFFFFFFFFFFFFFFFFFFFFFFFFFFFFFFF AND SWAP1 POP DUP1 PUSH20 0xFFFFFFFFFFFFFFFFFFFFFFFFFFFFFFFFFFFFFFFF AND DUP4 PUSH20 0xFFFFFFFFFFFFFFFFFFFFFFFFFFFFFFFFFFFFFFFF AND SUB PUSH2 0x5DE JUMPI PUSH1 0x40 MLOAD PUSH32 0x8C379A000000000000000000000000000000000000000000000000000000000 DUP2 MSTORE PUSH1 0x4 ADD PUSH2 0x5D5 SWAP1 PUSH2 0x256F JUMP JUMPDEST PUSH1 0x40 MLOAD DUP1 SWAP2 SUB SWAP1 REVERT JUMPDEST DUP1 PUSH20 0xFFFFFFFFFFFFFFFFFFFFFFFFFFFFFFFFFFFFFFFF AND CALLER PUSH20 0xFFFFFFFFFFFFFFFFFFFFFFFFFFFFFFFFFFFFFFFF AND EQ DUP1 PUSH2 0x61E JUMPI POP PUSH2 0x61D DUP2 CALLER PUSH2 0xB08 JUMP JUMPDEST JUMPDEST PUSH2 0x65D JUMPI PUSH1 0x40 MLOAD PUSH32 0x8C379A000000000000000000000000000000000000000000000000000000000 DUP2 MSTORE PUSH1 0x4 ADD PUSH2 0x654 SWAP1 PUSH2 0x2601 JUMP JUMPDEST PUSH1 0x40 MLOAD DUP1 SWAP2 SUB SWAP1 REVERT JUMPDEST PUSH2 0x667 DUP4 DUP4 PUSH2 0xC51 JUMP JUMPDEST POP POP POP JUMP JUMPDEST PUSH2 0x676 CALLER DUP3 PUSH2 0xD35 JUMP JUMPDEST PUSH2 0x6B5 JUMPI PUSH1 0x40 MLOAD PUSH32 0x8C379A000000000000000000000000000000000000000000000000000000000 DUP2 MSTORE PUSH1 0x4 ADD PUSH2 0x6AC SWAP1 PUSH2 0x2693 JUMP JUMPDEST PUSH1 0x40 MLOAD DUP1 SWAP2 SUB SWAP1 REVERT JUMPDEST PUSH2 0x6C0 DUP4 DUP4 DUP4 PUSH2 0xDF5 JUMP JUMPDEST POP POP POP JUMP JUMPDEST PUSH1 0x8 PUSH1 0x0 SWAP1 SLOAD SWAP1 PUSH2 0x100 EXP SWAP1 DIV PUSH20 0xFFFFFFFFFFFFFFFFFFFFFFFFFFFFFFFFFFFFFFFF AND PUSH20 0xFFFFFFFFFFFFFFFFFFFFFFFFFFFFFFFFFFFFFFFF AND CALLER PUSH20 0xFFFFFFFFFFFFFFFFFFFFFFFFFFFFFFFFFFFFFFFF AND EQ PUSH2 0x755 JUMPI PUSH1 0x40 MLOAD PUSH32 0x8C379A000000000000000000000000000000000000000000000000000000000 DUP2 MSTORE PUSH1 0x4 ADD PUSH2 0x74C SWAP1 PUSH2 0x2725 JUMP JUMPDEST PUSH1 0x40 MLOAD DUP1 SWAP2 SUB SWAP1 REVERT JUMPDEST PUSH2 0x75E DUP2 PUSH2 0x10B1 JUMP JUMPDEST POP JUMP JUMPDEST PUSH2 0x77C DUP4 DUP4 DUP4 PUSH1 0x40 MLOAD DUP1 PUSH1 0x20 ADD PUSH1 0x40 MSTORE DUP1 PUSH1 0x0 DUP2 MSTORE POP PUSH2 0xA5D JUMP JUMPDEST POP POP POP JUMP JUMPDEST PUSH1 0x0 DUP1 PUSH1 0x2 PUSH1 0x0 DUP5 DUP2 MSTORE PUSH1 0x20 ADD SWAP1 DUP2 MSTORE PUSH1 0x20 ADD PUSH1 0x0 KECCAK256 PUSH1 0x0 SWAP1 SLOAD SWAP1 PUSH2 0x100 EXP SWAP1 DIV PUSH20 0xFFFFFFFFFFFFFFFFFFFFFFFFFFFFFFFFFFFFFFFF AND SWAP1 POP PUSH1 0x0 PUSH20 0xFFFFFFFFFFFFFFFFFFFFFFFFFFFFFFFFFFFFFFFF AND DUP2 PUSH20 0xFFFFFFFFFFFFFFFFFFFFFFFFFFFFFFFFFFFFFFFF AND SUB PUSH2 0x829 JUMPI PUSH1 0x40 MLOAD PUSH32 0x8C379A000000000000000000000000000000000000000000000000000000000 DUP2 MSTORE PUSH1 0x4 ADD PUSH2 0x820 SWAP1 PUSH2 0x2791 JUMP JUMPDEST PUSH1 0x40 MLOAD DUP1 SWAP2 SUB SWAP1 REVERT JUMPDEST DUP1 SWAP2 POP POP SWAP2 SWAP1 POP JUMP JUMPDEST PUSH1 0x0 DUP1 PUSH20 0xFFFFFFFFFFFFFFFFFFFFFFFFFFFFFFFFFFFFFFFF AND DUP3 PUSH20 0xFFFFFFFFFFFFFFFFFFFFFFFFFFFFFFFFFFFFFFFF AND SUB PUSH2 0x8A2 JUMPI PUSH1 0x40 MLOAD PUSH32 0x8C379A000000000000000000000000000000000000000000000000000000000 DUP2 MSTORE PUSH1 0x4 ADD PUSH2 0x899 SWAP1 PUSH2 0x2823 JUMP JUMPDEST PUSH1 0x40 MLOAD DUP1 SWAP2 SUB SWAP1 REVERT JUMPDEST PUSH1 0x3 PUSH1 0x0 DUP4 PUSH20 0xFFFFFFFFFFFFFFFFFFFFFFFFFFFFFFFFFFFFFFFF AND PUSH20 0xFFFFFFFFFFFFFFFFFFFFFFFFFFFFFFFFFFFFFFFF AND DUP2 MSTORE PUSH1 0x20 ADD SWAP1 DUP2 MSTORE PUSH1 0x20 ADD PUSH1 0x0 KECCAK256 SLOAD SWAP1 POP SWAP2 SWAP1 POP JUMP JUMPDEST PUSH1 0x8 PUSH1 0x0 SWAP1 SLOAD SWAP1 PUSH2 0x100 EXP SWAP1 DIV PUSH20 0xFFFFFFFFFFFFFFFFFFFFFFFFFFFFFFFFFFFFFFFF AND DUP2 JUMP JUMPDEST PUSH1 0x60 PUSH1 0x1 DUP1 SLOAD PUSH2 0x91E SWAP1 PUSH2 0x24CC JUMP JUMPDEST DUP1 PUSH1 0x1F ADD PUSH1 0x20 DUP1 SWAP2 DIV MUL PUSH1 0x20 ADD PUSH1 0x40 MLOAD SWAP1 DUP2 ADD PUSH1 0x40 MSTORE DUP1 SWAP3 SWAP2 SWAP1 DUP2 DUP2 MSTORE PUSH1 0x20 ADD DUP3 DUP1 SLOAD PUSH2 0x94A SWAP1 PUSH2 0x24CC JUMP JUMPDEST DUP1 ISZERO PUSH2 0x997 JUMPI DUP1 PUSH1 0x1F LT PUSH2 0x96C JUMPI PUSH2 0x100 DUP1 DUP4 SLOAD DIV MUL DUP4 MSTORE SWAP2 PUSH1 0x20 ADD SWAP2 PUSH2 0x997 JUMP JUMPDEST DUP3 ADD SWAP2 SWAP1 PUSH1 0x0 MSTORE PUSH1 0x20 PUSH1 0x0 KECCAK256 SWAP1 JUMPDEST DUP2 SLOAD DUP2 MSTORE SWAP1 PUSH1 0x1 ADD SWAP1 PUSH1 0x20 ADD DUP1 DUP4 GT PUSH2 0x97A JUMPI DUP3 SWAP1 SUB PUSH1 0x1F AND DUP3 ADD SWAP2 JUMPDEST POP POP POP POP POP SWAP1 POP SWAP1 JUMP JUMPDEST PUSH1 0x8 PUSH1 0x0 SWAP1 SLOAD SWAP1 PUSH2 0x100 EXP SWAP1 DIV PUSH20 0xFFFFFFFFFFFFFFFFFFFFFFFFFFFFFFFFFFFFFFFF AND PUSH20 0xFFFFFFFFFFFFFFFFFFFFFFFFFFFFFFFFFFFFFFFF AND CALLER PUSH20 0xFFFFFFFFFFFFFFFFFFFFFFFFFFFFFFFFFFFFFFFF AND EQ PUSH2 0xA31 JUMPI PUSH1 0x40 MLOAD PUSH32 0x8C379A000000000000000000000000000000000000000000000000000000000 DUP2 MSTORE PUSH1 0x4 ADD PUSH2 0xA28 SWAP1 PUSH2 0x2725 JUMP JUMPDEST PUSH1 0x40 MLOAD DUP1 SWAP2 SUB SWAP1 REVERT JUMPDEST PUSH1 0x0 PUSH2 0xA3C DUP3 PUSH2 0x781 JUMP JUMPDEST SWAP1 POP PUSH2 0xA4A DUP2 PUSH1 0x0 DUP5 PUSH2 0x10BD JUMP JUMPDEST POP POP JUMP JUMPDEST PUSH2 0xA59 CALLER DUP4 DUP4 PUSH2 0x1269 JUMP JUMPDEST POP POP JUMP JUMPDEST PUSH2 0xA67 CALLER DUP4 PUSH2 0xD35 JUMP JUMPDEST PUSH2 0xAA6 JUMPI PUSH1 0x40 MLOAD PUSH32 0x8C379A000000000000000000000000000000000000000000000000000000000 DUP2 MSTORE PUSH1 0x4 ADD PUSH2 0xA9D SWAP1 PUSH2 0x2693 JUMP JUMPDEST PUSH1 0x40 MLOAD DUP1 SWAP2 SUB SWAP1 REVERT JUMPDEST PUSH2 0xAB2 DUP5 DUP5 DUP5 DUP5 PUSH2 0x13D5 JUMP JUMPDEST POP POP POP POP JUMP JUMPDEST PUSH1 0x60 PUSH2 0xAC3 DUP3 PUSH2 0x1431 JUMP JUMPDEST SWAP1 POP SWAP2 SWAP1 POP JUMP JUMPDEST PUSH1 0x0 DUP1 PUSH1 0x7 SLOAD SWAP1 POP PUSH2 0xADC DUP5 DUP3 PUSH2 0x1543 JUMP JUMPDEST PUSH2 0xAE6 DUP2 DUP5 PUSH2 0x1561 JUMP JUMPDEST PUSH1 0x7 PUSH1 0x0 DUP2 SLOAD DUP1 SWAP3 SWAP2 SWAP1 PUSH2 0xAF9 SWAP1 PUSH2 0x2872 JUMP JUMPDEST SWAP2 SWAP1 POP SSTORE POP DUP1 SWAP2 POP POP SWAP3 SWAP2 POP POP JUMP JUMPDEST PUSH1 0x0 PUSH1 0x5 PUSH1 0x0 DUP5 PUSH20 0xFFFFFFFFFFFFFFFFFFFFFFFFFFFFFFFFFFFFFFFF AND PUSH20 0xFFFFFFFFFFFFFFFFFFFFFFFFFFFFFFFFFFFFFFFF AND DUP2 MSTORE PUSH1 0x20 ADD SWAP1 DUP2 MSTORE PUSH1 0x20 ADD PUSH1 0x0 KECCAK256 PUSH1 0x0 DUP4 PUSH20 0xFFFFFFFFFFFFFFFFFFFFFFFFFFFFFFFFFFFFFFFF AND PUSH20 0xFFFFFFFFFFFFFFFFFFFFFFFFFFFFFFFFFFFFFFFF AND DUP2 MSTORE PUSH1 0x20 ADD SWAP1 DUP2 MSTORE PUSH1 0x20 ADD PUSH1 0x0 KECCAK256 PUSH1 0x0 SWAP1 SLOAD SWAP1 PUSH2 0x100 EXP SWAP1 DIV PUSH1 0xFF AND SWAP1 POP SWAP3 SWAP2 POP POP JUMP JUMPDEST PUSH1 0x0 PUSH32 0x1FFC9A700000000000000000000000000000000000000000000000000000000 PUSH28 0xFFFFFFFFFFFFFFFFFFFFFFFFFFFFFFFFFFFFFFFFFFFFFFFFFFFFFFFF NOT AND DUP3 PUSH28 0xFFFFFFFFFFFFFFFFFFFFFFFFFFFFFFFFFFFFFFFFFFFFFFFFFFFFFFFF NOT AND EQ SWAP1 POP SWAP2 SWAP1 POP JUMP JUMPDEST PUSH2 0xC0F DUP2 PUSH2 0x15CE JUMP JUMPDEST PUSH2 0xC4E JUMPI PUSH1 0x40 MLOAD PUSH32 0x8C379A000000000000000000000000000000000000000000000000000000000 DUP2 MSTORE PUSH1 0x4 ADD PUSH2 0xC45 SWAP1 PUSH2 0x2791 JUMP JUMPDEST PUSH1 0x40 MLOAD DUP1 SWAP2 SUB SWAP1 REVERT JUMPDEST POP JUMP JUMPDEST DUP2 PUSH1 0x4 PUSH1 0x0 DUP4 DUP2 MSTORE PUSH1 0x20 ADD SWAP1 DUP2 MSTORE PUSH1 0x20 ADD PUSH1 0x0 KECCAK256 PUSH1 0x0 PUSH2 0x100 EXP DUP2 SLOAD DUP2 PUSH20 0xFFFFFFFFFFFFFFFFFFFFFFFFFFFFFFFFFFFFFFFF MUL NOT AND SWAP1 DUP4 PUSH20 0xFFFFFFFFFFFFFFFFFFFFFFFFFFFFFFFFFFFFFFFF AND MUL OR SWAP1 SSTORE POP DUP1 DUP3 PUSH20 0xFFFFFFFFFFFFFFFFFFFFFFFFFFFFFFFFFFFFFFFF AND PUSH1 0x2 PUSH1 0x0 DUP5 DUP2 MSTORE PUSH1 0x20 ADD SWAP1 DUP2 MSTORE PUSH1 0x20 ADD PUSH1 0x0 KECCAK256 PUSH1 0x0 SWAP1 SLOAD SWAP1 PUSH2 0x100 EXP SWAP1 DIV PUSH20 0xFFFFFFFFFFFFFFFFFFFFFFFFFFFFFFFFFFFFFFFF AND PUSH20 0xFFFFFFFFFFFFFFFFFFFFFFFFFFFFFFFFFFFFFFFF AND PUSH32 0x8C5BE1E5EBEC7D5BD14F71427D1E84F3DD0314C0F7B2291E5B200AC8C7C3B925 PUSH1 0x40 MLOAD PUSH1 0x40 MLOAD DUP1 SWAP2 SUB SWAP1 LOG4 POP POP JUMP JUMPDEST PUSH1 0x0 DUP1 PUSH1 0x2 PUSH1 0x0 DUP5 DUP2 MSTORE PUSH1 0x20 ADD SWAP1 DUP2 MSTORE PUSH1 0x20 ADD PUSH1 0x0 KECCAK256 PUSH1 0x0 SWAP1 SLOAD SWAP1 PUSH2 0x100 EXP SWAP1 DIV PUSH20 0xFFFFFFFFFFFFFFFFFFFFFFFFFFFFFFFFFFFFFFFF AND SWAP1 POP DUP1 PUSH20 0xFFFFFFFFFFFFFFFFFFFFFFFFFFFFFFFFFFFFFFFF AND DUP5 PUSH20 0xFFFFFFFFFFFFFFFFFFFFFFFFFFFFFFFFFFFFFFFF AND EQ DUP1 PUSH2 0xDAE JUMPI POP PUSH2 0xDAD DUP2 DUP6 PUSH2 0xB08 JUMP JUMPDEST JUMPDEST DUP1 PUSH2 0xDEC JUMPI POP DUP4 PUSH20 0xFFFFFFFFFFFFFFFFFFFFFFFFFFFFFFFFFFFFFFFF AND PUSH2 0xDD4 DUP5 PUSH2 0x4F2 JUMP JUMPDEST PUSH20 0xFFFFFFFFFFFFFFFFFFFFFFFFFFFFFFFFFFFFFFFF AND EQ JUMPDEST SWAP2 POP POP SWAP3 SWAP2 POP POP JUMP JUMPDEST DUP3 PUSH20 0xFFFFFFFFFFFFFFFFFFFFFFFFFFFFFFFFFFFFFFFF AND PUSH1 0x2 PUSH1 0x0 DUP4 DUP2 MSTORE PUSH1 0x20 ADD SWAP1 DUP2 MSTORE PUSH1 0x20 ADD PUSH1 0x0 KECCAK256 PUSH1 0x0 SWAP1 SLOAD SWAP1 PUSH2 0x100 EXP SWAP1 DIV PUSH20 0xFFFFFFFFFFFFFFFFFFFFFFFFFFFFFFFFFFFFFFFF AND PUSH20 0xFFFFFFFFFFFFFFFFFFFFFFFFFFFFFFFFFFFFFFFF AND EQ PUSH2 0xE96 JUMPI PUSH1 0x40 MLOAD PUSH32 0x8C379A000000000000000000000000000000000000000000000000000000000 DUP2 MSTORE PUSH1 0x4 ADD PUSH2 0xE8D SWAP1 PUSH2 0x292C JUMP JUMPDEST PUSH1 0x40 MLOAD DUP1 SWAP2 SUB SWAP1 REVERT JUMPDEST PUSH1 0x0 PUSH20 0xFFFFFFFFFFFFFFFFFFFFFFFFFFFFFFFFFFFFFFFF AND DUP3 PUSH20 0xFFFFFFFFFFFFFFFFFFFFFFFFFFFFFFFFFFFFFFFF AND SUB PUSH2 0xF05 JUMPI PUSH1 0x40 MLOAD PUSH32 0x8C379A000000000000000000000000000000000000000000000000000000000 DUP2 MSTORE PUSH1 0x4 ADD PUSH2 0xEFC SWAP1 PUSH2 0x29BE JUMP JUMPDEST PUSH1 0x40 MLOAD DUP1 SWAP2 SUB SWAP1 REVERT JUMPDEST PUSH2 0xF10 DUP4 DUP4 DUP4 PUSH2 0x163A JUMP JUMPDEST PUSH1 0x4 PUSH1 0x0 DUP3 DUP2 MSTORE PUSH1 0x20 ADD SWAP1 DUP2 MSTORE PUSH1 0x20 ADD PUSH1 0x0 KECCAK256 PUSH1 0x0 PUSH2 0x100 EXP DUP2 SLOAD SWAP1 PUSH20 0xFFFFFFFFFFFFFFFFFFFFFFFFFFFFFFFFFFFFFFFF MUL NOT AND SWAP1 SSTORE PUSH1 0x1 PUSH1 0x3 PUSH1 0x0 DUP6 PUSH20 0xFFFFFFFFFFFFFFFFFFFFFFFFFFFFFFFFFFFFFFFF AND PUSH20 0xFFFFFFFFFFFFFFFFFFFFFFFFFFFFFFFFFFFFFFFF AND DUP2 MSTORE PUSH1 0x20 ADD SWAP1 DUP2 MSTORE PUSH1 0x20 ADD PUSH1 0x0 KECCAK256 PUSH1 0x0 DUP3 DUP3 SLOAD PUSH2 0xF96 SWAP2 SWAP1 PUSH2 0x29DE JUMP JUMPDEST SWAP3 POP POP DUP2 SWAP1 SSTORE POP PUSH1 0x1 PUSH1 0x3 PUSH1 0x0 DUP5 PUSH20 0xFFFFFFFFFFFFFFFFFFFFFFFFFFFFFFFFFFFFFFFF AND PUSH20 0xFFFFFFFFFFFFFFFFFFFFFFFFFFFFFFFFFFFFFFFF AND DUP2 MSTORE PUSH1 0x20 ADD SWAP1 DUP2 MSTORE PUSH1 0x20 ADD PUSH1 0x0 KECCAK256 PUSH1 0x0 DUP3 DUP3 SLOAD PUSH2 0xFED SWAP2 SWAP1 PUSH2 0x2A12 JUMP JUMPDEST SWAP3 POP POP DUP2 SWAP1 SSTORE POP DUP2 PUSH1 0x2 PUSH1 0x0 DUP4 DUP2 MSTORE PUSH1 0x20 ADD SWAP1 DUP2 MSTORE PUSH1 0x20 ADD PUSH1 0x0 KECCAK256 PUSH1 0x0 PUSH2 0x100 EXP DUP2 SLOAD DUP2 PUSH20 0xFFFFFFFFFFFFFFFFFFFFFFFFFFFFFFFFFFFFFFFF MUL NOT AND SWAP1 DUP4 PUSH20 0xFFFFFFFFFFFFFFFFFFFFFFFFFFFFFFFFFFFFFFFF AND MUL OR SWAP1 SSTORE POP DUP1 DUP3 PUSH20 0xFFFFFFFFFFFFFFFFFFFFFFFFFFFFFFFFFFFFFFFF AND DUP5 PUSH20 0xFFFFFFFFFFFFFFFFFFFFFFFFFFFFFFFFFFFFFFFF AND PUSH32 0xDDF252AD1BE2C89B69C2B068FC378DAA952BA7F163C4A11628F55A4DF523B3EF PUSH1 0x40 MLOAD PUSH1 0x40 MLOAD DUP1 SWAP2 SUB SWAP1 LOG4 PUSH2 0x10AC DUP4 DUP4 DUP4 PUSH2 0x163F JUMP JUMPDEST POP POP POP JUMP JUMPDEST PUSH2 0x10BA DUP2 PUSH2 0x1644 JUMP JUMPDEST POP JUMP JUMPDEST PUSH2 0x10C8 DUP4 DUP4 DUP4 PUSH2 0x163A JUMP JUMPDEST PUSH1 0x4 PUSH1 0x0 DUP3 DUP2 MSTORE PUSH1 0x20 ADD SWAP1 DUP2 MSTORE PUSH1 0x20 ADD PUSH1 0x0 KECCAK256 PUSH1 0x0 PUSH2 0x100 EXP DUP2 SLOAD SWAP1 PUSH20 0xFFFFFFFFFFFFFFFFFFFFFFFFFFFFFFFFFFFFFFFF MUL NOT AND SWAP1 SSTORE PUSH1 0x1 PUSH1 0x3 PUSH1 0x0 DUP6 PUSH20 0xFFFFFFFFFFFFFFFFFFFFFFFFFFFFFFFFFFFFFFFF AND PUSH20 0xFFFFFFFFFFFFFFFFFFFFFFFFFFFFFFFFFFFFFFFF AND DUP2 MSTORE PUSH1 0x20 ADD SWAP1 DUP2 MSTORE PUSH1 0x20 ADD PUSH1 0x0 KECCAK256 PUSH1 0x0 DUP3 DUP3 SLOAD PUSH2 0x114E SWAP2 SWAP1 PUSH2 0x29DE JUMP JUMPDEST SWAP3 POP POP DUP2 SWAP1 SSTORE POP PUSH1 0x1 PUSH1 0x3 PUSH1 0x0 DUP5 PUSH20 0xFFFFFFFFFFFFFFFFFFFFFFFFFFFFFFFFFFFFFFFF AND PUSH20 0xFFFFFFFFFFFFFFFFFFFFFFFFFFFFFFFFFFFFFFFF AND DUP2 MSTORE PUSH1 0x20 ADD SWAP1 DUP2 MSTORE PUSH1 0x20 ADD PUSH1 0x0 KECCAK256 PUSH1 0x0 DUP3 DUP3 SLOAD PUSH2 0x11A5 SWAP2 SWAP1 PUSH2 0x2A12 JUMP JUMPDEST SWAP3 POP POP DUP2 SWAP1 SSTORE POP DUP2 PUSH1 0x2 PUSH1 0x0 DUP4 DUP2 MSTORE PUSH1 0x20 ADD SWAP1 DUP2 MSTORE PUSH1 0x20 ADD PUSH1 0x0 KECCAK256 PUSH1 0x0 PUSH2 0x100 EXP DUP2 SLOAD DUP2 PUSH20 0xFFFFFFFFFFFFFFFFFFFFFFFFFFFFFFFFFFFFFFFF MUL NOT AND SWAP1 DUP4 PUSH20 0xFFFFFFFFFFFFFFFFFFFFFFFFFFFFFFFFFFFFFFFF AND MUL OR SWAP1 SSTORE POP DUP1 DUP3 PUSH20 0xFFFFFFFFFFFFFFFFFFFFFFFFFFFFFFFFFFFFFFFF AND DUP5 PUSH20 0xFFFFFFFFFFFFFFFFFFFFFFFFFFFFFFFFFFFFFFFF AND PUSH32 0xDDF252AD1BE2C89B69C2B068FC378DAA952BA7F163C4A11628F55A4DF523B3EF PUSH1 0x40 MLOAD PUSH1 0x40 MLOAD DUP1 SWAP2 SUB SWAP1 LOG4 PUSH2 0x1264 DUP4 DUP4 DUP4 PUSH2 0x163F JUMP JUMPDEST POP POP POP JUMP JUMPDEST DUP2 PUSH20 0xFFFFFFFFFFFFFFFFFFFFFFFFFFFFFFFFFFFFFFFF AND DUP4 PUSH20 0xFFFFFFFFFFFFFFFFFFFFFFFFFFFFFFFFFFFFFFFF AND SUB PUSH2 0x12D7 JUMPI PUSH1 0x40 MLOAD PUSH32 0x8C379A000000000000000000000000000000000000000000000000000000000 DUP2 MSTORE PUSH1 0x4 ADD PUSH2 0x12CE SWAP1 PUSH2 0x2AB4 JUMP JUMPDEST PUSH1 0x40 MLOAD DUP1 SWAP2 SUB SWAP1 REVERT JUMPDEST DUP1 PUSH1 0x5 PUSH1 0x0 DUP6 PUSH20 0xFFFFFFFFFFFFFFFFFFFFFFFFFFFFFFFFFFFFFFFF AND PUSH20 0xFFFFFFFFFFFFFFFFFFFFFFFFFFFFFFFFFFFFFFFF AND DUP2 MSTORE PUSH1 0x20 ADD SWAP1 DUP2 MSTORE PUSH1 0x20 ADD PUSH1 0x0 KECCAK256 PUSH1 0x0 DUP5 PUSH20 0xFFFFFFFFFFFFFFFFFFFFFFFFFFFFFFFFFFFFFFFF AND PUSH20 0xFFFFFFFFFFFFFFFFFFFFFFFFFFFFFFFFFFFFFFFF AND DUP2 MSTORE PUSH1 0x20 ADD SWAP1 DUP2 MSTORE PUSH1 0x20 ADD PUSH1 0x0 KECCAK256 PUSH1 0x0 PUSH2 0x100 EXP DUP2 SLOAD DUP2 PUSH1 0xFF MUL NOT AND SWAP1 DUP4 ISZERO ISZERO MUL OR SWAP1 SSTORE POP DUP2 PUSH20 0xFFFFFFFFFFFFFFFFFFFFFFFFFFFFFFFFFFFFFFFF AND DUP4 PUSH20 0xFFFFFFFFFFFFFFFFFFFFFFFFFFFFFFFFFFFFFFFF AND PUSH32 0x17307EAB39AB6107E8899845AD3D59BD9653F200F220920489CA2B5937696C31 DUP4 PUSH1 0x40 MLOAD PUSH2 0x13C8 SWAP2 SWAP1 PUSH2 0x1E91 JUMP JUMPDEST PUSH1 0x40 MLOAD DUP1 SWAP2 SUB SWAP1 LOG3 POP POP POP JUMP JUMPDEST PUSH2 0x13E0 DUP5 DUP5 DUP5 PUSH2 0xDF5 JUMP JUMPDEST PUSH2 0x13EC DUP5 DUP5 DUP5 DUP5 PUSH2 0x1697 JUMP JUMPDEST PUSH2 0x142B JUMPI PUSH1 0x40 MLOAD PUSH32 0x8C379A000000000000000000000000000000000000000000000000000000000 DUP2 MSTORE PUSH1 0x4 ADD PUSH2 0x1422 SWAP1 PUSH2 0x2B46 JUMP JUMPDEST PUSH1 0x40 MLOAD DUP1 SWAP2 SUB SWAP1 REVERT JUMPDEST POP POP POP POP JUMP JUMPDEST PUSH1 0x60 PUSH2 0x143C DUP3 PUSH2 0xC06 JUMP JUMPDEST PUSH1 0x0 PUSH1 0x6 PUSH1 0x0 DUP5 DUP2 MSTORE PUSH1 0x20 ADD SWAP1 DUP2 MSTORE PUSH1 0x20 ADD PUSH1 0x0 KECCAK256 DUP1 SLOAD PUSH2 0x145C SWAP1 PUSH2 0x24CC JUMP JUMPDEST DUP1 PUSH1 0x1F ADD PUSH1 0x20 DUP1 SWAP2 DIV MUL PUSH1 0x20 ADD PUSH1 0x40 MLOAD SWAP1 DUP2 ADD PUSH1 0x40 MSTORE DUP1 SWAP3 SWAP2 SWAP1 DUP2 DUP2 MSTORE PUSH1 0x20 ADD DUP3 DUP1 SLOAD PUSH2 0x1488 SWAP1 PUSH2 0x24CC JUMP JUMPDEST DUP1 ISZERO PUSH2 0x14D5 JUMPI DUP1 PUSH1 0x1F LT PUSH2 0x14AA JUMPI PUSH2 0x100 DUP1 DUP4 SLOAD DIV MUL DUP4 MSTORE SWAP2 PUSH1 0x20 ADD SWAP2 PUSH2 0x14D5 JUMP JUMPDEST DUP3 ADD SWAP2 SWAP1 PUSH1 0x0 MSTORE PUSH1 0x20 PUSH1 0x0 KECCAK256 SWAP1 JUMPDEST DUP2 SLOAD DUP2 MSTORE SWAP1 PUSH1 0x1 ADD SWAP1 PUSH1 0x20 ADD DUP1 DUP4 GT PUSH2 0x14B8 JUMPI DUP3 SWAP1 SUB PUSH1 0x1F AND DUP3 ADD SWAP2 JUMPDEST POP POP POP POP POP SWAP1 POP PUSH1 0x0 PUSH2 0x14E6 PUSH2 0x17FA JUMP JUMPDEST SWAP1 POP PUSH1 0x0 DUP2 MLOAD SUB PUSH2 0x14FB JUMPI DUP2 SWAP3 POP POP POP PUSH2 0x153E JUMP JUMPDEST PUSH1 0x0 DUP3 MLOAD GT ISZERO PUSH2 0x1530 JUMPI DUP1 DUP3 PUSH1 0x40 MLOAD PUSH1 0x20 ADD PUSH2 0x1518 SWAP3 SWAP2 SWAP1 PUSH2 0x2BA2 JUMP JUMPDEST PUSH1 0x40 MLOAD PUSH1 0x20 DUP2 DUP4 SUB SUB DUP2 MSTORE SWAP1 PUSH1 0x40 MSTORE SWAP3 POP POP POP PUSH2 0x153E JUMP JUMPDEST PUSH2 0x1539 DUP5 PUSH2 0x1811 JUMP JUMPDEST SWAP3 POP POP POP JUMPDEST SWAP2 SWAP1 POP JUMP JUMPDEST PUSH2 0x155D DUP3 DUP3 PUSH1 0x40 MLOAD DUP1 PUSH1 0x20 ADD PUSH1 0x40 MSTORE DUP1 PUSH1 0x0 DUP2 MSTORE POP PUSH2 0x1879 JUMP JUMPDEST POP POP JUMP JUMPDEST PUSH2 0x156A DUP3 PUSH2 0x15CE JUMP JUMPDEST PUSH2 0x15A9 JUMPI PUSH1 0x40 MLOAD PUSH32 0x8C379A000000000000000000000000000000000000000000000000000000000 DUP2 MSTORE PUSH1 0x4 ADD PUSH2 0x15A0 SWAP1 PUSH2 0x2C38 JUMP JUMPDEST PUSH1 0x40 MLOAD DUP1 SWAP2 SUB SWAP1 REVERT JUMPDEST DUP1 PUSH1 0x6 PUSH1 0x0 DUP5 DUP2 MSTORE PUSH1 0x20 ADD SWAP1 DUP2 MSTORE PUSH1 0x20 ADD PUSH1 0x0 KECCAK256 SWAP1 DUP2 PUSH2 0x15C9 SWAP2 SWAP1 PUSH2 0x2E04 JUMP JUMPDEST POP POP POP JUMP JUMPDEST PUSH1 0x0 DUP1 PUSH20 0xFFFFFFFFFFFFFFFFFFFFFFFFFFFFFFFFFFFFFFFF AND PUSH1 0x2 PUSH1 0x0 DUP5 DUP2 MSTORE PUSH1 0x20 ADD SWAP1 DUP2 MSTORE PUSH1 0x20 ADD PUSH1 0x0 KECCAK256 PUSH1 0x0 SWAP1 SLOAD SWAP1 PUSH2 0x100 EXP SWAP1 DIV PUSH20 0xFFFFFFFFFFFFFFFFFFFFFFFFFFFFFFFFFFFFFFFF AND PUSH20 0xFFFFFFFFFFFFFFFFFFFFFFFFFFFFFFFFFFFFFFFF AND EQ ISZERO SWAP1 POP SWAP2 SWAP1 POP JUMP JUMPDEST POP POP POP JUMP JUMPDEST POP POP POP JUMP JUMPDEST PUSH2 0x164D DUP2 PUSH2 0x18D4 JUMP JUMPDEST PUSH1 0x0 PUSH1 0x6 PUSH1 0x0 DUP4 DUP2 MSTORE PUSH1 0x20 ADD SWAP1 DUP2 MSTORE PUSH1 0x20 ADD PUSH1 0x0 KECCAK256 DUP1 SLOAD PUSH2 0x166D SWAP1 PUSH2 0x24CC JUMP JUMPDEST SWAP1 POP EQ PUSH2 0x1694 JUMPI PUSH1 0x6 PUSH1 0x0 DUP3 DUP2 MSTORE PUSH1 0x20 ADD SWAP1 DUP2 MSTORE PUSH1 0x20 ADD PUSH1 0x0 KECCAK256 PUSH1 0x0 PUSH2 0x1693 SWAP2 SWAP1 PUSH2 0x1D80 JUMP JUMPDEST JUMPDEST POP JUMP JUMPDEST PUSH1 0x0 PUSH1 0x1 ISZERO PUSH2 0x17ED JUMPI DUP4 PUSH20 0xFFFFFFFFFFFFFFFFFFFFFFFFFFFFFFFFFFFFFFFF AND PUSH4 0x150B7A02 CALLER DUP8 DUP7 DUP7 PUSH1 0x40 MLOAD DUP6 PUSH4 0xFFFFFFFF AND PUSH1 0xE0 SHL DUP2 MSTORE PUSH1 0x4 ADD PUSH2 0x16DF SWAP5 SWAP4 SWAP3 SWAP2 SWAP1 PUSH2 0x2F2B JUMP JUMPDEST PUSH1 0x20 PUSH1 0x40 MLOAD DUP1 DUP4 SUB DUP2 PUSH1 0x0 DUP8 GAS CALL SWAP3 POP POP POP DUP1 ISZERO PUSH2 0x171B JUMPI POP PUSH1 0x40 MLOAD RETURNDATASIZE PUSH1 0x1F NOT PUSH1 0x1F DUP3 ADD AND DUP3 ADD DUP1 PUSH1 0x40 MSTORE POP DUP2 ADD SWAP1 PUSH2 0x1718 SWAP2 SWAP1 PUSH2 0x2F8C JUMP JUMPDEST PUSH1 0x1 JUMPDEST PUSH2 0x179D JUMPI RETURNDATASIZE DUP1 PUSH1 0x0 DUP2 EQ PUSH2 0x174B JUMPI PUSH1 0x40 MLOAD SWAP2 POP PUSH1 0x1F NOT PUSH1 0x3F RETURNDATASIZE ADD AND DUP3 ADD PUSH1 0x40 MSTORE RETURNDATASIZE DUP3 MSTORE RETURNDATASIZE PUSH1 0x0 PUSH1 0x20 DUP5 ADD RETURNDATACOPY PUSH2 0x1750 JUMP JUMPDEST PUSH1 0x60 SWAP2 POP JUMPDEST POP PUSH1 0x0 DUP2 MLOAD SUB PUSH2 0x1795 JUMPI PUSH1 0x40 MLOAD PUSH32 0x8C379A000000000000000000000000000000000000000000000000000000000 DUP2 MSTORE PUSH1 0x4 ADD PUSH2 0x178C SWAP1 PUSH2 0x2B46 JUMP JUMPDEST PUSH1 0x40 MLOAD DUP1 SWAP2 SUB SWAP1 REVERT JUMPDEST DUP1 MLOAD DUP2 PUSH1 0x20 ADD REVERT JUMPDEST PUSH4 0x150B7A02 PUSH1 0xE0 SHL PUSH28 0xFFFFFFFFFFFFFFFFFFFFFFFFFFFFFFFFFFFFFFFFFFFFFFFFFFFFFFFF NOT AND DUP2 PUSH28 0xFFFFFFFFFFFFFFFFFFFFFFFFFFFFFFFFFFFFFFFFFFFFFFFFFFFFFFFF NOT AND EQ SWAP2 POP POP PUSH2 0x17F2 JUMP JUMPDEST PUSH1 0x1 SWAP1 POP JUMPDEST SWAP5 SWAP4 POP POP POP POP JUMP JUMPDEST PUSH1 0x60 PUSH1 0x40 MLOAD DUP1 PUSH1 0x20 ADD PUSH1 0x40 MSTORE DUP1 PUSH1 0x0 DUP2 MSTORE POP SWAP1 POP SWAP1 JUMP JUMPDEST PUSH1 0x60 PUSH2 0x181C DUP3 PUSH2 0xC06 JUMP JUMPDEST PUSH1 0x0 PUSH2 0x1826 PUSH2 0x17FA JUMP JUMPDEST SWAP1 POP PUSH1 0x0 DUP2 MLOAD GT PUSH2 0x1846 JUMPI PUSH1 0x40 MLOAD DUP1 PUSH1 0x20 ADD PUSH1 0x40 MSTORE DUP1 PUSH1 0x0 DUP2 MSTORE POP PUSH2 0x1871 JUMP JUMPDEST DUP1 PUSH2 0x1850 DUP5 PUSH2 0x1A47 JUMP JUMPDEST PUSH1 0x40 MLOAD PUSH1 0x20 ADD PUSH2 0x1861 SWAP3 SWAP2 SWAP1 PUSH2 0x2BA2 JUMP JUMPDEST PUSH1 0x40 MLOAD PUSH1 0x20 DUP2 DUP4 SUB SUB DUP2 MSTORE SWAP1 PUSH1 0x40 MSTORE JUMPDEST SWAP2 POP POP SWAP2 SWAP1 POP JUMP JUMPDEST PUSH2 0x1883 DUP4 DUP4 PUSH2 0x1BA7 JUMP JUMPDEST PUSH2 0x1890 PUSH1 0x0 DUP5 DUP5 DUP5 PUSH2 0x1697 JUMP JUMPDEST PUSH2 0x18CF JUMPI PUSH1 0x40 MLOAD PUSH32 0x8C379A000000000000000000000000000000000000000000000000000000000 DUP2 MSTORE PUSH1 0x4 ADD PUSH2 0x18C6 SWAP1 PUSH2 0x2B46 JUMP JUMPDEST PUSH1 0x40 MLOAD DUP1 SWAP2 SUB SWAP1 REVERT JUMPDEST POP POP POP JUMP JUMPDEST PUSH1 0x0 PUSH1 0x2 PUSH1 0x0 DUP4 DUP2 MSTORE PUSH1 0x20 ADD SWAP1 DUP2 MSTORE PUSH1 0x20 ADD PUSH1 0x0 KECCAK256 PUSH1 0x0 SWAP1 SLOAD SWAP1 PUSH2 0x100 EXP SWAP1 DIV PUSH20 0xFFFFFFFFFFFFFFFFFFFFFFFFFFFFFFFFFFFFFFFF AND SWAP1 POP PUSH2 0x1918 DUP2 PUSH1 0x0 DUP5 PUSH2 0x163A JUMP JUMPDEST PUSH1 0x4 PUSH1 0x0 DUP4 DUP2 MSTORE PUSH1 0x20 ADD SWAP1 DUP2 MSTORE PUSH1 0x20 ADD PUSH1 0x0 KECCAK256 PUSH1 0x0 PUSH2 0x100 EXP DUP2 SLOAD SWAP1 PUSH20 0xFFFFFFFFFFFFFFFFFFFFFFFFFFFFFFFFFFFFFFFF MUL NOT AND SWAP1 SSTORE PUSH1 0x1 PUSH1 0x3 PUSH1 0x0 DUP4 PUSH20 0xFFFFFFFFFFFFFFFFFFFFFFFFFFFFFFFFFFFFFFFF AND PUSH20 0xFFFFFFFFFFFFFFFFFFFFFFFFFFFFFFFFFFFFFFFF AND DUP2 MSTORE PUSH1 0x20 ADD SWAP1 DUP2 MSTORE PUSH1 0x20 ADD PUSH1 0x0 KECCAK256 PUSH1 0x0 DUP3 DUP3 SLOAD PUSH2 0x199E SWAP2 SWAP1 PUSH2 0x29DE JUMP JUMPDEST SWAP3 POP POP DUP2 SWAP1 SSTORE POP PUSH1 0x2 PUSH1 0x0 DUP4 DUP2 MSTORE PUSH1 0x20 ADD SWAP1 DUP2 MSTORE PUSH1 0x20 ADD PUSH1 0x0 KECCAK256 PUSH1 0x0 PUSH2 0x100 EXP DUP2 SLOAD SWAP1 PUSH20 0xFFFFFFFFFFFFFFFFFFFFFFFFFFFFFFFFFFFFFFFF MUL NOT AND SWAP1 SSTORE DUP2 PUSH1 0x0 PUSH20 0xFFFFFFFFFFFFFFFFFFFFFFFFFFFFFFFFFFFFFFFF AND DUP3 PUSH20 0xFFFFFFFFFFFFFFFFFFFFFFFFFFFFFFFFFFFFFFFF AND PUSH32 0xDDF252AD1BE2C89B69C2B068FC378DAA952BA7F163C4A11628F55A4DF523B3EF PUSH1 0x40 MLOAD PUSH1 0x40 MLOAD DUP1 SWAP2 SUB SWAP1 LOG4 PUSH2 0x1A43 DUP2 PUSH1 0x0 DUP5 PUSH2 0x163F JUMP JUMPDEST POP POP JUMP JUMPDEST PUSH1 0x60 PUSH1 0x0 DUP3 SUB PUSH2 0x1A8E JUMPI PUSH1 0x40 MLOAD DUP1 PUSH1 0x40 ADD PUSH1 0x40 MSTORE DUP1 PUSH1 0x1 DUP2 MSTORE PUSH1 0x20 ADD PUSH32 0x3000000000000000000000000000000000000000000000000000000000000000 DUP2 MSTORE POP SWAP1 POP PUSH2 0x1BA2 JUMP JUMPDEST PUSH1 0x0 DUP3 SWAP1 POP PUSH1 0x0 JUMPDEST PUSH1 0x0 DUP3 EQ PUSH2 0x1AC0 JUMPI DUP1 DUP1 PUSH2 0x1AA9 SWAP1 PUSH2 0x2872 JUMP JUMPDEST SWAP2 POP POP PUSH1 0xA DUP3 PUSH2 0x1AB9 SWAP2 SWAP1 PUSH2 0x2FE8 JUMP JUMPDEST SWAP2 POP PUSH2 0x1A96 JUMP JUMPDEST PUSH1 0x0 DUP2 PUSH8 0xFFFFFFFFFFFFFFFF DUP2 GT ISZERO PUSH2 0x1ADC JUMPI PUSH2 0x1ADB PUSH2 0x21B2 JUMP JUMPDEST JUMPDEST PUSH1 0x40 MLOAD SWAP1 DUP1 DUP3 MSTORE DUP1 PUSH1 0x1F ADD PUSH1 0x1F NOT AND PUSH1 0x20 ADD DUP3 ADD PUSH1 0x40 MSTORE DUP1 ISZERO PUSH2 0x1B0E JUMPI DUP2 PUSH1 0x20 ADD PUSH1 0x1 DUP3 MUL DUP1 CALLDATASIZE DUP4 CALLDATACOPY DUP1 DUP3 ADD SWAP2 POP POP SWAP1 POP JUMPDEST POP SWAP1 POP JUMPDEST PUSH1 0x0 DUP6 EQ PUSH2 0x1B9B JUMPI PUSH1 0x1 DUP3 PUSH2 0x1B27 SWAP2 SWAP1 PUSH2 0x29DE JUMP JUMPDEST SWAP2 POP PUSH1 0xA DUP6 PUSH2 0x1B36 SWAP2 SWAP1 PUSH2 0x3019 JUMP JUMPDEST PUSH1 0x30 PUSH2 0x1B42 SWAP2 SWAP1 PUSH2 0x2A12 JUMP JUMPDEST PUSH1 0xF8 SHL DUP2 DUP4 DUP2 MLOAD DUP2 LT PUSH2 0x1B58 JUMPI PUSH2 0x1B57 PUSH2 0x304A JUMP JUMPDEST JUMPDEST PUSH1 0x20 ADD ADD SWAP1 PUSH31 0xFFFFFFFFFFFFFFFFFFFFFFFFFFFFFFFFFFFFFFFFFFFFFFFFFFFFFFFFFFFFFF NOT AND SWAP1 DUP2 PUSH1 0x0 BYTE SWAP1 MSTORE8 POP PUSH1 0xA DUP6 PUSH2 0x1B94 SWAP2 SWAP1 PUSH2 0x2FE8 JUMP JUMPDEST SWAP5 POP PUSH2 0x1B12 JUMP JUMPDEST DUP1 SWAP4 POP POP POP POP JUMPDEST SWAP2 SWAP1 POP JUMP JUMPDEST PUSH1 0x0 PUSH20 0xFFFFFFFFFFFFFFFFFFFFFFFFFFFFFFFFFFFFFFFF AND DUP3 PUSH20 0xFFFFFFFFFFFFFFFFFFFFFFFFFFFFFFFFFFFFFFFF AND SUB PUSH2 0x1C16 JUMPI PUSH1 0x40 MLOAD PUSH32 0x8C379A000000000000000000000000000000000000000000000000000000000 DUP2 MSTORE PUSH1 0x4 ADD PUSH2 0x1C0D SWAP1 PUSH2 0x30C5 JUMP JUMPDEST PUSH1 0x40 MLOAD DUP1 SWAP2 SUB SWAP1 REVERT JUMPDEST PUSH2 0x1C1F DUP2 PUSH2 0x15CE JUMP JUMPDEST ISZERO PUSH2 0x1C5F JUMPI PUSH1 0x40 MLOAD PUSH32 0x8C379A000000000000000000000000000000000000000000000000000000000 DUP2 MSTORE PUSH1 0x4 ADD PUSH2 0x1C56 SWAP1 PUSH2 0x3131 JUMP JUMPDEST PUSH1 0x40 MLOAD DUP1 SWAP2 SUB SWAP1 REVERT JUMPDEST PUSH2 0x1C6B PUSH1 0x0 DUP4 DUP4 PUSH2 0x163A JUMP JUMPDEST PUSH1 0x1 PUSH1 0x3 PUSH1 0x0 DUP5 PUSH20 0xFFFFFFFFFFFFFFFFFFFFFFFFFFFFFFFFFFFFFFFF AND PUSH20 0xFFFFFFFFFFFFFFFFFFFFFFFFFFFFFFFFFFFFFFFF AND DUP2 MSTORE PUSH1 0x20 ADD SWAP1 DUP2 MSTORE PUSH1 0x20 ADD PUSH1 0x0 KECCAK256 PUSH1 0x0 DUP3 DUP3 SLOAD PUSH2 0x1CBB SWAP2 SWAP1 PUSH2 0x2A12 JUMP JUMPDEST SWAP3 POP POP DUP2 SWAP1 SSTORE POP DUP2 PUSH1 0x2 PUSH1 0x0 DUP4 DUP2 MSTORE PUSH1 0x20 ADD SWAP1 DUP2 MSTORE PUSH1 0x20 ADD PUSH1 0x0 KECCAK256 PUSH1 0x0 PUSH2 0x100 EXP DUP2 SLOAD DUP2 PUSH20 0xFFFFFFFFFFFFFFFFFFFFFFFFFFFFFFFFFFFFFFFF MUL NOT AND SWAP1 DUP4 PUSH20 0xFFFFFFFFFFFFFFFFFFFFFFFFFFFFFFFFFFFFFFFF AND MUL OR SWAP1 SSTORE POP DUP1 DUP3 PUSH20 0xFFFFFFFFFFFFFFFFFFFFFFFFFFFFFFFFFFFFFFFF AND PUSH1 0x0 PUSH20 0xFFFFFFFFFFFFFFFFFFFFFFFFFFFFFFFFFFFFFFFF AND PUSH32 0xDDF252AD1BE2C89B69C2B068FC378DAA952BA7F163C4A11628F55A4DF523B3EF PUSH1 0x40 MLOAD PUSH1 0x40 MLOAD DUP1 SWAP2 SUB SWAP1 LOG4 PUSH2 0x1D7C PUSH1 0x0 DUP4 DUP4 PUSH2 0x163F JUMP JUMPDEST POP POP JUMP JUMPDEST POP DUP1 SLOAD PUSH2 0x1D8C SWAP1 PUSH2 0x24CC JUMP JUMPDEST PUSH1 0x0 DUP3 SSTORE DUP1 PUSH1 0x1F LT PUSH2 0x1D9E JUMPI POP PUSH2 0x1DBD JUMP JUMPDEST PUSH1 0x1F ADD PUSH1 0x20 SWAP1 DIV SWAP1 PUSH1 0x0 MSTORE PUSH1 0x20 PUSH1 0x0 KECCAK256 SWAP1 DUP2 ADD SWAP1 PUSH2 0x1DBC SWAP2 SWAP1 PUSH2 0x1DC0 JUMP JUMPDEST JUMPDEST POP JUMP JUMPDEST JUMPDEST DUP1 DUP3 GT ISZERO PUSH2 0x1DD9 JUMPI PUSH1 0x0 DUP2 PUSH1 0x0 SWAP1 SSTORE POP PUSH1 0x1 ADD PUSH2 0x1DC1 JUMP JUMPDEST POP SWAP1 JUMP JUMPDEST PUSH1 0x0 PUSH1 0x40 MLOAD SWAP1 POP SWAP1 JUMP JUMPDEST PUSH1 0x0 DUP1 REVERT JUMPDEST PUSH1 0x0 DUP1 REVERT JUMPDEST PUSH1 0x0 PUSH32 0xFFFFFFFF00000000000000000000000000000000000000000000000000000000 DUP3 AND SWAP1 POP SWAP2 SWAP1 POP JUMP JUMPDEST PUSH2 0x1E26 DUP2 PUSH2 0x1DF1 JUMP JUMPDEST DUP2 EQ PUSH2 0x1E31 JUMPI PUSH1 0x0 DUP1 REVERT JUMPDEST POP JUMP JUMPDEST PUSH1 0x0 DUP2 CALLDATALOAD SWAP1 POP PUSH2 0x1E43 DUP2 PUSH2 0x1E1D JUMP JUMPDEST SWAP3 SWAP2 POP POP JUMP JUMPDEST PUSH1 0x0 PUSH1 0x20 DUP3 DUP5 SUB SLT ISZERO PUSH2 0x1E5F JUMPI PUSH2 0x1E5E PUSH2 0x1DE7 JUMP JUMPDEST JUMPDEST PUSH1 0x0 PUSH2 0x1E6D DUP5 DUP3 DUP6 ADD PUSH2 0x1E34 JUMP JUMPDEST SWAP2 POP POP SWAP3 SWAP2 POP POP JUMP JUMPDEST PUSH1 0x0 DUP2 ISZERO ISZERO SWAP1 POP SWAP2 SWAP1 POP JUMP JUMPDEST PUSH2 0x1E8B DUP2 PUSH2 0x1E76 JUMP JUMPDEST DUP3 MSTORE POP POP JUMP JUMPDEST PUSH1 0x0 PUSH1 0x20 DUP3 ADD SWAP1 POP PUSH2 0x1EA6 PUSH1 0x0 DUP4 ADD DUP5 PUSH2 0x1E82 JUMP JUMPDEST SWAP3 SWAP2 POP POP JUMP JUMPDEST PUSH1 0x0 DUP2 MLOAD SWAP1 POP SWAP2 SWAP1 POP JUMP JUMPDEST PUSH1 0x0 DUP3 DUP3 MSTORE PUSH1 0x20 DUP3 ADD SWAP1 POP SWAP3 SWAP2 POP POP JUMP JUMPDEST PUSH1 0x0 JUMPDEST DUP4 DUP2 LT ISZERO PUSH2 0x1EE6 JUMPI DUP1 DUP3 ADD MLOAD DUP2 DUP5 ADD MSTORE PUSH1 0x20 DUP2 ADD SWAP1 POP PUSH2 0x1ECB JUMP JUMPDEST DUP4 DUP2 GT ISZERO PUSH2 0x1EF5 JUMPI PUSH1 0x0 DUP5 DUP5 ADD MSTORE JUMPDEST POP POP POP POP JUMP JUMPDEST PUSH1 0x0 PUSH1 0x1F NOT PUSH1 0x1F DUP4 ADD AND SWAP1 POP SWAP2 SWAP1 POP JUMP JUMPDEST PUSH1 0x0 PUSH2 0x1F17 DUP3 PUSH2 0x1EAC JUMP JUMPDEST PUSH2 0x1F21 DUP2 DUP6 PUSH2 0x1EB7 JUMP JUMPDEST SWAP4 POP PUSH2 0x1F31 DUP2 DUP6 PUSH1 0x20 DUP7 ADD PUSH2 0x1EC8 JUMP JUMPDEST PUSH2 0x1F3A DUP2 PUSH2 0x1EFB JUMP JUMPDEST DUP5 ADD SWAP2 POP POP SWAP3 SWAP2 POP POP JUMP JUMPDEST PUSH1 0x0 PUSH1 0x20 DUP3 ADD SWAP1 POP DUP2 DUP2 SUB PUSH1 0x0 DUP4 ADD MSTORE PUSH2 0x1F5F DUP2 DUP5 PUSH2 0x1F0C JUMP JUMPDEST SWAP1 POP SWAP3 SWAP2 POP POP JUMP JUMPDEST PUSH1 0x0 DUP2 SWAP1 POP SWAP2 SWAP1 POP JUMP JUMPDEST PUSH2 0x1F7A DUP2 PUSH2 0x1F67 JUMP JUMPDEST DUP2 EQ PUSH2 0x1F85 JUMPI PUSH1 0x0 DUP1 REVERT JUMPDEST POP JUMP JUMPDEST PUSH1 0x0 DUP2 CALLDATALOAD SWAP1 POP PUSH2 0x1F97 DUP2 PUSH2 0x1F71 JUMP JUMPDEST SWAP3 SWAP2 POP POP JUMP JUMPDEST PUSH1 0x0 PUSH1 0x20 DUP3 DUP5 SUB SLT ISZERO PUSH2 0x1FB3 JUMPI PUSH2 0x1FB2 PUSH2 0x1DE7 JUMP JUMPDEST JUMPDEST PUSH1 0x0 PUSH2 0x1FC1 DUP5 DUP3 DUP6 ADD PUSH2 0x1F88 JUMP JUMPDEST SWAP2 POP POP SWAP3 SWAP2 POP POP JUMP JUMPDEST PUSH1 0x0 PUSH20 0xFFFFFFFFFFFFFFFFFFFFFFFFFFFFFFFFFFFFFFFF DUP3 AND SWAP1 POP SWAP2 SWAP1 POP JUMP JUMPDEST PUSH1 0x0 PUSH2 0x1FF5 DUP3 PUSH2 0x1FCA JUMP JUMPDEST SWAP1 POP SWAP2 SWAP1 POP JUMP JUMPDEST PUSH2 0x2005 DUP2 PUSH2 0x1FEA JUMP JUMPDEST DUP3 MSTORE POP POP JUMP JUMPDEST PUSH1 0x0 PUSH1 0x20 DUP3 ADD SWAP1 POP PUSH2 0x2020 PUSH1 0x0 DUP4 ADD DUP5 PUSH2 0x1FFC JUMP JUMPDEST SWAP3 SWAP2 POP POP JUMP JUMPDEST PUSH2 0x202F DUP2 PUSH2 0x1FEA JUMP JUMPDEST DUP2 EQ PUSH2 0x203A JUMPI PUSH1 0x0 DUP1 REVERT JUMPDEST POP JUMP JUMPDEST PUSH1 0x0 DUP2 CALLDATALOAD SWAP1 POP PUSH2 0x204C DUP2 PUSH2 0x2026 JUMP JUMPDEST SWAP3 SWAP2 POP POP JUMP JUMPDEST PUSH1 0x0 DUP1 PUSH1 0x40 DUP4 DUP6 SUB SLT ISZERO PUSH2 0x2069 JUMPI PUSH2 0x2068 PUSH2 0x1DE7 JUMP JUMPDEST JUMPDEST PUSH1 0x0 PUSH2 0x2077 DUP6 DUP3 DUP7 ADD PUSH2 0x203D JUMP JUMPDEST SWAP3 POP POP PUSH1 0x20 PUSH2 0x2088 DUP6 DUP3 DUP7 ADD PUSH2 0x1F88 JUMP JUMPDEST SWAP2 POP POP SWAP3 POP SWAP3 SWAP1 POP JUMP JUMPDEST PUSH1 0x0 DUP1 PUSH1 0x0 PUSH1 0x60 DUP5 DUP7 SUB SLT ISZERO PUSH2 0x20AB JUMPI PUSH2 0x20AA PUSH2 0x1DE7 JUMP JUMPDEST JUMPDEST PUSH1 0x0 PUSH2 0x20B9 DUP7 DUP3 DUP8 ADD PUSH2 0x203D JUMP JUMPDEST SWAP4 POP POP PUSH1 0x20 PUSH2 0x20CA DUP7 DUP3 DUP8 ADD PUSH2 0x203D JUMP JUMPDEST SWAP3 POP POP PUSH1 0x40 PUSH2 0x20DB DUP7 DUP3 DUP8 ADD PUSH2 0x1F88 JUMP JUMPDEST SWAP2 POP POP SWAP3 POP SWAP3 POP SWAP3 JUMP JUMPDEST PUSH1 0x0 PUSH1 0x20 DUP3 DUP5 SUB SLT ISZERO PUSH2 0x20FB JUMPI PUSH2 0x20FA PUSH2 0x1DE7 JUMP JUMPDEST JUMPDEST PUSH1 0x0 PUSH2 0x2109 DUP5 DUP3 DUP6 ADD PUSH2 0x203D JUMP JUMPDEST SWAP2 POP POP SWAP3 SWAP2 POP POP JUMP JUMPDEST PUSH2 0x211B DUP2 PUSH2 0x1F67 JUMP JUMPDEST DUP3 MSTORE POP POP JUMP JUMPDEST PUSH1 0x0 PUSH1 0x20 DUP3 ADD SWAP1 POP PUSH2 0x2136 PUSH1 0x0 DUP4 ADD DUP5 PUSH2 0x2112 JUMP JUMPDEST SWAP3 SWAP2 POP POP JUMP JUMPDEST PUSH2 0x2145 DUP2 PUSH2 0x1E76 JUMP JUMPDEST DUP2 EQ PUSH2 0x2150 JUMPI PUSH1 0x0 DUP1 REVERT JUMPDEST POP JUMP JUMPDEST PUSH1 0x0 DUP2 CALLDATALOAD SWAP1 POP PUSH2 0x2162 DUP2 PUSH2 0x213C JUMP JUMPDEST SWAP3 SWAP2 POP POP JUMP JUMPDEST PUSH1 0x0 DUP1 PUSH1 0x40 DUP4 DUP6 SUB SLT ISZERO PUSH2 0x217F JUMPI PUSH2 0x217E PUSH2 0x1DE7 JUMP JUMPDEST JUMPDEST PUSH1 0x0 PUSH2 0x218D DUP6 DUP3 DUP7 ADD PUSH2 0x203D JUMP JUMPDEST SWAP3 POP POP PUSH1 0x20 PUSH2 0x219E DUP6 DUP3 DUP7 ADD PUSH2 0x2153 JUMP JUMPDEST SWAP2 POP POP SWAP3 POP SWAP3 SWAP1 POP JUMP JUMPDEST PUSH1 0x0 DUP1 REVERT JUMPDEST PUSH1 0x0 DUP1 REVERT JUMPDEST PUSH32 0x4E487B7100000000000000000000000000000000000000000000000000000000 PUSH1 0x0 MSTORE PUSH1 0x41 PUSH1 0x4 MSTORE PUSH1 0x24 PUSH1 0x0 REVERT JUMPDEST PUSH2 0x21EA DUP3 PUSH2 0x1EFB JUMP JUMPDEST DUP2 ADD DUP2 DUP2 LT PUSH8 0xFFFFFFFFFFFFFFFF DUP3 GT OR ISZERO PUSH2 0x2209 JUMPI PUSH2 0x2208 PUSH2 0x21B2 JUMP JUMPDEST JUMPDEST DUP1 PUSH1 0x40 MSTORE POP POP POP JUMP JUMPDEST PUSH1 0x0 PUSH2 0x221C PUSH2 0x1DDD JUMP JUMPDEST SWAP1 POP PUSH2 0x2228 DUP3 DUP3 PUSH2 0x21E1 JUMP JUMPDEST SWAP2 SWAP1 POP JUMP JUMPDEST PUSH1 0x0 PUSH8 0xFFFFFFFFFFFFFFFF DUP3 GT ISZERO PUSH2 0x2248 JUMPI PUSH2 0x2247 PUSH2 0x21B2 JUMP JUMPDEST JUMPDEST PUSH2 0x2251 DUP3 PUSH2 0x1EFB JUMP JUMPDEST SWAP1 POP PUSH1 0x20 DUP2 ADD SWAP1 POP SWAP2 SWAP1 POP JUMP JUMPDEST DUP3 DUP2 DUP4 CALLDATACOPY PUSH1 0x0 DUP4 DUP4 ADD MSTORE POP POP POP JUMP JUMPDEST PUSH1 0x0 PUSH2 0x2280 PUSH2 0x227B DUP5 PUSH2 0x222D JUMP JUMPDEST PUSH2 0x2212 JUMP JUMPDEST SWAP1 POP DUP3 DUP2 MSTORE PUSH1 0x20 DUP2 ADD DUP5 DUP5 DUP5 ADD GT ISZERO PUSH2 0x229C JUMPI PUSH2 0x229B PUSH2 0x21AD JUMP JUMPDEST JUMPDEST PUSH2 0x22A7 DUP5 DUP3 DUP6 PUSH2 0x225E JUMP JUMPDEST POP SWAP4 SWAP3 POP POP POP JUMP JUMPDEST PUSH1 0x0 DUP3 PUSH1 0x1F DUP4 ADD SLT PUSH2 0x22C4 JUMPI PUSH2 0x22C3 PUSH2 0x21A8 JUMP JUMPDEST JUMPDEST DUP2 CALLDATALOAD PUSH2 0x22D4 DUP5 DUP3 PUSH1 0x20 DUP7 ADD PUSH2 0x226D JUMP JUMPDEST SWAP2 POP POP SWAP3 SWAP2 POP POP JUMP JUMPDEST PUSH1 0x0 DUP1 PUSH1 0x0 DUP1 PUSH1 0x80 DUP6 DUP8 SUB SLT ISZERO PUSH2 0x22F7 JUMPI PUSH2 0x22F6 PUSH2 0x1DE7 JUMP JUMPDEST JUMPDEST PUSH1 0x0 PUSH2 0x2305 DUP8 DUP3 DUP9 ADD PUSH2 0x203D JUMP JUMPDEST SWAP5 POP POP PUSH1 0x20 PUSH2 0x2316 DUP8 DUP3 DUP9 ADD PUSH2 0x203D JUMP JUMPDEST SWAP4 POP POP PUSH1 0x40 PUSH2 0x2327 DUP8 DUP3 DUP9 ADD PUSH2 0x1F88 JUMP JUMPDEST SWAP3 POP POP PUSH1 0x60 DUP6 ADD CALLDATALOAD PUSH8 0xFFFFFFFFFFFFFFFF DUP2 GT ISZERO PUSH2 0x2348 JUMPI PUSH2 0x2347 PUSH2 0x1DEC JUMP JUMPDEST JUMPDEST PUSH2 0x2354 DUP8 DUP3 DUP9 ADD PUSH2 0x22AF JUMP JUMPDEST SWAP2 POP POP SWAP3 SWAP6 SWAP2 SWAP5 POP SWAP3 POP JUMP JUMPDEST PUSH1 0x0 PUSH8 0xFFFFFFFFFFFFFFFF DUP3 GT ISZERO PUSH2 0x237B JUMPI PUSH2 0x237A PUSH2 0x21B2 JUMP JUMPDEST JUMPDEST PUSH2 0x2384 DUP3 PUSH2 0x1EFB JUMP JUMPDEST SWAP1 POP PUSH1 0x20 DUP2 ADD SWAP1 POP SWAP2 SWAP1 POP JUMP JUMPDEST PUSH1 0x0 PUSH2 0x23A4 PUSH2 0x239F DUP5 PUSH2 0x2360 JUMP JUMPDEST PUSH2 0x2212 JUMP JUMPDEST SWAP1 POP DUP3 DUP2 MSTORE PUSH1 0x20 DUP2 ADD DUP5 DUP5 DUP5 ADD GT ISZERO PUSH2 0x23C0 JUMPI PUSH2 0x23BF PUSH2 0x21AD JUMP JUMPDEST JUMPDEST PUSH2 0x23CB DUP5 DUP3 DUP6 PUSH2 0x225E JUMP JUMPDEST POP SWAP4 SWAP3 POP POP POP JUMP JUMPDEST PUSH1 0x0 DUP3 PUSH1 0x1F DUP4 ADD SLT PUSH2 0x23E8 JUMPI PUSH2 0x23E7 PUSH2 0x21A8 JUMP JUMPDEST JUMPDEST DUP2 CALLDATALOAD PUSH2 0x23F8 DUP5 DUP3 PUSH1 0x20 DUP7 ADD PUSH2 0x2391 JUMP JUMPDEST SWAP2 POP POP SWAP3 SWAP2 POP POP JUMP JUMPDEST PUSH1 0x0 DUP1 PUSH1 0x40 DUP4 DUP6 SUB SLT ISZERO PUSH2 0x2418 JUMPI PUSH2 0x2417 PUSH2 0x1DE7 JUMP JUMPDEST JUMPDEST PUSH1 0x0 PUSH2 0x2426 DUP6 DUP3 DUP7 ADD PUSH2 0x203D JUMP JUMPDEST SWAP3 POP POP PUSH1 0x20 DUP4 ADD CALLDATALOAD PUSH8 0xFFFFFFFFFFFFFFFF DUP2 GT ISZERO PUSH2 0x2447 JUMPI PUSH2 0x2446 PUSH2 0x1DEC JUMP JUMPDEST JUMPDEST PUSH2 0x2453 DUP6 DUP3 DUP7 ADD PUSH2 0x23D3 JUMP JUMPDEST SWAP2 POP POP SWAP3 POP SWAP3 SWAP1 POP JUMP JUMPDEST PUSH1 0x0 DUP1 PUSH1 0x40 DUP4 DUP6 SUB SLT ISZERO PUSH2 0x2474 JUMPI PUSH2 0x2473 PUSH2 0x1DE7 JUMP JUMPDEST JUMPDEST PUSH1 0x0 PUSH2 0x2482 DUP6 DUP3 DUP7 ADD PUSH2 0x203D JUMP JUMPDEST SWAP3 POP POP PUSH1 0x20 PUSH2 0x2493 DUP6 DUP3 DUP7 ADD PUSH2 0x203D JUMP JUMPDEST SWAP2 POP POP SWAP3 POP SWAP3 SWAP1 POP JUMP JUMPDEST PUSH32 0x4E487B7100000000000000000000000000000000000000000000000000000000 PUSH1 0x0 MSTORE PUSH1 0x22 PUSH1 0x4 MSTORE PUSH1 0x24 PUSH1 0x0 REVERT JUMPDEST PUSH1 0x0 PUSH1 0x2 DUP3 DIV SWAP1 POP PUSH1 0x1 DUP3 AND DUP1 PUSH2 0x24E4 JUMPI PUSH1 0x7F DUP3 AND SWAP2 POP JUMPDEST PUSH1 0x20 DUP3 LT DUP2 SUB PUSH2 0x24F7 JUMPI PUSH2 0x24F6 PUSH2 0x249D JUMP JUMPDEST JUMPDEST POP SWAP2 SWAP1 POP JUMP JUMPDEST PUSH32 0x4552433732313A20617070726F76616C20746F2063757272656E74206F776E65 PUSH1 0x0 DUP3 ADD MSTORE PUSH32 0x7200000000000000000000000000000000000000000000000000000000000000 PUSH1 0x20 DUP3 ADD MSTORE POP JUMP JUMPDEST PUSH1 0x0 PUSH2 0x2559 PUSH1 0x21 DUP4 PUSH2 0x1EB7 JUMP JUMPDEST SWAP2 POP PUSH2 0x2564 DUP3 PUSH2 0x24FD JUMP JUMPDEST PUSH1 0x40 DUP3 ADD SWAP1 POP SWAP2 SWAP1 POP JUMP JUMPDEST PUSH1 0x0 PUSH1 0x20 DUP3 ADD SWAP1 POP DUP2 DUP2 SUB PUSH1 0x0 DUP4 ADD MSTORE PUSH2 0x2588 DUP2 PUSH2 0x254C JUMP JUMPDEST SWAP1 POP SWAP2 SWAP1 POP JUMP JUMPDEST PUSH32 0x4552433732313A20617070726F76652063616C6C6572206973206E6F7420746F PUSH1 0x0 DUP3 ADD MSTORE PUSH32 0x6B656E206F776E6572206E6F7220617070726F76656420666F7220616C6C0000 PUSH1 0x20 DUP3 ADD MSTORE POP JUMP JUMPDEST PUSH1 0x0 PUSH2 0x25EB PUSH1 0x3E DUP4 PUSH2 0x1EB7 JUMP JUMPDEST SWAP2 POP PUSH2 0x25F6 DUP3 PUSH2 0x258F JUMP JUMPDEST PUSH1 0x40 DUP3 ADD SWAP1 POP SWAP2 SWAP1 POP JUMP JUMPDEST PUSH1 0x0 PUSH1 0x20 DUP3 ADD SWAP1 POP DUP2 DUP2 SUB PUSH1 0x0 DUP4 ADD MSTORE PUSH2 0x261A DUP2 PUSH2 0x25DE JUMP JUMPDEST SWAP1 POP SWAP2 SWAP1 POP JUMP JUMPDEST PUSH32 0x4552433732313A2063616C6C6572206973206E6F7420746F6B656E206F776E65 PUSH1 0x0 DUP3 ADD MSTORE PUSH32 0x72206E6F7220617070726F766564000000000000000000000000000000000000 PUSH1 0x20 DUP3 ADD MSTORE POP JUMP JUMPDEST PUSH1 0x0 PUSH2 0x267D PUSH1 0x2E DUP4 PUSH2 0x1EB7 JUMP JUMPDEST SWAP2 POP PUSH2 0x2688 DUP3 PUSH2 0x2621 JUMP JUMPDEST PUSH1 0x40 DUP3 ADD SWAP1 POP SWAP2 SWAP1 POP JUMP JUMPDEST PUSH1 0x0 PUSH1 0x20 DUP3 ADD SWAP1 POP DUP2 DUP2 SUB PUSH1 0x0 DUP4 ADD MSTORE PUSH2 0x26AC DUP2 PUSH2 0x2670 JUMP JUMPDEST SWAP1 POP SWAP2 SWAP1 POP JUMP JUMPDEST PUSH32 0x4552433732313A204275726E696E672066726F6D20696E76616C696420616363 PUSH1 0x0 DUP3 ADD MSTORE PUSH32 0x6F756E7400000000000000000000000000000000000000000000000000000000 PUSH1 0x20 DUP3 ADD MSTORE POP JUMP JUMPDEST PUSH1 0x0 PUSH2 0x270F PUSH1 0x24 DUP4 PUSH2 0x1EB7 JUMP JUMPDEST SWAP2 POP PUSH2 0x271A DUP3 PUSH2 0x26B3 JUMP JUMPDEST PUSH1 0x40 DUP3 ADD SWAP1 POP SWAP2 SWAP1 POP JUMP JUMPDEST PUSH1 0x0 PUSH1 0x20 DUP3 ADD SWAP1 POP DUP2 DUP2 SUB PUSH1 0x0 DUP4 ADD MSTORE PUSH2 0x273E DUP2 PUSH2 0x2702 JUMP JUMPDEST SWAP1 POP SWAP2 SWAP1 POP JUMP JUMPDEST PUSH32 0x4552433732313A20696E76616C696420746F6B656E2049440000000000000000 PUSH1 0x0 DUP3 ADD MSTORE POP JUMP JUMPDEST PUSH1 0x0 PUSH2 0x277B PUSH1 0x18 DUP4 PUSH2 0x1EB7 JUMP JUMPDEST SWAP2 POP PUSH2 0x2786 DUP3 PUSH2 0x2745 JUMP JUMPDEST PUSH1 0x20 DUP3 ADD SWAP1 POP SWAP2 SWAP1 POP JUMP JUMPDEST PUSH1 0x0 PUSH1 0x20 DUP3 ADD SWAP1 POP DUP2 DUP2 SUB PUSH1 0x0 DUP4 ADD MSTORE PUSH2 0x27AA DUP2 PUSH2 0x276E JUMP JUMPDEST SWAP1 POP SWAP2 SWAP1 POP JUMP JUMPDEST PUSH32 0x4552433732313A2061646472657373207A65726F206973206E6F742061207661 PUSH1 0x0 DUP3 ADD MSTORE PUSH32 0x6C6964206F776E65720000000000000000000000000000000000000000000000 PUSH1 0x20 DUP3 ADD MSTORE POP JUMP JUMPDEST PUSH1 0x0 PUSH2 0x280D PUSH1 0x29 DUP4 PUSH2 0x1EB7 JUMP JUMPDEST SWAP2 POP PUSH2 0x2818 DUP3 PUSH2 0x27B1 JUMP JUMPDEST PUSH1 0x40 DUP3 ADD SWAP1 POP SWAP2 SWAP1 POP JUMP JUMPDEST PUSH1 0x0 PUSH1 0x20 DUP3 ADD SWAP1 POP DUP2 DUP2 SUB PUSH1 0x0 DUP4 ADD MSTORE PUSH2 0x283C DUP2 PUSH2 0x2800 JUMP JUMPDEST SWAP1 POP SWAP2 SWAP1 POP JUMP JUMPDEST PUSH32 0x4E487B7100000000000000000000000000000000000000000000000000000000 PUSH1 0x0 MSTORE PUSH1 0x11 PUSH1 0x4 MSTORE PUSH1 0x24 PUSH1 0x0 REVERT JUMPDEST PUSH1 0x0 PUSH2 0x287D DUP3 PUSH2 0x1F67 JUMP JUMPDEST SWAP2 POP PUSH32 0xFFFFFFFFFFFFFFFFFFFFFFFFFFFFFFFFFFFFFFFFFFFFFFFFFFFFFFFFFFFFFFFF DUP3 SUB PUSH2 0x28AF JUMPI PUSH2 0x28AE PUSH2 0x2843 JUMP JUMPDEST JUMPDEST PUSH1 0x1 DUP3 ADD SWAP1 POP SWAP2 SWAP1 POP JUMP JUMPDEST PUSH32 0x4552433732313A207472616E736665722066726F6D20696E636F727265637420 PUSH1 0x0 DUP3 ADD MSTORE PUSH32 0x6F776E6572000000000000000000000000000000000000000000000000000000 PUSH1 0x20 DUP3 ADD MSTORE POP JUMP JUMPDEST PUSH1 0x0 PUSH2 0x2916 PUSH1 0x25 DUP4 PUSH2 0x1EB7 JUMP JUMPDEST SWAP2 POP PUSH2 0x2921 DUP3 PUSH2 0x28BA JUMP JUMPDEST PUSH1 0x40 DUP3 ADD SWAP1 POP SWAP2 SWAP1 POP JUMP JUMPDEST PUSH1 0x0 PUSH1 0x20 DUP3 ADD SWAP1 POP DUP2 DUP2 SUB PUSH1 0x0 DUP4 ADD MSTORE PUSH2 0x2945 DUP2 PUSH2 0x2909 JUMP JUMPDEST SWAP1 POP SWAP2 SWAP1 POP JUMP JUMPDEST PUSH32 0x4552433732313A207472616E7366657220746F20746865207A65726F20616464 PUSH1 0x0 DUP3 ADD MSTORE PUSH32 0x7265737300000000000000000000000000000000000000000000000000000000 PUSH1 0x20 DUP3 ADD MSTORE POP JUMP JUMPDEST PUSH1 0x0 PUSH2 0x29A8 PUSH1 0x24 DUP4 PUSH2 0x1EB7 JUMP JUMPDEST SWAP2 POP PUSH2 0x29B3 DUP3 PUSH2 0x294C JUMP JUMPDEST PUSH1 0x40 DUP3 ADD SWAP1 POP SWAP2 SWAP1 POP JUMP JUMPDEST PUSH1 0x0 PUSH1 0x20 DUP3 ADD SWAP1 POP DUP2 DUP2 SUB PUSH1 0x0 DUP4 ADD MSTORE PUSH2 0x29D7 DUP2 PUSH2 0x299B JUMP JUMPDEST SWAP1 POP SWAP2 SWAP1 POP JUMP JUMPDEST PUSH1 0x0 PUSH2 0x29E9 DUP3 PUSH2 0x1F67 JUMP JUMPDEST SWAP2 POP PUSH2 0x29F4 DUP4 PUSH2 0x1F67 JUMP JUMPDEST SWAP3 POP DUP3 DUP3 LT ISZERO PUSH2 0x2A07 JUMPI PUSH2 0x2A06 PUSH2 0x2843 JUMP JUMPDEST JUMPDEST DUP3 DUP3 SUB SWAP1 POP SWAP3 SWAP2 POP POP JUMP JUMPDEST PUSH1 0x0 PUSH2 0x2A1D DUP3 PUSH2 0x1F67 JUMP JUMPDEST SWAP2 POP PUSH2 0x2A28 DUP4 PUSH2 0x1F67 JUMP JUMPDEST SWAP3 POP DUP3 PUSH32 0xFFFFFFFFFFFFFFFFFFFFFFFFFFFFFFFFFFFFFFFFFFFFFFFFFFFFFFFFFFFFFFFF SUB DUP3 GT ISZERO PUSH2 0x2A5D JUMPI PUSH2 0x2A5C PUSH2 0x2843 JUMP JUMPDEST JUMPDEST DUP3 DUP3 ADD SWAP1 POP SWAP3 SWAP2 POP POP JUMP JUMPDEST PUSH32 0x4552433732313A20617070726F766520746F2063616C6C657200000000000000 PUSH1 0x0 DUP3 ADD MSTORE POP JUMP JUMPDEST PUSH1 0x0 PUSH2 0x2A9E PUSH1 0x19 DUP4 PUSH2 0x1EB7 JUMP JUMPDEST SWAP2 POP PUSH2 0x2AA9 DUP3 PUSH2 0x2A68 JUMP JUMPDEST PUSH1 0x20 DUP3 ADD SWAP1 POP SWAP2 SWAP1 POP JUMP JUMPDEST PUSH1 0x0 PUSH1 0x20 DUP3 ADD SWAP1 POP DUP2 DUP2 SUB PUSH1 0x0 DUP4 ADD MSTORE PUSH2 0x2ACD DUP2 PUSH2 0x2A91 JUMP JUMPDEST SWAP1 POP SWAP2 SWAP1 POP JUMP JUMPDEST PUSH32 0x4552433732313A207472616E7366657220746F206E6F6E204552433732315265 PUSH1 0x0 DUP3 ADD MSTORE PUSH32 0x63656976657220696D706C656D656E7465720000000000000000000000000000 PUSH1 0x20 DUP3 ADD MSTORE POP JUMP JUMPDEST PUSH1 0x0 PUSH2 0x2B30 PUSH1 0x32 DUP4 PUSH2 0x1EB7 JUMP JUMPDEST SWAP2 POP PUSH2 0x2B3B DUP3 PUSH2 0x2AD4 JUMP JUMPDEST PUSH1 0x40 DUP3 ADD SWAP1 POP SWAP2 SWAP1 POP JUMP JUMPDEST PUSH1 0x0 PUSH1 0x20 DUP3 ADD SWAP1 POP DUP2 DUP2 SUB PUSH1 0x0 DUP4 ADD MSTORE PUSH2 0x2B5F DUP2 PUSH2 0x2B23 JUMP JUMPDEST SWAP1 POP SWAP2 SWAP1 POP JUMP JUMPDEST PUSH1 0x0 DUP2 SWAP1 POP SWAP3 SWAP2 POP POP JUMP JUMPDEST PUSH1 0x0 PUSH2 0x2B7C DUP3 PUSH2 0x1EAC JUMP JUMPDEST PUSH2 0x2B86 DUP2 DUP6 PUSH2 0x2B66 JUMP JUMPDEST SWAP4 POP PUSH2 0x2B96 DUP2 DUP6 PUSH1 0x20 DUP7 ADD PUSH2 0x1EC8 JUMP JUMPDEST DUP1 DUP5 ADD SWAP2 POP POP SWAP3 SWAP2 POP POP JUMP JUMPDEST PUSH1 0x0 PUSH2 0x2BAE DUP3 DUP6 PUSH2 0x2B71 JUMP JUMPDEST SWAP2 POP PUSH2 0x2BBA DUP3 DUP5 PUSH2 0x2B71 JUMP JUMPDEST SWAP2 POP DUP2 SWAP1 POP SWAP4 SWAP3 POP POP POP JUMP JUMPDEST PUSH32 0x45524337323155524953746F726167653A2055524920736574206F66206E6F6E PUSH1 0x0 DUP3 ADD MSTORE PUSH32 0x6578697374656E7420746F6B656E000000000000000000000000000000000000 PUSH1 0x20 DUP3 ADD MSTORE POP JUMP JUMPDEST PUSH1 0x0 PUSH2 0x2C22 PUSH1 0x2E DUP4 PUSH2 0x1EB7 JUMP JUMPDEST SWAP2 POP PUSH2 0x2C2D DUP3 PUSH2 0x2BC6 JUMP JUMPDEST PUSH1 0x40 DUP3 ADD SWAP1 POP SWAP2 SWAP1 POP JUMP JUMPDEST PUSH1 0x0 PUSH1 0x20 DUP3 ADD SWAP1 POP DUP2 DUP2 SUB PUSH1 0x0 DUP4 ADD MSTORE PUSH2 0x2C51 DUP2 PUSH2 0x2C15 JUMP JUMPDEST SWAP1 POP SWAP2 SWAP1 POP JUMP JUMPDEST PUSH1 0x0 DUP2 SWAP1 POP DUP2 PUSH1 0x0 MSTORE PUSH1 0x20 PUSH1 0x0 KECCAK256 SWAP1 POP SWAP2 SWAP1 POP JUMP JUMPDEST PUSH1 0x0 PUSH1 0x20 PUSH1 0x1F DUP4 ADD DIV SWAP1 POP SWAP2 SWAP1 POP JUMP JUMPDEST PUSH1 0x0 DUP3 DUP3 SHL SWAP1 POP SWAP3 SWAP2 POP POP JUMP JUMPDEST PUSH1 0x0 PUSH1 0x8 DUP4 MUL PUSH2 0x2CBA PUSH32 0xFFFFFFFFFFFFFFFFFFFFFFFFFFFFFFFFFFFFFFFFFFFFFFFFFFFFFFFFFFFFFFFF DUP3 PUSH2 0x2C7D JUMP JUMPDEST PUSH2 0x2CC4 DUP7 DUP4 PUSH2 0x2C7D JUMP JUMPDEST SWAP6 POP DUP1 NOT DUP5 AND SWAP4 POP DUP1 DUP7 AND DUP5 OR SWAP3 POP POP POP SWAP4 SWAP3 POP POP POP JUMP JUMPDEST PUSH1 0x0 DUP2 SWAP1 POP SWAP2 SWAP1 POP JUMP JUMPDEST PUSH1 0x0 PUSH2 0x2D01 PUSH2 0x2CFC PUSH2 0x2CF7 DUP5 PUSH2 0x1F67 JUMP JUMPDEST PUSH2 0x2CDC JUMP JUMPDEST PUSH2 0x1F67 JUMP JUMPDEST SWAP1 POP SWAP2 SWAP1 POP JUMP JUMPDEST PUSH1 0x0 DUP2 SWAP1 POP SWAP2 SWAP1 POP JUMP JUMPDEST PUSH2 0x2D1B DUP4 PUSH2 0x2CE6 JUMP JUMPDEST PUSH2 0x2D2F PUSH2 0x2D27 DUP3 PUSH2 0x2D08 JUMP JUMPDEST DUP5 DUP5 SLOAD PUSH2 0x2C8A JUMP JUMPDEST DUP3 SSTORE POP POP POP POP JUMP JUMPDEST PUSH1 0x0 SWAP1 JUMP JUMPDEST PUSH2 0x2D44 PUSH2 0x2D37 JUMP JUMPDEST PUSH2 0x2D4F DUP2 DUP5 DUP5 PUSH2 0x2D12 JUMP JUMPDEST POP POP POP JUMP JUMPDEST JUMPDEST DUP2 DUP2 LT ISZERO PUSH2 0x2D73 JUMPI PUSH2 0x2D68 PUSH1 0x0 DUP3 PUSH2 0x2D3C JUMP JUMPDEST PUSH1 0x1 DUP2 ADD SWAP1 POP PUSH2 0x2D55 JUMP JUMPDEST POP POP JUMP JUMPDEST PUSH1 0x1F DUP3 GT ISZERO PUSH2 0x2DB8 JUMPI PUSH2 0x2D89 DUP2 PUSH2 0x2C58 JUMP JUMPDEST PUSH2 0x2D92 DUP5 PUSH2 0x2C6D JUMP JUMPDEST DUP2 ADD PUSH1 0x20 DUP6 LT ISZERO PUSH2 0x2DA1 JUMPI DUP2 SWAP1 POP JUMPDEST PUSH2 0x2DB5 PUSH2 0x2DAD DUP6 PUSH2 0x2C6D JUMP JUMPDEST DUP4 ADD DUP3 PUSH2 0x2D54 JUMP JUMPDEST POP POP JUMPDEST POP POP POP JUMP JUMPDEST PUSH1 0x0 DUP3 DUP3 SHR SWAP1 POP SWAP3 SWAP2 POP POP JUMP JUMPDEST PUSH1 0x0 PUSH2 0x2DDB PUSH1 0x0 NOT DUP5 PUSH1 0x8 MUL PUSH2 0x2DBD JUMP JUMPDEST NOT DUP1 DUP4 AND SWAP2 POP POP SWAP3 SWAP2 POP POP JUMP JUMPDEST PUSH1 0x0 PUSH2 0x2DF4 DUP4 DUP4 PUSH2 0x2DCA JUMP JUMPDEST SWAP2 POP DUP3 PUSH1 0x2 MUL DUP3 OR SWAP1 POP SWAP3 SWAP2 POP POP JUMP JUMPDEST PUSH2 0x2E0D DUP3 PUSH2 0x1EAC JUMP JUMPDEST PUSH8 0xFFFFFFFFFFFFFFFF DUP2 GT ISZERO PUSH2 0x2E26 JUMPI PUSH2 0x2E25 PUSH2 0x21B2 JUMP JUMPDEST JUMPDEST PUSH2 0x2E30 DUP3 SLOAD PUSH2 0x24CC JUMP JUMPDEST PUSH2 0x2E3B DUP3 DUP3 DUP6 PUSH2 0x2D77 JUMP JUMPDEST PUSH1 0x0 PUSH1 0x20 SWAP1 POP PUSH1 0x1F DUP4 GT PUSH1 0x1 DUP2 EQ PUSH2 0x2E6E JUMPI PUSH1 0x0 DUP5 ISZERO PUSH2 0x2E5C JUMPI DUP3 DUP8 ADD MLOAD SWAP1 POP JUMPDEST PUSH2 0x2E66 DUP6 DUP3 PUSH2 0x2DE8 JUMP JUMPDEST DUP7 SSTORE POP PUSH2 0x2ECE JUMP JUMPDEST PUSH1 0x1F NOT DUP5 AND PUSH2 0x2E7C DUP7 PUSH2 0x2C58 JUMP JUMPDEST PUSH1 0x0 JUMPDEST DUP3 DUP2 LT ISZERO PUSH2 0x2EA4 JUMPI DUP5 DUP10 ADD MLOAD DUP3 SSTORE PUSH1 0x1 DUP3 ADD SWAP2 POP PUSH1 0x20 DUP6 ADD SWAP5 POP PUSH1 0x20 DUP2 ADD SWAP1 POP PUSH2 0x2E7F JUMP JUMPDEST DUP7 DUP4 LT ISZERO PUSH2 0x2EC1 JUMPI DUP5 DUP10 ADD MLOAD PUSH2 0x2EBD PUSH1 0x1F DUP10 AND DUP3 PUSH2 0x2DCA JUMP JUMPDEST DUP4 SSTORE POP JUMPDEST PUSH1 0x1 PUSH1 0x2 DUP9 MUL ADD DUP9 SSTORE POP POP POP JUMPDEST POP POP POP POP POP POP JUMP JUMPDEST PUSH1 0x0 DUP2 MLOAD SWAP1 POP SWAP2 SWAP1 POP JUMP JUMPDEST PUSH1 0x0 DUP3 DUP3 MSTORE PUSH1 0x20 DUP3 ADD SWAP1 POP SWAP3 SWAP2 POP POP JUMP JUMPDEST PUSH1 0x0 PUSH2 0x2EFD DUP3 PUSH2 0x2ED6 JUMP JUMPDEST PUSH2 0x2F07 DUP2 DUP6 PUSH2 0x2EE1 JUMP JUMPDEST SWAP4 POP PUSH2 0x2F17 DUP2 DUP6 PUSH1 0x20 DUP7 ADD PUSH2 0x1EC8 JUMP JUMPDEST PUSH2 0x2F20 DUP2 PUSH2 0x1EFB JUMP JUMPDEST DUP5 ADD SWAP2 POP POP SWAP3 SWAP2 POP POP JUMP JUMPDEST PUSH1 0x0 PUSH1 0x80 DUP3 ADD SWAP1 POP PUSH2 0x2F40 PUSH1 0x0 DUP4 ADD DUP8 PUSH2 0x1FFC JUMP JUMPDEST PUSH2 0x2F4D PUSH1 0x20 DUP4 ADD DUP7 PUSH2 0x1FFC JUMP JUMPDEST PUSH2 0x2F5A PUSH1 0x40 DUP4 ADD DUP6 PUSH2 0x2112 JUMP JUMPDEST DUP2 DUP2 SUB PUSH1 0x60 DUP4 ADD MSTORE PUSH2 0x2F6C DUP2 DUP5 PUSH2 0x2EF2 JUMP JUMPDEST SWAP1 POP SWAP6 SWAP5 POP POP POP POP POP JUMP JUMPDEST PUSH1 0x0 DUP2 MLOAD SWAP1 POP PUSH2 0x2F86 DUP2 PUSH2 0x1E1D JUMP JUMPDEST SWAP3 SWAP2 POP POP JUMP JUMPDEST PUSH1 0x0 PUSH1 0x20 DUP3 DUP5 SUB SLT ISZERO PUSH2 0x2FA2 JUMPI PUSH2 0x2FA1 PUSH2 0x1DE7 JUMP JUMPDEST JUMPDEST PUSH1 0x0 PUSH2 0x2FB0 DUP5 DUP3 DUP6 ADD PUSH2 0x2F77 JUMP JUMPDEST SWAP2 POP POP SWAP3 SWAP2 POP POP JUMP JUMPDEST PUSH32 0x4E487B7100000000000000000000000000000000000000000000000000000000 PUSH1 0x0 MSTORE PUSH1 0x12 PUSH1 0x4 MSTORE PUSH1 0x24 PUSH1 0x0 REVERT JUMPDEST PUSH1 0x0 PUSH2 0x2FF3 DUP3 PUSH2 0x1F67 JUMP JUMPDEST SWAP2 POP PUSH2 0x2FFE DUP4 PUSH2 0x1F67 JUMP JUMPDEST SWAP3 POP DUP3 PUSH2 0x300E JUMPI PUSH2 0x300D PUSH2 0x2FB9 JUMP JUMPDEST JUMPDEST DUP3 DUP3 DIV SWAP1 POP SWAP3 SWAP2 POP POP JUMP JUMPDEST PUSH1 0x0 PUSH2 0x3024 DUP3 PUSH2 0x1F67 JUMP JUMPDEST SWAP2 POP PUSH2 0x302F DUP4 PUSH2 0x1F67 JUMP JUMPDEST SWAP3 POP DUP3 PUSH2 0x303F JUMPI PUSH2 0x303E PUSH2 0x2FB9 JUMP JUMPDEST JUMPDEST DUP3 DUP3 MOD SWAP1 POP SWAP3 SWAP2 POP POP JUMP JUMPDEST PUSH32 0x4E487B7100000000000000000000000000000000000000000000000000000000 PUSH1 0x0 MSTORE PUSH1 0x32 PUSH1 0x4 MSTORE PUSH1 0x24 PUSH1 0x0 REVERT JUMPDEST PUSH32 0x4552433732313A206D696E7420746F20746865207A65726F2061646472657373 PUSH1 0x0 DUP3 ADD MSTORE POP JUMP JUMPDEST PUSH1 0x0 PUSH2 0x30AF PUSH1 0x20 DUP4 PUSH2 0x1EB7 JUMP JUMPDEST SWAP2 POP PUSH2 0x30BA DUP3 PUSH2 0x3079 JUMP JUMPDEST PUSH1 0x20 DUP3 ADD SWAP1 POP SWAP2 SWAP1 POP JUMP JUMPDEST PUSH1 0x0 PUSH1 0x20 DUP3 ADD SWAP1 POP DUP2 DUP2 SUB PUSH1 0x0 DUP4 ADD MSTORE PUSH2 0x30DE DUP2 PUSH2 0x30A2 JUMP JUMPDEST SWAP1 POP SWAP2 SWAP1 POP JUMP JUMPDEST PUSH32 0x4552433732313A20746F6B656E20616C7265616479206D696E74656400000000 PUSH1 0x0 DUP3 ADD MSTORE POP JUMP JUMPDEST PUSH1 0x0 PUSH2 0x311B PUSH1 0x1C DUP4 PUSH2 0x1EB7 JUMP JUMPDEST SWAP2 POP PUSH2 0x3126 DUP3 PUSH2 0x30E5 JUMP JUMPDEST PUSH1 0x20 DUP3 ADD SWAP1 POP SWAP2 SWAP1 POP JUMP JUMPDEST PUSH1 0x0 PUSH1 0x20 DUP3 ADD SWAP1 POP DUP2 DUP2 SUB PUSH1 0x0 DUP4 ADD MSTORE PUSH2 0x314A DUP2 PUSH2 0x310E JUMP JUMPDEST SWAP1 POP SWAP2 SWAP1 POP JUMP INVALID LOG2 PUSH5 0x6970667358 0x22 SLT KECCAK256 DUP2 DUP12 SWAP15 DUP9 DUP16 PUSH10 0x776635AA158D8F7D20F2 PUSH25 0xC300E3DAB4CB96E30EBEB2FA63203B64736F6C634300080F00 CALLER "},"gasEstimates":{"creation":{"codeDepositCost":"2535800","executionCost":"infinite","totalCost":"infinite"},"external":{"approve(address,uint256)":"33915","balanceOf(address)":"2899","burnByDeleting(uint256)":"infinite","burnByTransfering(uint256)":"infinite","getApproved(uint256)":"5257","isApprovedForAll(address,address)":"infinite","name()":"infinite","owner()":"2559","ownerOf(uint256)":"3045","safeMint(address,string)":"infinite","safeTransferFrom(address,address,uint256)":"infinite","safeTransferFrom(address,address,uint256,bytes)":"infinite","setApprovalForAll(address,bool)":"infinite","supportsInterface(bytes4)":"797","symbol()":"infinite","tokenURI(uint256)":"infinite","transferFrom(address,address,uint256)":"infinite"},"internal":{"_burn(uint256)":"infinite"}},"methodIdentifiers":{"approve(address,uint256)":"095ea7b3","balanceOf(address)":"70a08231","burnByDeleting(uint256)":"25a293c3","burnByTransfering(uint256)":"9f987244","getApproved(uint256)":"081812fc","isApprovedForAll(address,address)":"e985e9c5","name()":"06fdde03","owner()":"8da5cb5b","ownerOf(uint256)":"6352211e","safeMint(address,string)":"d204c45e","safeTransferFrom(address,address,uint256)":"42842e0e","safeTransferFrom(address,address,uint256,bytes)":"b88d4fde","setApprovalForAll(address,bool)":"a22cb465","supportsInterface(bytes4)":"01ffc9a7","symbol()":"95d89b41","tokenURI(uint256)":"c87b56dd","transferFrom(address,address,uint256)":"23b872dd"}},"storageLayout":{"storage":[{"astId":392,"contract":"SmartContract.sol:NFTCreation","label":"_name","offset":0,"slot":"0","type":"t_string_storage"},{"astId":394,"contract":"SmartContract.sol:NFTCreation","label":"_symbol","offset":0,"slot":"1","type":"t_string_storage"},{"astId":398,"contract":"SmartContract.sol:NFTCreation","label":"_owners","offset":0,"slot":"2","type":"t_mapping(t_uint256,t_address)"},{"astId":402,"contract":"SmartContract.sol:NFTCreation","label":"_balances","offset":0,"slot":"3","type":"t_mapping(t_address,t_uint256)"},{"astId":406,"contract":"SmartContract.sol:NFTCreation","label":"_tokenApprovals","offset":0,"slot":"4","type":"t_mapping(t_uint256,t_address)"},{"astId":412,"contract":"SmartContract.sol:NFTCreation","label":"_operatorApprovals","offset":0,"slot":"5","type":"t_mapping(t_address,t_mapping(t_address,t_bool))"},{"astId":1251,"contract":"SmartContract.sol:NFTCreation","label":"_tokenURIs","offset":0,"slot":"6","type":"t_mapping(t_uint256,t_string_storage)"},{"astId":1367,"contract":"SmartContract.sol:NFTCreation","label":"_tokenIdCounter","offset":0,"slot":"7","type":"t_uint256"},{"astId":1369,"contract":"SmartContract.sol:NFTCreation","label":"owner","offset":0,"slot":"8","type":"t_address"}],"types":{"t_address":{"encoding":"inplace","label":"address","numberOfBytes":"20"},"t_bool":{"encoding":"inplace","label":"bool","numberOfBytes":"1"},"t_mapping(t_address,t_bool)":{"encoding":"mapping","key":"t_address","label":"mapping(address => bool)","numberOfBytes":"32","value":"t_bool"},"t_mapping(t_address,t_mapping(t_address,t_bool))":{"encoding":"mapping","key":"t_address","label":"mapping(address => mapping(address => bool))","numberOfBytes":"32","value":"t_mapping(t_address,t_bool)"},"t_mapping(t_address,t_uint256)":{"encoding":"mapping","key":"t_address","label":"mapping(address => uint256)","numberOfBytes":"32","value":"t_uint256"},"t_mapping(t_uint256,t_address)":{"encoding":"mapping","key":"t_uint256","label":"mapping(uint256 => address)","numberOfBytes":"32","value":"t_address"},"t_mapping(t_uint256,t_string_storage)":{"encoding":"mapping","key":"t_uint256","label":"mapping(uint256 => string)","numberOfBytes":"32","value":"t_string_storage"},"t_string_storage":{"encoding":"bytes","label":"string","numberOfBytes":"32"},"t_uint256":{"encoding":"inplace","label":"uint256","numberOfBytes":"32"}}},"userdoc":{"kind":"user","methods":{},"version":1}}